:100000000C94DE020C9406030C9406030C94060375
:100010000C9406030C9406030C9406030C9406033C
:100020000C9406030C9406030C9406030C9406032C
:100030000C9406030C9406030C9406030C9406031C
:100040000C94F30D0C9406030C94F4070C94CE0757
:100050000C9406030C9406030C9406030C940603FC
:100060000C9406030C940603050800FF0C4B0000DB
:100070000000003E5B4F5B3E3E6B4F6B3E1C3E7C88
:100080003E1C183C7E3C181C577D571C1C5E7F5E36
:100090001C00183C1800FFE7C3E7FF0018241800F5
:1000A000FFE7DBE7FF30483A060E2629792926408C
:1000B0007F050507407F05253F5A3CE73C5A7F3EB8
:1000C0001C1C08081C1C3E7F14227F22145F5F004A
:1000D0005F5F06097F017F006689956A60606060E6
:1000E0006094A2FFA29408047E040810207E2010D1
:1000F00008082A1C08081C2A08081E101010100CDA
:100100001E0C1E0C30383E3830060E3E0E06000027
:1001100000000000005F00000007000700147F14CB
:100120007F14242A7F2A122313086462364956203A
:10013000500008070300001C2241000041221C005F
:100140002A1C7F1C2A08083E08080080703000081E
:1001500008080808000060600020100804023E51F2
:1001600049453E00427F4000724949494621414984
:100170004D331814127F1027454545393C4A4949EB
:100180003141211109073649494936464949291E55
:100190000000140000004034000000081422411444
:1001A00014141414004122140802015909063E4196
:1001B0005D594E7C1211127C7F494949363E4141BE
:1001C00041227F4141413E7F494949417F09090917
:1001D000013E414151737F0808087F00417F410083
:1001E0002040413F017F081422417F404040407F32
:1001F000021C027F7F0408107F3E4141413E7F097F
:100200000909063E4151215E7F09192946264949BF
:10021000493203017F01033F4040403F1F204020FF
:100220001F3F4038403F63140814630304780403FD
:100230006159494D43007F414141020408102000AB
:100240004141417F0402010204404040404000031C
:1002500007080020545478407F28444438384444E8
:100260004428384444287F385454541800087E09E0
:100270000218A4A49C787F0804047800447D400000
:100280002040403D007F1028440000417F40007C1A
:10029000047804787C080404783844444438FC1812
:1002A00024241818242418FC7C08040408485454F6
:1002B000542404043F44243C4040207C1C20402023
:1002C0001C3C4030403C44281028444C9090907C8A
:1002D0004464544C4400083641000000770000009C
:1002E0004136080002010204023C2623263C1EA1DE
:1002F000A161123A4040207A38545455592155553D
:1003000079412154547841215554784020545579ED
:10031000400C1E527212395555555939545454597E
:1003200039555454580000457C410002457D420037
:1003300001457C40F0292429F0F0282528F07C5440
:100340005545002054547C547C0A097F4932494960
:1003500049323248484832324A4848303A414121CD
:100360007A3A42402078009DA0A07D394444443927
:100370003D4040403D3C24FF2424487E4943662BB9
:100380002FFC2F2BFF0929F620C0887E090320545B
:100390005479410000447D413048484A3238404059
:1003A000227A007A0A0A727D0D19317D2629292FB9
:1003B00028262929292630484D40203808080808D1
:1003C00008080808382F10C8ACBA2F102834FA00D3
:1003D000007B000008142A142222142A1408AA0000
:1003E0005500AAAA55AA55AA000000FF0010101037
:1003F000FF00141414FF001010FF00FF1010F01085
:10040000F0141414FC001414F700FF0000FF00FFA8
:100410001414F404FC141417101F10101F101F14D0
:1004200014141F00101010F0000000001F10101016
:10043000101F10101010F010000000FF101010100E
:100440001010101010FF10000000FF140000FF003B
:10045000FF00001F10170000FC04F41414171017FD
:100460001414F404F40000FF00F71414141414140A
:1004700014F700F7141414171410101F101F14147D
:1004800014F4141010F010F000001F101F000000F2
:100490001F14000000FC140000F010F01010FF10FA
:1004A000FF141414FF141010101F00000000F010AF
:1004B000FFFFFFFFFFF0F0F0F0F0FFFFFF00000094
:1004C0000000FFFF0F0F0F0F0F38444438447C2A01
:1004D0002A3E147E02020606027E027E026355490F
:1004E00041633844443C04407E201E2006027E02C4
:1004F0000299A5E7A5991C2A492A1C4C7201724C45
:10050000304A4D4D303048784830BC625A463D3E06
:10051000494949007E0101017E2A2A2A2A2A4444A7
:100520005F444440514A444040444A51400000FF27
:100530000103E080FF000008086B6B0836123624C8
:1005400036060F090F0600001818000000101000F2
:100550003040FF0101001F01011E00191D1712008C
:100560003C3C3C3C00000000000000000800020190
:10057000000003040700000000000000000000006D
:1005800000250028002B0000000000240027002A7E
:10059000000404040404040404020202020202032C
:1005A0000303030303010204081020408001020436
:1005B000081020010204081020009B1E11241FBEF9
:1005C000CFEFD8E0DEBFCDBF11E0A0E0B1E0E8E6BC
:1005D000F1E402C005900D92A43CB107D9F724E0E4
:1005E000A4ECB1E001C01D92A531B207E1F712E021
:1005F000CEEDD2E004C02197FE010E94A720CD3DA0
:10060000D107C9F70E94BF1A0C94B2200C940000C5
:10061000FC01538D448D252F30E0842F90E0821B08
:10062000930B541710F0CF96089501970895FC018D
:10063000918D828D981761F0828DDF01A80FB11D19
:100640005D968C91928D9F5F9F73928F90E008953D
:100650008FEF9FEF0895FC01918D828D981731F0F7
:10066000828DE80FF11D858D90E008958FEF9FEF4B
:100670000895FC01918D228D892F90E0805C9F4F21
:10068000821B91098F739927089588E293E00E9455
:10069000390321E0892B09F420E0822F0895FC0121
:1006A000848DDF01A80FB11DA35ABF4F2C91848DFB
:1006B00090E001968F739927848FA689B7892C9330
:1006C000A089B1898C91837080648C93938D848D83
:1006D000981306C00288F389E02D80818F7D808386
:1006E0000895EF92FF920F931F93CF93DF93EC0146
:1006F00081E0888F9B8D8C8D981305C0E889F989DE
:10070000808185FD26C0F62E0B8D10E00F5F1F4FF8
:100710000F731127E02E8C8DE8120CC00FB607FC6A
:10072000FACFE889F989808185FFF5CFCE010E9453
:100730004F03F1CF8B8DFE01E80FF11DE35AFF4F00
:10074000F0829FB7F8940B8FEA89FB8980818062E1
:100750000AC09FB7F894EE89FF896083E889F98918
:1007600080818370806480839FBF81E090E0DF910F
:10077000CF911F910F91FF90EF900895CF93DF934A
:10078000EC01888D8823C9F0EA89FB89808185FD89
:1007900005C0A889B9898C9186FD0FC00FB607FCEA
:1007A000F5CF808185FFF2CFA889B9898C9185FF2B
:1007B000EDCFCE010E944F03E7CFDF91CF91089597
:1007C00080E090E0892B29F00E94450381110C9470
:1007D00000000895DC01FB01118210821582148251
:1007E00014968D919C9115979383828316968D9183
:1007F0009C9117979783868310861186128613869D
:100800001486158616861786108A118A128A138A0C
:10081000148A158A168A178A118E108E138E128EDC
:10082000158E148E168E178E10A211A212A213A26C
:1008300014A215A216A217A210A611A612A613A6FC
:1008400017AA16AA1896ED91FC91199715A614A649
:1008500081E090E0A0E0B0E086A797A7A0ABB1ABA5
:1008600012AA13AA14AA15AA08952F923F924F9282
:100870005F926F927F928F929F92AF92BF92CF9230
:10088000DF92EF92FF920F931F93CF93DF9300D0ED
:1008900000D01F92CDB7DEB75B834A83FA01118285
:1008A000108288E792E09383828388ED91E09583BC
:1008B000848380E090E0A0EAB0E486839783A087F9
:1008C000B18780E090E0A0E0B1E482879387A487BD
:1008D000B5876D3011F06A3029F481E0EA81FB813F
:1008E000838B03C0EA81FB81138A80EE860F8F35EC
:1008F00008F074C08A819B819D838C8381E0EC81A8
:10090000FD81828BF5E06F9FB0011124EC81FD81A8
:1009100016861786108A118A00E010E0812C912C2F
:100920005B01F6E0AF0EB11C402EF501E00FF11FA8
:10093000E859FF4FE491E12CF12C2E2E312C512C53
:10094000612C712CE982C1010E2C02C0959587950E
:100950000A94E2F780FF33C0EC81FD81868597859C
:10096000A089B1890196A11DB11D86879787A08BAB
:10097000B18B6401CC0CDD1CCC0CDD1CC60188588D
:100980009D4F9B838A83C301B2010E949B1FEA8112
:10099000FB816083718382839383C60188529E4F5B
:1009A0006C016E2D70E080E090E00E949B1FF601CC
:1009B0006083718382839383FFEF8F1A9F0A2FEFE7
:1009C000E21AF20A88E0E816F10409F0BBCF0F5FE3
:1009D0001F4F0530110509F0A7CF03C0EA81FB8145
:1009E000128A0F900F900F900F900F90DF91CF9180
:1009F0001F910F91FF90EF90DF90CF90BF90AF903D
:100A00009F908F907F906F905F904F903F902F902E
:100A100008952F923F924F925F926F927F928F92A2
:100A20009F92AF92BF92CF92DF92EF92FF920F937D
:100A30001F93CF93DF93CDB7DEB760970FB6F894CF
:100A4000DEBF0FBECDBF3C017A8369835C834B83DD
:100A50003C872B871E870D87F88AEF86212C312C47
:100A60002101D601C501AA27BB278F839887A987B3
:100A7000BA87882009F452C0AB81BC812D853E85A0
:100A80002A173B0708F48EC089809A808B859C8545
:100A900088159905B0F1D301ED91FC910084F185A1
:100AA000E02DA20191016F857889C30109959E838C
:100AB0008D83C201B1016F5F7F4F8F4F9F4F2F8199
:100AC000388549855A850E9466201B012C014424E3
:100AD0005524D301ED91FC910484F585E02DA12CE2
:100AE000B12C6501E12CF12C8701E3942D813E812D
:100AF0004B815C81B401C3010995BFEF8B1A9B0A3E
:100B0000C5CF2B813C812F5F3F4F3C832B83B4CFDC
:100B100029813A812F5F3F4F3A83298389819A81C6
:100B2000AB85BC85A817B907E8F18B809C802D8523
:100B30003E852815390560F3D301ED91FC910084C1
:100B4000F185E02DA20191016F857889C301099596
:100B50009E838D83C201B1016F5F7F4F8F4F9F4F87
:100B60002F81388549855A850E9466201B012C01FA
:100B700044245524D301ED91FC910484F585E02DA6
:100B8000A12CB12C6501E12CF12C8701E3942D817E
:100B90003E81A40169817A81C3010995BFEF8B1A57
:100BA0009B0AC5CF60960FB6F894DEBF0FBECDBFCF
:100BB000DF91CF911F910F91FF90EF90DF90CF9039
:100BC000BF90AF909F908F907F906F905F904F906D
:100BD0003F902F9008952F923F924F925F926F9285
:100BE0007F928F929F92AF92BF92CF92DF92EF92BD
:100BF000FF920F931F93CF93DF93CDB7DEB72A9762
:100C00000FB6F894DEBF0FBECDBFC114D104E1040E
:100C1000F10409F4ACC0260137011E830D8379016C
:100C20008A017A8769871C01D301C201AA27BB27E1
:100C300089839A83AB83BC83C501B4018827992734
:100C400029813A814B815C810E9466202B013C0105
:100C500066247724D101ED91FC910084F185E02D8B
:100C6000A30192016D817E81C10109952F8D2223FF
:100C700009F43FC098012E193F0938872F83480196
:100C8000AF81B8858A169B0609F471C0D101ED9138
:100C9000FC910484F585E02DA12CB12C6501E12C9B
:100CA000F12C8701E3949C01A40169857A85C10137
:100CB0000995C301B2016F5F7F4F8F4F9F4F29810D
:100CC0003A814B815C810E9466202B013C016624A5
:100CD0007724D101ED91FC910084F185E02DA301F1
:100CE00092016D817E81C1010995B1E08B1A910855
:100CF000C7CF9701200F311F38872F834801AF815D
:100D0000B8858A169B0699F1D101ED91FC91048476
:100D1000F585E02DA12CB12C6501E12CF12C87018A
:100D2000E3949C01A40169857A85C1010995C301F9
:100D3000B2016F5F7F4F8F4F9F4F29813A814B8167
:100D40005C810E9466202B013C0166247724D1013E
:100D5000ED91FC910084F185E02DA30192016D815C
:100D60007E81C1010995BFEF8B1A9B0AC8CF2A96D5
:100D70000FB6F894DEBF0FBECDBFDF91CF911F91AC
:100D80000F91FF90EF90DF90CF90BF90AF909F902A
:100D90008F907F906F905F904F903F902F9008952D
:100DA0002F923F924F925F926F927F928F929F927B
:100DB000AF92BF92CF92DF92EF92FF920F931F9369
:100DC000CF93DF93CDB7DEB72A970FB6F894DEBF87
:100DD0000FBECDBFC114D104E104F10409F4ACC0CD
:100DE000260137011E830D8379015A8749878B01BC
:100DF0001C01D301C201AA27BB2789839A83AB8335
:100E0000BC83C501B4018827992729813A814B8188
:100E10005C810E9466202B013C0166247724D1016D
:100E2000ED91FC910084F185E02DA30192016D818B
:100E30007E81C10109952F8D222309F43FC09801BD
:100E40002E193F0938872F834801AF81B8858A164C
:100E50009B0609F471C0D101ED91FC910484F585E4
:100E6000E02DA12CB12C6501E12CF12C8701E3943C
:100E70009C0149855A85B401C1010995C301B2019C
:100E80006F5F7F4F8F4F9F4F29813A814B815C81EC
:100E90000E9466202B013C0166247724D101ED914C
:100EA000FC910084F185E02DA30192016D817E818A
:100EB000C1010995B1E08B1A9108C7CF9701200FA6
:100EC000311F38872F834801AF81B8858A169B066A
:100ED00099F1D101ED91FC910484F585E02DA12CCF
:100EE000B12C6501E12CF12C8701E3949C0149852B
:100EF0005A85B401C1010995C301B2016F5F7F4FEB
:100F00008F4F9F4F29813A814B815C810E946620DF
:100F10002B013C0166247724D101ED91FC910084E2
:100F2000F185E02DA30192016D817E81C1010995BA
:100F3000BFEF8B1A9B0AC8CF2A960FB6F894DEBF74
:100F40000FBECDBFDF91CF911F910F91FF90EF901A
:100F5000DF90CF90BF90AF909F908F907F906F90D9
:100F60005F904F903F902F900895089580E090E01B
:100F700008956115710579F0FB0101900020E9F7F2
:100F80003197AF01461B570BDC01ED91FC910280BC
:100F9000F381E02D099480E090E008951F920F9274
:100FA0000FB60F9211242F933F934F935F936F933C
:100FB0007F938F939F93AF93BF93EF93FF9388E2B9
:100FC00093E00E944F03FF91EF91BF91AF919F91EA
:100FD0008F917F916F915F914F913F912F910F90E2
:100FE0000FBE0F901F9018951F920F920FB60F9281
:100FF00011242F938F939F93EF93FF93E0913803E6
:10100000F09139038081E0913E03F0913F0382FD2E
:1010100012C09081809141038F5F8F7320914203B2
:10102000821751F0E0914103F0E0E85DFC4F958FAD
:101030008093410301C08081FF91EF919F918F9137
:101040002F910F900FBE0F901F9018958F929F9227
:10105000AF92BF92CF92DF92EF92FF920F931F93C6
:10106000CF93DF936115710509F491C0EA016B011B
:101070007C01FC0100851185F8012223E9F16481DE
:10108000758180E090E00E949B1FF60120813181F4
:10109000428153810E94F41E4B015C0120E030E04C
:1010A000A9010E94601F87FF04C01982188291E085
:1010B00007C0C501B4010E946C1F7983688390E06A
:1010C000F80126813781488159812417350720F49A
:1010D0003983288381E001C080E0F80124813581D3
:1010E000488159814217530718F43983288391E0C6
:1010F000F701268137813CC06081718180E090E0FA
:101100000E949B1FF60120813181428153810E9400
:10111000F41E4B015C0120E030E0A9010E94601F39
:1011200087FF04C01982188291E007C0C501B4018D
:101130000E946C1F7983688390E0F80122813381DB
:10114000488159812417350720F43983288381E0A9
:1011500001C080E0F8012081318148815981421726
:10116000530718F43983288391E0F70124813581EE
:10117000488159814217530728F02150310939839A
:10118000288308C0811106C0892F90E005C083E044
:1011900090E002C082E090E0DF91CF911F910F912B
:1011A000FF90EF90DF90CF90BF90AF909F908F9087
:1011B00008952F923F924F925F926F927F928F92FB
:1011C0009F92AF92BF92CF92DF92EF92FF920F93D6
:1011D0001F93CF93DF93CDB7DEB72C970FB6F8945C
:1011E000DEBF0FBECDBF4C01DC01ED91FC91068846
:1011F000F789E02D44EC51E00995F4010085118553
:10120000D80112966D917C9113978D919C91681BDA
:10121000790B80E090E00E949B1F2091CA013091E1
:10122000CB014091CC015091CD010E94F31EF801F9
:1012300020853185428553850E94601F87FF3DC010
:10124000C090CE01D090CF01E090D001F090D101BC
:10125000D8011C964D905D906D907C901F971696CE
:101260006D917C91179714968D919C911597681BA1
:10127000790B80E090E00E949B1FA70196010E94DD
:10128000F31EA30192010E94601F87FDCCC0F801EC
:1012900080899189A289B38980879187A287B38742
:1012A000A3019201C701B6010E94F41ED8011C9649
:1012B0006D937D938D939C931F978091D601882386
:1012C00009F4A3C0612C712C212C312C21018091B7
:1012D000D2019091D301A091D401B091D501F40134
:1012E00000851185281639064A065B0608F06CC091
:1012F000E091C801F091C901E60DF71DD8011C96D7
:101300002D913D914D915C911F97608171818281FA
:1013100093810E94F41E6B017C01E091C601F09163
:10132000C701E60DF71DD80118962D913D914D91FD
:101330005C911B9760817181828193810E94F41E70
:101340006D837E838F839887C982DA82EB82FC82E9
:1013500020E0AE01455F5F4FBE016B5F7F4FC40170
:101360000E9426088C0121E0AE01475F5F4FBE015D
:101370006F5F7F4FC4010E942608012BE1F4892B87
:10138000D1F4D4011896ED91FC911997A2A8B3A8B5
:10139000C4A8D5A8E6A4F7A400A911A924A535A539
:1013A00049855A856B857C85ED91FC910484F58592
:1013B000E02DC4010995BFEF2B1A3B0A4B0A5B0ACB
:1013C000E4E06E0E711C83CF20E030E040E85FE384
:1013D0006091CA017091CB018091CC019091CD01B7
:1013E0000E94F41E9B01AC01D80118966D917D916D
:1013F0008D919C911B970E94F41EF8016087718764
:101400008287938781E090E002C080E090E0F40161
:10141000A085B18524E1E4ECF1E0589601900D92AD
:101420002A95E1F702C080E090E02C960FB6F89480
:10143000DEBF0FBECDBFDF91CF911F910F91FF9007
:10144000EF90DF90CF90BF90AF909F908F907F9064
:101450006F905F904F903F902F9008950F931F9340
:10146000CF93DF93FB01EA0137FD0DC0C901B8013D
:10147000640F751F811D911D9F0140E050E00E9487
:101480006620CB0115C088279927DC01801B910BB2
:10149000A20BB30B0E945220C817D90710F09E016F
:1014A00004C0BE016E0F7F1F9B01281B390BC901B1
:1014B000DF91CF911F910F9108952F923F924F92FC
:1014C0005F926F927F928F929F92AF92BF92CF92D4
:1014D000DF92EF92FF920F931F93CF93DF93CDB7DD
:1014E000DEB768970FB6F894DEBF0FBECDBF1C0104
:1014F0007E876D875E834D83388F2F8B18870F8390
:10150000DA86C98689829A82AB82BC82B9A829818F
:101510003A814B815C81211531054105510509F462
:101520002FC2442755272F87388B498B5A8B8DA57F
:101530009EA5AFA5B8A9BC01CD01882799270E9417
:1015400066206B8B7C8B8D8B9E8B2B013C016624E4
:1015500077248F89988D4D855E85841B950BDC01E2
:101560001196BC87AB87D101ED91FC91EE2009F477
:10157000E7C00084F185E02DA3019201B601C1010D
:1015800009952AA9222309F48AC0BB2009F444C082
:101590002D813E814F8158854217530708F4F0C1D1
:1015A000D101ED91FC91B1E0BF930684F785E02D68
:1015B000812C912C5401C12CD12C7601C3948C0127
:1015C0002B853C854F8158856F89788DC1010995A0
:1015D000C301B2016F5F7F4F8F4F9F4F2F853889B7
:1015E00049895A890E9466202B013C016624772490
:1015F000D101ED91FC910084F185E02DA3019201D0
:1016000069857A85C10109952F8138852150310975
:1016100038872F830F90BCCF4F815885AD81BE8115
:101620004A175B0708F4ACC1D101ED91FC911F9200
:101630000684F785E02D812C912C5401C12CD12CEE
:101640007601C3948C012B853C854D815E816D852F
:101650007E85C1010995C301B2016F5F7F4F8F4F36
:101660009F4F2F85388949895A890E9466202B010E
:101670003C0166247724D101ED91FC910084F18531
:10168000E02DA301920169857A85C10109952D811B
:101690003E812F5F3F4F3E832D830F90BDCFBB20F8
:1016A00041F14D815E818F8198858417950708F4FB
:1016B00067C1D101ED91FC91B1E0BF930684F7853C
:1016C000E02D53014201C980DA80EB80FC8009855E
:1016D0001A852B853C854F8158856F89788DC1018E
:1016E00009952F8138852150310938872F830F9034
:1016F000D8CF4F8158858D819E814817590708F4AE
:101700003FC1D101ED91FC911F920684F785E02D38
:1017100053014201C980DA80EB80FC8009851A857B
:101720002B853C854D815E816D857E85C101099546
:101730002D813E812F5F3F4F3E832D830F90D9CF68
:101740008F8198854D815E81841B950BDC011197FB
:10175000B88BAF87BB2009F486C04F5F5F4F1F92E5
:101760000088F189E02D53014201C980DA80EB80C5
:10177000FC8009851A852F8538896D857E85C10194
:1017800009952F8538892901612C712C93018201DB
:101790004B895C8969817A81C1010E942E0A9C8BE8
:1017A0008B8B4C01A12CB12CD101ED91FC911F929E
:1017B0000684F785E02DC980DA80EB80FC800985FE
:1017C0001A852B853C854F8158856D857E85C101A5
:1017D00009954B855C858A0120E030E04B895C8966
:1017E00069817A81C1010E942E0A9E878D874C01F2
:1017F000A12CB12C4F81588541505109D101ED9157
:10180000FC91B1E0BF930088F189E02DC980DA80B6
:10181000EB80FC8009851A852F8538896F89788D42
:10182000C1010995930182014D855E8569817A81A7
:10183000C1010E942E0A4C01A12CB12CD101ED91C5
:10184000FC91B1E0BF930684F785E02DC980DA8072
:10185000EB80FC8009851A852B853C854D815E8156
:101860006F89788D87C01F920684F785E02D53011C
:101870004201C980DA80EB80FC8009851A852B85BE
:101880003C854D815E816D857E85C10109952B85E5
:101890003C852901612C712C930182014B895C8963
:1018A00069817A81C1010E942E0A9C8B8B8B4C012D
:1018B000A12CB12C4D815E814F5F5F4FD101ED9125
:1018C000FC911F920088F189E02DC980DA80EB80BD
:1018D000FC8009851A852F8538896F89788DC1012B
:1018E00009954F8558898A0120E030E04B895C8951
:1018F00069817A81C1010E942E0A9E838D834C01E9
:10190000A12CB12CD101ED91FC91B1E0BF930684E3
:10191000F785E02DC980DA80EB80FC8009851A8587
:101920002B853C854F8158856F89788DC10109953C
:10193000930182014D815E8169817A81C1010E949A
:101940002E0A4C01A12CB12C4F81588541505109D0
:10195000D101ED91FC91B1E0BF930088F189E02DB8
:10196000C980DA80EB80FC8009851A852F8538894B
:101970006D857E85C10109950F900F900F900F9096
:1019800068960FB6F894DEBF0FBECDBFDF91CF9142
:101990001F910F91FF90EF90DF90CF90BF90AF908D
:1019A0009F908F907F906F905F904F903F902F907F
:1019B0000895FC0120812EBD9B012150310941F089
:1019C00051810DB407FEFDCF4EB55EBD4193F5CFFD
:1019D00061507109FC01E60FF71F0DB407FEFDCF42
:1019E0008EB580830895222371F0FB01460F571FA7
:1019F000E417F50779F081918EBD00000DB407FE64
:101A0000FDCF8EB5F5CF4115510521F0CB01BA01BF
:101A10000E94D90C80E090E00895CF93DF9300D02E
:101A200000D000D0CDB7DEB72BE230E03E832D836F
:101A300079836A835B834C83DC01ED91FC91019097
:101A4000F081E02D24E030E0AE014F5F5F4FBE013A
:101A50006B5F7F4F099526960FB6F894DEBF0FBED9
:101A6000CDBFDF91CF910895CF93DF9300D000D009
:101A700000D0CDB7DEB72AE230E03E832D837983F4
:101A80006A835B834C83DC01ED91FC910190F081D2
:101A9000E02D24E030E0AE014F5F5F4FBE016B5F91
:101AA0007F4F099526960FB6F894DEBF0FBECDBFC7
:101AB000DF91CF91089508958CBD9DBD0895CF927B
:101AC000DF92EF92FF920F931F93CF93DF93EC017E
:101AD0006B018A0179010E94AE128B859C850E9460
:101AE0005C0DC114D10461F060E08E810E9461122E
:101AF000F60180818EBD00000DB407FEFDCF8EB5CE
:101B00000115110589F0E114F10471F061E08E8195
:101B10000E946112E881F9810680F781E02D21E0C1
:101B2000A701B801CE010995CE010E94B61280E04E
:101B300090E0DF91CF911F910F91FF90EF90DF9098
:101B4000CF900895CF92DF92EF92FF920F931F9361
:101B5000CF93DF936C017A018B01C0E0D0E0CE150A
:101B6000DF0581F0D8016D918D01D601ED91FC91D9
:101B70000190F081E02DC6010995892B11F0219685
:101B8000EECF7E01C701DF91CF911F910F91FF90A2
:101B9000EF90DF90CF9008950E94AD203FB7F8946A
:101BA0008091240390912503A0912603B0912703EF
:101BB00026B5A89B05C02F3F19F00196A11DB11DA8
:101BC0003FBFBA2FA92F982F8827820F911DA11DE3
:101BD000B11DBC01CD0142E0660F771F881F991F20
:101BE0004A95D1F708951F920F920FB60F921124C4
:101BF0002F933F938F939F93AF93BF938091200335
:101C000090912103A0912203B091230330911F03EF
:101C100023E0230F2D3720F40196A11DB11D05C02F
:101C200026E8230F0296A11DB11D20931F03809368
:101C3000200390932103A0932203B0932303809168
:101C4000240390912503A0912603B09127030196C8
:101C5000A11DB11D8093240390932503A093260317
:101C6000B0932703BF91AF919F918F913F912F9197
:101C70000F900FBE0F901F9018952F923F924F928A
:101C80005F926F927F928F929F92AF92BF92CF920C
:101C9000DF92EF92FF920F931F93CF93DF93CDB715
:101CA000DEB7A4970FB6F894DEBF0FBECDBF698331
:101CB0007A838B839C832D833E834F835887A98AA5
:101CC000BA8ACB8ADC8A9E8A8D8AC601B5010E94B7
:101CD000F31E0E946C1F6D877E878F87988B2981EA
:101CE0003A814B815C81C801B7010E94F31E0E94BA
:101CF000651F97FF0AC090958095709561957F4FFD
:101D00008F4F9F4FFF24FA9402C0FF24F3949B014E
:101D1000AC01220F331F441F551F29873A874B8779
:101D20005C8729013A014D855E85441A550A610890
:101D3000710869817A818B819C810E946C1F7A83F2
:101D400069836D817E818F8198850E946C1F1B0144
:101D50008D859E85880F991F9C0140E050E02F8B58
:101D6000388F498F5A8F00E010E04F2DFF0C550B34
:101D70005CA34BA3B10180E090E00E949B1F9B01FC
:101D8000AC0169897A898B899C890E944D2018163B
:101D90000CF06EC00F5F1F4F1414150416041704C7
:101DA0000CF05AC0C801A0E0B0E08D839E83AF83E1
:101DB000B887BC01CD010E949B1F6B8F7C8F8D8FDC
:101DC0009E8FB1016F5F7F4F601B710B80E090E0D1
:101DD0000E949B1F6F8F78A389A39AA3A981BA81C0
:101DE000BD0180E090E00E949B1F1F9289AC9AACDD
:101DF000ABACBCACCD88DE88EB8CFC8C0D8D1E8D25
:101E00002F8D38A149A15AA10E949B170D811E81D7
:101E10002F81388549AD5AAD61E070E083ED93E0E4
:101E20000E942E0A9C0140E050E029AF3AAF4BAF30
:101E30005CAF49815A818BA19CA1480F591F5A83DD
:101E400049832F89388D498D5A8D421A530A640A65
:101E5000750A0F9000E010E089859A85AB85BC85F6
:101E6000480E591E6A1E7B1E9FEF291A390A82CF1F
:101E7000B80180E090E00E949B1F2B013C01B10162
:101E8000601B710B80E090E00E949B1F69877A873E
:101E90008B879C87A981BA81BD0180E090E00E9478
:101EA0009B1F1F9289AC9AACABACBCACCD88DE88D2
:101EB0008301720129853A854B855C850E949B17B9
:101EC0002D853E85B90180E090E00E949B1F0F9018
:101ED000A4960FB6F894DEBF0FBECDBFDF91CF91B1
:101EE0001F910F91FF90EF90DF90CF90BF90AF9038
:101EF0009F908F907F906F905F904F903F902F902A
:101F000008957F928F929F92AF92BF92CF92DF926D
:101F1000EF92FF920F931F93CF93DF93CDB7DEB76E
:101F200062970FB6F894DEBF0FBECDBF6B877C877C
:101F30008D879E872F87388B498B5A8BA8019701F5
:101F400086017AA0772019F00E94F31E06C06B85E7
:101F50007C858D859E850E94F41E69837A838B83A0
:101F60009C8320E0AE01475F5F4FBE01655F7F4FFE
:101F700083ED93E00E9426086C0120E0AE01495FEA
:101F80005F4FBE016F5F7F4F83ED93E00E94260895
:101F90007C0121E0AE014B5F5F4FBE01615F7F4F6F
:101FA00083ED93E00E942608892B09F041C081E06F
:101FB000C816D10421F4EA94EF2849F439C082E02C
:101FC000C816D10421F482E0E816F10489F169858C
:101FD0007A858F8198858617970730F09C012F5F4F
:101FE0003F4F261B370B05C09B012F5F3F4F281B20
:101FF000390B4D815E810115110581F4E091DB0300
:10200000F091DC0382A893A8A4A8B5A8C6A4D7A47D
:10201000E0A8F1A804A515A57F9205C07F92C12C68
:10202000D12C7601C39483ED93E00E9437190F9071
:1020300062960FB6F894DEBF0FBECDBFDF91CF9191
:102040001F910F91FF90EF90DF90CF90BF90AF90D6
:102050009F908F907F9008952F923F924F925F9222
:102060006F927F928F929F92AF92BF92CF92DF92A8
:10207000EF92FF920F931F93CF93DF93CDB7DEB70D
:10208000A4970FB6F894DEBF0FBECDBF6D837E83DD
:102090008F83988729833A834B835C83E98AFA8A02
:1020A0000B8B1C8B9E8A8D8A9B01AC01C801B701EA
:1020B0000E94F31E0E946C1F69877A878B879C871A
:1020C00029813A814B815C81C601B5010E94F31ED2
:1020D0000E94651F97FF0AC0909580957095619545
:1020E0007F4F8F4F9F4FFF24FA9402C0FF24F39439
:1020F0009B01AC01220F331F441F551F2D873E87C4
:102100004F87588B29013A0149855A85441A550A47
:102110006108710869817A818B819C810E946C1FA2
:102120007A8369836D817E818F8198850E946C1F7F
:102130001B0189859A85880F991F9C0140E050E01A
:102140002F8B388F498F5A8F00E010E04F2DFF0CF6
:10215000550B5CA34BA3B10180E090E00E949B1F54
:102160009B01AC0169897A898B899C890E944D20E9
:1021700018160CF06EC00F5F1F4F141415041604D0
:1021800017040CF05AC0C801A0E0B0E08D839E8314
:10219000AF83B887BC01CD010E949B1F6B8F7C8FE2
:1021A0008D8F9E8FA981BA81BD0180E090E00E9451
:1021B0009B1F6F8F78A389A39AA3B1016F5F7F4F95
:1021C000601B710B80E090E00E949B1F1F9289AC06
:1021D0009AACABACBCACCD88DE88EB8CFC8C0D8DA6
:1021E0001E8D2F8D38A149A15AA10E94810F0D810A
:1021F0001E812F81388549AD5AAD61E070E083EDD5
:1022000093E00E942E0A9C0140E050E029AF3AAFD3
:102210004BAF5CAF49815A818BA19CA1480F591FDC
:102220005A8349832F89388D498D5A8D421A530A12
:10223000640A750A0F9000E010E08D859E85AF85D9
:10224000B889480E591E6A1E7B1E9FEF291A390A4B
:1022500082CFB80180E090E00E949B1F2B013C01DF
:10226000A981BA81BD0180E090E00E949B1F698333
:102270007A838B839C83B101601B710B80E090E0BB
:102280000E949B1F1F9289AC9AACABACBCACCD88B2
:10229000DE888301720129813A814B815C810E9431
:1022A000810F29853A85B90180E090E00E949B1F4B
:1022B0000F90A4960FB6F894DEBF0FBECDBFDF918E
:1022C000CF911F910F91FF90EF90DF90CF90BF9033
:1022D000AF909F908F907F906F905F904F903F90C6
:1022E0002F9008954F925F926F927F928F929F925C
:1022F000AF92BF92CF92DF92EF92FF920F931F9314
:10230000CF93DF93CDB7DEB72C970FB6F894DEBF2F
:102310000FBECDBF69837A838B839C8329013A01E9
:10232000ED82FE820F831887A986BA86CB86DC866B
:10233000C601B5010E944D2087FD05C0A301920191
:10234000C601B50106C029853A854B855C85C30168
:10235000B2010E94F31E20E030E040E85FE30E94FB
:10236000F41E6B017C0129813A814B815C816D8176
:102370007E818F8198850E944D2087FD09C029812B
:102380003A814B815C816D817E818F81988508C007
:102390002D813E814F81588569817A818B819C8115
:1023A0000E94F31E20E030E040E85FE30E94F41E4C
:1023B000A70196010E944D201816A4F529813A81A3
:1023C0004B815C816D817E818F8198850E94601F29
:1023D00087FF13C01F921F921F921F926301520129
:1023E000E980FA800B811C8129853A854B855C85C3
:1023F0006D817E818F81988512C01F921F921F92DE
:102400001F92A984BA84CB84DC84ED80FE800F8186
:102410001885A301920169817A818B819C810E9438
:102420002C1031C0A301920169857A858B859C852A
:102430000E94601F87FF13C01F921F921F921F925E
:1024400063015201E980FA800B811C8129853A855C
:102450004B855C856D817E818F81988512C01F922E
:102460001F921F921F92A984BA84CB84DC84ED80D2
:10247000FE800F811885A301920169817A818B8189
:102480009C810E943D0E0E946C1FCB010F900F900B
:102490000F900F902C960FB6F894DEBF0FBECDBFF5
:1024A000DF91CF911F910F91FF90EF90DF90CF9030
:1024B000BF90AF909F908F907F906F905F904F9064
:1024C000089590E0FC01E759FA4F2491FC01EB5587
:1024D000FA4F3491FC01EF56FA4FE491EE2309F4E0
:1024E0003CC0222339F1233091F038F42130A9F097
:1024F000223001F584B58F7D12C0273091F028304D
:10250000A1F02430B9F4809180008F7D03C08091C8
:1025100080008F77809380000DC084B58F7784BD55
:1025200009C08091B0008F7703C08091B0008F7D8B
:102530008093B000F0E0EE0FFF1FE358FA4FA59133
:10254000B4919FB7F894611104C08C9130953823F1
:1025500002C0EC913E2B3C939FBF089560E0FC01CC
:1025600080850E94611280E090E0089561E0FC01A6
:1025700080850E94611280E090E008952F923F9242
:102580004F925F926F927F928F929F92AF92BF9283
:10259000CF92DF92EF92FF920F931F93CF93DF932F
:1025A000CDB7DEB7C259D1400FB6F894DEBF0FBE2B
:1025B000CDBF3C011B01C057DE4F59834883C05932
:1025C000D1402901C157DE4F0883CF58D140CE56A4
:1025D000DE4F1883C259D140C501B401882799271D
:1025E000A7019601442755270E9466204B015C01F4
:1025F000AA24BB24D301ED91FC910280F381E02D4C
:10260000A5019401B801C3010995F3018481958165
:1026100003978430910528F4FC01E050FF4F1081AE
:1026200001C010E0C955DE4FF881C75AD140FF23E1
:10263000B1F020E041E060E0C3010E944817D301FF
:10264000ED91FC9136970190F081E02DE60DF71D9C
:10265000848195810197FC01E219F3091F01A20110
:1026600041505109420D531DB101C3010E94340D67
:10267000C057DE4F48815981C059D140BA01C301CA
:102680000E940D0D8CE290E0C357DE4F9983888342
:10269000CD58D140D301ED91FC910190F081E02D16
:1026A00020E030E040E050E0BE0163577E4FC301C0
:1026B0000995C3010E94AE1261E0F30186810E9478
:1026C0006112D3011B968D919C911C970E945C0D09
:1026D000B1E0CB16D104E104F104C9F5C12ED12C2F
:1026E000CE01019620E030E0BC01C157DE4F0881E9
:1026F000CF58D14042165306C9F0AC01C157DE4F46
:10270000E881CF58D140CE56DE4FF881C259D14032
:10271000FE2EF01AF11628F4F190DA01FD92AD01C7
:10272000F7CF2F5F3F4F8C0D9D1DE4CF4C9CA00138
:102730004D9C500D5C9C500D1124D301ED91FC91EA
:102740000680F781E02D21E0C301099555C01601EF
:10275000E12FF0E0C057DE4FF983E883C059D14044
:102760004114510409F448C064017101E818F908E2
:10277000D301ED91FC910280F381E02DA50194013C
:10278000C157DE4F6881CF58D140CE56DE4F788199
:10279000C259D140C30109958201E414F50408F43B
:1027A0008701C057DE4FE881F981C059D140E09FD1
:1027B000A001E19F500DF09F500D1124D301ED9128
:1027C000FC910680F781E02D21E0BC01C301099551
:1027D000401A510A20E030E0D301ED91FC91369788
:1027E00080819181A601B101860D971D0E942E0A5C
:1027F0004C01A12CB12CB4CF0E945B0DC3010E94EF
:10280000B612C955DE4FB881C75AD140BB2331F04B
:1028100020E041E061E0C3010E944817CE56DE4F40
:102820000FB6F894DEBF0FBECDBFDF91CF911F91E1
:102830000F91FF90EF90DF90CF90BF90AF909F905F
:102840008F907F906F905F904F903F902F90089562
:102850002F923F924F925F926F927F928F929F92B0
:10286000AF92BF92CF92DF92EF92FF920F931F939E
:10287000CF93DF93CDB7DEB7CE5ED1400FB6F894DD
:10288000DEBF0FBECDBF3C01C351DE4F79836883ED
:10289000CD5ED1401A012901C551DE4F0883CB5EC0
:1028A000D140C451DE4F1883CC5ED140C501B40184
:1028B00088279927A7019601442755270E9466205B
:1028C0004B015C01AA24BB24D301ED91FC91028051
:1028D000F381E02DA5019401B801C3010995F3012D
:1028E0008481958103978430910550F4FC01E05078
:1028F000FF4F2081C751DE4F2883C95ED14005C0FC
:10290000C751DE4F1882C95ED140CD5FDD4F38819F
:10291000C350D2403323B1F020E040E061E0C30176
:102920000E944817D301ED91FC9136970190F081F8
:10293000E02DE60DF71D868197810197FC01E219D4
:10294000F3091F01820101501109020D131DC3512A
:10295000DE4F48815981CD5ED140BA01C3010E944A
:10296000340DA801B101C3010E940D0D8CE290E06D
:10297000C951DE4F99838883C75ED140D301ED9161
:10298000FC910190F081E02D20E030E040E050E04B
:10299000BE0169517E4FC3010995C3010E94AE1269
:1029A00061E0F30186810E946112D3011B968D9133
:1029B0009C911C970E945C0DB1E0CB16D104E10400
:1029C000F10409F043C0C751DE4FF880C95ED14021
:1029D000CF2CD12CCE01019620E030E0BC01C551B6
:1029E000DE4F1881CB5ED14042165306F1F0AC01A8
:1029F000C551DE4FE881CB5ED140C451DE4FF88136
:102A0000CC5ED1400E2F011BC751DE4FF880C95E4E
:102A1000D1400F1528F40191DA010D93AD01F2CFE9
:102A20002F5F3F4F8C0D9D1DDFCF4C9CA0014D9C17
:102A3000500D5C9C500D1124D301ED91FC9106804A
:102A4000F781E02D21E0C30109955AC01601C75155
:102A5000DE4FF881C95ED140EF2FF0E0C751DE4F65
:102A6000F983E883C95ED1404114510409F448C098
:102A700064017101E818F908D301ED91FC9102801D
:102A8000F381E02DA5019401C551DE4F6881CB5E35
:102A9000D140C451DE4F7881CC5ED140C30109954D
:102AA0008201E414F50408F48701C751DE4FE88180
:102AB000F981C95ED140E09FA001E19F500DF09FD8
:102AC000500D1124D301ED91FC910680F781E02D8A
:102AD00021E0BC01C3010995401A510A20E030E011
:102AE000D301ED91FC91369780819181A601B101CE
:102AF000860D971D0E942E0A4C01A12CB12CB4CF3B
:102B00000E945B0DC3010E94B612CD5FDD4FF880BD
:102B1000C350D240FF2031F020E041E061E0C3012A
:102B20000E944817C251DE4F0FB6F894DEBF0FBEA9
:102B3000CDBFDF91CF911F910F91FF90EF90DF906C
:102B4000CF90BF90AF909F908F907F906F905F904D
:102B50004F903F902F9008958F929F92AF92BF9287
:102B6000CF92DF92EF92FF926B017C010E94CE0D1B
:102B70004B015C01C114D104E104F104F1F00E94A5
:102B8000CE0DDC01CB0188199909AA09BB09883E41
:102B90009340A105B10570F321E0C21AD108E10804
:102BA000F10888EE880E83E0981EA11CB11CC114A8
:102BB000D104E104F10419F7DDCFFF90EF90DF902D
:102BC000CF90BF90AF909F908F900895E92FF0E045
:102BD00091FF05C0A62F972FB9012A2F392FE2FFA9
:102BE00005C0A42F952FA9012A2F392FDF01A67028
:102BF000BB27E170FF27AB2B19F4309741F402C0DB
:102C0000309729F0A62F972FBA014A2F592F9FEFFF
:102C1000DA019C93D9011C92EF2BC9F4882331F07F
:102C20008195BFEF8B9FC001112402C080E09FEF10
:102C3000292F3327820F931F892F8095EFEF8E9FC7
:102C4000C001112481589F4FDB019C930895899FF7
:102C5000C0011124292F3327820F931F892F8095BC
:102C6000BFEF8B9FC001112481589F4FFB019083C0
:102C700008954F925F926F927F928F929F92AF9240
:102C8000BF92CF92DF92EF92FF920F931F93CF9359
:102C9000DF93CDB7DEB7C355D1090FB6F894DEBFC9
:102CA0000FBECDBFE091C503F091C60336970190EA
:102CB000F081E02DEB53FC4F40845184BE016F5FE7
:102CC0007F4F7187608785EC93E00E946B182A968E
:102CD0001FAE2A972B961FAE2B972C961FAE2C97C4
:102CE000E091C503F091C6033697808191819C01E4
:102CF0002B533C4F3901D90118960D911C9119970E
:102D0000F8016681778184819581681B790B80E069
:102D100090E00E949B1F6B017C01D80112966D917F
:102D20007C9113978D919C91681B790B80E090E0CA
:102D30000E949B1F29961CAE1DAE1EAE1FAE29978A
:102D400025961CAE1DAE1EAE1FAE259721966CAF0C
:102D50007DAF8EAF9FAF2197C9AEDAAEEBAEFCAEC2
:102D600021E0AE01425B5F4FBE016F5B7F4FC3014D
:102D70000E9426086C0121E0AE01445B5F4FBE015A
:102D8000675C7F4FC3010E9426087C0120E0AE01F2
:102D90004E5A5F4FBE016B5B7F4FC3010E942608F6
:102DA0008C0120E0AE01405B5F4FBE01635C7F4F52
:102DB000C3010E942608B1E0CB16D10421F4EA94A5
:102DC000EF2849F441C0F2E0CF16D10421F422E00B
:102DD000E216F104C9F10130110519F4019731F43B
:102DE00033C00230110511F4029771F12E960EAD29
:102DF0001FAD2E9762962EAD3FAD629760964EAD99
:102E00005FAD609764966EAD7FAD6497D301ED9131
:102E1000FC911F921F921F921F921F921F92028875
:102E2000F389E02D812C912C54018394CE01875B92
:102E30009F4F6C01EE24E394C30109950F900F900E
:102E40000F900F900F900F90E091C503F091C60383
:102E500036970190F081E02DEB53FC4F5186408670
:102E6000CD5ADF4F0FB6F894DEBF0FBECDBFDF9156
:102E7000CF911F910F91FF90EF90DF90CF90BF9077
:102E8000AF909F908F907F906F905F904F9008953C
:102E9000CF93DF9300D01F92CDB7DEB7DC0186E37E
:102EA00090E09A838983411102C01B8202C080E8AE
:102EB0008B83662319F09B8190649B83222319F0F6
:102EC0009B8190629B839B8198609B83ED91FC9199
:102ED00011970190F081E02D21E030E0AE014D5FCF
:102EE0005F4FBE016F5F7F4FCD0109950F900F902F
:102EF0000F90DF91CF91089590E0FC01EB55FA4FD0
:102F00002491FC01EF56FA4F8491882399F090E0C8
:102F1000880F991FFC01E957FA4FA591B491FC0164
:102F2000E358FA4F859194918FB7F894EC91E22B86
:102F3000EC938FBF08957F928F929F92AF92BF9232
:102F4000CF92DF92EF92FF920F931F93CF93DF9375
:102F5000CDB7DEB762970FB6F894DEBF0FBECDBF18
:102F60006B877C878D879E872F87388B498B5A8B01
:102F7000A801970186017AA06F85788989899A8945
:102F8000772019F00E94F31E02C00E94F41E69838C
:102F90007A838B839C8321E0AE01475F5F4FBE0144
:102FA000615F7F4F83ED93E00E9426086C0121E072
:102FB000AE01495F5F4FBE016F5F7F4F83ED93E0CE
:102FC0000E9426087C0120E0AE014B5F5F4FBE01EE
:102FD000655F7F4F83ED93E00E942608892B09F0FF
:102FE00041C081E0C816D10421F4EA94EF2849F4E5
:102FF00039C082E0C816D10421F482E0E816F10459
:1030000089F149855A858F8198858417950730F015
:103010009C012F5F3F4F241B350B05C09A012F5F8A
:103020003F4F281B390B6D817E810115110581F4FD
:10303000E091DB03F091DC0382A893A8A4A8B5A8D3
:10304000C6A4D7A4E0A8F1A804A515A57F9205C041
:103050007F92C12CD12C7601C39483ED93E00E9422
:10306000E8180F9062960FB6F894DEBF0FBECDBF82
:10307000DF91CF911F910F91FF90EF90DF90CF9054
:10308000BF90AF909F908F907F900895FC018481B6
:1030900095818530910561F08630910519F003978F
:1030A00069F406C0C901880F991F280F391F02C093
:1030B000220F331FCB01820F931F0895CB01089578
:1030C000DC01ED91FC913E970190F081E02D8E0F97
:1030D0009F1F0C944618FB011182108215821482E6
:1030E0002FE730E0338322832FE930E037832683D4
:1030F0001086118612861386148615861686178604
:10310000108A118A128A138A148A158A168A178AD3
:10311000118E108E138E128E158E148E168E178EA3
:1031200010A211A212A213A214A215A216A217A2F3
:1031300010A611A612A613A617AA16AAFC01A08112
:10314000B18116972D913C91E20FF31F0084F18518
:10315000E02D15A614A681E090E0A0E0B0E086A7DF
:1031600097A7A0ABB1AB12AA13AA14AA15AA0895E7
:10317000DC01ED91FC91709720813181820F931FCA
:103180000C946B188F929F92AF92BF92CF92DF9266
:10319000EF92FF920F931F93CF93DF93CDB7DEB7DC
:1031A0000115110541F02115310529F0EF85EF9347
:1031B0000E9428140F90DF91CF911F910F91FF90E3
:1031C000EF90DF90CF90BF90AF909F908F90089539
:1031D0008F929F92AF92BF92CF92DF92EF92FF9227
:1031E0000F931F93CF93DF93CDB7DEB7DC01ED9143
:1031F000FC9176970190F081E02DAF85AF938E0F13
:103200009F1F0E94C2180F90DF91CF911F910F91C5
:10321000FF90EF90DF90CF90BF90AF909F908F90F6
:1032200008958F929F92AF92BF92CF92DF92EF92CA
:10323000FF920F931F93CF93DF93CDB7DEB70115A6
:10324000110541F02115310529F0EF85EF930E941A
:10325000BE120F90DF91CF911F910F91FF90EF90D1
:10326000DF90CF90BF90AF909F908F9008958F92F6
:103270009F92AF92BF92CF92DF92EF92FF920F9305
:103280001F93CF93DF93CDB7DEB7DC01ED91FC91B7
:1032900074970190F081E02DAF85AF938E0F9F1F43
:1032A0000E9411190F90DF91CF911F910F91FF9004
:1032B000EF90DF90CF90BF90AF909F908F90089548
:1032C0002F923F924F925F926F927F928F929F9236
:1032D000AF92BF92CF92DF92EF92FF920F931F9324
:1032E000CF93DF9300D0CDB7DEB7FC0121153105B8
:1032F00009F448C0D601C5011701280139016A0146
:103300004B018F01BC01CD0188279927A2019101B2
:10331000442755270E9466209B01AC01442755276E
:10332000D801ED91FC910280F381E02DB301C80139
:1033300009957C01A401B401C8010E94340DA601C5
:10334000B601C8010E940D0DF80184819581039793
:103350008430910528F4FC01E050FF4F208101C02A
:1033600020E08CE290E09A83898330E0D801ED91EF
:10337000FC910190F081E02DA701BE016F5F7F4FAE
:10338000C80109950F900F90DF91CF911F910F9178
:10339000FF90EF90DF90CF90BF90AF909F908F9075
:1033A0007F906F905F904F903F902F900895AF92D5
:1033B000BF92CF92DF92EF92FF920F931F93DC01A7
:1033C000ED91FC9172970190F081E02D8E0F9F1F7F
:1033D0000E9460191F910F91FF90EF90DF90CF90A6
:1033E000BF90AF9008952F923F924F925F926F924D
:1033F0007F928F929F92AF92BF92CF92DF92EF9285
:10340000FF920F931F93CF93DF9300D000D0CDB7DF
:10341000DEB7A114B104C104D10409F475C0E114EC
:10342000F10409F471C0DC011496ED91FC9115973B
:103430003397E430F10528F4E050FF4FB081BB83AF
:1034400001C01B828C8225013601170149016A01E6
:103450005B017C01EC81EE2369F021E041E061E059
:103460000E944817A801B601C7010E94340DA401AB
:10347000B50105C0A9010E94340DA801B601C7011C
:103480000E940D0D8CE290E09A838983D701ED9123
:10349000FC910190F081E02D20E030E040E050E030
:1034A000BE016F5F7F4FC7010995C7010E94AE1231
:1034B00061E0F70186810E946112D7011B968D9110
:1034C0009C911C970E945C0DBB818B2F90E0849D8A
:1034D000A001859D500D949D500D1124D701ED91B3
:1034E000FC910680F781E02D21E0B101C70109952B
:1034F000C7010E94B612BC81BB2331F020E041E03D
:1035000061E0C7010E9448170F900F900F900F9035
:10351000DF91CF911F910F91FF90EF90DF90CF90AF
:10352000BF90AF909F908F907F906F905F904F90E3
:103530003F902F9008958F92AF92BF92CF92DF92DB
:10354000EF92FF920F931F93CF93DF93CDB7DEB728
:10355000DC01ED91FC917A970190F081E02D8E0FC6
:103560009F1F0E94F319DF91CF911F910F91FF9040
:10357000EF90DF90CF90BF90AF908F900895CF9352
:10358000DF93CDB7DEB7A8970FB6F894DEBF0FBEB6
:10359000CDBF789484B5826084BD84B5816084BDDC
:1035A00085B5826085BD85B5816085BD80916E00E1
:1035B000816080936E001092810080918100826012
:1035C000809381008091810081608093810080914F
:1035D00080008160809380008091B100846080933E
:1035E000B1008091B00081608093B00080917A003A
:1035F000846080937A0080917A00826080937A0060
:1036000080917A00816080937A0080917A0080684E
:1036100080937A001092C100E0913803F091390351
:1036200082E08083E0913403F09135031082E091D1
:103630003603F09137038FEC808310924003E091C2
:103640003C03F0913D0316E01083E0913A03F091C2
:103650003B03808180618083E0913A03F0913B03DA
:10366000808188608083E0913A03F0913B03808100
:1036700080688083E0913A03F0913B0380818F7DE5
:1036800080836CE771E088E293E00E94B90764EB05
:1036900071E088E293E00E94B9071093CB038FEFAB
:1036A0008093CC0385E08093CD0383E08093D203A5
:1036B0008EE193E09093CF038093CE0380E58093D7
:1036C000D0031092D1031FB7F89480911803811191
:1036D00024C0EBE9F5E08491EFEAF5E09491E82F5E
:1036E000F0E0EE0FFF1FE957FA4FA591B491EC916E
:1036F000E92321F461E08AE00E9461128AE00E94DD
:103700007C178CB580618CBD8CB580648CBD8DE0E0
:103710000E947C178BE00E947C17809118038F5FBA
:10372000809318031FBF8091CD030E947C17809166
:10373000CB030E947C178091D2030E947C1761E02A
:103740008091CD030E94611261E08091CB030E94C1
:10375000611261E08091D2030E946112E091C50381
:10376000F091C60336970190F081E02DEB53FC4FAA
:103770006085718585EC93E00E946B188091D00381
:103780009091D1030E945C0D61E070E0CE018396C0
:103790000E94D90C0E945B0D8091CC038F3F19F0E1
:1037A00061E00E9461126AE070E080E090E00E94B7
:1037B000AC158091CC038F3F19F060E00E9461123C
:1037C0006AE070E080E090E00E94AC158091CC034C
:1037D0008F3F19F061E00E94611268E770E080E0BD
:1037E00090E00E94AC1581E190E09A83898320E00B
:1037F00030E040E050E0CE0101963C01BC0185EC98
:1038000093E00E945F0D8E010F5E1F4F892B09F020
:1038100053C164E170E080E090E00E94AC1586E264
:1038200090E09A83898384E0898B21E030E0A801CD
:10383000B30185EC93E00E945F0D892B09F03CC138
:1038400081EB90E09A8B898B4CE0D42ED98284E175
:103850008A8322E030E0A301B80185EC93E00E9466
:103860005F0D892B09F028C180EC90E09A8B898B41
:10387000D98285E08A8322E030E0A301B80185EC9B
:1038800093E00E945F0D892B09F016C181EC90E056
:103890009A83898332E0D32ED98A21E030E0A801CF
:1038A000B30185EC93E00E945F0D892B09F004C100
:1038B00082EC90E09A838983D98A21E030E0A801E4
:1038C000B30185EC93E00E945F0D892B09F0F4C0F1
:1038D00085EC90E09A8B898B80E2898385E58A83E9
:1038E00022E030E0A301B80185EC93E00E945F0D77
:1038F000892B09F0E1C087EC90E09A83898380E40A
:10390000898B21E030E0A801B30185EC93E00E94AF
:103910005F0D892B09F0D0C08AE390E09A838983F8
:1039200086E0898B86E090E09093CA038093C90378
:1039300021E030E0A801B30185EC93E00E945F0D27
:10394000892B09F0B9C04FE750E060E070E085ECEA
:1039500093E00E94340D892B09F0AEC04FE950E08E
:1039600060E070E085EC93E00E940D0D892B09F07A
:10397000A3C020E041E061E085EC93E00E9448179D
:10398000892B09F099C087EB90E09A838983198A83
:1039900021E030E0A801B30185EC93E00E945F0DC7
:1039A000892B09F089C082EF90E09A83898381E0B6
:1039B000898B21E030E0A801B30185EC93E00E94FF
:1039C0005F0D892B09F078C080E1B82EF8012B2D0E
:1039D00011922A95E9F786E3898B89E28A8B82E145
:1039E0008B8B92E29C8B9CE19D8B95E1D92EDE8A9C
:1039F00092E49F8B97EB988F9FE2998F23E1C22EE1
:103A0000CA8E8B8F8AE08C8F81E18D8F8BE08E8FB9
:103A100086E08F8F80EE90E09A83898320E130E00A
:103A2000A801B30185EC93E00E945F0D892B09F09A
:103A300043C0F3011192BA94E9F789E0898386E1E2
:103A40008A838DE28B838DE08C83CD82DE8280E45D
:103A50008F8388E4888783E589878CE08A878DE176
:103A60008B8785E28C878EE28D8784E38E8789E35E
:103A70008F8781EE90E09AA389A320E130E0A30133
:103A8000BE016F5D7F4F85EC93E00E945F0D64E1A6
:103A900070E080E090E00E94AC1589E290E09AA38B
:103AA00089A320E030E040E050E0BE016F5D7F4F31
:103AB00085EC93E00E945F0D0E943916E091DB03D4
:103AC000F091DC0310861186128613861486158603
:103AD000168617868BE193E095A784A781E090E096
:103AE000A0E0B0E086A797A7A0ABB1AB12AA13AA3B
:103AF00014AA15AA9301A801BE016F5D7F4F8091A2
:103B0000190390911A030E94E6158981998929A1C8
:103B100020931B0390931C0380931D038091190332
:103B200090911A038115F6E09F07B0F5E091DB0351
:103B3000F091DC0310861186128613861486158692
:103B4000168617864E9690931A0380931903930155
:103B5000A801BE016F5D7F4F0E94E615898199899A
:103B600029A120931B0390931C0380931D0367EBF3
:103B700071E083ED93E00E94B90764EB71E083ED9F
:103B800093E00E94B907CACF64EF71E080E090E053
:103B90000E94AC150E94E0030E9439162FEF298382
:103BA0002A832B83512C852D90E02091D7033091CF
:103BB000D80382179307F0F46091D9037091DA0368
:103BC0006150710980E090E00E949B1F5B016C01D5
:103BD000652D70E080E090E00E949B1F43017B0117
:103BE0008C0120E030E0A901CA01B9010E947211E4
:103BF0005394D9CF8FEF89831A821B821CA2ECA128
:103C00008E2F90E00091D9031091DA03801791076D
:103C100050F501501109B801681B790B80E090E064
:103C20000E949B1F5B016C016091D7037091D803C8
:103C30006150710980E090E00E949B1F1B012C01E4
:103C4000B80180E090E00E949B1F9B01AC01430102
:103C50008201710160E070E0CB010E947211FCA151
:103C6000FF5FFCA3CCCF19822FEF2A831B821CA2FB
:103C7000ECA18E2F90E00091D7031091D80380170C
:103C8000910770F501501109B801681B790B80E0AC
:103C900090E00E949B1F1B012C016091D903709141
:103CA000DA036150710980E090E00E949B1F6DA3D0
:103CB0007EA38FA398A7B80180E090E00E949B1F8D
:103CC0004301A12CB12C6501820171012DA13EA1FE
:103CD0004FA158A50E947211FCA1FF5FFCA3C8CFA1
:103CE00019821A822FEF2B83512C852D90E0209181
:103CF000D9033091DA038217930708F045CF652D79
:103D000070E080E090E00E949B1F5B016C0160917D
:103D1000D7037091D8036150710980E090E00E9450
:103D20009B1F4301E12CF12C8701A80197010E9400
:103D300072115394DACFCF93DF93E8E2F3E013826A
:103D4000128288EE93E0A0E0B0E084839583A6839E
:103D5000B78388E091E09183808385EC90E095873C
:103D6000848784EC90E09787868780EC90E0918B45
:103D7000808B81EC90E0938B828B82EC90E0958B32
:103D8000848B86EC90E0978B868B118E128E138E2F
:103D9000148EC5ECD3E0198A188A8AE191E09F87D6
:103DA0008E8780E890E09B8B8A8B80EA90E09D8BE9
:103DB0008C8B8DED93E09F8B8E8BBC0183ED93E01C
:103DC0000E94EA031B821A8280E58B8781E08C8740
:103DD00088E391E09983888384E691E09F878E87CA
:103DE000DF91CF9108955058BB27AA270E940B1F3F
:103DF0000C9413200E94052038F00E940C2020F023
:103E000039F49F3F19F426F40C9402200EF4E09547
:103E1000E7FB0C94FC1FE92F0E94242058F3BA17EB
:103E2000620773078407950720F079F4A6F50C94D0
:103E300046200EF4E0950B2EBA2FA02D0B01B901F0
:103E400090010C01CA01A0011124FF27591B99F010
:103E5000593F50F4503E68F11A16F040A22F232F1C
:103E6000342F4427585FF3CF469537952795A7956C
:103E7000F0405395C9F77EF41F16BA0B620B730B13
:103E8000840BBAF09150A1F0FF0FBB1F661F771F84
:103E9000881FC2F70EC0BA0F621F731F841F48F439
:103EA000879577956795B795F7959E3F08F0B0CFC2
:103EB0009395880F08F09927EE0F979587950895A9
:103EC0000E94D81F08F481E008950E946C1F689436
:103ED000B1110C94472008950E942C2088F09F5720
:103EE00098F0B92F9927B751B0F0E1F0660F771F1E
:103EF000881F991F1AF0BA95C9F714C0B13091F014
:103F00000E944620B1E008950C944620672F782F38
:103F10008827B85F39F0B93FCCF3869577956795D8
:103F2000B395D9F73EF490958095709561957F4F44
:103F30008F4F9F4F0895E89409C097FB3EF49095EA
:103F40008095709561957F4F8F4F9F4F9923A9F072
:103F5000F92F96E9BB279395F69587957795679501
:103F6000B795F111F8CFFAF4BB0F11F460FF1BC045
:103F70006F5F7F4F8F4F9F4F16C0882311F096E9D8
:103F800011C0772321F09EE8872F762F05C0662386
:103F900071F096E8862F70E060E02AF09A95660F3F
:103FA000771F881FDAF7880F9695879597F90895F8
:103FB000990F0008550FAA0BE0E8FEEF161617063A
:103FC000E807F907C0F012161306E407F50798F0A2
:103FD000621B730B840B950B39F40A2661F0232BBB
:103FE000242B252B21F408950A2609F4A140A69537
:103FF0008FEF811D811D089597F99F6780E870E01C
:1040000060E008959FEF80EC089500240A9416164E
:10401000170618060906089500240A9412161306B6
:10402000140605060895092E0394000C11F4882344
:1040300052F0BB0F40F4BF2B11F460FF04C06F5F60
:104040007F4F8F4F9F4F089557FD9058440F551F36
:1040500059F05F3F71F04795880F97FB991F61F00A
:104060009F3F79F087950895121613061406551F81
:10407000F2CF4695F1DF08C0161617061806991FED
:10408000F1CF86957105610508940895E894BB27E2
:1040900066277727CB0197F908950E94D81F08F467
:1040A0008FEF0895AA1BBB1B51E107C0AA1FBB1FBE
:1040B000A617B70710F0A61BB70B881F991F5A95B4
:1040C000A9F780959095BC01CD010895052E97FB29
:1040D0001EF400940E947D2057FD07D00E94852089
:1040E00007FC03D04EF40C947D20509540953095FC
:1040F00021953F4F4F4F5F4F089590958095709554
:1041000061957F4F8F4F9F4F0895A1E21A2EAA1BF2
:10411000BB1BFD010DC0AA1FBB1FEE1FFF1FA21777
:10412000B307E407F50720F0A21BB30BE40BF50B74
:10413000661F771F881F991F1A9469F760957095FD
:10414000809590959B01AC01BD01CF010895EE0FC4
:10415000FF1F0590F491E02D099481E090E0F89420
:084160000C94B220F894FFCF8B
:1041680002000203000000007103A20D0803BE0351
:10417800390317032B0300000000D908A20DB60766
:10418800B507CC0DEA03CC0DD006EB055D0A090591
:1041980035040E00000000005F0D46186019F30C8E
:1041A8001119C218F3196B180000F2FF0000F2FF92
:1041B800F2FFF2FFF2FFF2FF000000000000000033
:1041C800F2FF0000D908A20DB607B5076018B818A5
:1041D800D7193719E8185D0A9B1A35044578616DB7
:1041E800706C653120446973706C61792054657313
:1041F80074203A20537061726B46756E2054465491
:10420800204C434420312E38696E20427265616B20
:104218006F7574000D0A0048656C6C6F20776F72BB
:044228006C642100A1
:107E0000112484B714BE81FFF0D085E080938100F7
:107E100082E08093C00088E18093C10086E0809377
:107E2000C20080E18093C4008EE0C9D0259A86E02C
:107E300020E33CEF91E0309385002093840096BBD3
:107E4000B09BFECF1D9AA8958150A9F7CC24DD24C4
:107E500088248394B5E0AB2EA1E19A2EF3E0BF2EE7
:107E6000A2D0813461F49FD0082FAFD0023811F036
:107E7000013811F484E001C083E08DD089C08234E0
:107E800011F484E103C0853419F485E0A6D080C0E4
:107E9000853579F488D0E82EFF2485D0082F10E0AE
:107EA000102F00270E291F29000F111F8ED06801E7
:107EB0006FC0863521F484E090D080E0DECF843638
:107EC00009F040C070D06FD0082F6DD080E0C81688
:107ED00080E7D80618F4F601B7BEE895C0E0D1E017
:107EE00062D089930C17E1F7F0E0CF16F0E7DF06D8
:107EF00018F0F601B7BEE89568D007B600FCFDCFD4
:107F0000A601A0E0B1E02C9130E011968C91119780
:107F100090E0982F8827822B932B1296FA010C0160
:107F200087BEE89511244E5F5F4FF1E0A038BF0790
:107F300051F7F601A7BEE89507B600FCFDCF97BE46
:107F4000E89526C08437B1F42ED02DD0F82E2BD052
:107F50003CD0F601EF2C8F010F5F1F4F84911BD097
:107F6000EA94F801C1F70894C11CD11CFA94CF0C13
:107F7000D11C0EC0853739F428D08EE10CD085E9AC
:107F80000AD08FE07ACF813511F488E018D01DD067
:107F900080E101D065CF982F8091C00085FFFCCF94
:107FA0009093C60008958091C00087FFFCCF809118
:107FB000C00084FD01C0A8958091C6000895E0E648
:107FC000F0E098E1908380830895EDDF803219F02E
:107FD00088E0F5DFFFCF84E1DECF1F93182FE3DFCA
:107FE0001150E9F7F2DF1F91089580E0E8DFEE27F6
:047FF000FF270994CA
:027FFE00040479
:0400000300007E007B
:00000001FF
