:1000000000000320D10100003D500000F54F00002A
:10001000F54F0000F54F0000F54F0000F54F0000D0
:10002000F54F0000F54F0000F54F00003D50000077
:100030003D500000F54F0000C54C0000C94D0000C8
:100040003D5000003D5000003D5000003D5000007C
:100050003D5000003D5000003D5000003D5000006C
:100060003D5000003D5000003D5000003D5000005C
:100070003D5000003D5000003D5000003D5000004C
:100080003D5000003D5000003D5000003D5000003C
:100090003D5000003D5000003D5000003D5000002C
:1000A0003D5000003D5000003D5000003D5000001C
:1000B0003D5000003D5000003D50000035670000FD
:1000C0003D500000616800003D5000008D69000057
:1000D0003D500000856A00003D5000003D5000008A
:1000E0003D5000003D5000003D5000003D500000DC
:1000F0003D5000003D5000003D5000003D500000CC
:100100003D5000003D5000003D5000003D500000BB
:100110003D500000FD5500003D5000003D500000E6
:100120003D5000003D5000003D5000003D5000009B
:100130003D5000003D5000003D5000003D5000008B
:100140003D5000003D5000007D6B00003D50000020
:100150003D5000003D5000003D5000003D5000006B
:100160003D5000003D5000003D5000003D5000005B
:100170003D5000003D5000003D5000003D5000004B
:100180003D5000003D5000003D5000003D5000003B
:100190003D5000003D500000756C00003D500000D7
:1001A0003D5000003D5000003D5000003D5000001B
:1001B0003D5000003D5000003D5000003D5000000B
:1001C0003D5000003D5000003D5000003D500000FB
:1001D0005C4B4CF2205210B51A804DF628121A8052
:1001E00000BF00BF04F02EFF574B4FF030621A6083
:1001F000564A9A60564ADA60564B4FF470021A60BB
:10020000554B564A1A60564A136813F4807304D14A
:1002100054490B604FF4A8531360534B1A781107DD
:1002200003D51A7842F008021A70504B5049AA229E
:100230001A70504A504B8B4204D252F8040F43F8C4
:10024000040BF8E74D4B4E4900228B4202D243F893
:10025000042BFAE74B494C4A002352F8230041F89B
:1002600023000133742BF8D1484B494A802103F80D
:10027000011B9342FBD1474B424A1A60464B8A22EC
:100280001A70A3F5805324225A70A0221A709A790A
:100290009207FCD59A79D406FCD4404A937903F0AE
:1002A0000C03082BFAD13E4B60221A7002331A78E5
:1002B000802AFCD1394B01221A715D225A719A7938
:1002C0009006FCD59979354A4906FBD5354B364918
:1002D00019600021596020231370937903F00C03F7
:1002E0000C2BFAD1314B324A1A60324B324A1A6027
:1002F00000225A60072243F8042C304AC3F80C2D20
:1003000062B604F0EBFF174B1B68DA0705D52C48E3
:1003100004F074FF2B4B2C4A1A602C4B1B785B06A5
:1003200009D5284C284B22689A4204D1244804F06D
:1003300065FF0023236007F0F1F904F089FE04F063
:10034000B7FDFEE70E20054030800440823F0400E8
:100350000100002B88ED00E0002008E0030000858C
:1003600010D0034014D0034002D0074000E0074003
:100370006C10FF1FE48B00003007FF1F7010FF1F81
:10038000E815FF1F0002FF1F0000000000E400E06E
:1003900064E400E008ED00E0005006400040064044
:1003A00001E007404480044000000602048004404D
:1003B000C010070014E000E01FBF02000000202072
:1003C0003E7B505C1CE00340A5C3945A00F00740FC
:1003D000FFFFFFFFFFFFFFFFFFFFFFFFFFFFFFFF2D
:1003E000FFFFFFFFFFFFFFFFFFFFFFFFFFFFFFFF1D
:1003F000FFFFFFFFFFFFFFFFFFFFFFFFFFFFFFFF0D
:10040000FFFFFFFFFFFFFFFFFFFFFFFFDEF9FFFF23
:1004100010B5054C237833B9044B13B10448AFF33E
:1004200000800123237010BD7010FF1F000000002A
:10043000E88B0000084B10B51BB108490848AFF322
:1004400000800848036803B910BD074B002BFBD0A0
:10045000BDE81040184700BF000000007410FF1FE7
:10046000E88B00006C10FF1F00000000704700BF09
:10047000014800F0B9B900BF8C10FF1FFFFFFFFF5C
:100480002DE9F04F2DED068BDFF8DC82B248B34F3B
:10049000DFF8D892DFF8D8A2ADF59C3DB7B0372190
:1004A00005F056FF404604F0ABFCAD4AAD4B01925F
:1004B0000093052203230621384600F0A7FA3846A8
:1004C00000F056FBFF221146104601F023F90446C6
:1004D00007F11805C4F3072689F80160C4F3074E35
:1004E00006AE002328464946012289F802E089F831
:1004F00000401C4602F0D6F83146384600F03EF97E
:100500004FF0870E48202F234FF0100B00944A46DF
:10051000A6F806E03146B080738028460123ADF886
:1005200018B002F0B9F80DF5914123460094284621
:100530004FF4A042583102F0EDF836AA4FF40063B0
:10054000314601940094284602F0B2F8284621462C
:100550007E6202F0EDF82046C8227F2101F0DAF831
:100560000346C3F30742C3F3072E28468DF8103025
:100570000DEB0B0123468DF8122001228DF811E0BE
:1005800002F0A6FE21464022DC20C7F824A001F09C
:10059000C1F80346C3F30742C3F3072E9FED608BF8
:1005A00005A928469FED60AB9FED619B8DF8143047
:1005B0008DF81620234601228DF815E002F088FE02
:1005C0004FF47A7004F038FEB0EE4A3AF0EE6A3A30
:1005D000B0EE492AF0EE692A0123019400942246E4
:1005E000B0EE481AF0EE681AB0EE480AF0EE680A6B
:1005F00019467E62284603F01DFBB0EE4A3AF0EE43
:100600006A3AB0EE492AF0EE692A01232246B0EE9A
:10061000481AF0EE681AB0EE480AF0EE680A194679
:10062000019400942846C7F824A003F003FB4FF47C
:100630007A7004F001FEB0EE481AF0EE681AB0EEDF
:10064000480AF0EE680A0294019400942846224673
:1006500021467E6201239FED383B9FED392B02F04E
:10066000B7FCB0EE481AF0EE681AB0EE480AF0EEA9
:10067000680A9FED353B9FED362B2246012321462C
:100680000294019400942846C7F824A002F0A0FC2C
:100690004FF47A7004F0D0FD284621467E6203F0C4
:1006A00033FD3146284602F04DF838461EA900F0C9
:1006B00065F85E22ADF87C203E230DF5C6524FF062
:1006C0007D0E1EA9ADF8783018324FF48053019496
:1006D00000949D272846ADF87AE0ADF87E7001F0D1
:1006E000E7FF1EA9284603F00FFD23465A46314670
:1006F000404604F095FB404604F082FB23465A46F0
:100700005146404604F08CFB404604F079FB0DF561
:100710009C3D37B0BDEC068BBDE8F08FAFF3008099
:1007200000000000000000000000000000804640C3
:100730000000000000804B400000000000804F409F
:100740000000000000003F400000000000E06340A7
:100750000000000000C05F40808000008C10FF1F80
:100760000048E8013007FF1F7407FF1FB410FF1F88
:100770002011FF1F00207047704700BFF0B5002216
:1007800081F8342081F8352006680A8056F80C6C10
:100790008A8083B07F27002400254F809F27CF8049
:1007A0008A62CA620A638A6381F83C2081F83D202C
:1007B00081F84C200A654A6581F85820304400923F
:1007C000C1E90245C1E90445C1E90645C1E9084559
:1007D000012301F061FF03B0F0BD00BF036853F8CF
:1007E000343C1844FFF7CABF10B5A022044680214C
:1007F000183001F013FA2046A0238022054901F0A9
:1008000011F9054B03F10C0264332260A361204609
:1008100010BD00BF50810000B88000002DE9F041FC
:100820008CB0044600F082FF10B10CB0BDE8F0813E
:10083000142004F001FD0421204601F009F80028ED
:10084000F3D114220C21204601F02CF80028ECD121
:1008500005220C21204601F037F80028E5D10221BD
:10086000204601F047F80028DFD10221204601F0A0
:1008700053F80028D9D155222021204601F05EF8F6
:100880000028D2D101464022204601F06DF8002810
:10089000CBD10621204600F0EBFF0028C5D1014650
:1008A0007F22204600F064FF0028BED19F22002155
:1008B000204600F077FF0028B7D101260290009073
:1008C0000346019632463146204600F085FF002857
:1008D000ABD10146204601F05DF80028A5D1314694
:1008E000204601F06DF800289FD1079012232222A4
:1008F000B720362729258DF812308DF81A308DF85B
:1009000013200A232F228DF8170011204FF01C0E00
:100910008DF810708DF811508DF8182042250B229B
:100920008DF81B308DF81C00062304A915274FF005
:10093000130820468DF816508DF814E08DF81570C8
:100940008DF819808DF81D208DF81E3001F04EF8BD
:10095000054600287FF469AF092316208DF825701D
:100960000D222D278DF820308DF8210040234820BE
:100970008DF822708DF8232053270C228DF8263015
:100980008DF827001D23252008A98DF828708DF8E3
:1009900029208DF82A30342239238DF82B002E2778
:1009A00020460B958DF824808DF82D208DF82E3063
:1009B0008DF82C7001F028F8142004F03DFC31462D
:1009C000204600F0C1FE28462FE700BF10B50446C0
:1009D000C079FF2802D0012104F022FC0A2004F093
:1009E0002BFCE079FF2802D0002104F019FC0A203A
:1009F00004F022FCE079FF2802D0012104F010FC71
:100A00007820BDE8104004F017BC00BFF0B583B0FB
:100A10004C4F099E089D8171BE424FF0FF01044674
:100A200002720375C171C56000F08980314601F022
:100A30000DF8E06804F0A2F80121207A04F0F6FB3A
:100A40000121A07904F0F2FB0121207D04F0EEFBEE
:100A50000121207A04F0E4FB0121A07904F0E0FBFD
:100A60000121207D04F0DCFB226852F80C3CD269A5
:100A700023442046D9689047E3682269D97A00293F
:100A800054D072B6D97ACD0706D52F48D9680568F3
:100A90002940D9610160D97A880706D52B481969A0
:100AA0000568294019620160D97A4F0706D52848A0
:100AB00059690568294059620160D97A0E0737D40F
:100AC00062B6E0681B68D968914207D0214D1D606D
:100AD0002149DA6042F080451D61196001AA114682
:100AE000012304F089F8E268D37AB3B1DD0703D5B6
:100AF0001A4BD1691960D37A980703D5184B116A3C
:100B00001960D37A590703D5164B516A1960D37A05
:100B10001B0702D5144B926A1A602046FFF756FF56
:100B20002046FFF77BFE002003B0F0BD1846C9E762
:100B30000E4899690568294099620160C0E7284616
:100B400078E700BF00366E0180E100E084E100E05C
:100B500088E100E001403F0000003F8000E100E04C
:100B600004E100E008E100E00CE100E08CE100E0DD
:100B700070B5026852F80C3C9AB0034402AD0446CA
:100B8000DE68DD602946D3699847002322688DF826
:100B900004308DF805308DF8063052F80C0C01A9A0
:100BA0002044012202F094FB236853F80C3C1C44BF
:100BB000E6601AB070BD00BF4379052B05D0062B47
:100BC00006D0032B01D00846704701EB4200704766
:100BD00002EB420008447047036853F8303C03447A
:100BE0005B79052B05D0062B06D0032B01D00846D8
:100BF000704701EB4200704702EB42000844704727
:100C0000002B64D02DE9F0411F460368044682B0F2
:100C100053F80C0C15460023BDF824200E46204442
:100C2000BDF8201001F098FDD4F800802849D8F8CC
:100C300000308B4202463946204643D1FFF7BCFFC5
:100C40000746330AF6B28DF804308DF806308DF879
:100C500005608DF807602A23D8F808608DF8033006
:100C600001AA0DF1030104232046B0472B0A226894
:100C70008DF80430EDB28DF806308DF805508DF802
:100C800007502B2395688DF8033001AA0DF103015D
:100C900004232046A84763792568033BDBB2032B76
:100CA00098BF0C4AAD6898BFD35C4FF02C008DF80C
:100CB000040088BF00233A4601A92046A84702B095
:100CC000BDE8F0819847D4F800800746B9E770473F
:100CD000B90B00007482000030B4046854F81C4C56
:100CE000204430BCFFF78CBF10B58BB172B1C36824
:100CF00018680A444FF0004411F8013BC462436392
:100D0000C36A002BFCDA9142836BF5D1002010BD41
:100D10001346C0680A4603F06FFF002010BD00BFF5
:100D20002DE9F04FEBB005460068DDF8D48150F8AE
:100D30000C0C9DF8DC4103941FFA88FA0C4691468E
:100D40005146BDF8D8211E462844002301F004FD79
:100D50002A689C49136804908B4240F02D816B797E
:100D6000033BDBB2032B9CBF974911F803B0039BF5
:100D700088BF4FF0000B002B40F002810DF11B03E8
:100D8000019307AB0293731E029F23449BB221126F
:100D9000181239700199FB70B8707C702A2394681E
:100DA0000B703A4604232846A0474FEA19232A68C5
:100DB00001993B705FFA89F9BB7087F8019087F859
:100DC00003902B2394680B703A4604232846A047CF
:100DD0002A6800232C218DF81A1094680DF11A014D
:100DE0001A462846A0470021287A04F019FA012162
:100DF000A87904F015FAEB682A69D97A01B372B6BA
:100E0000D97ACF0706D57148D96804682140D961DD
:100E10000160D97A8C0706D56D48196904682140AC
:100E200019620160D97A480706D56A485969046889
:100E3000214059620160D97A0F0700F19A8062B6A9
:100E40001B68D968914207D0634818606349DA602B
:100E500042F0804018611960B8F1010F34D0002EC3
:100E600059D0DDF810E0DDF8D09119E0FFF7A4FECD
:100E70000146B44228BF344601230BFB04F2FF684D
:100E80002846B8472B6853F80C0C424623462844A2
:100E9000514601F061FC361BB6B28646002E3AD0B0
:100EA0002F68484A3B681FFA8EF8C8EB0A04934241
:100EB000A4B2724649462846D8D0494672462846CA
:100EC00098472F680146D4E7EEB1749BDDF808C05F
:100ED00000270BF1FF30A8463C4653FA80F05D46F0
:100EE0009E464DB17A1E62440EF1FF3313F8011F86
:100EF00002F8011F9842F9D10134A3B29E422F4457
:100F0000EFD8AB4645462B680299DC680BFB06F22E
:100F100001232846A047EB68DA7AB2B1D40703D59B
:100F20002F4AD9691160DA7A900703D52D4A196AD8
:100F30001160DA7A510703D52B4A596A1160DA7ABF
:100F4000120702D5294A9B6A13600121287A04F00E
:100F500067F9039B53B1029A2968C82313708C6800
:100F6000019936230B7028460123A0476BB0BDE8DA
:100F7000F08F1F48996904682140996201605EE71B
:100F800007AB1946029388230B700DF11B0007462F
:100F90009268059236233B700A4601903946012338
:100FA0002846059FB8472A6852F80C3C2B44DB883A
:100FB000013B1C1BA4B2E6E60246749928469847FA
:100FC0002A68CCE6B90B00007482000080E100E0E2
:100FD00084E100E088E100E001403F0000003F8044
:100FE00000E100E004E100E008E100E00CE100E0E5
:100FF0008CE100E0F0B505ACD0CC9DF820E004B168
:1010000003B9F0BDCDF820E0BDE8F040FFF788BEA1
:10101000F0B505ACD0CC9DF820E004B103B9F0BD2B
:10102000056855F8205CCDF820E02844BDE8F04084
:10103000FFF776BEF8B504460F46007A0021154644
:101040001E4604F0EDF8E3682269D97A41B372B61E
:10105000D97AC80709D5DFF80CE1D868DEF80010A6
:101060000140D961CEF80010D97A880709D5DFF898
:10107000F8E01869DEF8001001401962CEF800109F
:10108000D97A480709D5DFF8E4E05869DEF800109E
:1010900001405962CEF80010D97A09073FD462B6F0
:1010A0001B68D968914207D0284818602849DA603F
:1010B00042F080401861196077B10021A07904F0F6
:1010C000AFF8E2683B7812684FF00041D162536399
:1010D000D36A002BFCDA936B0DB1002E29D1E268A4
:1010E000D37AB3B1DD0703D51A4BD1691960D37A2E
:1010F000980703D5184B116A1960D37A590703D59D
:10110000164B516A1960D37A1B0702D5144B926AA9
:101110001A60207A012104F083F80020F8BDDFF87E
:1011200050E09869DEF8001001409962CEF8001096
:10113000B5E7A079012104F073F823682946324607
:10114000DD6820460123A847C9E700BF01403F00F2
:1011500000003F8000E100E004E100E008E100E081
:101160000CE100E080E100E084E100E088E100E0E3
:101170008CE100E02DE9F04F8A46417985B00339D2
:10118000C9B204460329BDF8380001909DF844B067
:101190009046994600F2E780784B109A5B5C02FB20
:1011A00003F30093BBF1000F00F0B78004ADE82318
:1011B00005F8043D2268926836230DF10B061746A8
:1011C0008DF80B302A46314601232046B847019856
:1011D00022688DF80F0003124FEA28218DF80C10B9
:1011E0008DF80E308DF80D802A2397688DF80B301E
:1011F0002A46314604232046B8474FEA2A2122686E
:101200008DF80DA04FEA29238DF80C108DF80F9062
:101210008DF80E302B2397688DF80B302A46314617
:1012200004232046B84704A922682C2301F8063D70
:101230000023976820461A46B8470021207A03F019
:10124000EFFF0121A07903F0EBFFE3682269D97A6F
:10125000F9B172B6D97AC80706D54948D96807687E
:101260003940D9610160D97A8F0706D54548196997
:101270000768394019620160D97A480706D54248A3
:1012800059690768394059620160D97A09076DD4F4
:1012900062B61B68D968914207D03C4818603C4947
:1012A000DA6042F08040186119602368009ADF68B4
:1012B0000F9901232046B847E268D37AB3B1DF071C
:1012C00003D5344BD1691960D37A980703D5324BD3
:1012D000116A1960D37A590703D5304B516A1960E6
:1012E000D37A1B0702D52E4B926A1A600121207A0D
:1012F00003F096FFBBF1000F0CD0C82320688DF8D7
:101300000C3036232A46314685688DF80B3020464E
:101310000123A84705B0BDE8F08F4FEA29232268D2
:101320008DF80E304FEA2A218DF80C108DF80DA0A3
:101330008DF80F902A2303AD0DF10B06D2F808901B
:101340008DF80B302A46314604232046C8470198C1
:1013500022688DF80D804FEA282103128DF80C10B9
:101360008DF80F0054E7002300931BE70D4899699F
:1013700007683940996201608AE700BF7482000003
:1013800080E100E084E100E088E100E001403F000E
:1013900000003F8000E100E004E100E008E100E03F
:1013A0000CE100E08CE100E0F0B4069CBDF81060B8
:1013B000059D9DF81C702CB125B107970496F0BCD3
:1013C000FFF7D8BEF0BC7047F0B5079CBDF81460BD
:1013D000069D9DF820E05CB155B1076857F82C7C5C
:1013E000CDF820E038440596BDE8F040FFF7C2BED6
:1013F000F0BD00BF2DE9F04F0546ADF5017D006859
:10140000BDF82CA250F80C0C9DF834420394884689
:1014100091465146BDF830221E462844002301F073
:101420009BF92A689F4913688B42074640F0338135
:101430006B79033BDBB2032B9CBF9B4911F803B0D4
:10144000039B88BF4FF0000B002B40F008810DF18B
:101450001703029306AB019301984FEA18235FFA32
:1014600088F803708370014680F8018080F803805B
:101470000298D2F808802A23741E03700A460423B7
:1014800001464C442846C047A4B201982A68C4705B
:10149000211281704FEA29230299037080F801908C
:1014A0002B2394680B70024604232846A0472A6821
:1014B00000232C218DF8161094680DF116011A46A0
:1014C0002846A0470021287A03F0AAFE0121A87926
:1014D00003F0A6FEEB682A69D97A01B372B6D97A0D
:1014E000C80706D57148D96804682140D9610160F0
:1014F000D97A8C0706D56E481969046821401962AB
:101500000160D97A480706D56A48596904682140BC
:1015100059620160D97A090700F19A8062B61B68A6
:10152000D968914207D0644818606449DA6042F093
:101530008040186119608B9B012B33D0002E58D04E
:10154000BE46DDF8289219E0FFF736FB0146B442AB
:1015500028BF344601230BFB04F2FF682846B84736
:101560002B6853F80C0C424623462844514601F0A0
:10157000F3F8361BB6B28646002E3AD02F68494A99
:101580003B681FFA8EF8C8EB0A049342A4B2724675
:1015900049462846D8D049467246284698472F687B
:1015A0000146D4E7EEB18A9BDDF804C000270BF1B9
:1015B000FF30A8463C4653FA80F05D469E464DB14A
:1015C0007A1E62440EF1FF3313F8011F02F8011F67
:1015D0009842F9D10134A3B29E422F44EFD8AB46D2
:1015E00045462B680199DC680BFB06F2012328466F
:1015F000A047EB68DA7AB2B1D40703D5304AD9698B
:101600001160DA7A900703D52E4A196A1160DA7AE6
:10161000510703D52C4A596A1160DA7A120702D5AC
:101620002A4A9B6A13600121287A03F0F9FD039B83
:1016300053B1019A2968C82313708C680299362324
:101640000B7028460123A0470DF5017DBDE8F08F02
:101650001F48996904682140996201605EE706AB02
:1016600019460DF117000290019348230B700846AC
:1016700002999468362302460B7028460123A0473E
:101680002A6852F80C3C2B441B89013BC9EB030927
:101690001FFA89F9E0E602468A99284698472A689F
:1016A000C6E600BFB90B00007482000080E100E0D4
:1016B00084E100E088E100E001403F0000003F805D
:1016C00000E100E004E100E008E100E00CE100E0FE
:1016D0008CE100E0F0B505ACD0CC9DF820E004B181
:1016E00003B9F0BDCDF820E0BDE8F040FFF782BEC1
:1016F000F0B505ACD0CC9DF820E004B103B9F0BD45
:10170000056855F8245CCDF820E02844BDE8F04099
:10171000FFF770BE002360F3070361F30F2362F34A
:101720001743184682B002B0704700BF10B582B0B0
:1017300002A90268112301F8013D002394681A46AA
:10174000A04702B010BD00BF10B582B059B1292327
:101750008DF807300268002394680DF107011A46DE
:10176000A04702B010BD28238DF80730F2E700BF74
:1017700030B583B004688DF805102A2315128DF852
:101780000330091204238DF804108DF807208DF81A
:101790000650A4680DEB03020DF10301A04703B04E
:1017A00030BD00BF30B583B004688DF805102B2321
:1017B00015128DF80330091204238DF804108DF8EA
:1017C00007208DF80650A4680DEB03020DF103010C
:1017D000A04703B030BD00BF70B582B036248DF88D
:1017E00006409DF818609DF81C509DF8204002B1FD
:1017F00080228DF8072029B19DF8072042F0400291
:101800008DF807202BB19DF8073043F020038DF8A9
:1018100007302EB19DF8073043F010038DF80730E4
:101820002DB19DF8073043F008038DF807302CB137
:101830009DF8073043F004038DF8073003680DF17D
:1018400007029C680DF106010123A04702B070BD9C
:1018500010B582B002AA046802F8011D26238DF893
:101860000630A46801230DF10601A04702B010BDA7
:1018700010B501F0070182B03A2303298DF8071053
:101880008DF8063003D0052901D0062900D1417119
:1018900003680DF107029C680DF106010123A047C2
:1018A00002B010BD10B5046882B0B1238DF80410E9
:1018B0008DF805208DF80330A468022301AA0DF1EC
:1018C0000301A04702B010BD10B5046882B001F05A
:1018D0001F0102F00702C0238DF804108DF80520C7
:1018E0008DF80330A468022301AA0DF10301A0477B
:1018F00002B010BD10B582B002AA01F0070102F8D3
:10190000011D0168C1238C688DF806300DF10601B8
:101910000123A04702B010BD10B582B002AA01F0A9
:10192000070102F8011D0168C2238C688DF806309A
:101930000DF106010123A04702B010BD10B50468E7
:1019400082B001F07F0102F07F02C5238DF8041000
:101950008DF805208DF80330A468022301AA0DF14B
:101960000301A04702B010BD10B582B0C72302F03A
:101970007F028DF8063009B162F07F0203688DF8AE
:1019800007209C680DF1070201230DF10601A04715
:1019900002B010BD10B582B0B7238DF8063061B12A
:1019A00001238DF8073003680DF107029C680DF1E3
:1019B00006010123A04702B010BD8DF80710F2E721
:1019C00010B582B0F2238DF8063061B101238DF895
:1019D000073003680DF107029C680DF10601012331
:1019E000A04702B010BD8DF80710F2E710B582B025
:1019F00002ABE02203F8012D04680A46A4681946E8
:101A00001023A04702B010BD10B582B002ABE12296
:101A100003F8012D04680A46A46819461023A0475C
:101A200002B010BD4A68026052F80C2C30B48C68C9
:101A300084500A68026052F80C4CC96800254FF0C7
:101A4000384205710151026130BC704770B4002208
:101A50000B4D0C4E02E0172C08D0224635F8023F01
:101A600096FBF3F3994202F10104F4D3064B53F8C9
:101A7000223043F06053036170BC0020704700BF08
:101A80002288000000879303E888000041B3002308
:101A9000002210B4C48800894C80C1E90223C1E946
:101AA0000423C1E90623C1E908235DF8044BC8807B
:101AB00000230B808B808B62CB620B6381F8343008
:101AC00081F835308B6381F83C3081F83D3081F806
:101AD0004C300B654B6581F858300B644B648B645C
:101AE000704700BF224B5360F0B50820214D956030
:101AF000052400230D291473507313602FD00A2975
:101B00002DD05375A1F120035E2B2ED81A48002347
:101B100001EB8101012401EB000C9E461361184684
:101B200014751CF8015F5FFA8EF7002345FA03F184
:101B300011F0010FDCB203F1010308D011695668FE
:101B40000131116137549168461C0C54B0B2082B16
:101B5000ECD10EF1010EBEF1050FE2D1F0BD012373
:101B60005375A1F120035E2BD0D900231375F0BD6E
:101B7000D010FF1FF810FF1FED820000524292B2FA
:101B8000B2FBF0F300FB132292B28A4288BF09181D
:101B9000881A80B2704700BF2DE9F843BDF8307055
:101BA000BDF82C60056897FBF6F1904606FB1172B4
:101BB00092B299460A996B6ADDE90867044698472C
:101BC00049460546404605F083FD39461FFA80F830
:101BD000304605F07DFDE168F1B10B884E889E42EC
:101BE00033BF01330136F31A9B1B80B29BB203FB58
:101BF00000822368096D5B6A204698472368064681
:101C00005B6A204601220021984729460246304659
:101C1000BDE8F84303F054B90A46EAE738B5074B84
:101C2000C180074D02810021044601710560C36037
:101C30001946FFF72BFF204638BD00BF2011FF1FBC
:101C4000F48700002DE9F04F2DED028BB0EE418AB4
:101C5000F0EE618A8BB08A460546082154489DF80B
:101C600058B016461C468DED080B8DED062B04F082
:101C70006FFB504803F0C4F8BAF1000F00D026B94A
:101C80000BB0BDEC028BBDE8F08FB6B2A4B22B68EE
:101C900094FBF6F206FB1244A4B222465B6A51465C
:101CA00028469847002207460023DDE90601BBF1DC
:101CB000000F3FD005F0DAFC0028E1D04FF000081B
:101CC0004FF000094FF0000B42464B46DDE908019A
:101CD0006FB105F087F8002304930B4601210246FB
:101CE000039102978DED008B2846FFF755FF0134D5
:101CF000296894FBF6F306FB1344A4B24B6A224610
:101D00005146284698470BF1010B1FFA8BFB0746FB
:101D1000584605F0B5F98046894602460B46DDE98E
:101D2000060105F0A3FC0028CED10BB0BDEC028B60
:101D3000BDE8F08F05F09AFC0028A1D04FF0000814
:101D40004FF0000942464B46DDE908016FB105F04E
:101D50004BF8002304930B4601210246039102979E
:101D60008DED008B2846FFF717FF0134296894FB9F
:101D7000F6F306FB1344A4B24B6A224651462846AA
:101D800098470BF1010B1FFA8BFB0746584605F0ED
:101D900077F98046894602460B46DDE9060105F0E3
:101DA00065FC0028CED10BB0BDEC028BBDE8F08FF6
:101DB000788200007407FF1F2DE9F04F8FB08A462C
:101DC0000546082154489DF860B016461C468DED26
:101DD0000A0B8DED081B8DED062B04F0B9FA4F4868
:101DE00003F00EF8BAF1000F00D016B90FB0BDE83D
:101DF000F08FB6B2A4B22B6894FBF6F206FB124445
:101E0000A4B222465B6A51462846984700220746FC
:101E10000023DDE90601BBF1000F3FD005F026FCF1
:101E20000028E3D04FF000084FF000094FF0000BFE
:101E30000D9642464B46DDE908016FB10026049637
:101E400001260396029704F0CDFFDDE90A23CDE9D0
:101E500000012846FFF7A0FE0D9A2968013494FB83
:101E6000F2F302FB1344A4B24B6A224651462846C1
:101E700098470BF1010B1FFA8BFB0746584605F0FC
:101E8000FFF88046894602460B46DDE9060105F06B
:101E9000EDFB0028CDD10FB0BDE8F08F05F0E6FBDB
:101EA0000028A3D04FF000084FF000090D964246DD
:101EB0004B46DDE908016FB1002604960126039622
:101EC000029704F091FFDDE90A23CDE900012846DD
:101ED000FFF762FE0D9A2968013494FBF2F302FBCE
:101EE0001344A4B24B6A22465146284698470BF148
:101EF000010B1FFA8BFB0746584605F0C1F88046D8
:101F0000894602460B46DDE9060105F0AFFB0028D5
:101F1000CDD10FB0BDE8F08F848200007407FF1FA1
:101F20002DE9F04F2DED088BB0EE408AF0EE608A7F
:101F3000B0EE429AF0EE629A89B005468B46CC48E4
:101F40001A9C9DF86C909DF870A00C21174698463D
:101F50008DED021B8DED043B04F0FAF9C54802F04B
:101F60004FFF002F00F00181B8F1000F00F0FD805D
:101F7000A4B21FFA88F653EC182B94FBF6F106FB7B
:101F8000114451EC190B04F02DFFBB4B002204F05F
:101F90002BFF05F09DFB83B2A4B20793BBF1000FAA
:101FA00040F08E80DDE90223DDE9040104F01AFF30
:101FB0000022B14B04F018FF05F08AFB1FFA80FAEB
:101FC000B9F1000F00F0D680AAF1020A504605F0E0
:101FD00057F8002241EC1B0BA74BDDE9020104F08E
:101FE00003FFB0EE4B2AF0EE6B2AB0EE480AF0EE9B
:101FF000680A41EC110BCDF800B023464246394641
:102000002846FFF7D9FEBAF1000FC0F27F81DDF854
:102010001C905444484694FBF6F306FB134405F029
:102020001FF8B0EE480AF0EE680AA4B241EC120BB9
:1020300023469DED041B41EC1A0B424639462846C7
:10204000CDF800B0FFF7FEFD4B4623441C4693FB42
:10205000F6FEDDE904010022874B06FB1E4404F076
:10206000C1FEB0EE4B2AF0EE6B2AB0EE490AF0EE5C
:10207000690AA4B2012241EC110B23460092A2444A
:10208000424639462846FFF797FE9AFBF6F306FBD1
:1020900013A39BB29DED021BB0EE4A2AF0EE6A2A12
:1020A000B0EE490AF0EE690A012442463946284654
:1020B0001A9409B0BDEC088BBDE8F04FFFF7C2BD24
:1020C0002B6822465B6A3946284698478346BAF110
:1020D000000F00F0D380B9F1000F40F09681DDE9E8
:1020E000020105F0F5FA1FFA80F8404604F0C8FF37
:1020F00002460B46DDE9040105F0AEFAA8B30798E5
:1021000004F0AEFF41EC190B404604F0A9FFB0EE1D
:10211000492AF0EE692AB0EE480AF0EE680A41EC6E
:10212000110B00235946012228460134CDF80090B6
:10213000FFF788FD94FBF6F3296806FB1344A4B26D
:102140004B6A224639462846984708F101081FFA8B
:1021500088F88346404604F093FF02460B46DDE9CB
:10216000040105F079FA0028CED109B0BDEC088B46
:10217000BDE8F08FDDF81CB0584604F071FFB0EEFA
:10218000480AF0EE680A41EC120B9DED021B234653
:10219000424641EC1A0BAAF1020A39462846CDF80C
:1021A0000090FFF74FFD5C44504694FBF6F306FBAE
:1021B000134404F065FF002241EC1B0B2E4BDDE9BC
:1021C000020104F011FEB0EE4B2AF0EE6B2AB0EEE5
:1021D000490AF0EE690AA4B241EC110BCDF8009067
:1021E0002346424639462846FFF7E6FDBAF1000F7E
:1021F000C0F28580A2449AFBF6F306FB13AA1FFAED
:102200008AFA0124B0EE4A2AF0EE6A2AB0EE490AB0
:10221000F0EE690A9DED041B5346424639462846B6
:102220000094FFF70FFD079BDDE904019A440022AB
:10223000114B9AFBF6FE06FB1EAA04F0D3FDB0EE8E
:102240004B2AF0EE6B2AB0EE480AF0EE680A41EC39
:10225000110B1FFA8AFA53464246394628461A9409
:1022600009B0BDEC088BBDE8F04FFFF7A5BD00BF7E
:10227000908200007407FF1F0000F03FB9F1000FCB
:1022800000F08880DDE9040105F022FA86B23046CC
:1022900004F0F6FEDDE902AB02460B465046594615
:1022A00005F0D0F900283FF460AF079804F0D8FE9D
:1022B00041EC180B4FF00109304604F0D1FEB0EEAE
:1022C000482AF0EE682AB0EE490AF0EE690A013EAB
:1022D00041EC110B2346424639462846CDF8009082
:1022E000B6B2FFF7AFFC304604F0CAFE02460B461A
:1022F0005046594605F0A6F90028DDD135E752468B
:1023000021463046FFF73AFC82467AE7214652469C
:102310003046FFF733FCDDF81C900446484604F0D5
:102320009FFEB0EE480AF0EE680A41EC120B23461D
:102330009DED041B41EC1A0B424639462846CDF868
:1023400000B0FFF77FFC4B4623441C4693FBF6FE90
:10235000DDE904010022524B06FB1E4404F042FD5D
:10236000B0EE4B2AF0EE6B2AB0EE490AF0EE690AA5
:10237000A4B2012241EC110B234600923946424699
:102380002846FFF719FD524621463046FFF7F6FB77
:1023900003467FE6DDE9020105F09AF986B2304690
:1023A00004F06EFEDDE904AB02460B46504659468A
:1023B00005F052F900283FF4D8AE079804F050FE1B
:1023C00041EC190B304604F04BFEB0EE492AF0EE1A
:1023D000692AB0EE480AF0EE680A013641EC110BAA
:1023E0002346424639462846CDF80090B6B2FFF75C
:1023F00029FC304604F044FE02460B46504659463E
:1024000005F02AF90028DDD1AFE6DDE9040105F089
:102410005FF91FFA80F8404604F032FE02460B4690
:10242000DDE9020105F00EF900283FF49EAE0798A1
:1024300004F016FE41EC180B4FF00109404604F081
:102440000FFEB0EE482AF0EE682AB0EE490AF0EE30
:10245000690A41EC110B0023594601222846013438
:10246000CDF80090FFF7EEFB94FBF6F3296806FB2E
:102470001344A4B24B6A224639462846984708F1CD
:10248000FF381FFA88F88346404604F0F9FD0246FB
:102490000B46DDE9020105F0D5F80028CED164E64F
:1024A0000000F03F2DE9F04F2DED048BB0EE408A97
:1024B000F0EE608AB0EE419AF0EE619A8FB08A46F3
:1024C00006460821724817461C4659EC128B8DEDC2
:1024D000082B8DED063B03F03BFF6E4802F090FCAD
:1024E000BAF1000F64D0002C67D051EC180B05F046
:1024F000EFF883B218460C9304F0C2FD02460B4677
:102500004046494605F0A8F8002851D051EC190B77
:1025100005F0DEF883B218460D9304F0B1FDCDE965
:102520000A010024BFB2DDE90A23DDE9060105F056
:1025300093F870B30D9D336822465B6A514630466E
:102540009847013494FBF7F307FB13448346A4B286
:10255000A0B10C9804F084FD002380460493284623
:10256000012389460393CDF808B004F079FD424673
:10257000CDE900014B463046FFF70EFB0135ADB209
:10258000284604F07DFDDDE9062305F05BF8002810
:10259000D1D10C9B03F1010B1FFA8BF318460C935E
:1025A00004F06EFDDDE9082305F04CF80028BAD1EF
:1025B0000FB0BDEC048BBDE8F08F51EC190B05F0AA
:1025C00087F883B218460C9304F05AFD02460B4676
:1025D000DDE9060105F040F80028E9D051EC180BC0
:1025E00005F076F883B218460D9304F049FDCDE965
:1025F0000A01BFB2DDE90A23DDE9080105F02CF884
:1026000080B30D9D336822465B6A51463046984739
:10261000013494FBF7F307FB13448346A4B2A0B143
:10262000284604F01DFD0023804604930C98CDF845
:1026300008B001238946039304F012FD4246CDE918
:1026400000014B463046FFF7A7FA0135ADB22846E8
:1026500004F016FD02460B46DDE9080104F0FCFF1C
:102660000028CFD10C9B03F1010B1FFA8BF3184606
:102670000C9304F005FD02460B46DDE9060104F06B
:10268000EBFF0028B6D10FB0BDEC048BBDE8F08F96
:10269000A08200007407FF1F19B14B64009B0A64FD
:1026A0008B647047C06810B10164426483647047F2
:1026B0002DE9F0419DF818809DF81C7029B3086D34
:1026C0000C461E46154630B191F8583063B90023C8
:1026D000636584F8583055B10023256584F8583077
:1026E00066650020BDE8F08105F048F8EFE767B1C6
:1026F00006FB08F005F03AF838B10123206584F8AC
:10270000583066650020BDE8F0814FF0FF30BDE82D
:10271000F08100BF30B583B0C4689DF818508DE8D3
:10272000280013460A462146FFF7C2FF03B030BD1A
:1027300019B1012381F84C307047C368012283F836
:102740004C20704719B1002381F84C307047C368A2
:1027500083F84C10704700BF084611461A1E06DB6E
:102760000A4492FBF0F300FB132290B27047FFF78C
:1027700005BA00BF002959D02DE9F0470C469A460A
:1027800015460646C7684BB3B88804F069FCD4E91F
:10279000002304F029FB002200238046894604F030
:1027A00047FF044600284BD14046494604F090FFBD
:1027B00082B22A80FB889A423AD92B802046012196
:1027C000BA889A4202D92A801346012032899A4255
:1027D00028D8013A2A800220BDE8F087388804F022
:1027E0003FFCD4E9002304F0FFFA002200238046D6
:1027F000894604F01DFF044640BB4046494604F0AC
:1028000067FF82B22A807B889A4215D92B802046A6
:1028100001213A889A4202D92A8013460120F2887F
:102820009A42D6D90029D6D1BDE8F0870320704757
:10283000204613462146C3E7204613462146E8E7D3
:10284000002213462A8011460120B9E75346A5F815
:1028500000A051460120DCE7002951D02DE9F84FB6
:102860000C46C568002A3CD1688804F0F9FB804614
:102870002888894604F0F4FB06460F4602460B46BC
:102880004046494604F0E8FEA8B332463B4640467F
:10289000494604F0A7FA00221D4B04F0A5FAD4E93A
:1028A00000674FF0000A4FF0000B80468946304623
:1028B000394652465B4604F0BBFE18BB054632461D
:1028C0003B464046494604F0BDFE88B14046494675
:1028D00000220F4B04F086FAC4E900010220BDE893
:1028E000F88FE88804F0BCFB80468946A888C1E7D9
:1028F0002846BDE8F88F42464B4630463946C8E781
:1029000003207047C4E900AB56465F460125D6E771
:102910000000F03F2DE9F04FC46894F84CE08DB012
:1029200005468DED080B8DED061B0E4617469846A5
:10293000BEF1000F3CD051EC100B04F0C9FE1FFAA1
:1029400080F9DDE9060104F0C3FE2388618899421D
:1029500035BF5A1C0131531ACB1A80B29BB2626D3B
:1029600003FB00939A4202D80DB0BDE8F08F00221D
:1029700008A92846FFF770FF0122044606A9284649
:10298000FFF76AFF002CEFD10028EDD1002E2DD0EB
:10299000002FE9D0DDE906ABDDE90823CDF8108092
:1029A000039702962846CDE900ABFFF7F5F8DBE781
:1029B00073460BAA08A9FFF7DDFE012304460DF1BB
:1029C0002E0206A92846FFF7D5FE002CCCD1002800
:1029D000CAD116B32868BDF82E20BDF82C108DE89A
:1029E0008001334604692846A047BDE7EB681A6CAE
:1029F000596C002AB8D00029B6D0DDE90867DDE9B6
:102A000006899B6C049302920391284632463B460A
:102A1000CDE90089FFF7C0F8A6E7EA682868916C5D
:102A2000136C0191546C00940469BDF82E20BDF81C
:102A30002C102846A04797E72DE9F04703683E4E43
:102A4000DB6A074682B032469847FC68357B63886C
:102A50002088181A401B04F013FBD4E9022304F069
:102A6000E7FDE8B1E388A08896F80DA0D4E90489D1
:102A7000181ACAEB000004F003FB42464B4604F070
:102A8000D7FD002852D1D4E906235046C4E90223D9
:102A900004F0F6FA42464B4604F0A6F9C4E90401F4
:102AA000307D254B002834D01B692BB30025B3683B
:102AB000DFF88480585D04F0E3FAD4E9042304F0DD
:102AC00093F97368CDE90001585D04F0D9FAD4E9AF
:102AD000022304F089F9002341EC100B9DED001B4B
:102AE000194601223846FFF715FF3369FC680135A6
:102AF000AB42DCD898F80C50681C04F0C1FA0246CE
:102B00000B46D4E9020104F06FF90126C4E9020181
:102B100000E00646084D0FCD28340FC495E80300A9
:102B200084E80300304602B0BDE8F0870026304656
:102B300002B0BDE8F08700BFB810FF1F2DE9F04FCD
:102B40002DED028BB0EE428AF0EE628A93B004461D
:102B50009DF878500E4692469B468DED0C0B8DED00
:102B60000A1B53EC122B51EC100B002D00F08B8044
:102B700004F038F9E36893F84C70CDE91001002FA8
:102B800000F08B801B6D002B78D000220CA9204612
:102B9000FFF762FE002210A907462046FFF75CFE01
:102BA000012280460AA92046FFF756FE002865D17B
:102BB000012F00F0AA80022F00F0AC809DED0C7B6D
:102BC00051EC170B8DED047B04F082FD9DED0A7B2B
:102BD0001FFA80F851EC170B8DED067B04F078FDA1
:102BE000E76882B2002F00F0A6803B8879888B428C
:102BF0008DBF01330131CB1A5B1A9BB203FB0288F4
:102C00007B6D43453AD9DDE9108949464046099331
:102C1000089204F05DFDB7F802E03988089A099B34
:102C20008E4580B27BD20131CEEB010189B201FB2E
:102C300002029A4222D242464B46DDE9040104F0E8
:102C400001FD002879D0DDE904234046494604F01F
:102C5000C9F800224B4B04F0C7F880468946002E85
:102C60007FD000955B4652463146204649EC128B98
:102C70009DED061B9DED040BFEF7E4FF13B0BDECCC
:102C8000028BBDE8F08F04F0AFF8E36893F84C7066
:102C9000CDE91001002F7FF475AF3B460DF13A02EC
:102CA0000CA92046FFF766FD3B460FAA10A98046F7
:102CB0002046FFF75FFD012307460DF13E020AA9FA
:102CC0002046FFF757FD0028D8D1B8F1010F2CD0CE
:102CD000B8F1020F2CD0BDF83C30BDF83A108B4251
:102CE0002BBF01334A1C5B1AD31A9BB256B3206820
:102CF00003958DE8400CBDF83E2045692046A84765
:102D000013B0BDEC028BBDE8F08FB8F1010F7FF47A
:102D100055AFB3E7B8F1020F7FF450AFAEE70EF155
:102D2000010EC1EB0E0189B281E7012FD3D1A5E7D6
:102D3000022FD0D1A2E7B84662E742464B46DDE912
:102D4000040184E7E2680395906C0290506C019056
:102D50002068156C00954569BDF83E202046A847BF
:102D60008CE707F140010EC9B0EE482AF0EE682A60
:102D7000009520469DED061B9DED040BFEF762FFBE
:102D80007CE700BF0000F03F2DE9F04F2DED028BF6
:102D9000B0EE428AF0EE628A93B004469DF8785015
:102DA0000E4692469B468DED0C0B8DED0A1B53ECA7
:102DB000122B51EC110B002D00F08A8004F012F858
:102DC000E36893F84C70CDE91001002F00F08A8081
:102DD0001B6D002B77D001220AA92046FFF73CFD8E
:102DE000012210A907462046FFF736FD0022804643
:102DF0000CA92046FFF730FD002864D1012F00F018
:102E0000A980022F00F0AB809DED0C7B51EC170BDD
:102E10008DED067B04F05CFC9DED0A7B1FFA80F8CB
:102E200051EC170B8DED047B04F052FCE76880B287
:102E3000002F00F0A5803B887A8893428DBF013334
:102E40000132D31A9B1A9BB203FB0083D7F854902C
:102E5000994538D99DED107B51EC170B8DED087B12
:102E600004F036FC7A883B889A4280B27CD20133E7
:102E70009B1A9BB203FB0088C84524D2DDE9048974
:102E8000DDE908234046494604F0DCFB002879D000
:102E9000DDE9080142464B4603F0A4FF00224B4BFC
:102EA00003F0A2FF80468946002E7FD000955B4646
:102EB00052463146204649EC128B9DED041B9DED98
:102EC000060BFEF779FF13B0BDEC028BBDE8F08F67
:102ED00003F08AFFE36893F84C70CDE91001002FEE
:102EE0007FF476AF01230DF13A020AA92046FFF7DD
:102EF00041FC01230FAA10A980462046FFF73AFCA7
:102F00003B4681460DF13E020CA92046FFF732FCFC
:102F10000028D8D1B8F1010F2AD0B8F1020F2BD078
:102F2000BDF83C30BDF83A2093422BBF0133511C11
:102F30009B1ACB1A9BB256B3206803958DE8400CC0
:102F4000BDF83E1085692046A84713B0BDEC028B42
:102F5000BDE8F08FB8F1010F7FF456AFB3E7B8F1D9
:102F6000020F7FF451AFAEE70132D31A9BB281E773
:102F7000B9F1010FD4D1A6E7B9F1020FD0D1A2E780
:102F80003B4663E7DDE90823DDE9040184E7E16806
:102F90000395886C0290486C019020680D6C009538
:102FA0008569BDF83E102046A8478CE707F140012F
:102FB0000EC9B0EE482AF0EE682A009520469DED35
:102FC000041B9DED060BFEF7F7FE7CE70000F03FCB
:102FD0002DE9F04F9FB004468A469DF8A81008914D
:102FE000B848099314218DED1A0B8DED181B8DED4A
:102FF000162B8DED143B15469DF8A4B003F0A8F9EF
:103000001022E168B048002301F00AFFAE4801F049
:10301000F7FEE368AC4893F84C1001F041FFAA4872
:1030200001F0EEFEDDE91A67DDE916893046394622
:1030300042464B4604F01AFB18B1CDE91A89CDE996
:103040001667DDE91867DDE91489304639464246DE
:103050004B4604F00BFB18B1CDE91889CDE9146794
:10306000E36893F84C60002E00F094801B6D002BF9
:1030700000F08D80012218A92046FFF7EDFB012208
:10308000064614A92046FFF7E7FB00221AA90746C7
:103090002046FFF7E1FB0022804616A92046FFF7F5
:1030A000DBFB012E00F0C080022E00F0DA80B8F1C8
:1030B000010F00F0BF80B8F1020F00F0D6809DED47
:1030C0001A7B51EC170B8DED0A7B04F001FB9DED93
:1030D000187B83B251EC170B8DED0C7B129304F02F
:1030E000F7FAE6681FFA80F8002E00F0C6807288B2
:1030F00033889A422BBF01320133D31A9B1A129A9A
:103100009BB203FB0823D6F8549099453FD99DED17
:10311000167B51EC170B8DED0E7B04F0D9FA7788F6
:103120003288974283B280F089800132D71BBFB2C8
:1031300007FB0838C8452AD29DED147B51EC170BCC
:1031400013938DED107B04F0C3FA129B80B207FB42
:1031500000F73B449945139B19D91F444F4516D29C
:10316000002D00F0A680089B0293289B0093099BEA
:10317000CDF804B02A46514620469DED103B9DED0A
:103180000E2B9DED0C1B9DED0A0BFEF7C9FE1FB02B
:10319000BDE8F08F04214D4803F0DAF84A4801F009
:1031A0002FFE01231DAA18A92046FFF7E3FA0123E9
:1031B00007460DF1760214A92046FFF7DBFA3346E5
:1031C0001CAA1AA981462046FFF7D4FA3346804646
:1031D0000DF1720216A92046FFF7CCFA012F48D054
:1031E000022F34D0B8F1010F35D0B8F1020F35D02D
:1031F000002D44D0BDF8766020682899089B049182
:103200008DE84004099906930391CDF814B0029516
:10321000C569BDF87230BDF87420BDF87010204645
:10322000A8471FB0BDE8F08F012FB0D0B8F1010F53
:103230007FF441AF01287FF442AFA8E70137BF1AFE
:10324000BFB207FB0838C845FFF476AF9FE7B9F176
:10325000020FC7D19BE70128CAD198E70228C7D13E
:1032600095E7022F7FF423AF91E702287FF427AF81
:103270008DE7B9F1010FB5D189E7334643E7E3683C
:10328000089ACDF818B005929A6C04925A6CBDF861
:103290007650039220681E6C02968DE82004BDF8DB
:1032A0007230C569BDF87420BDF870102046A8477B
:1032B0006DE70899736C326C0291CDF804B0B16C73
:1032C000009158E7AC8200007407FF1FC482000021
:1032D0002DE9F04105461E4C1E4886B00E461921C8
:1032E0001746984603F034F81022E9680023204678
:1032F00001F096FD204601F083FDEC68A388E0888C
:10330000C01A03F0BDFE2388CDE904016088C01A0D
:1033100003F0B6FE9FED0C1B41EC120BB0EE410A20
:10332000F0EE610A002102910191CDF800803B4648
:10333000324628469DED043B0121FFF749FE06B0C9
:10334000BDE8F081AFF30080000000000000000045
:103350007407FF1FCC8200002DE9F04F59EC118B50
:1033600095B056EC135B01F001070C4687F00105A0
:103370000D910E900F9213EE100A11EE102A0C937D
:1033800031464B4657EC106B8DED043B8DED062B13
:10339000129503F027FD04F09BF99DED062B81B2F9
:1033A0003B463246139151EC120B03F01BFD04F027
:1033B00067F9B0F1000AB4BF4FF0FF33012339467B
:1033C0003046B8BFCAF1000A109304F081F94946AB
:1033D00087B2404604F07CF985B2284603F050FEDF
:1033E00002460B46DDE9040104F040F9139A4FEA66
:1033F0004A0A4FEA540BC2EB0A081E9C002800F050
:10340000C280530000261193BDF8309043E003F0D2
:1034100027FECDE90A0107EB0B0003F031FECDE9F1
:103420000801A81B013003F02BFE129BCDE9060119
:10343000D819CBEB000003F023FE012302930023F5
:1034400041EC100B019300949DED0A3B9DED082B80
:103450009DED061B0C9B0F9A0E980121FFF7B8FDFE
:10346000109B16FA84F41F4494FBF9F309FB1344F0
:10347000119BBFB2C3EB0808A4B200260135ADB260
:10348000284603F0FDFD02460B46DDE90401D04469
:1034900004F0ECF828B30136B8F1000F2846B6B2B4
:1034A000ECDD0D9B012BB2D1304603F0D9FDCDE907
:1034B0000801A81B013003F0E3FDCDE90601384601
:1034C00003F0CEFD002341EC100B00939DED082B83
:1034D0009DED061B23460C9A0F990E98FFF754FC9E
:1034E000BEE7B0460D9B012B30D0284603F0B8FD57
:1034F000CDE9080107EB0B0003F0C2FDCDE90601A1
:10350000C8EB050003F0BCFD129B3B44CDE9040170
:10351000CBEB030003F0B4FD002541EC100B0121BF
:1035200000940C9B0F9A0E9802919DED083B9DED27
:10353000062B9DED041B0195FFF74AFD139803F040
:103540008FFD41EC100B15B0BDE8F08F304603F055
:1035500087FDCDE90601C8EB050003F091FDCDE93B
:103560000401384603F07CFD002541EC100B234696
:103570000C9A0F990E9800959DED062B9DED041B5E
:10358000FFF702FCDAE780460646ABE72DE9F04F8D
:1035900059EC138B97B056EC115B01F001070C4608
:1035A00087F0010506911090119213EE100A11EEAA
:1035B000102A0F93494633468DED041B57EC126BCE
:1035C0008DED080B149503F00DFC04F081F89DEDD2
:1035D000080B81B253EC102B15913046394603F09D
:1035E00001FC04F04DF8B0F1000AB4BF4FF0FF3316
:1035F000012339463046B8BFCAF1000A129304F0DD
:1036000067F8494687B2404604F062F885B228461A
:1036100003F036FD02460B46DDE9040104F008F82C
:10362000159A4FEA4A0A4FEA540BC2EB0A08209C4B
:10363000002800F0C080530013930026BDF83C9092
:1036400042E003F00DFDCDE90C0107EB0B0003F0A8
:1036500017FDCDE90A017019013803F011FD149B23
:10366000CDE90801D819CBEB000003F009FD0123D7
:1036700041EC100B0293019300949DED0C3B9DEDEA
:103680000A2B9DED081B0F9B119A10980121FFF743
:103690009FFC129B16FA84F4FF1A94FBF9F309FBC2
:1036A0001344139BBFB2C3EB0808A4B20026013D2C
:1036B000ADB2284603F0E4FC02460B46DDE9040106
:1036C000D04403F0B5FF28B30136B8F1000F284607
:1036D000B6B2ECDD069B012BB3D1304603F0C0FC43
:1036E000CDE90A017019013803F0CAFCCDE90801DF
:1036F000384603F0B5FC069B009341EC100B9DEDA2
:103700000A2B9DED081B23460F9A11991098FFF77D
:103710003BFBBEE7B046069B012B2FD0284603F0AB
:103720009FFCCDE9080107EB0B0003F0A9FCCDE9F4
:10373000060108EB050003F0A3FC149B3B44CDE914
:103740000401CBEB030003F09BFC41EC100B0121C7
:1037500000940F9B119A109802919DED083B9DEDEE
:10376000062B9DED041B0191FFF732FC159803F029
:1037700077FC41EC100B17B0BDE8F08F304603F03A
:103780006FFCCDE9080108EB050003F079FCCDE9F9
:103790000401384603F064FC069B009341EC100BD7
:1037A00023460F9A119910989DED082B9DED041B4F
:1037B000FFF7EAFADAE780460646ACE72DE9F04F74
:1037C0005BEC10AB97B056EC125B01F001070C46B6
:1037D00087F001050F911090119212EE100A10EE71
:1037E000102A0E9331465B4657EC116B8DED042B7E
:1037F0008DED063B149503F0F5FA03F069FF9DED9E
:10380000063B81B232463B46159151EC130B03F057
:10381000E9FA03F035FF031EBABF5B424FF0FF32F7
:1038200001225B00394630461D461292069303F092
:103830004FFF594687B2504603F04AFF86B23046E2
:1038400003F01EFC02460B46DDE9040103F00EFF07
:1038500015994FEA5409C1EB0508209C002800F097
:10386000CA8000254B00AB461393BDF838A02094C6
:1038700047E003F005FCCDE90C01304603F0F0FB16
:10388000149BCDE90A01D819C9EB000003F0F8FB3D
:10389000CDE90801701B013003F0F2FB209B00937F
:1038A00041EC100BCDF808B0CDF804B09DED0C3B09
:1038B0009DED0A2B9DED081B0E9B119A109801217E
:1038C000FFF786FBBDF8803015FA83F4129B1F4486
:1038D00094FBFAF30AFB1344139BC3EB0808A3B24F
:1038E000BFB2209300250136B6B2304603F0C8FBC4
:1038F000069C02460B46DDE90401A04403F0B6FE37
:1039000030B30135B8F1000F07EB0900ADB2EADDC5
:103910000F9B012BADD1284603F0A2FBCDE90A0194
:10392000384603F09DFBCDE90801701B013003F020
:10393000A7FBCDF800B041EC100B9DED0A2B9DEDDF
:10394000081B209B0E9A11991098FFF7F7F8B9E71A
:10395000209CA8460F9B012B30D007EB090003F0F9
:103960008FFBCDE90801304603F07AFB149B3B4402
:10397000CDE90601C9EB030003F082FBCDE90401A8
:10398000C8EB060003F07CFB41EC100B0021029118
:10399000019100940E9B119A10989DED083B9DEDAE
:1039A000062B9DED041B0121FFF712FB159803F078
:1039B00057FB41EC100B17B0BDE8F08F284603F021
:1039C0004FFBCDE90601384603F04AFBCDE904017F
:1039D000C8EB060003F054FB002541EC100B234616
:1039E0000E9A1199109800959DED062B9DED041BE4
:1039F000FFF7A4F8DAE780460546ABE72DE9F04F7C
:103A000059EC108B97B056EC125B01F001070C4695
:103A100006911090119212EE100A10EE102A0F93D8
:103A200031464B4687F001058DED040B57EC136BC7
:103A30008DED082B8DED0A1B149503F0D3F903F0DF
:103A400047FE9DED0A1B81B253EC112B15913046B8
:103A5000394603F0C7F903F013FEB0F1000BB4BF11
:103A60004FF0FF33012339463046B8BFCBF1000B8E
:103A7000129303F02DFE87B2DDE9080103F028FE62
:103A800086B2304603F0FCFA02460B46DDE904013B
:103A900003F0CEFD159A4FEA4B0B4FEA5409C2EBE7
:103AA0000B08209C002800F0C280530000251393CF
:103AB000BDF83CA042E003F0E3FACDE90C0130464A
:103AC00003F0CEFA149BCDE90A01D819C9EB000026
:103AD00003F0D6FACDE90801A819013803F0D0FAAD
:103AE00000230293012341EC100B019300949DED00
:103AF0000C3B9DED0A2B9DED081B0F9B119A109816
:103B00000121FFF765FA129B15FA84F4FF1A94FB62
:103B1000FAF30AFB1344139BBFB2C3EB0808A4B229
:103B20000025013EB6B2304603F0AAFA02460B4623
:103B3000DDE90401D84403F07BFD30B30135B8F171
:103B4000000F07EB0900ADB2EBDD069B012BB2D1F4
:103B5000284603F085FACDE90A01384603F080FAD9
:103B6000CDE90801A819013803F08AFA069B0093F1
:103B700041EC100B9DED0A2B9DED081B23460F9A7F
:103B800011991098FEF7DAFFBDE7A846069B012BB6
:103B900030D007EB090003F073FACDE90801304695
:103BA00003F05EFA149B3B44CDE90601C9EB030028
:103BB00003F066FACDE9040108EB060003F060FAB1
:103BC000002541EC100B012100940F9B119A1098D5
:103BD00002959DED083B9DED062B9DED041B01918B
:103BE000FFF7F6F9159803F03BFA41EC100B17B00C
:103BF000BDE8F08F284603F033FACDE908013846D6
:103C000003F02EFACDE9040108EB060003F038FAC0
:103C1000069B009341EC100B23460F9A11991098C4
:103C20009DED082B9DED041BFEF788FFDAE780462B
:103C30000546ABE72DE9F04F59EC118B8BB057ECF3
:103C4000136B0790089109921C4613EE100A39462F
:103C500011EE102A4B468DED043B9DF854505BEC61
:103C600010AB8DED022B03F0F7FC00284CD0424640
:103C70004B463046394603F0B5F800224F4B03F06F
:103C8000B3F8524606460F465B46DDE9020103F0F3
:103C9000E3FC00285CD052465B46DDE9020103F0FC
:103CA000A1F80022454B03F09FF8BDF850E01FFA41
:103CB00084FC32463B469EFBFCF60CFB16E6B6B295
:103CC00003F0D4FC28B352465B46DDE9020103F061
:103CD000AFFC00962346099A0899002858D0079807
:103CE00049EC138B4BEC12AB9DED041B9DED020BCD
:103CF000002D58D0FFF782FE51EC100B03F0E8FCCA
:103D000080B20BB0BDE8F08FDDE9042340464946A0
:103D1000B1E742464B46DDE9040103F089FC009619
:103D20002346099A0899F0B1079849EC138B4BEC9C
:103D300012AB9DED041B9DED020BFDB9FFF70CFBD3
:103D400051EC100B03F0C4FC80B20BB0BDE8F08F57
:103D5000DDE902235046594603F044F80022174B90
:103D600003F042F8A1E707989DED043B9DED022B7F
:103D700049EC118B4BEC10AB002DDFD0FFF706FCAC
:103D800051EC100B03F0A4FC80B20BB0BDE8F08F37
:103D900007989DED043B9DED022B49EC118B4BECFC
:103DA00010AB002DA6D1FFF709FD51EC100B03F06D
:103DB0008FFC80B20BB0BDE8F08F00BF0000F03F79
:103DC0002DE9F04F97B08DED120B8DED101B8DEDA1
:103DD0000E2B8DED0C3B002900F0E9800D469A4634
:103DE0009346044653EC122B51EC100B8DED060B51
:103DF0008DED042B03F03AFC38B19DED042B9DEDC5
:103E0000060B8DED122B8DED0E0BDDE91067DDE954
:103E10000C893046394642464B4603F027FC0028C1
:103E200040F0C880E36893F84C60002E00F0CC802E
:103E30001B6D002B00F0BB80012210A92046FEF76D
:103E40000BFD012206460CA92046FEF705FD0022C7
:103E500012A980462046FEF7FFFC002207460EA965
:103E60002046FEF7F9FC012E00F01D81022E00F025
:103E70002481012F00F01D81022F00F023819DED90
:103E8000127B51EC170B8DED047B03F021FCDDE977
:103E900010671FFA80F93946304603F019FCD4F850
:103EA0000C801FFA80FBB8F1000F00F01681B8F803
:103EB0000220B8F800309A422BBF01320133D21AE7
:103EC0009A1A92B202FB0B92D8F854309A426ED2F0
:103ED0009DED0E7B51EC170B08938DED067B03F0E7
:103EE000F7FBB8F802E0B8F80010089B8E4582B2E4
:103EF000C0F0B8800EF10108C1EB08081FFA88F87D
:103F000008FB0B2B9B4552D29DED0C7B51EC170B04
:103F10000B930A928DED087B03F0DAFB80B208FB6D
:103F200000F80B9B0A9AC1444B4540D990449845F0
:103F30003DD2DDE90489DDE906234046494603F028
:103F400081FB002840F0CE80DDE90623DDE9040195
:103F500002F048FF00226B4B02F046FFDDE9082328
:103F6000804689463046394603F06CFB002800F055
:103F7000BE8032463B46DDE9080102F033FF0022F5
:103F8000604B02F031FF42464B4603F0DFF803F08E
:103F90009FFB5346024629469DED083B9DED062BAF
:103FA00047EC116B9DED040B2046FEF77BFA17B032
:103FB000BDE8F08FE368CDE90C6793F84C60CDE97C
:103FC0001089002E7FF434AF012315AA10A92046D2
:103FD000FEF7D0FB012307460DF156020CA920463F
:103FE000FEF7C8FB334614AA12A981462046FEF705
:103FF000C1FB334680460DF152020EA92046FEF762
:10400000B9FB012F4BD0022F60D0B8F1010F61D066
:10401000B8F1020F63D0BDF85230BDF85010BDF8B2
:104020005660BDF854208B422BBF581C481C401AC8
:10403000C01A964287B233BF501C701C801A801B76
:1040400080B200FB07F058452768CDF80CA028BFC8
:1040500058460290019500963D6A2046A84717B041
:10406000BDE8F08F0131CEEB01081FFA88F808FB9C
:104070000B2B9B459BD29DED0C7B51EC170B0B93AF
:104080000A928DED087B03F023FB80B208FB00F859
:104090000B9B0A9AC1449945FFF448AF87E7B9F1F1
:1040A000010FB2D183E7B8F1010F80D0012F7FF467
:1040B000E3AE01287FF4E3AE79E7B8F1020F7FF4B5
:1040C000D8AE74E702287FF4DAAE70E7B9F1020FD8
:1040D0009BD16CE701289ED169E74246F4E60228AD
:1040E00099D164E742464B46DDE9060130E7DDE958
:1040F00008233046394602F075FE0022014B02F0DB
:1041000073FE40E70000F03F2DE9F047054682B01E
:104110000C4661B38B88C88891F84C80EF68E960E1
:104120000026C01A81F84C6002F0AAFF2388D4F858
:1041300054A0D4F85090CDE900016088C01A02F074
:104140009FFF9FED211B41EC120BB0EE410AF0EEF8
:10415000610A3346524649469DED003B2846FFF72B
:104160002FFE84F84C80EF6002B0BDE8F087C6688F
:10417000B388F08896F84C7086F84C10C01A02F09C
:104180007FFF3388D6F85480CDE900017088366D02
:10419000C01A02F075FF9FED0C1B41EC120BB0EE44
:1041A000410AF0EE610A2346424631469DED003B4E
:1041B0002846FFF705FEEB6883F84C7002B0BDE8B7
:1041C000F08700BFAFF30080000000000000000097
:1041D000704700BF2DE9F04F89B0DDF848809DF8A9
:1041E00054400594B8F1000F01D0139C14B909B0E4
:1041F000BDE8F08FBDF84C7006931E46BDF85030F8
:10420000079193FBF7F4016807FB1434A4B24B6ADF
:1042100091464146224605469847059A002A31D0E4
:10422000069B0BB3079EC3EB060B1FFA8BFB4FF0ED
:10423000000E01232A688DE8084031460346D2F873
:1042400010A028464A460134D04794FBF7F329686A
:1042500007FB1344A4B2013E4B6A2246414628465E
:10426000B6B29847B345E2D1059B0293139B0093E6
:1042700001944346069A07984946FFF7A9FF09B0FB
:10428000BDE8F08F002EEFD0069B079E1A4602EB8A
:10429000060B1FFA8BFB012100232A688DE80A0018
:1042A000013403463146D2F810A028464A46D0478A
:1042B00094FBF7F3296807FB1344A4B201364B6A59
:1042C000224641462846B6B29847B345E3D1CBE7EC
:1042D000704700BF2DE9F04F89B0DDF848809DF8A8
:1042E00054400594B8F1000F01D0139C14B909B0E3
:1042F000BDE8F08FBDF84C7006931E46BDF85030F7
:1043000093FBF7F4894607FB143401680792A4B2C3
:1043100022464B6A414605469847059A002A31D005
:10432000069B0BB3079EC3EB060B1FFA8BFB4FF0EC
:10433000000E01232A688DE8084049460346D2F85A
:1043400010A0284632460134D04794FBF7F3296881
:1043500007FB1344A4B2013E4B6A2246414628465D
:10436000B6B29847B345E2D1059B0293139B0093E5
:1043700001944346069A07994846FFF7A9FF09B0FA
:10438000BDE8F08F002EEFD0069B079E1A4602EB89
:10439000060B1FFA8BFB012100232A688DE80A0017
:1043A00001340346D2F810A0494632462846D04789
:1043B00094FBF7F3296807FB1344A4B201364B6A58
:1043C000224641462846B6B29847B345E3D1CBE7EB
:1043D000704700BF2DE9F04F8FB09DF874501A9FC1
:1043E0009DF8644007959DF87850BDF86080099469
:1043F0000C95002F00F0ED801B9F002F00F0E9804E
:104400001E46BDF86C700893BDF8703093FBF7F44E
:10441000761A07FB1434099B0A92013605460B9164
:10442000A4B2B6B2002B40F0D7800A9BC3EB0809B8
:104430001FFA89F9079B09F1010B1FFA8BFB002B6F
:104440005DD0099AD0F800E00A9B03921B9A019272
:1044500009F1FF391A9A00921FFA89FA02945A1C3C
:10446000DEF81890534692B2C847BBF1020B00F138
:1044700016815C4494FBF7F307FB1344A4B21B9929
:104480002B68019100221A99029400910392D3F8AB
:1044900014900B993346424628463444C84794FB4F
:1044A000F7F31B9A2968019207FB13441A9A0092AA
:1044B0000123A4B20393029408F1FF32D1F81890BB
:1044C0000899534692B22846C847BBF1000FC0F284
:1044D000E0805C4494FBF7F307FB1344A0B21B9904
:1044E0002A68019101231A990290009103930446CE
:1044F00033462846566908990A9AB04758E0079B00
:10450000D0F800E003931B9B01931A9B0294009345
:10451000DEF814A03346D0473444079A94FBF7F3EF
:1045200007FB13442B6803921B9A01921A9A00927C
:104530000A9A089909F1FF39A4B202941FFA89F97D
:104540000132D3F818A092B24B462846D047BBF1AF
:10455000020200F19880144494FBF7FB07FB1B4414
:10456000A4B21B9A2B6801924FF0010A1A9A029486
:104570000092CDF80CA0D3F814B008993346424607
:1045800026442846D84796FBF7F41B9B29680193DD
:1045900007FB14641A9B0093A4B2CDF80CA00294FC
:1045A00008F1FF328E690B994B46284692B2B0470C
:1045B000079B05930C9B04931B9B0293099B019300
:1045C0001A9B009303944346089A0A990B98FFF7A5
:1045D000FFFE0FB0BDE8F08F03681A995B6A2246B0
:1045E00098470C9B73B3079B002B7AD00A9A90458F
:1045F000DED3C146CDF834804FF0010AB046934671
:104600002B68CDF80CA08DE80104002202925E69AF
:1046100008994A46434628460134B04794FBF7F3CD
:10462000296807FB1344A4B209F1FF394B6A1A99B0
:10463000224628461FFA89F99847CB45E0D9DDF88C
:104640003480B5E7079B8BB30A9A9045B0D3DDF869
:104650002090CDF8348047464FF0010AB04693468B
:104660001B9A2B6801921A9A0092CDF80CA0029422
:104670003A46013F5E69494643462846BFB2B047C5
:10468000BB45EDD9DBE721463846FDF777FA04460E
:1046900067E75A4621463846FDF770FA1FE721467C
:1046A0005A463846FDF76AFA0446E8E60A9FB845D6
:1046B000FFF47EAFDDF82CB09A46B1461B9A2B680A
:1046C00001921A9A0092CDF80CA002943A46013752
:1046D0005E6959464B462846BFB2B047B845EDD251
:1046E00066E70A998845FFF463AF89469A46B34660
:1046F00001222B68CDF80CA08DE80500CDF808A0AC
:104700004A465E690B995B4628460134B04794FBE4
:10471000F7F3296807FB1344A4B209F101094B6AB6
:104720001A99224628461FFA89F99847C845DFD2C8
:104730003EE700BF704700BF2DE9F04F87B0BDF8DE
:104740004040119F039426469DF84C40002F3FD0D7
:104750000293059204910546002C3CD0049A0299DC
:104760008A422CD8BDF84880DDF80C90002492468F
:10477000BB46059E4E451AD82B6822465B6A5946B1
:1047800028469847002329680193013401230093A8
:1047900094FBF8F208FB12443246013603460F69D7
:1047A00028465146B6B2B847B145A4B2E4D20AF1A0
:1047B000010A029B1FFA8AFA5345DAD25F46129B1E
:1047C00000930197039B029A05990498FFF7B2FFA3
:1047D00007B0BDE8F08FB242F1D8DDF814A0BDF803
:1047E0004880DDF80890BB46049E4E451AD82B68D9
:1047F00022465B6A59462846984700232968019358
:104800000123009301340F6994FBF8F2314601361D
:10481000034608FB124428465246B6B2B847B14593
:10482000A4B2E4D20AF1010A039B1FFA8AFA5345A3
:10483000DAD2C3E710B4047F4160022CC26003D017
:104840005DF8044B00F0DCB983685DF8044B184751
:104850002DE9F0410468E56815F0807F794D256009
:1048600052D1DF0740F1B380002900F0E3800D78DA
:10487000012B18BF45F000456563013190F82C808D
:1048800003F1FF3C48EA0828BCF1000F00F0A880C3
:1048900021B14D7811F8028B45EA082845682E7A37
:1048A000BCF1020F06F1FF364FEA06360CBF48F0A6
:1048B000805548F01045B6B26563ACF1020C08E0D3
:1048C0000AB114700132013B05F47045B54216D9A6
:1048D0000468E56A15F0F00FF6D0A46B13F0010F31
:1048E00017464FEA242EEBD11AB107F802EB5470A9
:1048F0003A4605F47045B542A3F10203E8D8BCF18D
:10490000000F6DD00468C3E7DD074CD5002900F027
:1049100089800D78012B18BF45F000456563013192
:1049200003F1FF3E90F82CC0BEF1000F41D029B139
:1049300091F801C00D78023145EA0C2C45682E7AB9
:10494000BEF1020F06F1FF364FEA06360CBF4CF0FF
:1049500080554CF01045B6B26563AEF1020E08E02A
:104960000AB114700132013B05F47045B54215D906
:104970000468E56A15F0F00FF6D013F0010F174642
:10498000A46BEDD122B107F8024B241254703A46C1
:1049900005F47045B542A3F10203E9D8BEF1000F5A
:1049A00007D00468C3E79E4690F82CC0BEF1000F04
:1049B000BDD11BB30468E16A11F0F00FFBD0A16B0D
:1049C000DC071DD50AB111700132013BF1E790F807
:1049D0002C809C4648EA0828BCF1000F7FF458AFB1
:1049E00063B10468E16A11F0F00FFBD0DE07A16B40
:1049F0000FD50AB111700132013BF1E7BDE8F0813A
:104A00002AB114460D1204F8021B55702246023BCF
:104A1000CFE72AB114460D1204F8025B517022460A
:104A2000023BDDE790F82C50012B18BF45F0004504
:104A3000656375E790F82C50012B18BF45F00045D1
:104A400065631BE700041F80F0B4464B464A986B31
:104A50005C6B01791170454922790A701A6B0079F3
:104A60000870002A46D05968C9688A423ED8216831
:104A7000CC8B240402F1FF3065D4C0F30E00C88350
:104A8000C88B80B2C882996B0968C88B000452D465
:104A9000C2F30E00C883C88B002480B212F1FF322B
:104AA000C88218BF01221C63596B2E4809680D6823
:104AB00000F12C04A54236D00068C46814F0804F81
:104AC0000C680D6815BF248824780235013544F040
:104AD00000440D604463996B254B09791970214995
:104AE00012B14A6B12791A70F0BC7047521A1A63ED
:104AF0000122D9E7D86B196805681E4C0A63CC629D
:104B0000CC682D681C4E24F080440327B542CC604D
:104B100083F82D701FD1037F4260022BC2601ED02C
:104B2000F0BC00F06DB8016890F82C00CC6840F043
:104B300000404863CFE7CC8BC2F3080004F47E4406
:104B40002043C883A7E7CC8BC0F3080004F47E445D
:104B50002043C88394E72B461146F0BC184783686E
:104B6000F0BC18473007FF1F1F8000401C8000402A
:104B70001B80004000000FFF3548000090E80C004B
:104B8000F0B41C6859682568164F174E29432160F8
:104B9000164D17491760D66015611160417A154AA4
:104BA0005C180C3194F82C4053F8215002EBC401EE
:104BB00049680D60017A5C1803EB8101247ECD69A0
:104BC00002EBC40149680D60817A581803EB810338
:104BD00090F84000596C02EBC002F0BC53681960B9
:104BE000704700BF01401F0001100038011000781D
:104BF00000001F80488900000BB1FFF729BE7047F5
:104C000010B4EFF3108272B6437F33B9017F0129EC
:104C100008D0032910D00123437702B962B65DF8AA
:104C2000044B7047114C2168A1B1114943610B68D5
:104C3000836108605861EEE70E4C216881B10E492E
:104C400043610B688361086058610C4B4FF08051E1
:104C50001960E0E7064B4161816120601860DAE786
:104C6000054B4161816120601860EEE79011FF1FE4
:104C70008C11FF1F8011FF1F8411FF1F04ED00E046
:104C800070B5EFF3108272B60C4C206880B10C4EF8
:104C900000254369236073B19D6102B962B645770F
:104CA00083689847EFF3108272B620680028F0D12D
:104CB00002B962B670BD3360EFE700BF8011FF1F1D
:104CC0008411FF1FFFF7DCBF184A30B41468002CB2
:104CD00027D0036821688B420ED2CB1A0021846052
:104CE000C1602360E06010600223037530BC704730
:104CF00011688B42144608D3A2685B1A0360002A2D
:104D0000F6D18260C460A060EEE7D268C2608460C1
:104D1000E060C568CB1A0222A8602360027530BC2F
:104D200070478460C4601060DEE700BF8811FF1F19
:104D3000F8B5224E34682CB32368002B3AD1204FAB
:104D40001D4604E03468ECB12368002B32D1A3681F
:104D500003B1DD6020693360036825751B68BB42C1
:104D600021D1037F4560022BC46020D0FFF748FFAC
:104D70006368002BE6D023602046FFF7A5FF346868
:104D8000002CE1D1EFF3108372B60E4A00211068B7
:104D9000116003B962B628B18468FFF795FF204619
:104DA0000028F9D1F8BD224600219847E0E7836842
:104DB0009847DDE7013B2360E4E700BF8811FF1F50
:104DC000354800009811FF1F024A13680133136031
:104DD000FFF7AEBF9C11FF1FF8B572B106460F4634
:104DE00014460025336817F8011B1B6830469847A6
:104DF000013C0544F6D12846F8BD1546FBE700BF47
:104E000000B5064A036812885B6883B001A9ADF853
:104E100004200222984703B05DF804FB4489000097
:104E2000F0B507468BB0002A33D0012A08BF0A220A
:104E300051B3212400E0F4B2B1FBF2F502FB1511ED
:104E4000C8B2092900F1300198BFC8B20AA988BFC9
:104E50003730214488BFC0B201F8240C661E2946B1
:104E6000002DE8D133B1013CE4B20AAB23442D223A
:104E700003F8242C3B6801AA11195B683846C4F179
:104E8000220298470BB0F0BD30228DF82520212456
:104E9000E8E70368C9B21B6898470BB0F0BD00BFD4
:104EA0000029BABF49422D2300230A22FFF7B8BFC9
:104EB00008B5FBF7E5FAFBF7D9FA01F04DFBFAE785
:104EC000844641EA000313F003036DD1403A41D315
:104ED00051F8043B40F8043B51F8043B40F8043BD4
:104EE00051F8043B40F8043B51F8043B40F8043BC4
:104EF00051F8043B40F8043B51F8043B40F8043BB4
:104F000051F8043B40F8043B51F8043B40F8043BA3
:104F100051F8043B40F8043B51F8043B40F8043B93
:104F200051F8043B40F8043B51F8043B40F8043B83
:104F300051F8043B40F8043B51F8043B40F8043B73
:104F400051F8043B40F8043B51F8043B40F8043B63
:104F5000403ABDD2303211D351F8043B40F8043B03
:104F600051F8043B40F8043B51F8043B40F8043B43
:104F700051F8043B40F8043B103AEDD20C3205D313
:104F800051F8043B40F8043B043AF9D2043208D00B
:104F9000D2071CBF11F8013B00F8013B01D30B887D
:104FA00003806046704700BF082A13D38B078DD05B
:104FB00010F003038AD0C3F10403D21ADB071CBF2D
:104FC00011F8013B00F8013B80D331F8023B20F897
:104FD000023B7BE7043AD9D3013A11F8013B00F8D0
:104FE000013BF9D20B7803704B7843708B78837058
:104FF0006046704708B5104C08E0236859050DD489
:1050000023681A050FD42368DB0411D423685803DE
:10501000F3D500F0F3FA23685905F1D501F08AFBC6
:1050200023681A05EFD501F01BFC2368DB04EDD5DE
:1050300001F0ACFCEAE700BF3480044008B5FFF79C
:10504000D9FF00BF014B10221A8070470020054095
:10505000704700BF094908B50B6830B16A4618446B
:10506000A2F50052904202D20860184608BD02F034
:105070004FFB0C2303604FF0FF3008BD7007FF1F8C
:10508000FEE700BF084A1378802B01D0002070474C
:105090000649074B07480860002119701378802BD8
:1050A000FCD00120704700BF03E00740448004406B
:1050B00001E0074000002822094A1378012B01D0A3
:1050C0000020704703F1804303F5FC236021197031
:1050D0001378802BFCD1034B034A1A6001207047E0
:1050E00003E007404480044000000602F0B44D1E77
:1050F0002E46002400E00134B0FBF2F302FB130063
:10510000092800F130078ABF3730F8B2C0B206F87C
:10511000010F1846002BEED10A1953704CB11078CC
:1051200015F8016F28700133E01A834202F8016913
:10513000F5DB0846F0BC704710B4114B53F8302033
:1051400092F8804234B1012379B182F880305DF861
:10515000044B704703EBC0035B681A6851B922F037
:1051600002021A605DF8044B704782F800315DF866
:10517000044B704742F003021A605DF8044B70471D
:10518000488900001C4A02EBC00301295B6811D06A
:1051900004291BD052F83000002280F8802229B167
:1051A000022920D0032922D01A6070474FF4807260
:1051B0001A60704752F830004FF4A27280F88012E3
:1051C0001A601A6822F020021A60704752F83010F4
:1051D0004FF4A272012081F880021A601A6842F02E
:1051E00020021A60704740F203121A6070474FF4B1
:1051F00081721A60704700BF4889000030B4054BC7
:10520000054D064C002210211A602A6020601960AA
:1052100030BC704714D0034004D0034000D003409A
:105220003F2801D8FFF788BF704700BF3F2801D84B
:10523000FFF7A8BF704700BF2DE9F843054672B6D7
:10524000224F234B234A1B683C68126862B6520106
:1052500002D5322B88BF0134B5B3C3F52F3303F227
:105260001F331D4EDFF86890DFF868809B084FF40D
:105270007A72A6FB031302FB04F404EB930472B6E8
:10528000D9F800103A68D8F800E062B6C1F52F33BB
:1052900003F21F339B08A6FB03031EF0806FC4EBD1
:1052A00093034FF47A7002D0322988BF013200FB99
:1052B0000233B3F57A7F04D3013D05D004F57A7447
:1052C000DDE701F049F9DAE7BDE8F8839C11FF1F3B
:1052D00018E000E004ED00E0176CC116F8B54E4B85
:1052E0004E48DFF85CC14E4C4E49DFF858E14E4E57
:1052F0004E4D4F4F4FF000621A604FF080521A60CF
:105300004FF000521A604FF080421A604FF0004296
:105310001A600022026028234EF6FF70CCF80000CD
:10532000CEF8003023600EF5012E0B6033602B6049
:1053300006F500263B6005F50025A36207F500276A
:105340008B6204F5012401F5012106F6E87605F6E5
:10535000E87507F57F6710310EF1100E20343360C9
:105360002B60CEF800303B600B602360314CBB619A
:105370008B6109212160A7F5002704F58054203FA7
:1053800008343A602060BB60E36047F8041C04F511
:10539000FD2407F5FE27043704F2FC742260386010
:1053A000A360FB6044F8041C083404F6FC74C7F8DE
:1053B000FC2F2060A4F5E124A4F2DC7433602B60A0
:1053C000C7F8F81F21681C4841F40071216001688A
:1053D0001A4C0EF57F4E0EF1E80E07F5883706F5EC
:1053E000803605F5803541F000710160CEF800206F
:1053F00047F6FF710822396033602B60226001F0AC
:1054000019F91920FFF718FF00F060FE40F21310A1
:10541000BDE8F840FFF710BF04E100E0048003405E
:10542000148003401C800340248003402C800340F0
:1054300034800340008003400480044000900C400E
:10544000088003400C800340431E032B14D872B61F
:105450000A4951F8230068B170B4094C058834F842
:105460001320466841F82360521B24F8132062B6CB
:1054700070BC704762B6704700207047F811FF1F7C
:10548000D015FF1F013803280BD872B6074B53F80D
:10549000203043B100205B680130002BFBD162B6A5
:1054A0007047002070471846F9E700BF4C12FF1FF5
:1054B00030B472B62B4A13781D0706D52A4B196AE9
:1054C000002936D0996A002941D053781C0706D5A7
:1054D000254B196C00293ED0996C002939D093785E
:1054E000190705D5204B196E002936D0996E89B160
:1054F000D3781B0707D51C4BD3F880207AB3D3F899
:10550000882011213AB162B6184B00221A7030BCC3
:1055100000F092BE0D21154C154D227843F8315004
:1055200003EBC1030830013A5860227062B630BC08
:10553000704704220D4C0F4D217843F8325003EB95
:10554000C20308304A1E5860227062B6EFE7052198
:10555000E1E70921DFE70822ECE70C22EAE7102265
:10556000E8E700BF708B00000000FF1F7512FF1FEF
:10557000C800400088004000431E032B1DD81B4A72
:10558000400140F0100030B4104472B6184CE25C98
:10559000032A1BD8DFE802F00212151703220D8838
:1055A000E25410F0080F14BFC823882343EA0543D0
:1055B00008310360416062B630BC70470830022297
:1055C000EDE70522EBE708300422E8E7094A52F844
:1055D000230038B1084A52F82300416042F82310F2
:1055E00062B6E9E742F82310034AF7E70000FF1F1D
:1055F0008412FF1F4C12FF1F5C12FF1F2DE9F04F9A
:10560000DFF80CB3DFF80CA387B044E0AB4F4FEAF0
:10561000930807EBC809013ED9F8042003F00803FA
:10562000F6B2A2F1080003F0FF04002B40F0028163
:1056300057F838301B0C99B222F8081C002B00F0E8
:10564000F0809F4B22F8064C42F8044C53F8262079
:10565000002A00F0C5829B4D55F8263058609A4CC0
:1056600045F8260034F81630194424F8161000F0D6
:10567000C3FD002800F0AD82944A954B19F0080F45
:1056800000F1080018BF1346C9F8040047F8383085
:1056900008238BF800309BF80040E4B261071AD56C
:1056A0008C4B1B78A3B18C490A7802F0FF0322B11E
:1056B000013BDBB20B7003B900BE88490A7802F0E7
:1056C000FF032AB1013BDBB20B70002B00F05782C5
:1056D00004238BF8003004F0080303F0FF02002BD2
:1056E00000F0CC809AF80030DBB21E098ED19C0805
:1056F000DFF8C89159F8342009EBC401C2F38302E2
:10570000013A49680C2A00F28880DFE802F07C7CCC
:105710008686868686864786868607000868704D58
:105720004A68704F704E286081B240F28160674BCA
:105730006A604FF0010E0022814249F834303A602D
:10574000C9F81020C9F8182086F800E05B4C00F278
:10575000E380B1F5D06F80F04683B1F5817F00F032
:10576000FC8200F28D82802900F07783822940F04C
:10577000FA82A98801F07F01042900F2F4825B48D3
:105780005B4C89000844227062700278930740F1F4
:10579000588484F800E04FF0020E42E3514F3A681B
:1057A00032B3544B504E5449188834780D78402801
:1057B000864645F0020828BF4FF0400E002C84F0CA
:1057C00001043470CEEB00000CBF8824C82409EB20
:1057D000C80680B285F0010544EA0E447260188064
:1057E00049F8384072440D70002800F045813A6055
:1057F0003B4B1A88B2F5A06F0FD100219A785970EF
:105800003E4B1A7009E0364A108842F2210290425B
:1058100000F037812D4A49F83420394A01231370AA
:1058200036E72A4A2A4B19F0080F18BF134647F8E3
:1058300038302DE700F000FD324A334952F8263067
:10584000002B00F0D18158688C5D42F8260003F1EE
:105850000802C9F80420032C05D8DFE804F02C0264
:10586000292602228A551A8819F0080F0CBF8823AE
:10587000C82343EA024347F8383009E7E00700F15C
:105880008181210600F1F281A20706D51F4A204935
:1058900013780220DBB213700870E30602D51C4BAC
:1058A00010221A7007B0BDE8F08F04228A55DAE79B
:1058B00005228A55D7E703228A55D4E70000FF1F47
:1058C000F811FF1FA411FF1FD015FF1FC8004000D3
:1058D000880040008012FF1F0912FF1F8812FF1F5F
:1058E0006C12FF1FA011FF1F0812FF1FC0200740EE
:1058F0007812FF1FB411FF1F7412FF1F982007407A
:10590000942007404C12FF1F8412FF1F882007407D
:10591000802007409020074042F22100814200F0A1
:105920002A8100F2D880B1F5086F00F07682B1F5D7
:10593000106F40F01882226AB349A87808701206E6
:1059400000F13A83D9F82820B049130600F10C83FE
:10595000D9F83020AD49150600F10183D9F8382077
:10596000AA49140600F1F682D9F84020A74910068A
:1059700000F14A83D9F84820A449120600F13F8378
:10598000D9F85020A149130600F13483D9F85820E2
:105990009E49150600F12983D9F860209B49140619
:1059A00000F11E83D9F868209849100600F113838E
:1059B000D9F870209549120600F10883D9F87820AB
:1059C0009249130600F1FD82D9F880208F4915060F
:1059D00000F13183D9F888208C49140600F1258321
:1059E000D9F890208949100600F11983D9F8982038
:1059F0008649120600F10D838548864A8649019042
:105A00008648874D874C049700230596029580466B
:105A10000F4616461D460394306828B1446800F0CE
:105A20000BFC2046002CF9D100233360029B386820
:105A30001A46002342F8253028B1446800F0FCFBE8
:105A40002046002CF9D100223A60019A98F80030E3
:105A50001146002241F8042B039A0191023B4FF0BA
:105A6000000122F81510032B00F22B81DFE813F060
:105A70007001250170012501BEF1400F18BF002201
:105A8000B5E6694A0D784878157050708D78C878F9
:105A90009570D07010680D79157186284D798979C7
:105AA0005571917100F09B816049614E0A783078A0
:105AB00082F00105002842F002020D700CBF88211F
:105AC000C82149F8321009EBC20280F00100002120
:105AD000307051609EE642F22120814240F0CB813D
