:1000000000000320D1010000013B0000B93A0000CC
:10001000B93A0000B93A0000B93A0000B93A000014
:10002000B93A0000B93A0000B93A0000013B0000BB
:10003000013B0000B93A00004D390000513A000080
:10004000013B0000013B0000013B0000013B0000C0
:10005000013B0000013B0000013B0000013B0000B0
:10006000013B0000013B0000013B0000013B0000A0
:10007000013B0000013B0000013B0000013B000090
:10008000013B0000013B0000013B0000013B000080
:10009000013B0000013B0000013B0000013B000070
:1000A000013B0000013B0000013B0000013B000060
:1000B000013B0000013B0000013B0000F951000042
:1000C000013B000025530000013B0000515400009B
:1000D000013B000049550000013B0000013B0000CE
:1000E000013B0000013B0000013B0000013B000020
:1000F000013B0000013B0000013B0000013B000010
:10010000013B0000013B0000013B0000013B0000FF
:10011000013B0000C1400000013B0000013B00002A
:10012000013B0000013B0000013B0000013B0000DF
:10013000013B0000013B0000013B0000013B0000CF
:10014000013B0000013B000041560000013B000064
:10015000013B0000013B0000013B0000013B0000AF
:10016000013B0000013B0000013B0000013B00009F
:10017000013B0000013B0000013B0000013B00008F
:10018000013B0000013B0000013B0000013B00007F
:10019000013B0000013B000039570000013B00001B
:1001A000013B0000013B0000013B0000013B00005F
:1001B000013B0000013B0000013B0000013B00004F
:1001C000013B0000013B0000013B0000013B00003F
:1001D0005C4B4CF2205210B51A804DF628121A8052
:1001E00000BF00BF03F090FC574B4FF030621A6025
:1001F000564A9A60564ADA60564B4FF470021A60BB
:10020000554B564A1A60564A136813F4807304D14A
:1002100054490B604FF4A8531360534B1A781107DD
:1002200003D51A7842F008021A70504B5049AA229E
:100230001A70504A504B8B4204D252F8040F43F8C4
:10024000040BF8E74D4B4E4900228B4202D243F893
:10025000042BFAE74B494C4A002352F8230041F89B
:1002600023000133742BF8D1484B494A802103F80D
:10027000011B9342FBD1474B424A1A60464B8A22EC
:100280001A70A3F5805324225A70A0221A709A790A
:100290009207FCD59A79D406FCD4404A937903F0AE
:1002A0000C03082BFAD13E4B60221A7002331A78E5
:1002B000802AFCD1394B01221A715D225A719A7938
:1002C0009006FCD59979354A4906FBD5354B364918
:1002D00019600021596020231370937903F00C03F7
:1002E0000C2BFAD1314B324A1A60324B324A1A6027
:1002F00000225A60072243F8042C304AC3F80C2D20
:1003000062B603F04DFD174B1B68DA0705D52C4884
:1003100003F0D6FC2B4B2C4A1A602C4B1B785B0647
:1003200009D5284C284B22689A4204D1244803F06E
:10033000C7FC0023236005F041FD03F0EBFB03F055
:10034000B3FBFEE70E20054030800440823F0400EE
:100350000100002B88ED00E0002008E0030000858C
:1003600010D0034014D0034002D0074000E0074003
:100370006C10FF1F147200003007FF1F7010FF1F6A
:10038000E815FF1F0002FF1F0000000000E400E06E
:1003900064E400E008ED00E0005006400040064044
:1003A00001E007404480044000000602048004404D
:1003B000C010070014E000E01FBF02000000202072
:1003C000FB0F4F5C1CE00340A5C3945A00F00740AC
:1003D000FFFFFFFFFFFFFFFFFFFFFFFFFFFFFFFF2D
:1003E000FFFFFFFFFFFFFFFFFFFFFFFFFFFFFFFF1D
:1003F000FFFFFFFFFFFFFFFFFFFFFFFFFFFFFFFF0D
:10040000FFFFFFFFFFFFFFFFFFFFFFFFDEF9FFFF23
:1004100010B5054C237833B9044B13B10448AFF33E
:1004200000800123237010BD7010FF1F000000002A
:1004300018720000084B10B51BB108490848AFF30B
:1004400000800848036803B910BD074B002BFBD0A0
:10045000BDE81040184700BF000000007410FF1FE7
:10046000187200006C10FF1F00000000704700BFF2
:10047000014800F07BB900BF8C10FF1FFFFFFFFF9A
:100480002DE9F041944A9549954D964CADF5843D42
:100490009EB01378002BFCD00B78DB07F9D52B68C6
:1004A00020681B1A0E2BF4D937218F488F4D904F9F
:1004B000DFF84C8204F0AEFC8E4803F0E5FA8E4A79
:1004C0008E4B01920093052203230621284600F05B
:1004D0005FFA284600F00EFBFF221146104601F09D
:1004E000DBF80246C0F3072306AEC0F307443946E3
:1004F00005F118007B703A7000230122BC7001F0F6
:1005000027FB3146284600F001F910230024ADF8FE
:10051000183048212F20872300943A46B1807080FC
:10052000314605F11800F380012301F00BFB0DF5B6
:10053000C3512346009405F118004FF4A04218312E
:1005400001F03EFB1EAA4FF4006331460194009473
:1005500005F1180001F002FB214605F118006E625A
:1005600001F03CFB2046C8227F2101F095F8C0F342
:100570000723C0F307428DF8100004A98DF811304D
:100580008DF81220234605F11800012201F0E4FD48
:1005900021464022DC20C5F8248001F07DF8C0F31C
:1005A000074205A92346C0F307278DF814008DF8EC
:1005B000162005F1180001228DF8157001F0CCFD10
:1005C0004FF47A7003F09AFB9FED351B01230194E1
:1005D00000942246B0EE410AF0EE610A194605F198
:1005E00018009FED313B9FED322B6E6202F052FA04
:1005F0009FED2B1B01232246B0EE410AF0EE610A6B
:100600001946019400949FED283B9FED292B05F19D
:100610001800C5F8248002F03DFA4FF47A7003F018
:100620006DFB9FED1F1B029401940094224621460E
:1006300005F11800B0EE410AF0EE610A01239FEDCA
:100640001E3B9FED1F2B6E6201F0E6FC9FED141B1D
:100650002246B0EE410AF0EE610A01239FED1A3BFB
:100660009FED1B2B214602940194009405F1180084
:10067000C5F8248001F0D0FC4FF47A7003F03EFB03
:10068000214605F118006E6202F05AFB314605F171
:10069000180001F0ADFA0DF5843D1EB0BDE8F08103
:1006A0000000000000000000000000000080464044
:1006B0000000000000804B400000000000804F4020
:1006C0000000000000003F400000000000E0634028
:1006D0000000000000C05F408012FF1F9812FF1F43
:1006E0009C11FF1FE015FF1F206700008C10FF1FEB
:1006F000B410FF1F7407FF1F0048E8013007FF1FF9
:100700002011FF1F00207047704700BFF0B5002286
:1007100081F8342081F8352006680A8056F80C6C80
:100720008A8083B07F27002400254F809F27CF80B9
:100730008A62CA620A638A6381F83C2081F83D209C
:100740000A6530440092C1E90245C1E90445C1E9A6
:100750000645C1E90845012301F0F4F903B0F0BDF5
:10076000036853F8343C1844FFF7D0BF10B5A022FB
:1007700004468021183001F0D1F92046A0238022C0
:10078000054901F011F9054B03F10C0264332260B5
:10079000A361204610BD00BFF0670000586700004D
:1007A0002DE9F0418CB0044600F082FF10B10CB08E
:1007B000BDE8F081142003F0A1FA0421204601F0E5
:1007C00009F80028F3D114220C21204601F02CF85E
:1007D0000028ECD105220C21204601F037F8002832
:1007E000E5D10221204601F047F80028DFD102219F
:1007F000204601F053F80028D9D155222021204667
:1008000001F05EF80028D2D101464022204601F0D6
:100810006DF80028CBD10621204600F0EBFF002820
:10082000C5D101467F22204600F064FF0028BED1DA
:100830009F220021204600F077FF0028B7D1012633
:10084000029000900346019632463146204600F061
:1008500085FF0028ABD10146204601F05DF8002855
:10086000A5D13146204601F06DF800289FD10790B0
:1008700012232222B720362729258DF812308DF831
:100880001A308DF813200A232F228DF8170011201B
:100890004FF01C0E8DF810708DF811508DF8182047
:1008A00042250B228DF81B308DF81C00062304A96D
:1008B00015274FF0130820468DF816508DF814E0D8
:1008C0008DF815708DF819808DF81D208DF81E306B
:1008D00001F04EF8054600287FF469AF0923162081
:1008E0008DF825700D222D278DF820308DF82100F0
:1008F000402348208DF822708DF8232053270C22A6
:100900008DF826308DF827001D23252008A98DF8A5
:1009100028708DF829208DF82A30342239238DF85B
:100920002B002E2720460B958DF824808DF82D2046
:100930008DF82E308DF82C7001F028F8142003F07B
:10094000DDF93146204600F0C1FE28462FE700BF02
:1009500010B50446C079FF2802D0012103F0C2F986
:100960000A2003F0CBF9E079FF2802D0002103F040
:10097000B9F90A2003F0C2F9E079FF2802D0012179
:1009800003F0B0F97820BDE8104003F0B7B900BF1C
:10099000F0B583B04C4F099E089D8171BE424FF067
:1009A000FF01044602720375C171C56000F08980C1
:1009B000314601F00DF8E06802F024FF0121207AB1
:1009C00003F096F90121A07903F092F90121207D2D
:1009D00003F08EF90121207A03F084F90121A07936
:1009E00003F080F90121207D03F07CF9226852F8A0
:1009F0000C3CD26923442046D9689047E3682269B9
:100A0000D97A002954D072B6D97ACD0706D52F48A5
:100A1000D96805682940D9610160D97A880706D567
:100A20002B4819690568294019620160D97A4F0776
:100A300006D5284859690568294059620160D97A64
:100A40000E0737D462B6E0681B68D968914207D0B8
:100A5000214D1D602149DA6042F080451D61196019
:100A600001AA1146012302F00BFFE268D37AB3B169
:100A7000DD0703D51A4BD1691960D37A980703D5DE
:100A8000184B116A1960D37A590703D5164B516A6E
:100A90001960D37A1B0702D5144B926A1A6020465C
:100AA000FFF756FF2046FFF77BFE002003B0F0BDA6
:100AB0001846C9E70E48996905682940996201609E
:100AC000C0E7284678E700BF00366E0180E100E00D
:100AD00084E100E088E100E001403F0000003F8049
:100AE00000E100E004E100E008E100E00CE100E0EA
:100AF0008CE100E070B5026852F80C3C9AB00344F7
:100B000002AD0446DE68DD602946D36998470023BC
:100B100022688DF804308DF805308DF8063052F8D3
:100B20000C0C01A92044012201F016FB236853F8A4
:100B30000C3C1C44E6601AB070BD00BF4379052B25
:100B400005D0062B06D0032B01D00846704701EBD9
:100B50004200704702EB420008447047036853F8B4
:100B6000303C03445B79052B05D0062B06D0032BC4
:100B700001D00846704701EB4200704702EB42008B
:100B800008447047002B64D02DE9F0411F460368EC
:100B9000044682B053F80C0C15460023BDF82420FF
:100BA0000E462044BDF8201001F02CF8D4F8008047
:100BB0002849D8F804308B4202463946204643D1B2
:100BC000FFF7BCFF0746330AF6B28DF804308DF804
:100BD00006308DF805608DF807602A23D8F800608C
:100BE0008DF8033001AA0DF1030104232046B0471C
:100BF0002B0A22688DF80430EDB28DF806308DF89E
:100C000005508DF807502B2315688DF8033001AA85
:100C10000DF1030104232046A84763792568033BAF
:100C2000DBB2032B98BF0C4A2D6898BFD35C4FF002
:100C30002C008DF8040088BF00233A4601A9204605
:100C4000A84702B0BDE8F0819847D4F80080074675
:100C5000B9E770473D0B00001469000030B4046828
:100C600054F81C4C204430BCFFF78CBF10B58BB13E
:100C700072B1C36818680A444FF0004411F8013B90
:100C8000C4624363C36A002BFCDA9142836BF5D1E3
:100C9000002010BD1346C0680A4602F0F1FD002096
:100CA00010BD00BF2DE9F04FEBB005460068DDF840
:100CB000D48150F80C0C9DF8DC4103941FFA88FA9B
:100CC0000C4691465146BDF8D8211E4628440023C3
:100CD00000F098FF2A689C49536804908B4240F0CA
:100CE0002D816B79033BDBB2032B9CBF974911F835
:100CF00003B0039B88BF4FF0000B002B40F0028134
:100D00000DF11B03019307AB0293731E029F234453
:100D10009BB22112181239700199FB70B8707C7067
:100D20002A2314680B703A4604232846A0474FEA4A
:100D300019232A6801993B705FFA89F9BB7087F81B
:100D4000019087F803902B2314680B703A46042314
:100D50002846A0472A6800232C218DF81A10146811
:100D60000DF11A011A462846A0470021287A02F000
:100D7000B9FF0121A87902F0B5FFEB682A69D97A99
:100D800001B372B6D97ACF0706D57148D96804681D
:100D90002140D9610160D97A8C0706D56D4819695F
:100DA0000468214019620160D97A480706D56A486B
:100DB00059690468214059620160D97A0F0700F12E
:100DC0009A8062B61B68D968914207D06348186060
:100DD0006349DA6042F0804018611960B8F1010F90
:100DE00034D0002E59D0DDF810E0DDF8D09119E0B4
:100DF000FFF7A4FE0146B44228BF344601230BFB93
:100E000004F2FF682846B8472B6853F80C0C42469A
:100E100023462844514600F0F5FE361BB6B28646FE
:100E2000002E3AD02F68484A7B681FFA8EF8C8EB2C
:100E30000A049342A4B2724649462846D8D049468D
:100E40007246284698472F680146D4E7EEB1749B56
:100E5000DDF808C000270BF1FF30A8463C4653FAE6
:100E600080F05D469E464DB17A1E62440EF1FF331E
:100E700013F8011F02F8011F9842F9D10134A3B2FF
:100E80009E422F44EFD8AB4645462B680299DC685A
:100E90000BFB06F201232846A047EB68DA7AB2B1D1
:100EA000D40703D52F4AD9691160DA7A900703D5A0
:100EB0002D4A196A1160DA7A510703D52B4A596A0B
:100EC0001160DA7A120702D5294A9B6A1360012160
:100ED000287A02F007FF039B53B1029A2968C823BE
:100EE00013700C68019936230B7028460123A04724
:100EF0006BB0BDE8F08F1F48996904682140996282
:100F000001605EE707AB1946029388230B700DF171
:100F10001B0007461268059236233B700A46019073
:100F2000394601232846059FB8472A6852F80C3CE9
:100F30002B44DB88013B1C1BA4B2E6E602467499F5
:100F4000284698472A68CCE63D0B0000146900004B
:100F500080E100E084E100E088E100E001403F0042
:100F600000003F8000E100E004E100E008E100E073
:100F70000CE100E08CE100E0F0B505ACD0CC9DF8D0
:100F800020E004B103B9F0BDCDF820E0BDE8F040A9
:100F9000FFF788BEF0B505ACD0CC9DF820E004B1D9
:100FA00003B9F0BD056855F8205CCDF820E0284471
:100FB000BDE8F040FFF776BEF8B504460F46007A6C
:100FC000002115461E4602F08DFEE3682269D97A9B
:100FD00041B372B6D97AC80709D5DFF80CE1D868F1
:100FE000DEF800100140D961CEF80010D97A8807E8
:100FF00009D5DFF8F8E01869DEF800100140196241
:10100000CEF80010D97A480709D5DFF8E4E058692E
:10101000DEF8001001405962CEF80010D97A0907B5
:101020003FD462B61B68D968914207D0284818603F
:101030002849DA6042F080401861196077B10021D8
:10104000A07902F04FFEE2683B7812684FF0004151
:10105000D1625363D36A002BFCDA936B0DB1002E7F
:1010600029D1E268D37AB3B1DD0703D51A4BD16930
:101070001960D37A980703D5184B116A1960D37A8F
:10108000590703D5164B516A1960D37A1B0702D54D
:10109000144B926A1A60207A012102F023FE00208C
:1010A000F8BDDFF850E09869DEF800100140996261
:1010B000CEF80010B5E7A079012102F013FE2368F5
:1010C00029463246DD6820460123A847C9E700BF0C
:1010D00001403F0000003F8000E100E004E100E04B
:1010E00008E100E00CE100E080E100E084E100E0E4
:1010F00088E100E08CE100E02DE9F04F8A4641797B
:1011000085B00339C9B204460329BDF838000190FF
:101110009DF844B09046994600F2E780784B109ACB
:101120005B5C02FB03F30093BBF1000F00F0B780A0
:1011300004ADE82305F8043D2268126836230DF15A
:101140000B0617468DF80B302A4631460123204600
:10115000B847019822688DF80F0003124FEA282142
:101160008DF80C108DF80E308DF80D802A2317683D
:101170008DF80B302A46314604232046B8474FEA03
:101180002A2122688DF80DA04FEA29238DF80C1032
:101190008DF80F908DF80E302B2317688DF80B30DB
:1011A0002A46314604232046B84704A922682C2346
:1011B00001F8063D0023176820461A46B84700216B
:1011C000207A02F08FFD0121A07902F08BFDE36807
:1011D0002269D97AF9B172B6D97AC80706D54948D1
:1011E000D96807683940D9610160D97A8F0706D577
:1011F000454819690768394019620160D97A48077A
:1012000006D5424859690768394059620160D97A60
:1012100009076DD462B61B68D968914207D03C4873
:1012200018603C49DA6042F0804018611960236818
:10123000009ADF680F9901232046B847E268D37A05
:10124000B3B1DF0703D5344BD1691960D37A98075E
:1012500003D5324B116A1960D37A590703D5304B45
:10126000516A1960D37A1B0702D52E4B926A1A6015
:101270000121207A02F036FDBBF1000F0CD0C8230B
:1012800020688DF80C3036232A46314605688DF8E3
:101290000B3020460123A84705B0BDE8F08F4FEA88
:1012A000292322688DF80E304FEA2A218DF80C1080
:1012B0008DF80DA08DF80F902A2303AD0DF10B06CC
:1012C000D2F800908DF80B302A4631460423204690
:1012D000C847019822688DF80D804FEA2821031233
:1012E0008DF80C108DF80F0054E7002300931BE7D6
:1012F0000D48996907683940996201608AE700BF23
:101300001469000080E100E084E100E088E100E091
:1013100001403F0000003F8000E100E004E100E008
:1013200008E100E00CE100E08CE100E0F0B4069C94
:10133000BDF81060059D9DF81C702CB125B1079774
:101340000496F0BCFFF7D8BEF0BC7047F0B5079C20
:10135000BDF81460069D9DF820E05CB155B10768AA
:1013600057F82C7CCDF820E038440596BDE8F040D5
:10137000FFF7C2BEF0BD00BF2DE9F04F0546ADF549
:10138000017D0068BDF82CA250F80C0C9DF8344289
:101390000394884691465146BDF830221E462844A3
:1013A000002300F02FFC2A689F4953688B420746B0
:1013B00040F033816B79033BDBB2032B9CBF9B492D
:1013C00011F803B0039B88BF4FF0000B002B40F0D7
:1013D00008810DF11703029306AB019301984FEAC0
:1013E00018235FFA88F803708370014680F8018043
:1013F00080F803800298D2F800802A23741E0370BC
:101400000A46042301464C442846C047A4B201982A
:101410002A68C470211281704FEA2923029903704F
:1014200080F801902B2314680B7002460423284691
:10143000A0472A6800232C218DF8161014680DF19E
:1014400016011A462846A0470021287A02F04AFCD5
:101450000121A87902F046FCEB682A69D97A01B328
:1014600072B6D97AC80706D57148D9680468214090
:10147000D9610160D97A8C0706D56E48196904686C
:10148000214019620160D97A480706D56A4859692E
:101490000468214059620160D97A090700F19A80F5
:1014A00062B61B68D968914207D0644818606449E5
:1014B000DA6042F08040186119608B9B012B33D0B9
:1014C000002E58D0BE46DDF8289219E0FFF736FB13
:1014D0000146B44228BF344601230BFB04F2FF68E7
:1014E0002846B8472B6853F80C0C4246234628443C
:1014F000514600F087FB361BB6B28646002E3AD026
:101500002F68494A7B681FFA8EF8C8EB0A04934299
:10151000A4B2724649462846D8D049467246284663
:1015200098472F680146D4E7EEB18A9BDDF804C0E6
:1015300000270BF1FF30A8463C4653FA80F05D4689
:101540009E464DB17A1E62440EF1FF3313F8011F1F
:1015500002F8011F9842F9D10134A3B29E422F44F0
:10156000EFD8AB4645462B680199DC680BFB06F2C9
:1015700001232846A047EB68DA7AB2B1D40703D535
:10158000304AD9691160DA7A900703D52E4A196A70
:101590001160DA7A510703D52C4A596A1160DA7A58
:1015A000120702D52A4A9B6A13600121287A02F0A9
:1015B00099FB039B53B1019A2968C82313700C68E7
:1015C000029936230B7028460123A0470DF5017DB3
:1015D000BDE8F08F1F489969046821409962016055
:1015E0005EE706AB19460DF1170002900193482300
:1015F0000B70084602991468362302460B70284681
:101600000123A0472A6852F80C3C2B441B89013B5C
:10161000C9EB03091FFA89F9E0E602468A992846D0
:1016200098472A68C6E600BF3D0B00001469000019
:1016300080E100E084E100E088E100E001403F005B
:1016400000003F8000E100E004E100E008E100E08C
:101650000CE100E08CE100E0F0B505ACD0CC9DF8E9
:1016600020E004B103B9F0BDCDF820E0BDE8F040C2
:10167000FFF782BEF0B505ACD0CC9DF820E004B1F8
:1016800003B9F0BD056855F8245CCDF820E0284486
:10169000BDE8F040FFF770BE002360F3070361F37D
:1016A0000F2362F31743184682B002B0704700BFA1
:1016B00010B582B002A90268112301F8013D002390
:1016C00014681A46A04702B010BD00BF10B582B022
:1016D00059B129238DF807300268002314680DF1F1
:1016E00007011A46A04702B010BD28238DF8073025
:1016F000F2E700BF30B583B00D12131204688DF805
:1017000005108DF807208DF806308DF804502A2337
:1017100024688DF8033004230DEB03020DF103015F
:10172000A04703B030BD00BF30B583B00D12131217
:1017300004688DF805108DF807208DF806308DF8B7
:1017400004502B2324688DF8033004230DEB03028F
:101750000DF10301A04703B030BD00BF70B582B0EA
:1017600036248DF806409DF818609DF81C509DF8B1
:10177000204002B180228DF8072029B19DF8072072
:1017800042F040028DF807202BB19DF8073043F05E
:1017900020038DF807302EB19DF8073043F0100379
:1017A0008DF807302DB19DF8073043F008038DF810
:1017B00007302CB19DF8073043F004038DF8073053
:1017C00003680DF107021C680DF106010123A04713
:1017D00002B070BD10B582B002AA046802F8011D03
:1017E000262324688DF806300DF106010123A04759
:1017F00002B010BD10B501F0070182B03A230329F1
:101800008DF807108DF8063003D0052901D0062980
:1018100000D1417103680DF107021C680DF106014A
:101820000123A04702B010BD10B582B004688DF846
:1018300004108DF80520B12324688DF8033001AA27
:1018400002230DF10301A04702B010BD10B582B014
:1018500001F01F0102F0070204688DF804108DF8F2
:101860000520C02324688DF8033001AA02230DF15E
:101870000301A04702B010BD10B582B002AA01F06A
:10188000070102F8011D0168C1230C688DF80630BC
:101890000DF106010123A04702B010BD10B582B0C2
:1018A00002AA01F0070102F8011D0168C2230C68B9
:1018B0008DF806300DF106010123A04702B010BDDE
:1018C00010B582B001F07F0102F07F0204688DF84C
:1018D00004108DF80520C52324688DF8033001AA73
:1018E00002230DF10301A04702B010BD10B582B074
:1018F000C72302F07F028DF8063009B162F07F0243
:1019000003688DF807201C680DF1070201230DF113
:101910000601A04702B010BD10B582B0B7238DF804
:10192000063061B101238DF8073003680DF107021D
:101930001C680DF106010123A04702B010BD8DF80F
:101940000710F2E710B582B0F2238DF8063061B1CE
:1019500001238DF8073003680DF107021C680DF1B3
:1019600006010123A04702B010BD8DF80710F2E771
:1019700010B582B002ABE02203F8012D04680A46DC
:10198000246819461023A04702B010BD10B582B0DC
:1019900002ABE12203F8012D04680A4624681946C7
:1019A0001023A04702B010BD4A68026052F80C2C08
:1019B00030B48C6884500A68026052F80C4CC968D4
:1019C00000254FF0384205710151026130BC70476B
:1019D00070B400220B4D0C4E02E0172C08D02246AA
:1019E00035F8023F96FBF3F3994202F10104F4D378
:1019F000064B53F8223043F06053036170BC002063
:101A0000704700BF526E000000879303186F0000FC
:101A100041B30023002210B4C48800894C80C1E97E
:101A20000223C1E90423C1E90623C1E908235DF8C3
:101A3000044BC88000230B808B808B62CB620B63CE
:101A400081F8343081F835308B6381F83C3081F88F
:101A50003D3081F84C300B654B6581F858300B6494
:101A60004B648B64704700BF224B5360F0B5082075
:101A7000214D9560052400230D29147350731360C4
:101A80002FD00A292DD05375A1F120035E2B2ED81B
:101A90001A48002301EB8101012401EB000C9E4652
:101AA0001361184614751CF8015F5FFA8EF7002366
:101AB00045FA03F111F0010FDCB203F1010308D084
:101AC000116956680131116137549168461C0C54F4
:101AD000B0B2082BECD10EF1010EBEF1050FE2D130
:101AE000F0BD01235375A1F120035E2BD0D9002353
:101AF0001375F0BDD010FF1FF810FF1F1D69000007
:101B0000524292B2B2FBF0F300FB132292B28A422D
:101B100088BF0918881A80B2704700BF38B5074BD4
:101B2000C180074D02810021044601710560C36038
:101B30001946FFF76DFF204638BD00BF2011FF1F7B
:101B4000246E000019B14B64009B0A648B647047DB
:101B5000C06810B101644264836470472DE9F041AC
:101B60009DF818809DF81C7029B3086D0C461E4620
:101B7000154630B191F8583063B90023636584F895
:101B8000583055B10023256584F85830666500202B
:101B9000BDE8F08104F042F9EFE767B106FB08F019
:101BA00004F034F938B10123206584F858306665B3
:101BB0000020BDE8F0814FF0FF30BDE8F08100BFAC
:101BC00030B583B0C4689DF818508DE828001346DE
:101BD0000A462146FFF7C2FF03B030BD19B1012309
:101BE00081F84C307047C368012283F84C2070475D
:101BF00019B1002381F84C307047C36883F84C104A
:101C0000704700BF084611461A1E06DB0A4492FBC5
:101C1000F0F300FB132290B27047FFF771BF00BFD3
:101C2000002959D02DE9F0470C469A46154606463C
:101C3000C7684BB3B88803F075FFD4E9002303F0FD
:101C400035FE002200238046894604F041F8044610
:101C500000284BD14046494604F08AF882B22A80D7
:101C6000FB889A423AD92B8020460121BA889A42B1
:101C700002D92A801346012032899A4228D8013A93
:101C80002A800220BDE8F087388803F04BFFD4E9B2
:101C9000002303F00BFE002200238046894604F057
:101CA00017F8044640BB4046494604F061F882B24A
:101CB0002A807B889A4215D92B80204601213A88B8
:101CC0009A4202D92A8013460120F2889A42D6D934
:101CD0000029D6D1BDE8F08703207047204613467F
:101CE0002146C3E7204613462146E8E70022134673
:101CF0002A8011460120B9E75346A5F800A05146B5
:101D00000120DCE72DE9F04188B00E46174604A912
:101D100007AA9846002304468DED040B8DED021BA7
:101D2000FFF77EFF012305460DF11E02204602A9A2
:101D3000FFF776FF65B958B96EB12068BDF81E206F
:101D4000BDF81C108DE88001334605692046A84780
:101D500008B0BDE8F081E2682068916C136C0191D5
:101D6000556C00950569BDF81E20BDF81C10204675
:101D7000A847EDE72DE9F04703683E4EDB6A0746CA
:101D800082B032469847FC68357B63882088181AF1
:101D9000401B03F0D7FED4E9022303F099FFE8B11A
:101DA000E388A08896F80DA0D4E90489181ACAEB34
:101DB000000003F0C7FE42464B4603F089FF0028AF
:101DC00052D1D4E906235046C4E9022303F0BAFEF7
:101DD00042464B4603F06AFDC4E90401307D254BC1
:101DE000002834D01B692BB30025B368DFF884804A
:101DF000585D03F0A7FED4E9042303F057FD736890
:101E0000CDE90001585D03F09DFED4E9022303F003
:101E10004DFD002341EC100B9DED001B19460122E6
:101E20003846FFF76FFF3369FC680135AB42DCD8F9
:101E300098F80C50681C03F085FE02460B46D4E966
:101E4000020103F033FD0126C4E9020100E0064669
:101E5000084D0FCD28340FC495E8030084E8030033
:101E6000304602B0BDE8F0870026304602B0BDE83B
:101E7000F08700BFB810FF1F2DE9F0478CB0044673
:101E80009DF850500E46174698468DED060B8DED89
:101E9000041B53EC122B51EC100B002D38D003F027
:101EA00003FDCDE90A0100230DF1220206A9204617
:101EB000FFF7B6FE002309AA0AA981462046FFF7CC
:101EC000AFFE012382460DF1260204A92046FFF74A
:101ED000A7FED0B9B9F1010F1FD0B9F1020F20D080
:101EE000BDF82430BDF822108B422BBF01334A1CB1
:101EF0005B1AD31A9BB2C6B1206803958DE8C00166
:101F0000BDF8262045692046A8470CB0BDE8F087FB
:101F100003F0CCFCCDE90A01C5E7BAF1010FDFD12E
:101F2000F3E7BAF1020FDBD1EFE7E2680395906CBB
:101F30000290506C01902068156C00954569BDF8C1
:101F400026202046A847E0E72DE9F0478CB004465C
:101F50009DF850500E46174698468DED060B8DEDB8
:101F6000041B53EC122B51EC110B002D38D003F055
:101F70009BFCCDE90A0101230DF1220204A92046B0
:101F8000FFF74EFE012309AA0AA981462046FFF762
:101F900047FE002382460DF1260206A92046FFF7E0
:101FA0003FFED0B9B9F1010F1FD0B9F1020F20D017
:101FB000BDF82430BDF8222093422BBF0133511CC1
:101FC0009B1ACB1A9BB2C6B1206803958DE8C0015D
:101FD000BDF8261085692046A8470CB0BDE8F087FB
:101FE00003F064FCCDE90A01C5E7BAF1010FDFD1C6
:101FF000F3E7BAF1020FDBD1EFE7E1680395886CF4
:102000000290486C019020680D6C00958569BDF8C0
:1020100026102046A847E0E72DE9F04F57EC106B5B
:1020200095B059EC128B04468A460892099310EE3B
:10203000100A394612EE102A4B468DED100B8DED2D
:102040000E1B8DED0C2B8DED0A3B9DF87CB09DF8A1
:10205000805003F05BFE18B1CDE91089CDE90C6723
:10206000DDE90E67DDE90A893046394642464B46CE
:1020700003F04CFE18B1CDE90E89CDE90A670123C2
:1020800013AA0EA92046FFF7CBFD012306460DF14A
:102090004E020AA92046FFF7C3FD002312AA10A989
:1020A00080462046FFF7BCFD002307460DF14A029B
:1020B0000CA92046FFF7B4FD012E49D0022E1FD0F7
:1020C000012F22D0022F40D0089B1BB3BDF84E60D9
:1020D00020681E9906958DE840040491089D099991
:1020E0000391CDF814B00295C569BDF84A30BDF82A
:1020F0004C20BDF848102046A84715B0BDE8F08F29
:10210000B8F1020FF9D0012FDCD10128F5D0089BDE
:10211000002BDBD1E3680595CDF818B09A6C0492DA
:102120005A6CBDF84E50039220681E6C02968DE8E2
:102130002004BDF84A30C569BDF84C20BDF84810F0
:102140002046A84715B0BDE8F08F0228BCD1D4E7DF
:10215000B8F1010FB4D1D0E72DE9F041C4680546CC
:102160000E46E088A18886B0401A1746984603F0CC
:10217000E9FC2388CDE904016088C01A03F0E2FC81
:102180009FED0B1B41EC120BB0EE410AF0EE610A21
:10219000002102910191CDF800803B46324628464D
:1021A0009DED043B0121FFF737FF06B0BDE8F0814C
:1021B00000000000000000002DE9F04F59EC118BE9
:1021C00095B056EC135B01F001070C4687F0010552
:1021D0000D910E900F9213EE100A11EE102A0C932F
:1021E00031464B4657EC106B8DED043B8DED062BC5
:1021F000129503F059FB03F0BBFD9DED062B81B258
:102200003B463246139151EC120B03F04DFB03F0A9
:1022100087FDB0F1000AB4BF4FF0FF330123394608
:102220003046B8BFCAF1000A109303F0A1FD494639
:1022300087B2404603F09CFD85B2284603F082FC3D
:1022400002460B46DDE9040103F060FD139A4FEAF4
:102250004A0A4FEA540BC2EB0A081E9C002800F001
:10226000C280530000261193BDF8309043E003F084
:1022700059FCCDE90A0107EB0B0003F063FCCDE943
:102280000801A81B013003F05DFC129BCDE906019B
:10229000D819CBEB000003F055FC01230293002377
:1022A00041EC100B019300949DED0A3B9DED082B32
:1022B0009DED061B0C9B0F9A0E980121FFF7ACFEBB
:1022C000109B16FA84F41F4494FBF9F309FB1344A2
:1022D000119BBFB2C3EB0808A4B200260135ADB212
:1022E000284603F02FFC02460B46DDE90401D044EA
:1022F00003F00CFD28B30136B8F1000F2846B6B242
:10230000ECDD0D9B012BB2D1304603F00BFCCDE987
:102310000801A81B013003F015FCCDE90601384681
:1023200003F000FC002341EC100B00939DED082B03
:102330009DED061B23460C9A0F990E98FFF704FE9D
:10234000BEE7B0460D9B012B30D0284603F0EAFBD8
:10235000CDE9080107EB0B0003F0F4FBCDE9060122
:10236000C8EB050003F0EEFB129B3B44CDE90401F2
:10237000CBEB030003F0E6FB002541EC100B012141
:1023800000940C9B0F9A0E9802919DED083B9DEDD9
:10239000062B9DED041B0195FFF73EFE139803F0FD
:1023A000C1FB41EC100B15B0BDE8F08F304603F0D7
:1023B000B9FBCDE90601C8EB050003F0C3FBCDE98D
:1023C0000401384603F0AEFB002541EC100B234618
:1023D0000C9A0F990E9800959DED062B9DED041B10
:1023E000FFF7B2FDDAE780460646ABE72DE9F04F8E
:1023F00059EC138B97B056EC115B01F001070C46BA
:1024000087F0010506911090119213EE100A11EE5B
:10241000102A0F93494633468DED041B57EC126B7F
:102420008DED080B149503F03FFA03F0A1FC9DED30
:10243000080B81B253EC102B15913046394603F04E
:1024400033FA03F06DFCB0F1000AB4BF4FF0FF3374
:10245000012339463046B8BFCAF1000A129303F08F
:1024600087FC494687B2404603F082FC85B2284685
:1024700003F068FB02460B46DDE9040103F028FC8B
:10248000159A4FEA4A0A4FEA540BC2EB0A08209CFD
:10249000002800F0C080530013930026BDF83C9044
:1024A00042E003F03FFBCDE90C0107EB0B0003F02A
:1024B00049FBCDE90A017019013803F043FB149B75
:1024C000CDE90801D819CBEB000003F03BFB012359
:1024D00041EC100B0293019300949DED0C3B9DED9C
:1024E0000A2B9DED081B0F9B119A10980121FFF7F5
:1024F00093FD129B16FA84F4FF1A94FBF9F309FB7F
:102500001344139BBFB2C3EB0808A4B20026013DDD
:10251000ADB2284603F016FB02460B46DDE9040186
:10252000D04403F0D5FB28B30136B8F1000F28469C
:10253000B6B2ECDD069B012BB3D1304603F0F2FAC4
:10254000CDE90A017019013803F0FCFACDE9080160
:10255000384603F0E7FA069B009341EC100B9DED23
:102560000A2B9DED081B23460F9A11991098FFF72F
:10257000EBFCBEE7B046069B012B2FD0284603F0AC
:10258000D1FACDE9080107EB0B0003F0DBFACDE946
:10259000060108EB050003F0D5FA149B3B44CDE996
:1025A0000401CBEB030003F0CDFA41EC100B012149
:1025B00000940F9B119A109802919DED083B9DEDA0
:1025C000062B9DED041B0191FFF726FD159803F0E6
:1025D000A9FA41EC100B17B0BDE8F08F304603F0BC
:1025E000A1FACDE9080108EB050003F0ABFACDE94B
:1025F0000401384603F096FA069B009341EC100B59
:1026000023460F9A119910989DED082B9DED041B00
:10261000FFF79AFCDAE780460646ACE72DE9F04F73
:102620005BEC10AB97B056EC125B01F001070C4667
:1026300087F001050F911090119212EE100A10EE22
:10264000102A0E9331465B4657EC116B8DED042B2F
:102650008DED063B149503F027F903F089FB9DED02
:10266000063B81B232463B46159151EC130B03F009
:102670001BF903F055FB031EBABF5B424FF0FF325C
:1026800001225B00394630461D461292069303F044
:102690006FFB594687B2504603F06AFB86B230465C
:1026A00003F050FA02460B46DDE9040103F02EFB6D
:1026B00015994FEA5409C1EB0508209C002800F049
:1026C000CA8000254B00AB461393BDF838A0209478
:1026D00047E003F037FACDE90C01304603F022FA67
:1026E000149BCDE90A01D819C9EB000003F02AFABE
:1026F000CDE90801701B013003F024FA209B009300
:1027000041EC100BCDF808B0CDF804B09DED0C3BBA
:102710009DED0A2B9DED081B0E9B119A109801212F
:10272000FFF77AFCBDF8803015FA83F4129B1F4442
:1027300094FBFAF30AFB1344139BC3EB0808A3B200
:10274000BFB2209300250136B6B2304603F0FAF945
:10275000069C02460B46DDE90401A04403F0D6FACC
:1027600030B30135B8F1000F07EB0900ADB2EADD77
:102770000F9B012BADD1284603F0D4F9CDE90A0116
:10278000384603F0CFF9CDE90801701B013003F0A2
:10279000D9F9CDF800B041EC100B9DED0A2B9DED61
:1027A000081B209B0E9A11991098FFF765FBB9E75B
:1027B000209CA8460F9B012B30D007EB090003F0AB
:1027C000C1F9CDE90801304603F0ACF9149B3B4454
:1027D000CDE90601C9EB030003F0B4F9CDE904012A
:1027E000C8EB060003F0AEF941EC100B002102919A
:1027F000019100940E9B119A10989DED083B9DED60
:10280000062B9DED041B0121FFF706FC159803F034
:1028100089F941EC100B17B0BDE8F08F284603F0A2
:1028200081F9CDE90601384603F07CF9CDE90401D0
:10283000C8EB060003F086F9002541EC100B234697
:102840000E9A1199109800959DED062B9DED041B95
:10285000FFF712FBDAE780460546ABE72DE9F04FBC
:1028600059EC108B97B056EC125B01F001070C4647
:1028700006911090119212EE100A10EE102A0F938A
:1028800031464B4687F001058DED040B57EC136B79
:102890008DED082B8DED0A1B149503F005F803F060
:1028A00067FA9DED0A1B81B253EC112B159130464E
:1028B000394602F0F9FF03F033FAB0F1000BB4BF70
:1028C0004FF0FF33012339463046B8BFCBF1000B40
:1028D000129303F04DFA87B2DDE9080103F048FADC
:1028E00086B2304603F02EF902460B46DDE90401BC
:1028F00003F0EEF9159A4FEA4B0B4FEA5409C2EB7D
:102900000B08209C002800F0C28053000025139380
:10291000BDF83CA042E003F015F9CDE90C013046CA
:1029200003F000F9149BCDE90A01D819C9EB0000A6
:1029300003F008F9CDE90801A819013803F002F9FC
:1029400000230293012341EC100B019300949DEDB1
:102950000C3B9DED0A2B9DED081B0F9B119A1098C7
:102960000121FFF759FB129B15FA84F4FF1A94FB1F
:10297000FAF30AFB1344139BBFB2C3EB0808A4B2DB
:102980000025013EB6B2304603F0DCF802460B46A5
:10299000DDE90401D84403F09BF930B30135B8F107
:1029A000000F07EB0900ADB2EBDD069B012BB2D1A6
:1029B000284603F0B7F8CDE90A01384603F0B2F82B
:1029C000CDE90801A819013803F0BCF8069B009373
:1029D00041EC100B9DED0A2B9DED081B23460F9A31
:1029E00011991098FFF748FABDE7A846069B012BFE
:1029F00030D007EB090003F0A5F8CDE90801304617
:102A000003F090F8149B3B44CDE90601C9EB0300A9
:102A100003F098F8CDE9040108EB060003F092F802
:102A2000002541EC100B012100940F9B119A109886
:102A300002959DED083B9DED062B9DED041B01913C
:102A4000FFF7EAFA159803F06DF841EC100B17B098
:102A5000BDE8F08F284603F065F8CDE90801384657
:102A600003F060F8CDE9040108EB060003F06AF812
:102A7000069B009341EC100B23460F9A1199109876
:102A80009DED082B9DED041BFFF7F6F9DAE7804674
:102A90000546ABE72DE9F04F59EC118B8BB057ECA5
:102AA000136B0790089109921C4613EE100A3946E1
:102AB00011EE102A4B468DED043B9DF854505BEC13
:102AC00010AB8DED022B03F017F900284CD04246D5
:102AD0004B463046394602F0E7FE00224F4B02F0EB
:102AE000E5FE524606460F465B46DDE9020103F06D
:102AF00003F900285CD052465B46DDE9020102F092
:102B0000D3FE0022454B02F0D1FEBDF850E01FFA83
:102B100084FC32463B469EFBFCF60CFB16E6B6B246
:102B200003F0F4F828B352465B46DDE9020103F0F6
:102B3000CFF800962346099A0899002858D007989C
:102B400049EC138B4BEC12AB9DED041B9DED020B7E
:102B5000002D58D0FFF782FE51EC100B03F008F95E
:102B600080B20BB0BDE8F08FDDE904234046494652
:102B7000B1E742464B46DDE9040103F0A9F80096AF
:102B80002346099A0899F0B1079849EC138B4BEC4E
:102B900012AB9DED041B9DED020BFDB9FFF70CFB85
:102BA00051EC100B03F0E4F880B20BB0BDE8F08FED
:102BB000DDE902235046594602F076FE0022174B0B
:102BC00002F074FEA1E707989DED043B9DED022BFA
:102BD00049EC118B4BEC10AB002DDFD0FFF706FC5E
:102BE00051EC100B03F0C4F880B20BB0BDE8F08FCD
:102BF00007989DED043B9DED022B49EC118B4BECAE
:102C000010AB002DA6D1FFF709FD51EC100B03F01E
:102C1000AFF880B20BB0BDE8F08F00BF0000F03F0E
:102C20002DE9F04F93B08DED0E0B8DED0C1B8DED5E
:102C30000A2B8DED083B00296BD08A469B46154632
:102C4000044653EC122B51EC100B8DED060B8DED61
:102C5000042B03F05BF838B19DED042B9DED060BC2
:102C60008DED0E2B8DED0A0BDDE90C67DDE9088992
:102C70003046394642464B4603F048F800284BD1CF
:102C8000012311AA0CA92046FEF7CAFF012306461C
:102C90000DF1460208A92046FEF7C2FF002310AA44
:102CA0000EA980462046FEF7BBFF002307460DF124
:102CB00042020AA92046FEF7B3FF012E39D0022EA8
:102CC0002FD0012F32D0022F37D0BDF84230BDF8BF
:102CD0004010BDF84660BDF844208B422BBF581C05
:102CE000481C401AC01A964287B22BBF701C501C59
:102CF000801A801B80B200FB07F0854228BF054682
:102D0000206802958DE84004CDF80CB0056A204695
:102D1000A84713B0BDE8F08FCDE90C89CDE908676D
:102D2000AEE7B8F1020FF4D0012FCCD10128CCD1FD
:102D3000EFE7B8F1010FC4D1EBE70228C5D1E8E70E
:102D4000F0B5054683B019B38B88C888EE68E96092
:102D5000C01A0C4602F0F6FE2388676DCDE900012B
:102D60006088246DC01A02F0EDFE9FED1B1B41EC44
:102D7000120BB0EE410AF0EE610A9DED003B3A46BF
:102D8000214601232846FFF74BFFEE6003B0F0BD5C
:102D9000C468A388E088676D266DC01A02F0D2FE71
:102DA0002388CDE900016088C01A02F0CBFE9FEDB8
:102DB0000A1B9DED003BB0EE410AF0EE610A41ECCA
:102DC000120B3A4628463146012303B0BDE8F040D5
:102DD000FFF726BFAFF300800000000000000000F6
:102DE000704700BF2DE9F04F89B00668BDF850E08C
:102DF000BDF84C709DF85440DDF8488005949EFB6A
:102E0000F7F407FB14E4A4B207919146766A06939F
:102E10002246414605469A46B047059A002A32D1D5
:102E2000534613B3069B079E1A4602EB060B1FFA86
:102E30008BFB012100232A688DE80A000134034638
:102E40003146D2F810A028464A46D04794FBF7F303
:102E5000296807FB1344A4B201364B6A2246414657
:102E60002846B6B29847B345E3D1059B0293139B1E
:102E7000009301944346069A07984946FFF7B0FF2E
:102E800009B0BDE8F08F069B002BEED0079EC3EB88
:102E9000060B1FFA8BFB4FF0000E01232A688DE80A
:102EA000084031460346D2F810A028464A4601346D
:102EB000D04794FBF7F3296807FB1344A4B2013E03
:102EC0004B6A224641462846B6B29847B345E2D1FE
:102ED000CBE700BFF0B4059C9DF81C700CB9F0BCAA
:102EE00070470797F0BCFFF77DBF00BF704700BF7A
:102EF0002DE9F04F89B09DF854400594139C14B906
:102F000009B0BDE8F08FBDF84C7006931E46BDF8C1
:102F1000503093FBF7F4884607FB1434016807929E
:102F2000A4B222464B6A129905469847059A002A90
:102F300032D0069B13B3079EC3EB060A1FFA8AFA28
:102F40004FF0000B2A68CDF804B001230093D2F8AB
:102F5000109003463246414628460134C84794FB48
:102F6000F7F3296807FB1344A4B2013E4B6A129998
:102F700022462846B6B29847B245E3D1059B029354
:102F8000139B00930194069A0799129B4046FFF702
:102F9000ADFF09B0BDE8F08F002EEFD0069B079E75
:102FA000DDF814B01A4602EB060A1FFA8AFA2A68FC
:102FB000CDF804B001230093D2F8109003463246B6
:102FC000414628460134C84794FBF7F3296807FBBC
:102FD0001344A4B201364B6A129922462846B6B26F
:102FE0009847B245E3D1C9E7704700BF2DE9F04FDC
:102FF0008FB09DF874501B9F9DF8644008959DF814
:103000007850BDF8608009940B95002F00F09280F5
:103010009B46BDF86C70BDF8703093FBF7F4C1EBC4
:103020000B06013607FB1434B3B20A93099B0792CF
:1030300005460C91A4B2002B40F0DD80079BC3EB4A
:10304000080A1FFA8AFA089B0AF101091FFA89F98E
:10305000002B72D00AF1FF3A1FFA8AF2099ED0F8CB
:1030600000E00D92039613461B9E079A01961A9E46
:10307000029400960132DEF818A092B2D047B9F15E
:10308000020900F105814C4494FBF7F307FB13445C
:10309000A4B21B992B680A9E019100221A990294EE
:1030A00000910392D3F814A00C9933464246284667
:1030B0003444D04794FBF7F31B9A2968019207FB2D
:1030C00013441A9A00920123A4B20393029408F1C4
:1030D000FF32D1F818A00D9B92B259462846D0472E
:1030E000B9F1000FC0F204814C4494FBF7F307FBE5
:1030F0001344A0B21B992A68019101231A990290E6
:1031000000910393044656690A9B079A284659463C
:10311000B047089B05930B9B04931B9B0293099B51
:1031200001931A9B0093039443465A4607990C98BF
:10313000FFF75AFF0FB0BDE8F08F1B9BD0F800E0FF
:10314000089E01931A9B039602940093DEF81430B4
:103150001E46B4460A9BE0470A9B1B9A089E1C44E5
:1031600094FBF7F307FB1344A4B22B6801921A9A5D
:10317000039600920294079A9B690AF1FF3A1FFA9C
:103180008AFA01321E4692B2534659462846B04743
:10319000B9F1020200F18380144494FBF7F207FBBB
:1031A0001244A4B21B9A2B6801924FF001091A9A9B
:1031B00002940092CDF80C905B6942461E46594637
:1031C0000A9B2846B0470A9B2968CDF80C902344F7
:1031D00093FBF7F407FB14341B9B0193A4B21A9BD7
:1031E0000093029408F1FF328E690C9953462846E9
:1031F00092B2B0478DE703681A995B6A22469847F6
:103200000B9B8646002B50D0089B002B00F096802D
:10321000079B9845FFF47DAF684BCDF83480C146DD
:103220009A46DDF828801DE00126039600260296C6
:1032300001260196CDF800E0FFF7D4FD013429689E
:1032400094FBF7F307FB1344A4B24B6A1A99224686
:103250002846984709F1FF39079B1FFA89F94B4522
:10326000864642D82B685E69564543464A465946CB
:103270002846D9D00123039300230293012301930D
:10328000CDF800E043464A4659462846B047D5E7C0
:1032900021464A463846FEF733FC0446F9E6214605
:1032A0003846FEF72DFC04467CE7089B33B3079AAB
:1032B0009045FFF42EAF4746CDF83480DDF82880E6
:1032C0004FF0010A91461B9A2B6801921A9A0092BC
:1032D000CDF80CA002943A46013F5E695946434638
:1032E0002846BFB2B047B945EDD9DDF8348010E7C4
:1032F0004A4621463846FEF703FCFBE6079FB845E1
:10330000FFF407AFDDF82890CDF828B0DDF830B035
:103310009A461B9A2B6801921A9A0092CDF80CA03B
:1033200002943A4601375E6959464B462846BFB279
:10333000B047B845EDD2DDF828B0EAE6079A9045E7
:10334000FFF4E7AE1D4BDDF828A00D93CDF828B0B3
:103350009146DDF830B01BE0002603960296012668
:103360000196CDF800E0FFF73DFD0134296894FB9C
:10337000F7F307FB1344A4B24B6A1A992246284676
:10338000984709F101091FFA89F9C8458646D2D341
:103390002B685E690D9B9E424A4653465946284615
:1033A000DAD000230393029301230193CDF800E0C8
:1033B00053464A4659462846B047D6E7D52E000020
:1033C000704700BF2DE9F04F87B09DF84C40BDF825
:1033D00040500295119F0391054604920593002CDD
:1033E00039D199422CD8DDF80CA0BDF84880DDF821
:1033F0000890BB46049E4E451AD82B6822465B6A4D
:10340000594628469847002329680193013401232F
:10341000009394FBF8F208FB12443246013603464F
:103420000F6928465146B6B2B847B145A4B2E4D2B6
:103430000AF1010A059B1FFA8AFA5345DAD25F4660
:10344000129B0093019703A8029B07C8FFF7B8FFE0
:1034500007B0BDE8F08F049A02998A42F0D8BDF80F
:103460004880DDF8149000249246BB46039E4E45EA
:103470001AD82B6822465B6A59462846984700238B
:10348000296801930123009301340F6994FBF8F23A
:1034900031460136034608FB124428465246B6B26E
:1034A000B847B145A4B2E4D20AF1010A029B1FFA5F
:1034B0008AFA5345DAD25F46C2E700BF10B4047FF0
:1034C0004160022CC26003D05DF8044B00F0DCB90F
:1034D00083685DF8044B18472DE9F0410468E568FE
:1034E00015F0807F794D256052D1DF0740F1B38020
:1034F000002900F0E3800D78012B18BF45F000454E
:103500006563013190F82C8003F1FF3C48EA0828FC
:10351000BCF1000F00F0A88021B14D7811F8028BAA
:1035200045EA082845682E7ABCF1020F06F1FF36FD
:103530004FEA06360CBF48F0805548F01045B6B249
:103540006563ACF1020C08E00AB114700132013B72
:1035500005F47045B54216D90468E56A15F0F00F18
:10356000F6D0A46B13F0010F17464FEA242EEBD1CF
:103570001AB107F802EB54703A4605F47045B542AB
:10358000A3F10203E8D8BCF1000F6DD00468C3E7D3
:10359000DD074CD5002900F089800D78012B18BF7C
:1035A00045F000456563013103F1FF3E90F82CC002
:1035B000BEF1000F41D029B191F801C00D78023160
:1035C00045EA0C2C45682E7ABEF1020F06F1FF3653
:1035D0004FEA06360CBF4CF080554CF01045B6B2A1
:1035E0006563AEF1020E08E00AB114700132013BCE
:1035F00005F47045B54215D90468E56A15F0F00F79
:10360000F6D013F0010F1746A46BEDD122B107F8E5
:10361000024B241254703A4605F47045B542A3F1AA
:103620000203E9D8BEF1000F07D00468C3E79E4645
:1036300090F82CC0BEF1000FBDD11BB30468E16A45
:1036400011F0F00FFBD0A16BDC071DD50AB1117092
:103650000132013BF1E790F82C809C4648EA0828AB
:10366000BCF1000F7FF458AF63B10468E16A11F058
:10367000F00FFBD0DE07A16B0FD50AB1117001323C
:10368000013BF1E7BDE8F0812AB114460D1204F8C0
:10369000021B55702246023BCFE72AB114460D1299
:1036A00004F8025B51702246023BDDE790F82C5093
:1036B000012B18BF45F00045656375E790F82C5065
:1036C000012B18BF45F0004565631BE700041F8010
:1036D000F0B4464B464A986B5C6B017911704549D2
:1036E00022790A701A6B00790870002A46D059684E
:1036F000C9688A423ED82168CC8B240402F1FF308D
:1037000065D4C0F30E00C883C88B80B2C882996BA1
:103710000968C88B000452D4C2F30E00C883C88B5A
:10372000002480B212F1FF32C88218BF01221C634C
:10373000596B2E4809680D6800F12C04A54236D05B
:103740000068C46814F0804F0C680D6815BF2488A9
:1037500024780235013544F000440D604463996BD0
:10376000254B09791970214912B14A6B12791A70E7
:10377000F0BC7047521A1A630122D9E7D86B196856
:1037800005681E4C0A63CC62CC682D681C4E24F080
:1037900080440327B542CC6083F82D701FD1037F8E
:1037A0004260022BC2601ED0F0BC00F06DB8016810
:1037B00090F82C00CC6840F000404863CFE7CC8BF9
:1037C000C2F3080004F47E442043C883A7E7CC8BEF
:1037D000C0F3080004F47E442043C88394E72B46DA
:1037E0001146F0BC18478368F0BC18473007FF1F2C
:1037F0001F8000401C8000401B80004000000FFF25
:10380000BD34000090E80C00F0B41C6859682568CD
:10381000164F174E29432160164D17491760D66081
:1038200015611160417A154A5C180C3194F82C40EE
:1038300053F8215002EBC40149680D60017A5C180D
:1038400003EB8101247ECD6902EBC40149680D6060
:10385000817A581803EB810390F84000596C02EB11
:10386000C002F0BC53681960704700BF01401F00E0
:10387000011000380110007800001F80786F0000F0
:103880000BB1FFF729BE704710B4EFF3108272B688
:10389000437F33B9017F012908D0032910D00123C8
:1038A000437702B962B65DF8044B7047114C21684A
:1038B000A1B1114943610B68836108605861EEE76B
:1038C0000E4C216881B10E4943610B688361086029
:1038D00058610C4B4FF080511960E0E7064B416195
:1038E000816120601860DAE7054B416181612060E9
:1038F0001860EEE79011FF1F8C11FF1F8011FF1F52
:103900008411FF1F04ED00E070B5EFF3108272B672
:103910000C4C206880B10C4E00254369236073B1C4
:103920009D6102B962B6457783689847EFF31082CC
:1039300072B620680028F0D102B962B670BD33605B
:10394000EFE700BF8011FF1F8411FF1FFFF7DCBFEF
:10395000184A30B41468002C27D0036821688B42C1
:103960000ED2CB1A00218460C1602360E060106039
:103970000223037530BC704711688B42144608D38C
:10398000A2685B1A0360002AF6D18260C460A0605E
:10399000EEE7D268C2608460E060C568CB1A02229C
:1039A000A8602360027530BC70478460C4601060FA
:1039B000DEE700BF8811FF1FF8B5224E34682CB334
:1039C0002368002B3AD1204F1D4604E03468ECB147
:1039D0002368002B32D1A36803B1DD602069336016
:1039E000036825751B68BB4221D1037F4560022B0C
:1039F000C46020D0FFF748FF6368002BE6D0236047
:103A00002046FFF7A5FF3468002CE1D1EFF31083C7
:103A100072B60E4A00211068116003B962B628B16F
:103A20008468FFF795FF20460028F9D1F8BD2246AB
:103A300000219847E0E783689847DDE7013B236072
:103A4000E4E700BF8811FF1FBD3400009811FF1F7D
:103A5000024A136801331360FFF7AEBF9C11FF1FCA
:103A6000F8B572B106460F4614460025336817F8BC
:103A7000011B1B6830469847013C0544F6D1284697
:103A8000F8BD1546FBE700BF00B5064A036812887B
:103A90005B6883B001A9ADF804200222984703B007
:103AA0005DF804FB746F000008B5FCF7E9FCFCF757
:103AB000DDFC01F0B3FAFAE708B5104C08E0236822
:103AC00059050DD423681A050FD42368DB0411D4DB
:103AD00023685803F3D500F0F3FA23685905F1D5AC
:103AE00001F08AFB23681A05EFD501F01BFC23685F
:103AF000DB04EDD501F0ACFCEAE700BF3480044004
:103B000008B5FFF7D9FF00BF014B10221A8070479C
:103B100000200540704700BF094908B50B6830B167
:103B20006A461844A2F50052904202D20860184634
:103B300008BD02F03DF90C2303604FF0FF3008BDD3
:103B40007007FF1FFEE700BF084A1378802B01D0E3
:103B5000002070470649074B07480860002119708C
:103B60001378802BFCD00120704700BF03E0074092
:103B70004480044001E0074000002822094A1378ED
:103B8000012B01D00020704703F1804303F5FC2393
:103B9000602119701378802BFCD1034B034A1A6003
:103BA0000120704703E00740448004400000060203
:103BB000F0B44D1E2E46002400E00134B0FBF2F3B9
:103BC00002FB1300092800F130078ABF3730F8B232
:103BD000C0B206F8010F1846002BEED10A19537037
:103BE0004CB1107815F8016F28700133E01A834248
:103BF00002F80169F5DB0846F0BC704710B4114BC0
:103C000053F8302092F8804234B1012379B182F820
:103C100080305DF8044B704703EBC0035B681A68A3
:103C200051B922F002021A605DF8044B704782F825
:103C300000315DF8044B704742F003021A605DF8F2
:103C4000044B7047786F00001C4A02EBC003012947
:103C50005B6811D004291BD052F83000002280F894
:103C6000802229B1022920D0032922D01A6070476E
:103C70004FF480721A60704752F830004FF4A2720D
:103C800080F880121A601A6822F020021A607047C9
:103C900052F830104FF4A272012081F880021A60AD
:103CA0001A6842F020021A60704740F203121A604C
:103CB00070474FF481721A60704700BF786F000040
:103CC00030B4054B054D064C002210211A602A60C5
:103CD0002060196030BC704714D0034004D003400A
:103CE00000D003403F2801D8FFF788BF704700BFCE
:103CF0003F2801D8FFF7A8BF704700BF2DE9F84360
:103D0000054672B6224F234B234A1B683C68126853
:103D100062B6520102D5322B88BF0134B5B3C3F568
:103D20002F3303F21F331D4EDFF86890DFF86880F1
:103D30009B084FF47A72A6FB031302FB04F404EB16
:103D4000930472B6D9F800103A68D8F800E062B669
:103D5000C1F52F3303F21F339B08A6FB03031EF0AC
:103D6000806FC4EB93034FF47A7002D0322988BF7E
:103D7000013200FB0233B3F57A7F04D3013D05D055
:103D800004F57A74DDE701F049F9DAE7BDE8F88374
:103D90009C11FF1F18E000E004ED00E0176CC11655
:103DA000F8B54E4B4E48DFF85CC14E4C4E49DFF83B
:103DB00058E14E4E4E4D4F4F4FF000621A604FF09B
:103DC00080521A604FF000521A604FF080421A6021
:103DD0004FF000421A600022026028234EF6FF7066
:103DE000CCF80000CEF8003023600EF5012E0B60F9
:103DF00033602B6006F500263B6005F50025A362C5
:103E000007F500278B6204F5012401F5012106F670
:103E1000E87605F6E87507F57F6710310EF1100EAC
:103E2000203433602B60CEF800303B600B602360A1
:103E3000314CBB618B6109212160A7F5002704F596
:103E40008054203F08343A602060BB60E36047F84C
:103E5000041C04F5FD2407F5FE27043704F2FC7466
:103E600022603860A360FB6044F8041C083404F648
:103E7000FC74C7F8FC2F2060A4F5E124A4F2DC74E4
:103E800033602B60C7F8F81F21681C4841F40071AB
:103E9000216001681A4C0EF57F4E0EF1E80E07F511
:103EA000883706F5803605F5803541F000710160F0
:103EB000CEF8002047F6FF710822396033602B608E
:103EC000226001F019F91920FFF718FF00F060FED9
:103ED00040F21310BDE8F840FFF710BF04E100E026
:103EE00004800340148003401C800340248003406E
:103EF0002C80034034800340008003400480044051
:103F000000900C40088003400C800340431E032BAC
:103F100014D872B60A4951F8230068B170B4094C3C
:103F2000058834F81320466841F82360521B24F8B2
:103F3000132062B670BC704762B6704700207047AD
:103F4000F811FF1FD015FF1F013803280BD872B6D8
:103F5000074B53F8203043B100205B680130002B41
:103F6000FBD162B67047002070471846F9E700BFE2
:103F70004C12FF1F30B472B62B4A13781D0706D5BA
:103F80002A4B196A002936D0996A002941D0537802
:103F90001C0706D5254B196C00293ED0996C0029C9
:103FA00039D09378190705D5204B196E002936D0E2
:103FB000996E89B1D3781B0707D51C4BD3F88020A5
:103FC0007AB3D3F8882011213AB162B6184B002297
:103FD0001A7030BC00F092BE0D21154C154D2278A0
:103FE00043F8315003EBC1030830013A58602270A6
:103FF00062B630BC704704220D4C0F4D217843F857
:10400000325003EBC20308304A1E5860227062B679
:10401000EFE70521E1E70921DFE70822ECE70C22C1
:10402000EAE71022E8E700BFA07100000000FF1FD0
:104030007512FF1FC800400088004000431E032B7C
:104040001DD81B4A400140F0100030B4104472B635
:10405000184CE25C032A1BD8DFE802F002121517A5
:1040600003220D88E25410F0080F14BFC8238823E0
:1040700043EA054308310360416062B630BC7047D3
:1040800008300222EDE70522EBE708300422E8E7DA
:10409000094A52F8230038B1084A52F82300416017
:1040A00042F8231062B6E9E742F82310034AF7E723
:1040B0000000FF1F8412FF1F4C12FF1F5C12FF1F26
:1040C0002DE9F04FDFF80CB3DFF80CA387B044E024
:1040D000AB4F4FEA930807EBC809013ED9F804201B
:1040E00003F00803F6B2A2F1080003F0FF04002B6E
:1040F00040F0028157F838301B0C99B222F8081CA6
:10410000002B00F0F0809F4B22F8064C42F8044C44
:1041100053F82620002A00F0C5829B4D55F8263022
:1041200058609A4C45F8260034F81630194424F8A3
:10413000161000F0C3FD002800F0AD82944A954BA4
:1041400019F0080F00F1080018BF1346C9F8040061
:1041500047F8383008238BF800309BF80040E4B271
:1041600061071AD58C4B1B78A3B18C490A7802F0F1
:10417000FF0322B1013BDBB20B7003B900BE8849DB
:104180000A7802F0FF032AB1013BDBB20B70002B6F
:1041900000F0578204238BF8003004F0080303F08A
:1041A000FF02002B00F0CC809AF80030DBB21E0931
:1041B0008ED19C08DFF8C89159F8342009EBC4016E
:1041C000C2F38302013A49680C2A00F28880DFE8D2
:1041D00002F07C7C868686868686478686860700F1
:1041E0000868704D4A68704F704E286081B240F286
:1041F0008160674B6A604FF0010E0022814249F8EE
:1042000034303A60C9F81020C9F8182086F800E068
:104210005B4C00F2E380B1F5D06F80F04683B1F5DE
:10422000817F00F0FC8200F28D82802900F077838C
:10423000822940F0FA82A98801F07F01042900F266
:10424000F4825B485B4C89000844227062700278FB
:10425000930740F1588484F800E04FF0020E42E3E7
:10426000514F3A6832B3544B504E54491888347801
:104270000D784028864645F0020828BF4FF0400ED2
:10428000002C84F001043470CEEB00000CBF8824B5
:10429000C82409EBC80680B285F0010544EA0E4443
:1042A0007260188049F8384072440D70002800F0A0
:1042B00045813A603B4B1A88B2F5A06F0FD10021BF
:1042C0009A7859703E4B1A7009E0364A108842F2CB
:1042D0002102904200F037812D4A49F83420394AB2
:1042E0000123137036E72A4A2A4B19F0080F18BF2A
:1042F000134647F838302DE700F000FD324A3349C5
:1043000052F82630002B00F0D18158688C5D42F8BD
:10431000260003F10802C9F80420032C05D8DFE8C1
:1043200004F02C02292602228A551A8819F0080F57
:104330000CBF8823C82343EA024347F8383009E713
:10434000E00700F18181210600F1F281A20706D584
:104350001F4A204913780220DBB213700870E3066D
:1043600002D51C4B10221A7007B0BDE8F08F042252
:104370008A55DAE705228A55D7E703228A55D4E71A
:104380000000FF1FF811FF1FA411FF1FD015FF1F12
:10439000C8004000880040008012FF1F0912FF1F64
:1043A0008812FF1F6C12FF1FA011FF1F0812FF1FB2
:1043B000C02007407812FF1FB411FF1F7412FF1FA7
:1043C00098200740942007404C12FF1F8412FF1FC3
:1043D00088200740802007409020074042F22100BB
:1043E000814200F02A8100F2D880B1F5086F00F018
:1043F0007682B1F5106F40F01882226AB349A8782E
:104400000870120600F13A83D9F82820B049130643
:1044100000F10C83D9F83020AD49150600F1018375
:10442000D9F83820AA49140600F1F682D9F84020BC
:10443000A749100600F14A83D9F84820A44912067A
:1044400000F13F83D9F85020A149130600F13483CD
:10445000D9F858209E49150600F12983D9F8602023
:104460009B49140600F11E83D9F86820984910066C
:1044700000F11383D9F870209549120600F10883E2
:10448000D9F878209249130600F1FD82D9F88020EE
:104490008F49150600F13183D9F888208C4914061C
:1044A00000F12583D9F890208949100600F119837D
:1044B000D9F898208649120600F10D838548864A6E
:1044C000864901908648874D874C049700230596BE
:1044D000029580460F4616461D460394306828B163
:1044E000446800F00BFC2046002CF9D10023336017
:1044F000029B38681A46002342F8253028B14468E8
:1045000000F0FCFB2046002CF9D100223A60019A11
:1045100098F800301146002241F8042B039A0191CB
:10452000023B4FF0000122F81510032B00F22B8103
:10453000DFE813F07001250170012501BEF1400F85
:1045400018BF0022B5E6694A0D784878157050709A
:104550008D78C8789570D07010680D79157186289F
:104560004D7989795571917100F09B816049614E57
:104570000A78307882F00105002842F002020D70BE
:104580000CBF8821C82149F8321009EBC20280F023
:1045900001000021307051609EE642F221208142EC
:1045A00040F0CB81544B554C5549A8781D68256087
:1045B000CDF804E00870002002908046844604464E
:1045C0004B490D7845F0020E09EBCE030393019B96
:1045D000002B039B5C600CBF8824C82444EA0803BA
:1045E00085F0010449F83E3032700C70DFF8E0E0ED
:1045F000404BDFF8FC80002840F01E81BCF1400FEA
:104600001BD144F0020C09EBCC03029CDFF8C0E0A4
:104610005C60002A40F02681020442F088029DF886
:1046200004304EF83C20044433700D70234640287B
:1046300003D10020334A3B601080334A01231370BA
:104640004DE600F0C7FCA5E5214B2F4828491A612B
:104650004FF0020E80F800E02C4F0A702C491960D0
:1046600099602C4E2C4D2D4C9A610D213970FF21F3
:104670003170DFF8B8E029702270294D294A8EF890
:1046800000109F27012406F8047C5D600470DA6046
:1046900007B0BDE8F08F244A47F83800137801339B
:1046A000137057E543F826000E4D3AE58B5D032B5A
:1046B00000F2F08001A252F823F000BF5541000043
:1046C0005541000079470000734700008012FF1F2A
:1046D0000000FF1F5C12FF1FF811FF1F4C12FF1F8D
:1046E0008412FF1FA411FF1FD015FF1FD815FF1F35
:1046F0007412FF1F0812FF1F9C11FF1FE015FF1F00
:104700009812FF1FB411FF1F94200740C0200740DC
:1047100088004000882007408020074098200740FC
:10472000B811FF1F0C12FF1F7512FF1F8C200740CE
:10473000C149C24B80220D2008701A70A2077FF574
:104740000EAE05E640F20232914240F0EE80A988BA
:1047500001F07F01042968D86A88002A65D1B6482B
:10476000CDF804E089000844017841F002010170AD
:1047700021E701238B55EDE400238B55EAE44FF04C
:10478000010388F800300135042D06F1040607F115
:10479000040708F101087FF4A1AEA94CA94B2278C7
:1047A000A94D049F059E002129701A70130700F17E
:1047B00005816278A549DFF8A0820A7010074FF0E2
:1047C0000001C9F83010C9F8381000F1E080A049A4
:1047D000A2780A700021C9F85010C9F858101107C2
:1047E000DFF8748200F10181E2789A499A4C0A70EC
:1047F00000211207C9F87010C9F8781000F1B080D4
:1048000033780193002183F00102C9F89010C9F8B0
:104810009810D0E64FF0000388F80030B3E7A9887D
:1048200001F07F01042940F28D80834A0F23137029
:104830008A4A0123137052E540287FF6E2AE44F025
:1048400002040EEBC401029E4E60BAB19DF8041042
:10485000834A19703346403888F8005040334EF888
:104860003420E7E69DF8043033700204029B0D709B
:1048700042F0C80203444EF83C20D8E69DF80410EC
:104880001970029B774A88F80050403840334EF840
:104890003420CFE619F0080F0CBF022303238B55F9
:1048A00058E4714A0F21117060E6704A5468002C78
:1048B000BBD06888B5F804E003E00C325468002CE3
:1048C000B3D013888342F8D153887345F5D1000AD9
:1048D00003280CBF94F800E0B2F808E003E0644A53
:1048E000644C12782270E888704580F03F816249FC
:1048F0000D784028844645F0020E28BF4FF0400C4A
:1049000004EB0C0309EBCE02029301235460CCEBC1
:1049100000004FEA0C4800220193C8245EE6554C83
:104920004FF0020E22706270DDE7B1F5A06F7FF4E8
:104930007CAF0123002201933DE642F221329142F5
:10494000F7D072E76A88002A7FF46FAF3A48CDF853
:1049500004E089000844017821F0020101702AE690
:1049600000F0ACF9002800F0EF8008303D4AC4F8B0
:104970008400C4F8802000F0A1F9002800F0DE8057
:104980000830374AC9F88C00C9F8882038E700F0A9
:1049900095F9002800F0C0800830324AC8F8440079
:1049A000C8F8402000F08AF9002800F0AF800830F5
:1049B0002B4AC9F84C00C9F8482008E700F07EF9F6
:1049C000002800F0CD800830264AC9F82400C9F834
:1049D000202000F073F9002800F0BC800830204A45
:1049E000C9F82C00C9F82820E3E600F067F9002890
:1049F00000F09E8008301B4AC8F86400C8F86020A8
:104A000000F05CF9002800F08D800830144AC9F8E5
:104A10006C00C9F86820E7E6C86B083800F06EF94A
:104A200004E5486B083800F069F9F9E4C86A083809
:104A300000F064F9EEE400BFC0200740802007408A
:104A4000A0710000C42007407512FF1FC820074056
:104A5000CC200740D02007400000FF1F94200740D3
:104A6000C8004000880040000912FF1FA471000028
:104A70008012FF1F7812FF1F7412FF1F606A083830
:104A800000F03CF9C0E4C86F083800F037F9FDE4E5
:104A9000486F083800F032F9F2E4C86E083800F0C8
:104AA0002DF9E7E4486E083800F028F9DCE4C86D19
:104AB000083800F023F9D1E4486D083800F01EF9F9
:104AC000C6E4C86C083800F019F9BBE4486C083833
:104AD00000F014F9B0E4D1F89C00083800F00EF9A9
:104AE000ECE4D1F89400083800F008F9E0E4D1F8DB
:104AF0008C00083800F002F9D4E4D1F884000838BA
:104B000000F0FCF8C8E44FF0020EECE62A78C9F891
:104B1000480001322A705AE62A78C8F8400001326B
:104B20002A703FE72A78C9F8680001322A705BE6EC
:104B30002A78C8F8600001322A7061E72A78C9F83B
:104B4000880001322A705BE62A78C4F880000132BE
:104B50002A7010E72A78C9F8280001322A7028E65E
:104B60002A78C9F8200001322A7032E7BEF1400FDE
:104B7000F44628BF4FF0400C04EB0C0302930123D2
:104B8000CCEB0E004FEA0C480022019318E500BF61
:104B90002DE9F04100F042FE314C324B3248DFF853
:104BA000E480324EDFF8E0C0314F324DDFF8DCE018
:104BB00000221A605A609A60DA601A615A619A613A
:104BC000DA611A625A629A62DA621A635A639A6303
:104BD000DA631A645A649A64DA641A655A659A65E3
:104BE000DA651A665A669A66DA661A675A679A67C3
:104BF000DA67C3F880202168C3F8842041F480215B
:104C00002160016841F040710160032188F80010C3
:104C1000A020C3F307218CF8000004F5283431707C
:104C2000C3F30740144938701B0E2B70CC34FF239C
:104C30008EF80030114D0CF8B83C11480B70012370
:104C400006F8083C227070264FF40014102207F872
:104C50002C3C2E70046081F8F820BDE8F08100BF84
:104C6000348004400000FF1F00D800409C20074013
:104C7000B0200740B42007401020074035E400E092
:104C800004E100E044210740402107408020074024
:104C900000F0A4B800F07CB800F056B800F090B86E
:104CA00000F06CB900F046B90846114600F0B2B801
:104CB000084600F033B900BF704700BF72B60D4818
:104CC0000268B2FA82F30B2B10DC4FF00041D9409E
:104CD00022EA0102026062B6074803EBC303DB006D
:104CE000C2180021C15010465160704762B60020C2
:104CF000704700BF8407FF1FD003FF1F0D4B0E4AF4
:104D0000C31AA2FB03231B090B2B0CD80B4A1278E6
:104D100052B972B60A484FF00041026821FA03F313
:104D20001A43026062B67047064A1278002AF0D031
:104D3000FFF720B9D003FF1F398EE3387512FF1F2C
:104D40008407FF1F8012FF1F38B50F4D286878B108
:104D500043880288C118013393420C7A02D24380FF
:104D6000204638BDFFF7CAFF002320462B6038BD20
:104D7000064B1B782BB10320FFF7C8F828600028EA
:104D8000E6D14FF0FF3038BD9412FF1F8012FF1F95
:104D900010B5094C206818B143881844007A10BD3A
:104DA000064B1B782BB10320FFF7B0F820600028DA
:104DB000F2D14FF0FF3010BD9412FF1F8012FF1F81
:104DC000044B054A1B6890881BB11A885B88D31A6C
:104DD000184470479412FF1FD015FF1F0B4B1B7810
:104DE0009BB110B50A4C206848B1FFF787FF00233C
:104DF00003202360FFF78AF830B1FFF77FFF03201D
:104E0000FFF784F80028F8D110BD70478012FF1F0B
:104E10009412FF1F2DE9F04FDFF8F89083B00122C4
:104E200089F80020019169B3DFF8EC80354F019ECD
:104E30008346D8F80000B0B3334D4488C4F1400134
:104E4000B14228BF314604EB010E00221FFA8EFE4C
:104E50002A70761AA0F802E000F1080251B1013C74
:104E6000224459441BF8014B02F8014F8B45F9D1FC
:104E7000B0F802E0BEF13F0F0BD8244A05211170B3
:104E8000002ED6D10198002389F8003003B0BDE888
:104E9000F08F4022028001460420FFF7CFF8002265
:104EA000C8F80020E9E73A7822B3194C164D4FF0C4
:104EB000010A07E0013C16D02A78A2B900F0AEF84A
:104EC0003A78BAB10420FFF73FF80728F2D889F8FA
:104ED00000A0FFF7F3FEC8F800000028ADD10D4B8D
:104EE000013C1870E8D101234FF0FF302B7003B064
:104EF000BDE8F08F00234FF0FF3089F8003003B099
:104F0000BDE8F08F8012FF1F9012FF1F8812FF1F55
:104F1000214801008912FF1F8C12FF1F00B583B0CA
:104F200002AB012103F8010D1846FFF773FF03B030
:104F30005DF804FB38B50E4D0E4C28680123237034
:104F400028B1408800232370C0F1400038BD0A4BCF
:104F50001B7813B90020207038BD0420FEF7F4FF41
:104F60000728F7D8FFF7AAFE28600028E9D1F1E763
:104F70008C12FF1F8912FF1F8012FF1FF8B5114B03
:104F80001B788BB1104E114D346801272F7064B11E
:104F90000F4A638800271770214623800420FFF7FB
:104FA0004DF8376000232B70F8BDFFF787FE084BE4
:104FB00028B1014604201C70FFF740F8F2E71F708B
:104FC000F0E700BF8012FF1F8C12FF1F8912FF1F26
:104FD0008812FF1F38B50E4B1B7873B90D4C216832
:104FE00061B103F0FF054B880B800420FFF726F822
:104FF000256038BD084B01221A7038BDFFF75EFEF0
:105000000028F7D00146BDE838400420FFF716B865
:105010008912FF1F8C12FF1F8812FF1F38B52C4CFE
:10502000237803B138BD01232370FFF7C9FE0028A0
:1050300042D100F0D1F800283BD100F063F90028FC
:1050400034D100F0F5F970BB00F06EFA40BB00F00F
:10505000E7FA10BB00F060FBE0B900232370EFF328
:105060000583002BDED1EFF3108172B6194B18685F
:1050700028B3194C227812BB45691D6001232370A7
:105080000DB3AA6101B962B60025457783689847D8
:105090002570C7E700F02EF8DFE700F029F8D9E720
:1050A00000F024F8D3E700F01FF8CDE700F01AF87D
:1050B000C7E700F015F8C0E7FFF7FEFDB9E70029E4
:1050C000B0D162B638BD054B1D600029DCD1DAE7EE
:1050D0009912FF1F9011FF1F9411FF1F8C11FF1FCA
:1050E000704700BF704700BF704700BF704700BFE8
:1050F000704700BF704700BF30B42948294A2A4B87
:105100002A4D6024E121047011701B78284C082B73
:1051100030D00A2B2748284937D00C2B0CBF35221A
:105120005D2212232A60236002600B60234B244916
:105130001B78244ABBB101230B601360224B234927
:105140001B78234A012B26D9042B0FD9082B1ED9F3
:10515000102B94BF862387230B6013601D4B012205
:105160001A7030BC70470B601360E7E784230B6054
:105170001360F3E700F58E200F4908302122132336
:105180002A60236002600B60D0E73922F7E78523AD
:105190000B601360E2E780230B601360DEE700BF63
:1051A00000400740014007408807FF1F08B0034048
:1051B0000CB0034008B00B400CB00B409B12FF1F1B
:1051C00020B0034020B00B408907FF1F24B00340EC
:1051D00024B00B409A12FF1F054A064B10781B782B
:1051E000C0B2DBB2984238BF4030C01A704700BF2F
:1051F000A012FF1FA112FF1FF0B4384B1A7912F052
:10520000300F2CD072B6997D01F0FF0200293DD0FD
:1052100062B6334F334938780D78334E1C46C0B2EE
:10522000EDB2431C402BE17928BF0023AB4202F1D1
:10523000FF32C9B21CBFF154184612F0FF02F0D180
:105240002A4B1B68C2B23A704BB1A84236BFC5F1B7
:105250004005401B40192728C4BF01221A701F496E
:10526000CA78D2B2150616D452060DD51B4B1B793F
:105270005B0609D51E4B1F491B6800220A7003B14B
:105280001A70164B3C22DA70F0BC70474022D97974
:105290005A7462B6E3E70B791C06E5D5164B174E38
:1052A0001C783378E4B2DBB29C420ED0144D01E09E
:1052B000A3420AD00133402B28BF00230879E85CC1
:1052C000C0B2C871087D0728F2D9DBB20349337038
:1052D0000B79180644BF7C23CB70C5E700A00640BD
:1052E000A012FF1FA112FF1FE412FF1F9C12FF1F3D
:1052F0002813FF1F2413FF1F2C13FF1F2513FF1F4D
:10530000A412FF1F054A064B10781B78C0B2DBB20F
:10531000984238BF4030C01A704700BFA013FF1F2B
:105320003513FF1FF0B4384B1A7912F0300F2CD020
:1053300072B6997D01F0FF0200293DD062B6334F6D
:10534000334938780D78334E1C46C0B2EDB2431C59
:10535000402BE17928BF0023AB4202F1FF32C9B2F2
:105360001CBFF154184612F0FF02F0D12A4B1B6803
:10537000C2B23A704BB1A84236BFC5F14005401BDE
:1053800040192728C4BF01221A701F49CA78D2B217
:10539000150616D452060DD51B4B1B795B0609D595
:1053A0001E4B1F491B6800220A7003B11A70164B6E
:1053B0003C22DA70F0BC70474022D9795A7462B648
:1053C000E3E70B791C06E5D5164B174E1C783378AE
:1053D000E4B2DBB29C420ED0144D01E0A3420AD0ED
:1053E0000133282B28BF00230879E85CC0B2C871BC
:1053F000087D0728F2D9DBB2034933700B79180610
:1054000044BF7C23CB70C5E700B00640A013FF1F4C
:105410003513FF1F6013FF1F3013FF1FA413FF1F5F
:105420003413FF1FA813FF1FA113FF1F3813FF1F03
:10543000054A064B10781B78C0B2DBB2984238BFE1
:105440004030C01A704700BFB013FF1FB113FF1FD9
:1054500030B42B4B1A7994061FD52A48DA79037891
:10546000294901333F2B0978C8BF00238B42D2B2B0
:1054700003D0264CD9B2E2540170254A116861B1BB
:10548000244A1278D2B2934236BFC2F140029B1A2C
:105490009B18272BC4BF01230B70194AD378DBB2AA
:1054A000180611D45A060DD5154B1B795B0609D584
:1054B000194B1A491B6800220A7003B11A70104B6D
:1054C0002C22DA7030BC704711790906EAD51449EC
:1054D00010480C780178C9B28C420DD04A1C272A9A
:1054E00084BF00210A460F4D054C98BFD1B2AA5C7B
:1054F000D2B2E2710170D5E76C21D170D2E700BF62
:1055000000C00640B013FF1FB113FF1FDC13FF1FC5
:10551000AC13FF1F1D14FF1F2014FF1F1C14FF1FBF
:105520002414FF1FB413FF1F054A064B10781B7885
:10553000C0B2DBB2984238BF4030C01A704700BFDB
:105540002C14FF1F2D14FF1F30B42B4B1A79940617
:105550001FD52A48DA790378294901333F2B097886
:10556000C8BF00238B42D2B203D0264CD9B2E2543A
:105570000170254A116861B1244A1278D2B293426F
:1055800036BFC2F140029B1A9B18272BC4BF0123D0
:105590000B70194AD378DBB2180611D45A060DD510
:1055A000154B1B795B0609D5194B1A491B6800225C
:1055B0000A7003B11A70104B2C22DA7030BC70479D
:1055C00011790906EAD5144910480C780178C9B256
:1055D0008C420DD04A1C272A84BF00210A460F4D59
:1055E000054C98BFD1B2AA5CD2B2E2710170D5E786
:1055F0006C21D170D2E700BF00D006402C14FF1FF1
:105600002D14FF1F5814FF1F2814FF1F9914FF1F8C
:105610009C14FF1F9814FF1FA014FF1F3014FF1FBE
:10562000054A064B10781B78C0B2DBB2984238BFEF
:105630004030C01A704700BFA814FF1FA914FF1FF5
:1056400030B42B4B1A7994061FD52A48DA7903789F
:10565000294901333F2B0978C8BF00238B42D2B2BE
:1056600003D0264CD9B2E2540170254A116861B1C9
:10567000244A1278D2B2934236BFC2F140029B1A3A
:105680009B18272BC4BF01230B70194AD378DBB2B8
:10569000180611D45A060DD5154B1B795B0609D592
:1056A000194B1A491B6800220A7003B11A70104B7B
:1056B0002C22DA7030BC704711790906EAD51449FA
:1056C00010480C780178C9B28C420DD04A1C272AA8
:1056D00084BF00210A460F4D054C98BFD1B2AA5C89
:1056E000D2B2E2710170D5E76C21D170D2E700BF70
:1056F00000A00E40A814FF1FA914FF1FD414FF1F01
:10570000A414FF1F1515FF1F1815FF1F1415FF1FE9
:105710001C15FF1FAC14FF1F054A064B10781B78A1
:10572000C0B2DBB2984238BF4030C01A704700BFE9
:105730002415FF1F2515FF1F30B42C4B5A68940207
:105740001FD52B48DA6803782A4901333F2B0978A3
:10575000C8BF00238B4204D0274CD2B2D9B2E25446
:105760000170264A116861B1254A1278D2B293427B
:1057700036BFC2F140029B1A9B18272BC4BF0123DE
:105780000B701A4A9368180202D55268110211D49C
:105790005A020DD5154B5B685B0209D5194B1A49A6
:1057A0001B6800220A7003B11A70184B00221A609D
:1057B00030BC7047164A124910780A78D2B290422B
:1057C0000DD00132272A84BF00200246114D074C1C
:1057D00098BFD0B2AA5CD2B2E2600870D8E70E4897
:1057E0000A4A0024012104601160D1E700400C4006
:1057F0002415FF1F2515FF1F5015FF1F2015FF1F24
:105800009115FF1F9415FF1F9015FF1F5801884326
:105810009815FF1F2815FF1F5C01884310B584B041
:1058200072B6FEF791F9184A184B194911607022A7
:1058300080211A701A46197013781B06FCD5154B77
:105840001C68FEF79BF962B6134B9C429CBF04EBAD
:10585000840464002046114C01A90A22FEF7A8F92D
:1058600001A92046002311F8012B01333AB10A2B7C
:1058700020F8022FF7D11623237004B010BD5B006F
:10588000DBB2237004B010BD0400024000000240EF
:10589000000007410C0002407F9698001808FF1F87
:1058A00081F0004102E000BF83F0004330B54FEAD1
:1058B00041044FEA430594EA050F08BF90EA020F3E
:1058C0001FBF54EA000C55EA020C7FEA645C7FEAD1
:1058D000655C00F0E2804FEA5454D4EB5555B8BFF4
:1058E0006D420CDD2C4480EA020281EA030382EA65
:1058F000000083EA010180EA020281EA0303362DF7
:1059000088BF30BD11F0004F4FEA01314FF4801CC9
:105910004CEA113102D0404261EB410113F0004FDB
:105920004FEA03334CEA133302D0524263EB430392
:1059300094EA050F00F0A780A4F10104D5F1200E30
:105940000DDB02FA0EFC22FA05F2801841F100018B
:1059500003FA0EF2801843FA05F359410EE0A5F15F
:1059600020050EF1200E012A03FA0EFC28BF4CF090
:10597000020C43FA05F3C01851EBE37101F0004546
:1059800007D54FF0000EDCF1000C7EEB00006EEB53
:105990000101B1F5801F1BD3B1F5001F0CD34908DD
:1059A0005FEA30004FEA3C0C04F101044FEA445234
:1059B00012F5800F80F09A80BCF1004F08BF5FEABB
:1059C000500C50F1000041EB045141EA050130BD9B
:1059D0005FEA4C0C404141EB010111F4801FA4F13E
:1059E0000104E9D191F0000F04BF01460020B1FA93
:1059F00081F308BF2033A3F10B03B3F120020CDACB
:105A00000C3208DD02F1140CC2F10C0201FA0CF0A8
:105A100021FA02F10CE002F11402D8BFC2F1200C0D
:105A200001FA02F120FA0CFCDCBF41EA0C019040C3
:105A3000E41AA2BF01EB0451294330BD6FEA04040C
:105A40001F3C1CDA0C340EDC04F11404C4F12002F7
:105A500020FA04F001FA02F340EA030021FA04F309
:105A600045EA030130BDC4F10C04C4F1200220FA60
:105A700002F001FA04F340EA0300294630BD21FA9E
:105A800004F0294630BD94F0000F83F4801306BF64
:105A900081F480110134013D4EE77FEA645C18BF58
:105AA0007FEA655C29D094EA050F08BF90EA020FEF
:105AB00005D054EA000C04BF1946104630BD91EAE7
:105AC000030F1EBF0021002030BD5FEA545C05D1EA
:105AD0004000494128BF41F0004130BD14F5800429
