:1000000000000320D10100008130000039300000E1
:10001000393000003930000039300000393000003C
:1000200039300000393000003930000081300000E4
:100030008130000039300000CD2E0000D12F0000AB
:1000400081300000813000008130000081300000EC
:1000500081300000813000008130000081300000DC
:1000600081300000813000008130000081300000CC
:1000700081300000813000008130000081300000BC
:1000800081300000813000008130000081300000AC
:10009000813000008130000081300000813000009C
:1000A000813000008130000081300000813000008C
:1000B000813000008130000081300000794700006D
:1000C00081300000A548000081300000D1490000C7
:1000D00081300000C94A00008130000081300000FA
:1000E000813000008130000081300000813000004C
:1000F000813000008130000081300000813000003C
:10010000813000008130000081300000813000002B
:100110008130000041360000813000008130000055
:10012000813000008130000081300000813000000B
:1001300081300000813000008130000081300000FB
:100140008130000081300000C14B00008130000090
:1001500081300000813000008130000081300000DB
:1001600081300000813000008130000081300000CB
:1001700081300000813000008130000081300000BB
:1001800081300000813000008130000081300000AB
:100190008130000081300000B94C00008130000047
:1001A000813000008130000081300000813000008B
:1001B000813000008130000081300000813000007B
:1001C000813000008130000081300000813000006B
:1001D0005C4B4CF2205210B51A804DF628121A8052
:1001E00000BF00BF02F050FF574B4FF030621A6063
:1001F000564A9A60564ADA60564B4FF470021A60BB
:10020000554B564A1A60564A136813F4807304D14A
:1002100054490B604FF4A8531360534B1A781107DD
:1002200003D51A7842F008021A70504B5049AA229E
:100230001A70504A504B8B4204D252F8040F43F8C4
:10024000040BF8E74D4B4E4900228B4202D243F893
:10025000042BFAE74B494C4A002352F8230041F89B
:1002600023000133742BF8D1484B494A802103F80D
:10027000011B9342FBD1474B424A1A60464B8A22EC
:100280001A70A3F5805324225A70A0221A709A790A
:100290009207FCD59A79D406FCD4404A937903F0AE
:1002A0000C03082BFAD13E4B60221A7002331A78E5
:1002B000802AFCD1394B01221A715D225A719A7938
:1002C0009006FCD59979354A4906FBD5354B364918
:1002D00019600021596020231370937903F00C03F7
:1002E0000C2BFAD1314B324A1A60324B324A1A6027
:1002F00000225A60072243F8042C304AC3F80C2D20
:1003000062B603F00DF8174B1B68DA0705D52C48C9
:1003100002F096FF2B4B2C4A1A602C4B1B785B0685
:1003200009D5284C284B22689A4204D1244802F06F
:1003300087FF0023236006F0E7FB02F0ABFE02F02C
:1003400073FEFEE70E20054030800440823F04002B
:100350000100002B88ED00E0002008E0030000858C
:1003600010D0034014D0034002D0074000E0074003
:10037000BC000020048100003007FF1FC0000020E7
:1003800028FD00200002FF1F0000000000E400E044
:1003900064E400E008ED00E0005006400040064044
:1003A00001E007404480044000000602048004404D
:1003B000C010070014E000E01FBF02000000202072
:1003C0006EF3085C1CE00340A5C3945A00F007409C
:1003D000FFFFFFFFFFFFFFFFFFFFFFFFFFFFFFFF2D
:1003E000FFFFFFFFFFFFFFFFFFFFFFFFFFFFFFFF1D
:1003F000FFFFFFFFFFFFFFFFFFFFFFFFFFFFFFFF0D
:10040000FFFFFFFFFFFFFFFFFFFFFFFFDEF9FFFF23
:1004100010B5054C237833B9044B13B10448AFF33E
:1004200000800123237010BDC000002000000000E8
:1004300008810000084B10B51BB108490848AFF30C
:1004400000800848036803B910BD074B002BFBD0A0
:10045000BDE81040184700BF00000000C4000020A5
:1004600008810000BC000020000000002DE9F04FD2
:1004700007460FC8E9B007F110045CAD85E80F002E
:1004800094E80F0060AD8DED300B8DED321B85E8EB
:100490000F0030AE96E80F009DED627B68AD8DEDEC
:1004A000342B8DED363BDDE960AB05E90F008DEDBA
:1004B000187B9DED5C7B97E80F0050AD85E80F0041
:1004C00094E80F008DED087B0DF5A87E9DED5E7B19
:1004D0008EE80F0034AD8DED1A7B9DED647B95E8C1
:1004E0000F008DED0A7B9DED547B0DF5B07E8EE8FF
:1004F0000F008DED127B9DED567B96E80F008DED84
:10050000047B9DED507B8DED167B9DED527B0DF5B3
:10051000887E8EE80F0095E80F008DED287B9DED1D
:10052000587B0DF5907E8DED147B9DED5A7B8EE80A
:100530000F0097E80F008DED267B9DED667B4CAF9D
:100540008DED1C7B87E80F009DED447B8DED0E7BD0
:100550009DED467B8DED227B9DED487B96E80F005F
:100560008DED0C7B9DED4A7B38AE8DED027B9DEDD4
:100570004C7B86E80F0095E80F008DED107B9DED1C
:100580004E7B3CAD8DED247B85E80F0094E80F0099
:10059000DDE9188940AC84E80F00DDE91A23404604
:1005A000494605F015FE524604460D465B46DDE918
:1005B0000A0105F00DFE02460B462046294605F0CD
:1005C000BBFFDDE9082304460D465046594605F0B9
:1005D000FFFD424606460F464B46DDE91C0105F08D
:1005E000F7FD02460B463046394605F0A5FF0246A8
:1005F0000B462046294605F0EBFD9DED407B8DED39
:100600001E7B9DED427B8DED2A7B9DED387B8DED34
:10061000207B9DED3A7B8DED2C7B9DED3C7B8DED24
:10062000007B9DED3E7B0022002304460D468DEDB0
:10063000067B06F0E9F9002840F0F48020462946C0
:100640000022002306F008FA002814BF0224002428
:10065000DDE92823DDE9040105F0BAFDDDE91289B1
:1006600006460F4642464B46DDE9140105F0B0FD53
:1006700002460B463046394605F05EFFDDE916239B
:1006800006460F464046494605F0A2FDDDE9042333
:1006900080468946DDE9260105F09AFD02460B46B3
:1006A0004046494605F048FF02460B46304639466B
:1006B00005F08EFD0022002306460F4606F0A4F941
:1006C000002840F0AD80304639460022002306F075
:1006D000C3F9002814BF02250025DDE92223DDE946
:1006E000020105F075FDDDE90C8906460F4642461C
:1006F0004B46DDE9100105F06BFD02460B46304626
:10070000394605F019FFDDE90E2306460F4640463F
:10071000494605F05DFDDDE9022380468946DDE9B5
:10072000240105F055FD02460B464046494605F0BA
:1007300003FF02460B463046394605F049FD0022CC
:10074000002306460F4606F05FF9002865D13046C3
:1007500039460022002306F07FF9002814BF4FF02D
:1007600002084FF00008DDE90023DDE91E0105F075
:100770002FFDDDE92C2306460F46DDE9060105F0D5
:1007800027FD02460B463046394605F0D5FEDDE929
:10079000202306460F46DDE9000105F019FDDDE9DD
:1007A0000623CDE92E01DDE92A0105F011FD0246FF
:1007B0000B46DDE92E0105F0BFFE02460B46304632
:1007C000394605F005FD0022002306460F4606F0D7
:1007D0001BF900BB304639460022002306F03CF9E5
:1007E000002814BF02260026A54205D0464503D0A6
:1007F000012069B0BDE8F08F012C15D0B8F1010FD0
:100800005BD0012D00F0AC80012E00F0F9800020BB
:1008100069B0BDE8F08F0126E6E74FF00108A2E7D6
:1008200001255AE7012413E752465B46DDE908013A
:1008300006F008F9002800F09080DDE90801DDE904
:100840000A2306F0FFF80028D8D052465B46DDE9BF
:10085000080106F0E3F8002840F02481504659468C
:10086000DDE90A2306F0E4F80028C7D0DDE91A9A8A
:10087000DDE918234846514606F0E4F8002800F068
:100880001A8148465146DDE91C2306F0DBF80028B2
:10089000B4D0DDE91A9ADDE918234846514606F03E
:1008A000BDF8002800F0138148465146DDE91C23BD
:1008B00006F0BEF800289BD1A0E7DDE90E78DDE95F
:1008C0000C233846414606F0BDF8002840F0E7808A
:1008D000DDE90C01DDE9102306F0B4F8002890D022
:1008E000DDE90E78DDE90C233846414606F096F83E
:1008F000002800F0DD8038464146DDE9102306F08F
:1009000097F800283FF47DAFDDE92278DDE9022386
:100910003846414606F096F8002800F0D580384663
:100920004146DDE9242306F08DF800283FF469AF45
:10093000DDE92278DDE902233846414606F06EF80B
:10094000002800F0CD8038464146DDE9242306F03A
:100950006FF800287FF44CAF53E7504659466EE7D6
:10096000DDE91645DDE9120122462B4606F060F866
:10097000002840F09A80DDE91223DDE9140106F039
:1009800057F800283FF440AFDDE91645DDE91201D4
:1009900022462B4606F060F8002800F0928022469E
:1009A0002B46DDE9140106F04DF800283FF42CAF8A
:1009B000DDE92845DDE9040122462B4606F038F83A
:1009C000002800F08A8022462B46DDE9260106F049
:1009D0002FF800283FF418AFDDE92845DDE90401D0
:1009E00022462B4606F038F800287FD022462B46B8
:1009F000DDE9260106F026F800287FF4F9AE03E7CA
:100A0000DDE92045DDE9000122462B4606F010F81D
:100A1000002853D022462B46DDE91E0106F008F8D7
:100A200000283FF4E6AEDDE92045DDE9000122467D
:100A30002B4606F011F800284CD022462B46DDE963
:100A40001E0105F0FFFF00283FF4D3AEDDE92C4581
:100A5000DDE9060122462B4605F0EAFF002842D0D8
:100A600022462B46DDE92A0105F0E2FF00283FF48B
:100A7000C0AEDDE92C45DDE9060122462B4605F036
:100A8000EBFF002835D022462B46DDE92A0105F090
:100A9000D9FF4FF0010300B90346D8B2A9E63846A2
:100AA000414617E7DDE90801DAE622462B4664E70E
:100AB000DDE90C0121E7DDE91801E4E6DDE90023C9
:100AC000AAE7DDE912236CE7DDE9020129E7DDE9A8
:100AD0001801EBE6DDE90023B1E7DDE9042374E763
:100AE000DDE9020131E7DDE90623BBE7DDE90423A7
:100AF0007EE7DDE90623C8E72DE9F04F82888368A9
:100B0000ADB0012A8DED040B0693104607928DEDD2
:100B10000A1BD3E900ABD3E902898DED080B40F243
:100B2000DD80851EADB2CDE90289CDE900AB1A4664
:100B30000135144602EB0515D4E9046750463246E8
:100B40003B46594605F07EFF32463B4608B9B24661
:100B5000BB46DDE9000105F061FF08B9CDE900679A
:100B6000D4E90667404632463B46494605F06AFFEF
:100B7000103432463B4608B9B046B946DDE90201B9
:100B800005F04CFF08B9CDE90267A542D4D1DDE9F3
:100B90000445DDE9000122462B4605F05DFF0646CF
:100BA000002840F0958022462B4650465946CDE914
:100BB000044505F033FF002840F08680DDE90A4552
:100BC000DDE9020122462B4605F046FF07460028D4
:100BD0007AD142464B462046294605F03DFF002883
:100BE0007AD1DDE90467504632463B46594605F066
:100BF00029FF002877D132463B4607999DED047BBB
:100C000001F1FF3ABAF1000F8DED1C7BCDE91E45D5
:100C1000CDE92023CDE9224568DD0026B1460CADA3
:100C200010AC0DF1900828AF0DF1700B069B03EB93
:100C3000061E9EE80F000EF1100E85E80F009EE8DC
:100C40000F0084E80F0095E80F0088E80F0094E893
:100C50000F0087E80F009DED240B58469DED261BE5
:100C60009DED282B9DED2A3BFFF700FC0136B6B227
:100C700008B189F001095645D8DB3301069C2344AD
:100C80000FCB14AD85E80F0094E80F0018AC84E892
:100C90000F0095E80F0088E80F0094E80F0087E840
:100CA0000F0058469DED240B9DED261B9DED282B36
:100CB0009DED2A3BFFF7DAFB08B189F0010909F045
:100CC00001002DB0BDE8F08F30462DB0BDE8F08FAB
:100CD00000202DB0BDE8F08F3846F6E7CDE9028957
:100CE000CDE900AB53E752465B4686E700239946C1
:100CF0000DF1900828AF0DF1700BBFE708B5042186
:100D0000054803F047FB054802F07EF94FF47A707E
:100D1000BDE8084002F0B2BA68740000C4F7FF1FD3
:100D200038B5074800F074FD064B074A07491A60BA
:100D3000002400250522C3E9044599609A8038BD46
:100D4000E0000020080100206474000030F7FF1F5D
:100D50002DE9F0432DED028B85B04D4B4D490393AA
:100D6000042203230291019200930621052302220B
:100D700049484A4DDFED4A8A9FED4A8A002400F037
:100D8000F5FE26460020002125E04046494605F0B4
:100D900021FA05F06BFE0134A4B2B4F5B47F2E70D5
:100DA0006870AE704FF0000705F1030530D007EE14
:100DB000904AB8EE677AC7EE287A77EEA77A67EEA0
:100DC000887A17EE900A05F063FB41EC100B04F0F3
:100DD00027F851EC100B2CA3D3E9002305F0ACFB52
:100DE00029A3D3E9002305F0F5F90022002380466A
:100DF000894605F027FE00222B4B0028C5D1002292
:100E0000294B4046494605F0E3F905F02FFEC2E7BD
:100E1000264D214800F084FF254B1F485F70FF22BC
:100E200029461A709F7000F0EBF8224A2F80AF809D
:100E300002F5704112F8013F03EB43038A4213703D
:100E4000F8D11D4C1D4804F5A04622460023C15C84
:100E500002F8011F8033B3F5A04FF8D1A034B4429B
:100E600000F10100F1D10C4B15485D620C2103F03B
:100E700091FA144805B0BDEC028BBDE8F04302F0D6
:100E8000C3B800BFAFF300800000000000C05F40A7
:100E900000127A0080F7FF1FE000002020010020F0
:100EA0000000B443560E49400000E03F58F50020D2
:100EB000DC0000202F07FF1F570500203007FF1F11
:100EC00070740000C4F7FF1F00207047704700BF18
:100ED0004379052B05D0062B06D0032B01D00846FD
:100EE000704701EB4200704702EB42000844704734
:100EF000036853F81C3C03445B79052B05D0062B93
:100F000006D0032B01D00846704701EB4200704722
:100F100002EB420008447047002B64D02DE9F041F9
:100F20001F460368044682B053F80C0C1546002394
:100F3000BDF824200E462044BDF8201000F0F2FF3A
:100F4000D4F800802849D8F804308B42024639464C
:100F5000204643D1FFF7BCFF0746330AF6B28DF8AF
:100F600004308DF806308DF805608DF807602A236F
:100F7000D8F800608DF8033001AA0DF103010423B5
:100F80002046B0472B0A22688DF80430EDB28DF868
:100F900006308DF805508DF807502B2315688DF815
:100FA000033001AA0DF1030104232046A847637909
:100FB0002568033BDBB2032B98BF0C4A2D6898BF12
:100FC000D35C4FF02C008DF8040088BF00233A4614
:100FD00001A92046A84702B0BDE8F0819847D4F89F
:100FE00000800746B9E77047D10E00002C7600005C
:100FF00030B4046854F8244C204430BCFFF78CBF54
:10100000F0B4036853F80C2C0024002300257F273C
:101010009F264F80CE80C1E90245C1E90445C1E960
:101020000645C1E90845C1E90E45C1E9104510442E
:101030000B808B808B62CB620B638B6481F84C30AE
:1010400081F84D30CB6501221946F0BC00F064BF39
:10105000036853F8203C1844FFF7D2BF2DE9F04F46
:101060000446ADF5017D0068BDF82CA250F80C0CCB
:101070009DF8345202920F46BDF830220395514636
:101080001E462044002300F04DFF2268A249536809
:101090008B42804640F039816379033BDBB2032BFE
:1010A0009CBF9E4911F80390039B88BF4FF0000935
:1010B000002B40F010810DF1170301930DF1180B77
:1010C0000299751E3B0A0D44FFB201998BF800305E
:1010D0008BF802308BF801708BF803702A231768A5
:1010E0000B705A4604232046B847ADB202982268D6
:1010F0008BF80100291203128BF8021001998BF86A
:1011000000308BF803502B2315680B705A460423CC
:101110002046A847226800232C218DF81610156858
:101120000DF116011A462046A8470021207A02F048
:1011300099F80121A07902F095F8E3682269D97A3B
:10114000F9B172B6D97ACF0706D57548D96805685E
:101150002940D9610160D97A8D0706D5714819698E
:101160000568294019620160D97A480706D56E489A
:1011700059690568294059620160D97A0F077ED400
:1011800062B61B68D968914207D068481860684900
:10119000DA6042F08040186119608B9B012B75D09A
:1011A000002E37D0C646DDF8288223685A4A5B688D
:1011B0001FFA8EF7C7EB0A059342ADB2724641465D
:1011C000204657D1FFF784FEB54209FB05F30246DE
:1011D00001460FD2E06801F013FE236853F80C0CAF
:1011E0003A462B462044514600F09CFE761BB6B290
:1011F0008646DAE70246014609FB06F3E06801F09D
:10120000FFFD236853F80C0C3A4633465146204400
:1012100000F088FEE368DA7AB2B1D50703D5454A13
:10122000D9691160DA7A900703D5434A196A1160C7
:10123000DA7A510703D5414A596A1160DA7A1207FE
:1012400002D53F4A9B6A13600121207A02F00AF816
:10125000039B5BB1C82321688BF800300D680199AE
:1012600036230B705A4620460123A8470DF5017D11
:10127000BDE8F08F7246414620469847A4E73148C2
:101280009969056829409962016079E7DEB18A9B16
:10129000002709F1FF30A4463D4653FA80F04C4642
:1012A0009E464CB17A1E5A440EF1FF3313F8011FCB
:1012B00002F8011F9842F9D10135ABB29E42274492
:1012C000EFD8A146644609FB06F35A465946E06842
:1012D00001F096FD9EE70DF1180B0DF11701482363
:1012E0008BF800303623156801910B705A460123A4
:1012F0002046A8472268029952F80C3C23441B89D7
:10130000013B5B1A9BB20293DAE602468A992046B9
:1013100098472268C0E600BFD10E00002C7600007E
:1013200080E100E084E100E088E100E001403F006E
:1013300000003F8000E100E004E100E008E100E09F
:101340000CE100E08CE100E0F0B505ACD0CC9DF8FC
:1013500020E004B103B9F0BDCDF820E0BDE8F040D5
:10136000FFF77CBEF0B505ACD0CC9DF820E004B111
:1013700003B9F0BD056855F82C5CCDF820E0284491
:10138000BDE8F040FFF76ABEF8B504460F46007AA4
:10139000002115461E4601F065FFE3682269D97AEF
:1013A00041B372B6D97AC80709D5DFF808E1D86821
:1013B000DEF800100140D961CEF80010D97A880714
:1013C00009D5DFF8F4E01869DEF800100140196271
:1013D000CEF80010D97A480709D5DFF8E0E058695F
:1013E000DEF8001001405962CEF80010D97A0907E2
:1013F0003FD462B61B68D968914207D0274818606D
:101400002749DA6042F080401861196077B1002105
:10141000A07901F027FFE2683B7812684FF00041A5
:10142000D1625363D36A002BFCDA936B0DB1002EAB
:1014300029D1E268D37AB3B1DD0703D5194BD1695D
:101440001960D37A980703D5174B116A1960D37ABC
:10145000590703D5154B516A1960D37A1B0702D57A
:10146000134B926A1A60207A012101F0FBFE0020E2
:10147000F8BDDFF84CE09869DEF800100140996291
:10148000CEF80010B5E7A079012101F0EBFE33465C
:101490002A462946E06801F0B3FCCAE701403F0054
:1014A00000003F8000E100E004E100E008E100E02E
:1014B0000CE100E080E100E084E100E088E100E090
:1014C0008CE100E02DE9F04F0446E9B00068BDF87A
:1014D000CCA150F80C0C9DF8D451019503920D4607
:1014E000BDF8D02151461E462044002300F01AFDCD
:1014F0002268A14953688B42804640F03781637966
:10150000033BDBB2032B9CBF9C4911F80390019B6A
:1015100088BF4FF00009002B40F00F810DF113033D
:1015200002930DF1140B731E2B449BB2029F8BF898
:101530000330181229128BF802008BF800108BF878
:1015400001502A2315683B705A4604233946204629
:10155000A847039B21681A0ADBB28BF800208BF89E
:1015600002208BF801308BF803302B230D683B7081
:101570005A46042339462046A847226800232C21D6
:101580008DF8121015680DF112011A462046A84771
:101590000021207A01F066FE0121A07901F062FEAF
:1015A000E3682269D97AF9B172B6D97ACF0706D53C
:1015B0007348D96805682940D9610160D97A8D07D7
:1015C00006D5704819690568294019620160D97A01
:1015D000480706D56C485969056829405962016079
:1015E000D97A0F077DD462B61B68D968914207D0BB
:1015F000664818606649DA6042F0804018611960F8
:10160000739B012B74D0002E37D0C646DDF8C881FD
:101610002368594A5B681FFA8EF7C7EB0A059342A5
:10162000ADB272464146204656D1FFF751FCB54255
:1016300009FB05F3024601460FD2E06801F0E0FB2A
:10164000236853F80C0C3A462B462044514600F0D0
:1016500069FC761BB6B28646DAE70246014609FB0C
:1016600006F3E06801F0CCFB236853F80C0C3A4613
:1016700033465146204400F055FCE368DA7AB2B1B3
:10168000D50703D5434AD9691160DA7A900703D5A3
:10169000414A196A1160DA7A510703D53F4A596AFB
:1016A0001160DA7A120702D53D4A9B6A1360012164
:1016B000207A01F0D7FD019B5BB1C82321688BF82C
:1016C00000300D68029936230B705A4620460123DC
:1016D000A84769B0BDE8F08F72464146204698475A
:1016E000A5E73048996905682940996201607AE761
:1016F000DEB1729B002709F1FF30A4463D4653FA44
:1017000080F04C469E464CB17A1E5A440EF1FF338F
:1017100013F8011F02F8011F9842F9D10135ABB24D
:101720009E422744EFD8A146644609FB06F35A4679
:101730005946E06801F064FB9FE70DF1140B882324
:101740008BF8003012680DF11301362317460B7029
:101750005A46012302912046B847226852F80C3CB1
:101760002344DB88013B5D1BADB2DCE60246729987
:10177000204698472268C2E6D10E00002C76000071
:1017800080E100E084E100E088E100E001403F000A
:1017900000003F8000E100E004E100E008E100E03B
:1017A0000CE100E08CE100E0F0B505ACD0CC9DF898
:1017B00020E004B103B9F0BDCDF820E0BDE8F04071
:1017C000FFF780BEF0B505ACD0CC9DF820E004B1A9
:1017D00003B9F0BD056855F8285CCDF820E0284431
:1017E000BDE8F040FFF76EBE4A68026052F80C2C6C
:1017F00030B48C6884500A68026052F80C4CC96896
:1018000000254FF0384205710151026130BC70472C
:1018100010B5A02204468021183000F04FFB20466E
:10182000A02380220549FFF7DFFF054B03F10C02DF
:101830005C332260A361204610BD00BF1876000013
:10184000887500002DE9F0478AB00AAC11230268C0
:1018500004F8103D0023166821461A460546B04795
:1018600010B10AB0BDE8F087142001F007FD04268E
:101870002A688DF81860262317688DF8083002A9A9
:10188000012322462846B8470028EAD114232A68B3
:101890008DF819300C27B1238DF81870D2F800801C
:1018A0008DF808302246022302A92846C0470028A6
:1018B000D7D105232A688DF819308DF81870C02308
:1018C00017688DF808302246022302A92846B84737
:1018D0000028C6D12A680227C1238DF81870D2F8D3
:1018E00000808DF808302246012302A92846C0470F
:1018F0000028B6D12A688DF81870C223D2F800806B
:101900008DF808302246012302A92846C047002846
:10191000A7D12022552329688DF818208DF8193079
:10192000C5223B4628460F688DF8082002A92246AA
:10193000B847002895D140232A688DF81830C7236E
:1019400017688DF808302246012302A92846B847B7
:10195000002886D1062329688DF818303A220F68AE
:101960006B718DF808200123224602A92846B8474A
:1019700000287FF476AF7F2329688DF818008DF852
:1019800019008DF81A008DF81B302A22334628469C
:101990000E688DF8082002A92246B04700287FF47F
:1019A00060AF00239F212A688DF818308DF8193018
:1019B0008DF81A308DF81B102B2316688DF808301F
:1019C0002246042302A92846B04700287FF449AFE5
:1019D000C8222B688DF8182036261F688DF80860FD
:1019E0000123224602A92846B84700287FF439AFD0
:1019F0002B688DF81800B727D3F800808DF8087091
:101A00000123224602A92846C04700287FF429AFB7
:101A100029680123F2228DF81830D1F800808DF862
:101A2000082002A922462846C04700287FF419AFA3
:101A300012231C222F2105908DF808608DF80A30A2
:101A40008DF812308DF80C208DF810104FF0220C0C
:101A500029688DF80F704FF0420E0A2611200B22D4
:101A600006234FF029084FF015094FF0130A8DF89F
:101A700014008DF815208DF816308DF809808DF83A
:101A80000BC08DF80D908DF80EE08DF811A08DF83B
:101A90001360E0230E688DF8183002AA1023214647
:101AA0002846B047064600287FF4DBAE0AAFE123A4
:101AB00007F8213D092216238DF818208DF81930DA
:101AC0002D200D21402248238DF81A008DF81B107F
:101AD0008DF81E208DF81F3053200C211D22252348
:101AE0008DF820008DF821108DF822208DF82330FC
:101AF0002E202B68E660342139228DF824008DF8E1
:101B000025108DF826208DF81CA08DF81D902246FA
:101B100039461C6828461023A047142001F0AEFB6C
:101B20002B688DF807801C683946284633463246B4
:101B3000A047304695E600BF10B501210446C079A4
:101B400001F090FB0A2001F099FBE079002101F0FF
:101B500089FB0A2001F092FBE079012101F082FB70
:101B60007820BDE8104001F089BB00BFF0B583B01C
:101B70005D4E0B9D817104469DF820E09DF8247018
:101B80000A98E271B542237284F815E02775E06087
:101B900014D0564E564F002202E0172908D00A46AC
:101BA00036F8023F97FBF3F39D4202F10101F4D3B3
:101BB000504B53F8223043F06053236101F0E2F8B8
:101BC0000121207A01F054FB0121E07901F050FB62
:101BD0000121A07901F04CFB0121607D01F048FB5F
:101BE0000121207D01F044FB0121207A01F03AFB24
:101BF0000121E07901F036FB0121A07901F032FBEF
:101C00000121607D01F02EFB0121207D01F02AFBE6
:101C1000226852F80C3C526923442046D968904708
:101C2000E3682269D97A002954D072B6D97ACD07EF
:101C300006D53148D96805682940D9610160D97A4B
:101C4000880706D52D481969056829401962016081
:101C5000D97A4F0706D52A4859690568294059623B
:101C60000160D97A0E0737D462B6E0681B68D9687C
:101C70008A4207D0234D1D602349DA6042F0804537
:101C80001D61196001AA1146012301F0B9F8E2684B
:101C9000D37AB3B1DD0703D51C4BD1691960D37A70
:101CA000980703D51A4B116A1960D37A590703D5DF
:101CB000184B516A1960D37A1B0702D5164B926AEA
:101CC0001A602046FFF738FF2046FFF7BBFD0020D3
:101CD00003B0F0BD1846C9E7104899690568294066
:101CE00099620160C0E700BF00366E016A7B0000A8
:101CF00000879303307C000080E100E084E100E095
:101D000088E100E001403F0000003F8000E100E08A
:101D100004E100E008E100E00CE100E08CE100E01B
:101D200070B5026852F80C3C9AB0034402AD044608
:101D3000DE68DD60294653699847002322688DF8E4
:101D400004308DF805308DF8063052F80C0C01A9DE
:101D50002044012200F0D4FA236853F80C3C1C44C0
:101D6000E6601AB070BD00BF70B4C388C26806894F
:101D70004B800024002300250120CE80C1E90245CC
:101D8000C1E90445C1E90645C1E90845C1E90E4577
:101D9000C1E910450B808B808B62CB620B638B6437
:101DA00081F84C3081F84D30CB6570BC136593657C
:101DB000506570472DE9F04F344F354D354B914606
:101DC000002600201060C2E904670024324AC9F8E6
:101DD00004300D2985B0C9E90645C9F8082048D066
:101DE0000A2946D089F82500A1F120005E2847D8AD
:101DF0002A4D01EB8101002001242944064602906E
:101E00000391C9F8200089F8244003999DF808A09F
:101E100011F801BF039100244BFA04F14FEAC60EFA
:101E200011F0010FE5B2504603EB0E0704F1010477
:101E300002EB0E0813D0D9F8201001920131C9F835
:101E40002010009304F002FBC7E90001284604F0CB
:101E5000FDFAC8E900010136019A009BB6B2082CD0
:101E6000DAD10299013105290291CED105B0BDE840
:101E7000F08F012089F82500A1F120005E28B7D954
:101E8000002389F8243005B0BDE8F08F000014402D
:101E900000002040E0F5002020F70020357600000B
:101EA000524292B2B2FBF0F300FB132292B28A428A
:101EB00088BF0918881A80B2704700BFF0B4144B6D
:101EC000144C0460C18000240026002759800121A1
:101ED00004710281C3601C809C809C62DC621C6374
:101EE0009C6483F84C4083F84D40DC651C659C6520
:101EF000C3E90267C3E90467C3E90667C3E9086782
:101F0000C3E90E67C3E91067DA805965F0BC704712
:101F100060F800203C7B0000C06801654265836575
:101F2000704700BF084611461A1E06DB0A4492FBA2
:101F3000F0F300FB132290B27047FFF7B1BF00BF70
:101F4000002959D02DE9F0470C469A461546064619
:101F5000C7684BB3B88804F079FAD4E9002304F0D9
:101F600039F9002200238046894604F057FD0446D3
:101F700000284BD14046494604F0A0FD82B22A8099
:101F8000FB889A423AD92B8020460121BA889A428E
:101F900002D92A801346012032899A4228D8013A70
:101FA0002A800220BDE8F087388804F04FFAD4E98F
:101FB000002304F00FF9002200238046894604F034
:101FC0002DFD044640BB4046494604F077FD82B2F1
:101FD0002A807B889A4215D92B80204601213A8895
:101FE0009A4202D92A8013460120F2889A42D6D911
:101FF0000029D6D1BDE8F08703207047204613465C
:102000002146C3E7204613462146E8E7002213464F
:102010002A8011460120B9E75346A5F800A0514691
:102020000120DCE72DE9F04188B00E46174604A9EF
:1020300007AA9846002304468DED040B8DED021B84
:10204000FFF77EFF012305460DF11E02204602A97F
:10205000FFF776FF65B958B96EB12068BDF81E204C
:10206000BDF81C108DE88001334685692046A847DD
:1020700008B0BDE8F081E2682068916D136D0191B0
:10208000556D00958569BDF81E20BDF81C102046D1
:10209000A847EDE72DE9F0470368474DDB6A824624
:1020A00082B02A469847DAF80C40D5E904672388BD
:1020B0006088C01A04F0DAF932463B4604F088F82A
:1020C000D4E9022304F0AAFC00B3A388E08895EDCC
:1020D000067BC01A8DED007B04F0C8F9D4E90489B1
:1020E000DDE9002304F074F842464B4604F096FC08
:1020F00000285CD194ED067B42464B46DDE90001A9
:1021000084ED027B04F066F8C4E9040195F824002C
:10211000294B00283CD01B6A53B3002701E0DAF8B2
:102120000C40AB68DFF89080FE003344D3E9000137
:10213000D4E9042304F04EF86B681E44CDE9000195
:10214000D4E90223D6E9000104F044F8002341EC6D
:10215000100B9DED001B194601225046FFF762FF50
:102160002B6A0137BB42DAD8D8E90467DAF80C40A9
:10217000124B30460022394604F02CF802460B463A
:10218000D4E9020104F026F80126C4E9020100E0C6
:102190000646094D0FCD28340FC40FCD0FC495E866
:1021A000030084E80300304602B0BDE8F087002653
:1021B000304602B0BDE8F087B8F500200000F03FDF
:1021C0002DE9F04F57EC106B95B059EC128B04468B
:1021D0008A460892099310EE100A394612EE102A28
:1021E0004B468DED100B8DED0E1B8DED0C2B8DEDFB
:1021F0000A3B9DF87CB09DF8805004F02DFC18B18E
:10220000CDE91089CDE90C67DDE90E67DDE90A89C2
:102210003046394642464B4604F01EFC18B1CDE923
:102220000E89CDE90A67012313AA0EA92046FFF7FC
:1022300087FE012306460DF14E020AA92046FFF74C
:102240007FFE002312AA10A980462046FFF778FEE1
:10225000002307460DF14A020CA92046FFF770FE45
:10226000012E49D0022E1FD0012F22D0022F40D0A4
:10227000089B1BB3BDF84E6020681E9906958DE83B
:1022800040040491089D09990391CDF814B002957A
:10229000456ABDF84A30BDF84C20BDF848102046CC
:1022A000A84715B0BDE8F08FB8F1020FF9D0012FA3
:1022B000DCD10128F5D0089B002BDBD1E368059524
:1022C000CDF818B09A6D04925A6DBDF84E50039235
:1022D00020681E6D02968DE82004BDF84A30456ADC
:1022E000BDF84C20BDF848102046A84715B0BDE801
:1022F000F08F0228BCD1D4E7B8F1010FB4D1D0E7F8
:102300002DE9F041C46805460E46E088A18886B0F4
:10231000401A1746984604F0A9F82388CDE904012D
:102320006088C01A04F0A2F89FED0B1B41EC120B61
:10233000B0EE410AF0EE610A002102910191CDF860
:1023400000803B46324628469DED043B0121FFF7C5
:1023500037FF06B0BDE8F08100000000000000007B
:10236000704700BF2DE9F04F89B00668BDF850E016
:10237000BDF84C709DF85440DDF8488005949EFBF4
:10238000F7F407FB14E4A4B207919146366906936B
:102390002246414605469A46B047059A002A32D160
:1023A000534613B3069B079E1A4602EB060B1FFA11
:1023B0008BFB012100232A688DE80A0001340346C3
:1023C0003146D2F818A028464A46D04794FBF7F386
:1023D000296807FB1344A4B201360B692246414623
:1023E0002846B6B29847B345E3D1059B0293139BA9
:1023F000009301944346069A07984946FFF7B0FFB9
:1024000009B0BDE8F08F069B002BEED0079EC3EB12
:10241000060B1FFA8BFB4FF0000E01232A688DE894
:10242000084031460346D2F818A028464A460134EF
:10243000D04794FBF7F3296807FB1344A4B2013E8D
:102440000B69224641462846B6B29847B345E2D1C9
:10245000CBE700BFF0B4059C9DF81C700CB9F0BC34
:1024600070470797F0BCFFF77DBF00BF704700BF04
:102470002DE9F04F89B09DF854400594139C14B990
:1024800009B0BDE8F08FBDF84C7006931E46BDF84C
:10249000503093FBF7F4884607FB14340168079229
:1024A000A4B222460B69129905469847059A002A5C
:1024B00032D0069B13B3079EC3EB060A1FFA8AFAB3
:1024C0004FF0000B2A68CDF804B001230093D2F836
:1024D000189003463246414628460134C84794FBCB
:1024E000F7F3296807FB1344A4B2013E0B69129964
:1024F00022462846B6B29847B245E3D1059B0293DF
:10250000139B00930194069A0799129B4046FFF78C
:10251000ADFF09B0BDE8F08F002EEFD0069B079EFF
:10252000DDF814B01A4602EB060A1FFA8AFA2A6886
:10253000CDF804B001230093D2F818900346324638
:10254000414628460134C84794FBF7F3296807FB46
:102550001344A4B201360B69129922462846B6B23A
:102560009847B245E3D1C9E7704700BF2DE9F04F66
:102570008FB09DF874501B9F9DF8644008959DF89E
:102580007850BDF8608009940B95002F00F0928080
:102590009B46BDF86C70BDF8703093FBF7F4C1EB4F
:1025A0000B06013607FB1434B3B20A93099B07925A
:1025B00005460C91A4B2002B40F0DD80079BC3EBD5
:1025C000080A1FFA8AFA089B0AF101091FFA89F919
:1025D000002B72D00AF1FF3A1FFA8AF2099ED0F856
:1025E00000E00D92039613461B9E079A01961A9ED1
:1025F000029400960132DEF820A092B2D047B9F1E1
:10260000020900F105814C4494FBF7F307FB1344E6
:10261000A4B21B992B680A9E019100221A99029478
:1026200000910392D3F81CA00C99334642462846E9
:102630003444D04794FBF7F31B9A2968019207FBB7
:1026400013441A9A00920123A4B20393029408F14E
:10265000FF32D1F820A00D9B92B259462846D047B0
:10266000B9F1000FC0F204814C4494FBF7F307FB6F
:102670001344A0B21B992A68019101231A99029070
:10268000009103930446D6690A9B079A2846594647
:10269000B047089B05930B9B04931B9B0293099BDC
:1026A00001931A9B0093039443465A4607990C984A
:1026B000FFF75AFF0FB0BDE8F08F1B9BD0F800E08A
:1026C000089E01931A9B039602940093DEF81C3037
:1026D0001E46B4460A9BE0470A9B1B9A089E1C4470
:1026E00094FBF7F307FB1344A4B22B6801921A9AE8
:1026F000039600920294079A1B6A0AF1FF3A1FFAA6
:102700008AFA01321E4692B2534659462846B047CD
:10271000B9F1020200F18380144494FBF7F207FB45
:102720001244A4B21B9A2B6801924FF001091A9A25
:1027300002940092CDF80C90DB6942461E46594641
:102740000A9B2846B0470A9B2968CDF80C90234481
:1027500093FBF7F407FB14341B9B0193A4B21A9B61
:102760000093029408F1FF320E6A0C9953462846F2
:1027700092B2B0478DE703681A991B6922469847C1
:102780000B9B8646002B50D0089B002B00F09680B8
:10279000079B9845FFF47DAF684BCDF83480C14668
:1027A0009A46DDF828801DE0012603960026029651
:1027B00001260196CDF800E0FFF7D4FD0134296829
:1027C00094FBF7F307FB1344A4B20B691A99224652
:1027D0002846984709F1FF39079B1FFA89F94B45AD
:1027E000864642D82B68DE69564543464A465946D6
:1027F0002846D9D001230393002302930123019398
:10280000CDF800E043464A4659462846B047D5E74A
:1028100021464A463846FFF743FB0446F9E621467F
:102820003846FFF73DFB04467CE7089B33B3079A25
:102830009045FFF42EAF4746CDF83480DDF8288070
:102840004FF0010A91461B9A2B6801921A9A009246
:10285000CDF80CA002943A46013FDE695946434642
:102860002846BFB2B047B945EDD9DDF8348010E74E
:102870004A4621463846FFF713FBFBE6079FB8455B
:10288000FFF407AFDDF82890CDF828B0DDF830B0C0
:102890009A461B9A2B6801921A9A0092CDF80CA0C6
:1028A00002943A460137DE6959464B462846BFB284
:1028B000B047B845EDD2DDF828B0EAE6079A904572
:1028C000FFF4E7AE1D4BDDF828A00D93CDF828B03E
:1028D0009146DDF830B01BE00026039602960126F3
:1028E0000196CDF800E0FFF73DFD0134296894FB27
:1028F000F7F307FB1344A4B20B691A992246284642
:10290000984709F101091FFA89F9C8458646D2D3CB
:102910002B68DE690D9B9E424A465346594628461F
:10292000DAD000230393029301230193CDF800E052
:1029300053464A4659462846B047D6E75524000034
:10294000704700BF2DE9F04F87B09DF84C40BDF8AF
:1029500040500295119F0391054604920593002C67
:1029600039D199422CD8DDF80CA0BDF84880DDF8AB
:102970000890BB46049E4E451AD82B6822461B6918
:1029800059462846984700232968019301340123BA
:10299000009394FBF8F208FB1244324601360346DA
:1029A0008F6928465146B6B2B847B145A4B2E4D2C1
:1029B0000AF1010A059B1FFA8AFA5345DAD25F46EB
:1029C000129B0093019703A8029B07C8FFF7B8FF6B
:1029D00007B0BDE8F08F049A02998A42F0D8BDF89A
:1029E0004880DDF8149000249246BB46039E4E4575
:1029F0001AD82B6822461B69594628469847002357
:102A0000296801930123009301348F6994FBF8F244
:102A100031460136034608FB124428465246B6B2F8
:102A2000B847B145A4B2E4D20AF1010A029B1FFAE9
:102A30008AFA5345DAD25F46C2E700BF10B4047F7A
:102A40004160022CC26003D05DF8044B00F0DCB999
:102A500083685DF8044B18472DE9F0410468E56888
:102A600015F0807F794D256052D1DF0740F1B380AA
:102A7000002900F0E3800D78012B18BF45F00045D8
:102A80006563013190F82C8003F1FF3C48EA082887
:102A9000BCF1000F00F0A88021B14D7811F8028B35
:102AA00045EA082845682E7ABCF1020F06F1FF3688
:102AB0004FEA06360CBF48F0805548F01045B6B2D4
:102AC0006563ACF1020C08E00AB114700132013BFD
:102AD00005F47045B54216D90468E56A15F0F00FA3
:102AE000F6D0A46B13F0010F17464FEA242EEBD15A
:102AF0001AB107F802EB54703A4605F47045B54236
:102B0000A3F10203E8D8BCF1000F6DD00468C3E75D
:102B1000DD074CD5002900F089800D78012B18BF06
:102B200045F000456563013103F1FF3E90F82CC08C
:102B3000BEF1000F41D029B191F801C00D780231EA
:102B400045EA0C2C45682E7ABEF1020F06F1FF36DD
:102B50004FEA06360CBF4CF080554CF01045B6B22B
:102B60006563AEF1020E08E00AB114700132013B58
:102B700005F47045B54215D90468E56A15F0F00F03
:102B8000F6D013F0010F1746A46BEDD122B107F870
:102B9000024B241254703A4605F47045B542A3F135
:102BA0000203E9D8BEF1000F07D00468C3E79E46D0
:102BB00090F82CC0BEF1000FBDD11BB30468E16AD0
:102BC00011F0F00FFBD0A16BDC071DD50AB111701D
:102BD0000132013BF1E790F82C809C4648EA082836
:102BE000BCF1000F7FF458AF63B10468E16A11F0E3
:102BF000F00FFBD0DE07A16B0FD50AB111700132C7
:102C0000013BF1E7BDE8F0812AB114460D1204F84A
:102C1000021B55702246023BCFE72AB114460D1223
:102C200004F8025B51702246023BDDE790F82C501D
:102C3000012B18BF45F00045656375E790F82C50EF
:102C4000012B18BF45F0004565631BE700041F809A
:102C5000F0B4464B464A986B5C6B0179117045495C
:102C600022790A701A6B00790870002A46D05968D8
:102C7000C9688A423ED82168CC8B240402F1FF3017
:102C800065D4C0F30E00C883C88B80B2C882996B2C
:102C90000968C88B000452D4C2F30E00C883C88BE5
:102CA000002480B212F1FF32C88218BF01221C63D7
:102CB000596B2E4809680D6800F12C04A54236D0E6
:102CC0000068C46814F0804F0C680D6815BF248834
:102CD00024780235013544F000440D604463996B5B
:102CE000254B09791970214912B14A6B12791A7072
:102CF000F0BC7047521A1A630122D9E7D86B1968E1
:102D000005681E4C0A63CC62CC682D681C4E24F00A
:102D100080440327B542CC6083F82D701FD1037F18
:102D20004260022BC2601ED0F0BC00F06DB801689A
:102D300090F82C00CC6840F000404863CFE7CC8B83
:102D4000C2F3080004F47E442043C883A7E7CC8B79
:102D5000C0F3080004F47E442043C88394E72B4664
:102D60001146F0BC18478368F0BC184780F7FF1F76
:102D70001F8000401C8000401B80004000000FFFAF
:102D80003D2A000090E80C00F0B41C6859682568E2
:102D9000164F174E29432160164D17491760D6600C
:102DA00015611160417A154A5C180C3194F82C4079
:102DB00053F8215002EBC40149680D60017A5C1898
:102DC00003EB8101247ECD6902EBC40149680D60EB
:102DD000817A581803EB810390F84000596C02EB9C
:102DE000C002F0BC53681960704700BF01401F006B
:102DF000011000380110007800001F80907C000056
:102E00000BB1FFF729BE704710B4EFF3108272B612
:102E1000437F33B9017F012908D0032910D0012352
:102E2000437702B962B65DF8044B7047114C2168D4
:102E3000A1B1114943610B68836108605861EEE7F5
:102E40000E4C216881B10E4943610B6883610860B3
:102E500058610C4B4FF080511960E0E7064B41611F
:102E6000816120601860DAE7054B41618161206073
:102E70001860EEE7D0F80020CCF80020C0F8002061
:102E8000C4F8002004ED00E070B5EFF3108272B6D4
:102E90000C4C206880B10C4E00254369236073B14F
:102EA0009D6102B962B6457783689847EFF3108257
:102EB00072B620680028F0D102B962B670BD3360E6
:102EC000EFE700BFC0F80020C4F80020FFF7DCBF28
:102ED000184A30B41468002C27D0036821688B424C
:102EE0000ED2CB1A00218460C1602360E0601060C4
:102EF0000223037530BC704711688B42144608D317
:102F0000A2685B1A0360002AF6D18260C460A060E8
:102F1000EEE7D268C2608460E060C568CB1A022226
:102F2000A8602360027530BC70478460C460106084
:102F3000DEE700BFC8F80020F8B5224E34682CB395
:102F40002368002B3AD1204F1D4604E03468ECB1D1
:102F50002368002B32D1A36803B1DD6020693360A0
:102F6000036825751B68BB4221D1037F4560022B96
:102F7000C46020D0FFF748FF6368002BE6D02360D1
:102F80002046FFF7A5FF3468002CE1D1EFF3108352
:102F900072B60E4A00211068116003B962B628B1FA
:102FA0008468FFF795FF20460028F9D1F8BD224636
:102FB00000219847E0E783689847DDE7013B2360FD
:102FC000E4E700BFC8F800203D2A0000D8F8002040
:102FD000024A136801331360FFF7AEBFDCF800202C
:102FE000F8B572B106460F4614460025336817F847
:102FF000011B1B6830469847013C0544F6D1284622
:10300000F8BD1546FBE700BF00B5064A0368128805
:103010005B6883B001A9ADF804200222984703B091
:103020005DF804FB8C7C000008B5FDF791FEFDF710
:1030300065FE01F0B3FAFAE708B5104C08E0236822
:1030400059050DD423681A050FD42368DB0411D465
:1030500023685803F3D500F0F3FA23685905F1D536
:1030600001F08AFB23681A05EFD501F01BFC2368E9
:10307000DB04EDD501F0ACFCEAE700BF348004408E
:1030800008B5FFF7D9FF00BF014B10221A80704727
:1030900000200540704700BF094908B50B6830B1F2
:1030A0006A461844A2F50052904202D208601846BF
:1030B00008BD03F023FD0C2303604FF0FF3008BD73
:1030C000C0F7FF1FFEE700BF084A1378802B01D02E
:1030D000002070470649074B074808600021197017
:1030E0001378802BFCD00120704700BF03E007401D
:1030F0004480044001E0074000002822094A137878
:10310000012B01D00020704703F1804303F5FC231D
:10311000602119701378802BFCD1034B034A1A608D
:103120000120704703E0074044800440000006028D
:10313000F0B44D1E2E46002400E00134B0FBF2F343
:1031400002FB1300092800F130078ABF3730F8B2BC
:10315000C0B206F8010F1846002BEED10A195370C1
:103160004CB1107815F8016F28700133E01A8342D2
:1031700002F80169F5DB0846F0BC704710B4114B4A
:1031800053F8302092F8804234B1012379B182F8AB
:1031900080305DF8044B704703EBC0035B681A682E
:1031A00051B922F002021A605DF8044B704782F8B0
:1031B00000315DF8044B704742F003021A605DF87D
:1031C000044B7047907C00001C4A02EBC0030129AD
:1031D0005B6811D004291BD052F83000002280F81F
:1031E000802229B1022920D0032922D01A607047F9
:1031F0004FF480721A60704752F830004FF4A27298
:1032000080F880121A601A6822F020021A60704753
:1032100052F830104FF4A272012081F880021A6037
:103220001A6842F020021A60704740F203121A60D6
:1032300070474FF481721A60704700BF907C0000A5
:1032400030B4054B054D064C002210211A602A604F
:103250002060196030BC704714D0034004D0034094
:1032600000D003403F2801D8FFF788BF704700BF58
:103270003F2801D8FFF7A8BF704700BF2DE9F843EA
:10328000054672B6224F234B234A1B683C681268DE
:1032900062B6520102D5322B88BF0134B5B3C3F5F3
:1032A0002F3303F21F331D4EDFF86890DFF868807C
:1032B0009B084FF47A72A6FB031302FB04F404EBA1
:1032C000930472B6D9F800103A68D8F800E062B6F4
:1032D000C1F52F3303F21F339B08A6FB03031EF037
:1032E000806FC4EB93034FF47A7002D0322988BF09
:1032F000013200FB0233B3F57A7F04D3013D05D0E0
:1033000004F57A74DDE701F049F9DAE7BDE8F883FE
:10331000DCF8002018E000E004ED00E0176CC116B6
:10332000F8B54E4B4E48DFF85CC14E4C4E49DFF8C5
:1033300058E14E4E4E4D4F4F4FF000621A604FF025
:1033400080521A604FF000521A604FF080421A60AB
:103350004FF000421A600022026028234EF6FF70F0
:10336000CCF80000CEF8003023600EF5012E0B6083
:1033700033602B6006F500263B6005F50025A3624F
:1033800007F500278B6204F5012401F5012106F6FB
:10339000E87605F6E87507F57F6710310EF1100E37
:1033A000203433602B60CEF800303B600B6023602C
:1033B000314CBB618B6109212160A7F5002704F521
:1033C0008054203F08343A602060BB60E36047F8D7
:1033D000041C04F5FD2407F5FE27043704F2FC74F1
:1033E00022603860A360FB6044F8041C083404F6D3
:1033F000FC74C7F8FC2F2060A4F5E124A4F2DC746F
:1034000033602B60C7F8F81F21681C4841F4007135
:10341000216001681A4C0EF57F4E0EF1E80E07F59B
:10342000883706F5803605F5803541F0007101607A
:10343000CEF8002047F6FF710822396033602B6018
:10344000226001F019F91920FFF718FF00F060FE63
:1034500040F21310BDE8F840FFF710BF04E100E0B0
:1034600004800340148003401C80034024800340F8
:103470002C800340348003400080034004800440DB
:1034800000900C40088003400C800340431E032B37
:1034900014D872B60A4951F8230068B170B4094CC7
:1034A000058834F81320466841F82360521B24F83D
:1034B000132062B670BC704762B670470020704738
:1034C00038F9002010FD0020013803280BD872B60F
:1034D000074B53F8203043B100205B680130002BCC
:1034E000FBD162B67047002070471846F9E700BF6D
:1034F0008CF9002030B472B62B4A13781D0706D51C
:103500002A4B196A002936D0996A002941D053788C
:103510001C0706D5254B196C00293ED0996C002953
:1035200039D09378190705D5204B196E002936D06C
:10353000996E89B1D3781B0707D51C4BD3F880202F
:103540007AB3D3F8882011213AB162B6184B002221
:103550001A7030BC00F092BE0D21154C154D22782A
:1035600043F8315003EBC1030830013A5860227030
:1035700062B630BC704704220D4C0F4D217843F8E1
:10358000325003EBC20308304A1E5860227062B604
:10359000EFE70521E1E70921DFE70822ECE70C224C
:1035A000EAE71022E8E700BFB87E00000000FF1F36
:1035B000B5F90020C800400088004000431E032BDE
:1035C0001DD81B4A400140F0100030B4104472B6C0
:1035D000184CE25C032A1BD8DFE802F00212151730
:1035E00003220D88E25410F0080F14BFC82388236B
:1035F00043EA054308310360416062B630BC70475E
:1036000008300222EDE70522EBE708300422E8E764
:10361000094A52F8230038B1084A52F823004160A1
:1036200042F8231062B6E9E742F82310034AF7E7AD
:103630000000FF1FC4F900208CF900209CF9002035
:103640002DE9F04FDFF80CB3DFF80CA387B044E0AE
:10365000AB4F4FEA930807EBC809013ED9F80420A5
:1036600003F00803F6B2A2F1080003F0FF04002BF8
:1036700040F0028157F838301B0C99B222F8081C30
:10368000002B00F0F0809F4B22F8064C42F8044CCF
:1036900053F82620002A00F0C5829B4D55F82630AD
:1036A00058609A4C45F8260034F81630194424F82E
:1036B000161000F0C3FD002800F0AD82944A954B2F
:1036C00019F0080F00F1080018BF1346C9F80400EC
:1036D00047F8383008238BF800309BF80040E4B2FC
:1036E00061071AD58C4B1B78A3B18C490A7802F07C
:1036F000FF0322B1013BDBB20B7003B900BE884966
:103700000A7802F0FF032AB1013BDBB20B70002BF9
:1037100000F0578204238BF8003004F0080303F014
:10372000FF02002B00F0CC809AF80030DBB21E09BB
:103730008ED19C08DFF8C89159F8342009EBC401F8
:10374000C2F38302013A49680C2A00F28880DFE85C
:1037500002F07C7C8686868686864786868607007B
:103760000868704D4A68704F704E286081B240F210
:103770008160674B6A604FF0010E0022814249F878
:1037800034303A60C9F81020C9F8182086F800E0F3
:103790005B4C00F2E380B1F5D06F80F04683B1F569
:1037A000817F00F0FC8200F28D82802900F0778317
:1037B000822940F0FA82A98801F07F01042900F2F1
:1037C000F4825B485B4C8900084422706270027886
:1037D000930740F1588484F800E04FF0020E42E372
:1037E000514F3A6832B3544B504E5449188834788C
:1037F0000D784028864645F0020828BF4FF0400E5D
:10380000002C84F001043470CEEB00000CBF88243F
:10381000C82409EBC80680B285F0010544EA0E44CD
:103820007260188049F8384072440D70002800F02A
:1038300045813A603B4B1A88B2F5A06F0FD1002149
:103840009A7859703E4B1A7009E0364A108842F255
:103850002102904200F037812D4A49F83420394A3C
:103860000123137036E72A4A2A4B19F0080F18BFB4
:10387000134647F838302DE700F000FD324A33494F
:1038800052F82630002B00F0D18158688C5D42F848
:10389000260003F10802C9F80420032C05D8DFE84C
:1038A00004F02C02292602228A551A8819F0080FE2
:1038B0000CBF8823C82343EA024347F8383009E79E
:1038C000E00700F18181210600F1F281A20706D50F
:1038D0001F4A204913780220DBB213700870E306F8
:1038E00002D51C4B10221A7007B0BDE8F08F0422DD
:1038F0008A55DAE705228A55D7E703228A55D4E7A5
:103900000000FF1F38F90020E4F8002010FD00201F
:10391000C800400088004000C0F9002049F900209C
:10392000C8F90020ACF90020E0F8002048F9002098
:10393000C0200740B8F90020F4F80020B4F90020B6
:1039400098200740942007408CF90020C4F90020FB
:1039500088200740802007409020074042F2210045
:10396000814200F02A8100F2D880B1F5086F00F0A2
:103970007682B1F5106F40F01882226AB349A878B8
:103980000870120600F13A83D9F82820B0491306CE
:1039900000F10C83D9F83020AD49150600F1018300
:1039A000D9F83820AA49140600F1F682D9F8402047
:1039B000A749100600F14A83D9F84820A449120605
:1039C00000F13F83D9F85020A149130600F1348358
:1039D000D9F858209E49150600F12983D9F86020AE
:1039E0009B49140600F11E83D9F8682098491006F7
:1039F00000F11383D9F870209549120600F108836D
:103A0000D9F878209249130600F1FD82D9F8802078
:103A10008F49150600F13183D9F888208C491406A6
:103A200000F12583D9F890208949100600F1198307
:103A3000D9F898208649120600F10D838548864AF8
:103A4000864901908648874D874C04970023059648
:103A5000029580460F4616461D460394306828B1ED
:103A6000446800F00BFC2046002CF9D100233360A1
:103A7000029B38681A46002342F8253028B1446872
:103A800000F0FCFB2046002CF9D100223A60019A9C
:103A900098F800301146002241F8042B039A019156
:103AA000023B4FF0000122F81510032B00F22B818E
:103AB000DFE813F07001250170012501BEF1400F10
:103AC00018BF0022B5E6694A0D7848781570507025
:103AD0008D78C8789570D07010680D79157186282A
:103AE0004D7989795571917100F09B816049614EE2
:103AF0000A78307882F00105002842F002020D7049
:103B00000CBF8821C82149F8321009EBC20280F0AD
:103B100001000021307051609EE642F22120814276
:103B200040F0CB81544B554C5549A8781D68256011
:103B3000CDF804E0087000200290804684460446D8
:103B40004B490D7845F0020E09EBCE030393019B20
:103B5000002B039B5C600CBF8824C82444EA080344
:103B600085F0010449F83E3032700C70DFF8E0E077
:103B7000404BDFF8FC80002840F01E81BCF1400F74
:103B80001BD144F0020C09EBCC03029CDFF8C0E02F
:103B90005C60002A40F02681020442F088029DF811
:103BA00004304EF83C20044433700D702346402806
:103BB00003D10020334A3B601080334A0123137045
:103BC0004DE600F0C7FCA5E5214B2F4828491A61B6
:103BD0004FF0020E80F800E02C4F0A702C4919605B
:103BE00099602C4E2C4D2D4C9A610D213970FF217E
:103BF0003170DFF8B8E029702270294D294A8EF81B
:103C000000109F27012406F8047C5D600470DA60D0
:103C100007B0BDE8F08F244A47F838001378013325
:103C2000137057E543F826000E4D3AE58B5D032BE4
:103C300000F2F08001A252F823F000BFD536000058
:103C4000D5360000F93C0000F33C0000C0F900202C
:103C50000000FF1F9CF9002038F900208CF900209B
:103C6000C4F90020E4F8002010FD002018FD002019
:103C7000B4F9002048F90020DCF8002020FD0020E5
:103C8000D8F90020F4F8002094200740C020074015
:103C90008800400088200740802007409820074087
:103CA000F8F800204CF90020B5F900208C200740DE
:103CB000C149C24B80220D2008701A70A2077FF5FF
:103CC0000EAE05E640F20232914240F0EE80A98845
:103CD00001F07F01042968D86A88002A65D1B648B6
:103CE000CDF804E089000844017841F00201017038
:103CF00021E701238B55EDE400238B55EAE44FF0D7
:103D0000010388F800300135042D06F1040607F19F
:103D1000040708F101087FF4A1AEA94CA94B227851
:103D2000A94D049F059E002129701A70130700F108
:103D300005816278A549DFF8A0820A7010074FF06C
:103D40000001C9F83010C9F8381000F1E080A0492E
:103D5000A2780A700021C9F85010C9F8581011074C
:103D6000DFF8748200F10181E2789A499A4C0A7076
:103D700000211207C9F87010C9F8781000F1B0805E
:103D800033780193002183F00102C9F89010C9F83B
:103D90009810D0E64FF0000388F80030B3E7A98808
:103DA00001F07F01042940F28D80834A0F231370B4
:103DB0008A4A0123137052E540287FF6E2AE44F0B0
:103DC00002040EEBC401029E4E60BAB19DF80410CD
:103DD000834A19703346403888F8005040334EF813
:103DE0003420E7E69DF8043033700204029B0D7026
:103DF00042F0C80203444EF83C20D8E69DF8041077
:103E00001970029B774A88F80050403840334EF8CA
:103E10003420CFE619F0080F0CBF022303238B5583
:103E200058E4714A0F21117060E6704A5468002C02
:103E3000BBD06888B5F804E003E00C325468002C6D
:103E4000B3D013888342F8D153887345F5D1000A63
:103E500003280CBF94F800E0B2F808E003E0644ADD
:103E6000644C12782270E888704580F03F81624986
:103E70000D784028844645F0020E28BF4FF0400CD4
:103E800004EB0C0309EBCE02029301235460CCEB4C
:103E900000004FEA0C4800220193C8245EE6554C0E
:103EA0004FF0020E22706270DDE7B1F5A06F7FF473
:103EB0007CAF0123002201933DE642F22132914280
:103EC000F7D072E76A88002A7FF46FAF3A48CDF8DE
:103ED00004E089000844017821F0020101702AE61B
:103EE00000F0ACF9002800F0EF8008303D4AC4F83B
:103EF0008400C4F8802000F0A1F9002800F0DE80E2
:103F00000830374AC9F88C00C9F8882038E700F033
:103F100095F9002800F0C0800830324AC8F8440003
:103F2000C8F8402000F08AF9002800F0AF8008307F
:103F30002B4AC9F84C00C9F8482008E700F07EF980
:103F4000002800F0CD800830264AC9F82400C9F8BE
:103F5000202000F073F9002800F0BC800830204ACF
:103F6000C9F82C00C9F82820E3E600F067F900281A
:103F700000F09E8008301B4AC8F86400C8F8602032
:103F800000F05CF9002800F08D800830144AC9F870
:103F90006C00C9F86820E7E6C86B083800F06EF9D5
:103FA00004E5486B083800F069F9F9E4C86A083894
:103FB00000F064F9EEE400BFC02007408020074015
:103FC000B87E0000C4200740B5F90020C820074093
:103FD000CC200740D02007400000FF1F942007405E
:103FE000C80040008800400049F90020BC7E000065
:103FF000C0F90020B8F90020B4F90020606A083840
:1040000000F03CF9C0E4C86F083800F037F9FDE46F
:10401000486F083800F032F9F2E4C86E083800F052
:104020002DF9E7E4486E083800F028F9DCE4C86DA3
:10403000083800F023F9D1E4486D083800F01EF983
:10404000C6E4C86C083800F019F9BBE4486C0838BD
:1040500000F014F9B0E4D1F89C00083800F00EF933
:10406000ECE4D1F89400083800F008F9E0E4D1F865
:104070008C00083800F002F9D4E4D1F88400083844
:1040800000F0FCF8C8E44FF0020EECE62A78C9F81C
:10409000480001322A705AE62A78C8F840000132F6
:1040A0002A703FE72A78C9F8680001322A705BE677
:1040B0002A78C8F8600001322A7061E72A78C9F8C6
:1040C000880001322A705BE62A78C4F88000013249
:1040D0002A7010E72A78C9F8280001322A7028E6E9
:1040E0002A78C9F8200001322A7032E7BEF1400F69
:1040F000F44628BF4FF0400C04EB0C03029301235D
:10410000CCEB0E004FEA0C480022019318E500BFEB
:104110002DE9F04100F042FE314C324B3248DFF8DD
:10412000E480324EDFF8E0C0314F324DDFF8DCE0A2
:1041300000221A605A609A60DA601A615A619A61C4
:10414000DA611A625A629A62DA621A635A639A638D
:10415000DA631A645A649A64DA641A655A659A656D
:10416000DA651A665A669A66DA661A675A679A674D
:10417000DA67C3F880202168C3F8842041F48021E5
:104180002160016841F040710160032188F800104E
:10419000A020C3F307218CF8000004F52834317007
:1041A000C3F30740144938701B0E2B70CC34FF2327
:1041B0008EF80030114D0CF8B83C11480B700123FB
:1041C00006F8083C227070264FF40014102207F8FD
:1041D0002C3C2E70046081F8F820BDE8F08100BF0F
:1041E000348004400000FF1F00D800409C2007409E
:1041F000B0200740B42007401020074035E400E01D
:1042000004E100E0442107404021074080200740AE
:1042100000F0A4B800F07CB800F056B800F090B8F8
:1042200000F06CB900F046B90846114600F0B2B88B
:10423000084600F033B900BF704700BF72B60D48A2
:104240000268B2FA82F30B2B10DC4FF00041D94028
:1042500022EA0102026062B6074803EBC303DB00F7
:10426000C2180021C15010465160704762B600204C
:10427000704700BFD4F7FF1FD003FF1F0D4B0E4A3E
:10428000C31AA2FB03231B090B2B0CD80B4A127871
:1042900052B972B60A484FF00041026821FA03F39E
:1042A0001A43026062B67047064A1278002AF0D0BC
:1042B000FFF720B9D003FF1F398EE338B5F900208E
:1042C000D4F7FF1FC0F9002038B50F4D286878B12A
:1042D00043880288C118013393420C7A02D243808A
:1042E000204638BDFFF7CAFF002320462B6038BDAB
:1042F000064B1B782BB10320FFF7C8F82860002875
:10430000E6D14FF0FF3038BDD4F90020C0F90020CD
:1043100010B5094C206818B143881844007A10BDC4
:10432000064B1B782BB10320FFF7B0F82060002864
:10433000F2D14FF0FF3010BDD4F90020C0F90020B9
:10434000044B054A1B6890881BB11A885B88D31AF6
:1043500018447047D4F9002010FD00200B4B1B7847
:104360009BB110B50A4C206848B1FFF787FF0023C6
:1043700003202360FFF78AF830B1FFF77FFF0320A7
:10438000FFF784F80028F8D110BD7047C0F900206D
:10439000D4F900202DE9F04FDFF8F89083B0012226
:1043A00089F80020019169B3DFF8EC80354F019E58
:1043B0008346D8F80000B0B3334D4488C4F14001BF
:1043C000B14228BF314604EB010E00221FFA8EFED7
:1043D0002A70761AA0F802E000F1080251B1013CFF
:1043E000224459441BF8014B02F8014F8B45F9D187
:1043F000B0F802E0BEF13F0F0BD8244A052111703E
:10440000002ED6D10198002389F8003003B0BDE812
:10441000F08F4022028001460420FFF7CFF80022EF
:10442000C8F80020E9E73A7822B3194C164D4FF04E
:10443000010A07E0013C16D02A78A2B900F0AEF8D4
:104440003A78BAB10420FFF73FF80728F2D889F884
:1044500000A0FFF7F3FEC8F800000028ADD10D4B17
:10446000013C1870E8D101234FF0FF302B7003B0EE
:10447000BDE8F08F00234FF0FF3089F8003003B023
:10448000BDE8F08FC0F90020D0F90020C8F9002065
:1044900021480100C9F90020CCF9002000B583B003
:1044A00002AB012103F8010D1846FFF773FF03B0BB
:1044B0005DF804FB38B50E4D0E4C286801232370BF
:1044C00028B1408800232370C0F1400038BD0A4B5A
:1044D0001B7813B90020207038BD0420FEF7F4FFCC
:1044E0000728F7D8FFF7AAFE28600028E9D1F1E7EE
:1044F000CCF90020C9F90020C0F90020F8B5114B13
:104500001B788BB1104E114D346801272F7064B1A8
:104510000F4A638800271770214623800420FFF785
:104520004DF8376000232B70F8BDFFF787FE084B6E
:1045300028B1014604201C70FFF740F8F2E71F7015
:10454000F0E700BFC0F90020CCF90020C9F9002035
:10455000C8F9002038B50E4B1B7873B90D4C216893
:1045600061B103F0FF054B880B800420FFF726F8AC
:10457000256038BD084B01221A7038BDFFF75EFE7A
:104580000028F7D00146BDE838400420FFF716B8F0
:10459000C9F90020CCF90020C8F9002038B52C4C0E
:1045A000237803B138BD01232370FFF7C9FE00282B
:1045B00042D100F0D1F800283BD100F063F9002887
:1045C00034D100F0F5F970BB00F06EFA40BB00F09A
:1045D000E7FA10BB00F060FBE0B900232370EFF3B3
:1045E0000583002BDED1EFF3108172B6194B1868EA
:1045F00028B3194C227812BB45691D600123237032
:104600000DB3AA6101B962B6002545778368984762
:104610002570C7E700F02EF8DFE700F029F8D9E7AA
:1046200000F024F8D3E700F01FF8CDE700F01AF807
:10463000C7E700F015F8C0E7FFF7FEFDB9E700296E
:10464000B0D162B638BD054B1D600029DCD1DAE778
:10465000D9F90020D0F80020D4F80020CCF80020B0
:10466000704700BF704700BF704700BF704700BF72
:10467000704700BF704700BF30B42948294A2A4B11
:104680002A4D6024E121047011701B78284C082BFE
:1046900030D00A2B2748284937D00C2B0CBF3522A5
:1046A0005D2212232A60236002600B60234B2449A1
:1046B0001B78244ABBB101230B601360224B2349B2
:1046C0001B78234A012B26D9042B0FD9082B1ED97E
:1046D000102B94BF862387230B6013601D4B012290
:1046E0001A7030BC70470B601360E7E784230B60DF
:1046F0001360F3E700F58E200F49083021221323C1
:104700002A60236002600B60D0E73922F7E7852337
:104710000B601360E2E780230B601360DEE700BFED
:104720000040074001400740D8F7FF1F08B0034092
:104730000CB0034008B00B400CB00B40DBF900207C
:1047400020B0034020B00B40D9F7FF1F24B0034036
:1047500024B00B40DAF90020054A064B10781B788C
:10476000C0B2DBB2984238BF4030C01A704700BFB9
:10477000E0F90020E1F90020F0B4384B1A7912F08A
:10478000300F2CD072B6997D01F0FF0200293DD088
:1047900062B6334F334938780D78334E1C46C0B279
:1047A000EDB2431C402BE17928BF0023AB4202F15C
:1047B000FF32C9B21CBFF154184612F0FF02F0D10B
:1047C0002A4B1B68C2B23A704BB1A84236BFC5F142
:1047D0004005401B40192728C4BF01221A701F49F9
:1047E000CA78D2B2150616D452060DD51B4B1B79CA
:1047F0005B0609D51E4B1F491B6800220A7003B1D6
:104800001A70164B3C22DA70F0BC70474022D979FE
:104810005A7462B6E3E70B791C06E5D5164B174EC2
:104820001C783378E4B2DBB29C420ED0144D01E028
:10483000A3420AD00133402B28BF00230879E85C4B
:10484000C0B2C871087D0728F2D9DBB203493370C2
:104850000B79180644BF7C23CB70C5E700A0064047
:10486000E0F90020E1F9002024FA0020DCF9002022
:1048700068FA002064FA00206CFA002065FA002033
:10488000E4F90020054A064B10781B78C0B2DBB271
:10489000984238BF4030C01A704700BFE0FA00208D
:1048A00075FA0020F0B4384B1A7912F0300F2CD082
:1048B00072B6997D01F0FF0200293DD062B6334FF8
:1048C000334938780D78334E1C46C0B2EDB2431CE4
:1048D000402BE17928BF0023AB4202F1FF32C9B27D
:1048E0001CBFF154184612F0FF02F0D12A4B1B688E
:1048F000C2B23A704BB1A84236BFC5F14005401B69
:1049000040192728C4BF01221A701F49CA78D2B2A1
:10491000150616D452060DD51B4B1B795B0609D51F
:104920001E4B1F491B6800220A7003B11A70164BF8
:104930003C22DA70F0BC70474022D9795A7462B6D2
:10494000E3E70B791C06E5D5164B174E1C78337838
:10495000E4B2DBB29C420ED0144D01E0A3420AD077
:104960000133282B28BF00230879E85CC0B2C87146
:10497000087D0728F2D9DBB2034933700B7918069A
:1049800044BF7C23CB70C5E700B00640E0FA0020AE
:1049900075FA0020A0FA002070FA0020E4FA002046
:1049A00074FA0020E8FA0020E1FA002078FA0020EA
:1049B000054A064B10781B78C0B2DBB2984238BF6C
:1049C0004030C01A704700BFF0FA0020F1FA002012
:1049D00030B42B4B1A7994061FD52A48DA7903781C
:1049E000294901333F2B0978C8BF00238B42D2B23B
:1049F00003D0264CD9B2E2540170254A116861B146
:104A0000244A1278D2B2934236BFC2F140029B1AB6
:104A10009B18272BC4BF01230B70194AD378DBB234
:104A2000180611D45A060DD5154B1B795B0609D50E
:104A3000194B1A491B6800220A7003B11A70104BF7
:104A40002C22DA7030BC704711790906EAD5144976
:104A500010480C780178C9B28C420DD04A1C272A24
:104A600084BF00210A460F4D054C98BFD1B2AA5C05
:104A7000D2B2E2710170D5E76C21D170D2E700BFEC
:104A800000C00640F0FA0020F1FA00201CFB0020D4
:104A9000ECFA00205DFB002060FB00205CFB0020A6
:104AA00064FB0020F4FA0020054A064B10781B78BE
:104AB000C0B2DBB2984238BF4030C01A704700BF66
:104AC0006CFB00206DFB002030B42B4B1A79940650
:104AD0001FD52A48DA790378294901333F2B097811
:104AE000C8BF00238B42D2B203D0264CD9B2E254C5
:104AF0000170254A116861B1244A1278D2B29342FA
:104B000036BFC2F140029B1A9B18272BC4BF01235A
:104B10000B70194AD378DBB2180611D45A060DD59A
:104B2000154B1B795B0609D5194B1A491B680022E6
:104B30000A7003B11A70104B2C22DA7030BC704727
:104B400011790906EAD5144910480C780178C9B2E0
:104B50008C420DD04A1C272A84BF00210A460F4DE3
:104B6000054C98BFD1B2AA5CD2B2E2710170D5E710
:104B70006C21D170D2E700BF00D006406CFB002052
:104B80006DFB002098FB002068FB0020D9FB002073
:104B9000DCFB0020D8FB0020E0FB002070FB0020A5
:104BA000054A064B10781B78C0B2DBB2984238BF7A
:104BB0004030C01A704700BFE8FB0020E9FB00202E
:104BC00030B42B4B1A7994061FD52A48DA7903782A
:104BD000294901333F2B0978C8BF00238B42D2B249
:104BE00003D0264CD9B2E2540170254A116861B154
:104BF000244A1278D2B2934236BFC2F140029B1AC5
:104C00009B18272BC4BF01230B70194AD378DBB242
:104C1000180611D45A060DD5154B1B795B0609D51C
:104C2000194B1A491B6800220A7003B11A70104B05
:104C30002C22DA7030BC704711790906EAD5144984
:104C400010480C780178C9B28C420DD04A1C272A32
:104C500084BF00210A460F4D054C98BFD1B2AA5C13
:104C6000D2B2E2710170D5E76C21D170D2E700BFFA
:104C700000A00E40E8FB0020E9FB002014FC00200F
:104C8000E4FB002055FC002058FC002054FC0020D0
:104C90005CFC0020ECFB0020054A064B10781B78DA
:104CA000C0B2DBB2984238BF4030C01A704700BF74
:104CB00064FC002065FC002030B42C4B5A68940240
:104CC0001FD52B48DA6803782A4901333F2B09782E
:104CD000C8BF00238B4204D0274CD2B2D9B2E254D1
:104CE0000170264A116861B1254A1278D2B2934206
:104CF00036BFC2F140029B1A9B18272BC4BF012369
:104D00000B701A4A9368180202D55268110211D426
:104D10005A020DD5154B5B685B0209D5194B1A4930
:104D20001B6800220A7003B11A70184B00221A6027
:104D300030BC7047164A124910780A78D2B29042B5
:104D40000DD00132272A84BF00200246114D074CA6
:104D500098BFD0B2AA5CD2B2E2600870D8E70E4821
:104D60000A4A0024012104601160D1E700400C4090
:104D700064FC002065FC002090FC002060FC00200A
:104D8000D1FC0020D4FC0020D0FC00205801884336
:104D9000D8FC002068FC00205C01884310B584B07A
:104DA00072B6FEF791F9184A184B19491160702232
:104DB00080211A701A46197013781B06FCD5154B02
:104DC0001C68FEF79BF962B6134B9C429CBF04EB38
:104DD000840464002046114C01A90A22FEF7A8F9B8
:104DE00001A92046002311F8012B01333AB10A2B07
:104DF00020F8022FF7D11623237004B010BD5B00FA
:104E0000DBB2237004B010BD040002400000024079
:104E1000000007410C0002407F96980068F8FF1FD1
:104E200000B551EC100B2C4A21F00043934285B0A1
:104E300027DD2A4A934209DD10EE102A0B4601F0C5
:104E4000C7F941EC100B05B05DF804FB684600F0B3
:104E500047F800F00300012827D002281DD068B3CE
:104E60009DED021B9DED000B00F062FA53EC102B40
:104E700010EE100A03F1004141EC100B05B05DF893
:104E800004FB00209FED121B00F0A6FF51EC100B5D
:104E900041EC100B05B05DF804FB01209DED021BF9
:104EA0009DED000B00F098FFE0E79DED021B9DEDEE
:104EB000000B00F03DFA51EC100BC2E701209DED14
:104EC000021B9DED000B00F087FF51EC100BB8E7C3
:104ED0000000000000000000FB21E93FFFFFEF7F22
:104EE0002DE9F04F53EC102B974923F0004B8B45E5
:104EF0008FB040F3878095498B451C46824629DC5C
:104F0000002C194610EE100A85A3D3E9002340F3C4
:104F1000A58101F05DF98E4B9B4504460D4600F0DE
:104F2000878081A3D3E9002301F052F902460B46A2
:104F3000CAE900232046294601F04AF97AA3D3E9B9
:104F4000002301F045F90125CAE9020128460FB006
:104F5000BDE8F08F7F498B4540F387807E498B45C4
:104F60005BDC4FEA2B55A5F21645ABEB0557104617
:104F7000394610EE106A01F079FD01F077FA8046AB
:104F8000894642464B4630463946CDE9088901F00C
:104F90001FF90022714B01F0CFFA8946804601F0DB
:104FA00065FD01F063FA06460F4632463B46404631
:104FB0004946CDE90A6701F00BF90022674B01F081
:104FC000BBFA00220023CDE90C0101F01DFD0028F1
:104FD00000F07081002330463946002201F014FDB4
:104FE000002814BF012302235D4A0192022100918F
:104FF0002A46514608A800F0DFFA002CC0F24C8186
:10500000054606E080ED000B00250024C0E90245BE
:10501000002528460FB0BDE8F08F10EE100A1946A3
:1050200001F0D6F80025CAE90201CAE90001F0E75B
:105030003FA3D3E9002301F0CBF83FA3D3E900233A
:105040000D46044601F0C4F802460B46CAE90023A7
:105050002946204601F0BCF837A3D3E9002301F02C
:10506000B7F80125CAE90201D3E700F07FFF57EC4A
:10507000106B10EE100A32A3D3E90023394601F079
:105080005BFA0022374B01F0A5F801F0EFFC054672
:1050900001F0ECF922A3D3E90023CDE9040101F0EA
:1050A0004BFA02460B463046394601F091F81EA3F2
:1050B000D3E9002380468946DDE9040101F03CFA8A
:1050C0001F2DCDE9020151DC274B6A1E53F8223017
:1050D0009B454BD002460B464046494601F078F8C6
:1050E00006460F46CAE9006732463B4640464946F7
:1050F00001F06EF8DDE9022301F06AF8002CCAE93C
:10510000020186DA07F1004401F100436D42CAF85A
:105110000060CAF80440CAF80800CAF80C3078E702
:1051200000004054FB21F93F3163621A61B4D03D65
:105130000000601A61B4D03D7370032E8A19A33B3E
:1051400083C8C96D305FE43FFB21E93F7BD9024052
:10515000FB21F93FFB213941FFFFEF7F0000704148
:10516000907F00000000E03F107F0000DDE9022397
:105170004046494601F02CF84FEA2B5BC1F30A5335
:10518000C3EB0B0306460F46102BCAE90067ABDDE5
:105190005DA3D3E90023DDE9040101F0CDF9064662
:1051A0000F4602460B464046494601F011F8CDE94C
:1051B000060102460B464046494601F009F83246D0
:1051C0003B4601F005F852A3D3E9002306460F46FB
:1051D000DDE9040101F0B0F932463B4600F0F8FF8A
:1051E0000B46CDE902010246DDE9060100F0F0FFC1
:1051F000C1F30A53C3EB0B0B06460F46BBF1310F4D
:10520000CAE9006776DD45A3D3E90023DDE904019F
:1052100001F092F906460F4602460B46DDE906010B
:1052200000F0D6FF02460B4680468946DDE90601BE
:1052300000F0CEFF32463B4600F0CAFF39A3D3E967
:10524000002306460F46DDE9040101F075F93246F8
:105250003B4600F0BDFFCDE902013BE700F0BAFF9D
:105260002D4B9B4504460D4626D025A3D3E90023AC
:1052700000F0B0FF02460B46CAE90023294620464B
:1052800000F0A6FF1EA3D3E9002300F0A3FF4FF018
:10529000FF35CAE90201BCE6DAF80420DAF80C307E
:1052A00002F1004203F100434542CAF80420CAF863
:1052B0000C30AEE6032397E613A3D3E9002300F0F6
:1052C00089FF13A3D3E900230D46044600F082FFB3
:1052D00002460B46CAE900232946204600F078FF23
:1052E0000BA3D3E9002300F075FF4FF0FF35CAE9A7
:1052F00002018EE6DDE90689F6E600BFAFF3008025
:105300003163621A61B4D03D0000601A61B4D03DCF
:105310007370032E8A19A33BFB21F93F0000002E76
:105320008A19A33BC14920259A837B39FFFFFFFFE0
:105330002DE9F04F57EC106B2DED028BB0EE418A4A
:10534000F0EE618A27F00049B9F1795F83B072DA33
:1053500010EE100A394601F089FB002800F0F680B3
:1053600032463B463046394601F0E6F87CA3D3E9A5
:10537000002304460D4601F0DFF87BA3D3E90023A8
:1053800000F028FF22462B4601F0D6F878A3D3E997
:10539000002300F01DFF22462B4601F0CDF876A336
:1053A000D3E9002300F016FF22462B4601F0C4F893
:1053B00073A3D3E9002300F00BFF22462B4601F034
:1053C000BBF871A3D3E9002300F004FF22462B466B
:1053D00001F0B2F882468B460022714B20462946E6
:1053E00001F0AAF85246804689465B462046294687
:1053F00001F0A2F853EC182B04460D46304639460E
:1054000001F09AF802460B462046294600F0E0FEDD
:1054100002460B464046494600F0DAFE02460B467D
:105420000020604900F0D4FE41EC100B03B0BDEC4D
:10543000028BBDE8F08F10EE102A10EE100A3B46EA
:10544000394601F079F846A3D3E9002304460D4616
:1054500001F072F844A3D3E9002300F0BBFE22461A
:105460002B4601F069F842A3D3E9002300F0B0FE17
:1054700022462B4601F060F83FA3D3E9002300F059
:10548000A9FE22462B4601F057F83DA3D3E900239D
:1054900000F09EFE22462B4601F04EF83AA3D3E9D7
:1054A000002300F097FE2B46224601F045F83E4BC4
:1054B000994582468B468FDD3C4B99453DDC002269
:1054C000A9F50013002037499046994600F080FE68
:1054D000CDE900010022324B2046294601F02CF88C
:1054E00042464B4600F074FE5246804689465B4673
:1054F0002046294601F020F853EC182B04460D46AF
:105500003046394601F018F802460B462046294637
:1055100000F05EFE02460B464046494600F058FE4B
:1055200002460B46DDE9000100F052FE41EC100B93
:1055300003B0BDEC028BBDE8F08F9FED157B4FF003
:1055400000088DED007BDFF86890C3E79FED120B3C
:1055500003B0BDEC028BBDE8F08F00BFAFF300805D
:10556000D43888BEE9FAA8BDC4B1B4BD9EEE213ED0
:10557000AD529C804F7E923E9015CB19A001FA3E11
:105580007751C1166CC1563F4C5555555555A53FE1
:10559000000000000000E73F000000000000F03FB6
:1055A0000000E03F0000F03F3233D33F0000E93F0E
:1055B0000000D23FFFFFFFFF2DE9F04FADF51B7D4F
:1055C000814CA49E814D54F8264007942646D41E53
:1055D00085FB0475E417C4EBA50424EAE4741D46B6
:1055E0000A93631CA3EB8303013D02EBC303069301
:1055F0002B460B940095651BF4180390089116D464
:105600002C44013422AEA59F08E057F8250000F095
:105610002DFF0135A542E6E8020108D0002DF4DA9D
:10562000013500200021A542E6E80201F6D1079BE2
:10563000002BC0F2C283079B039ADDF800A003F1A0
:10564000010B0A9B0DF5E479DB00049309EBCB0B0E
:1056500002EB0308009B002BC0F2928122AB03EB0C
:10566000CA05039C08350026002775E90223F4E8E3
:10567000020100F061FF02460B463046394600F059
:10568000A9FD444506460F46EFD1E9E80267D94532
:105690000AF1010ADED107990498039C049101F1F3
:1056A0008043023B9B0020441A1D83460EA80244FF
:1056B00003440D920C93049A9AA901EBC203002AA9
:1056C00053E9284529DD0DF5E47A0AEBC2080DF10E
:1056D000340900223E4B2046294600F02DFF01F000
:1056E000C5F900F0C3FE00223A4B06460F4600F013
:1056F00023FF02460B462046294600F069FD01F0D3
:10570000B5F978E9022349F8040F3946304600F02C
:1057100061FDD04504460D46DBD1DDF8189045EC1F
:10572000104B484600F0BCFC55EC104B00224FF0EB
:105730007F5310EE100A294600F0FEFE41EC100BDC
:1057400000F01EFC002251EC100B234B00F0F4FE85
:1057500002460B462046294600F03AFD0D46044617
:1057600001F084F9804600F081FE0B46024629468E
:10577000204600F02DFD4B46002B06460F4640F319
:10578000E580049A0EA9013AC9F1180351F8225094
:1057900045FA03F101FA03F30EA8EB1A40F82230A0
:1057A000C9F11705884443FA05F5002D41DD049B36
:1057B000002B08F1010840F3C982002214460DA90C
:1057C0000498AE4612E000BF98800000ABAAAA2A57
:1057D0000000703E0000704100002040C3F1807561
:1057E0000BB10D600124013290420DDD51F8043FF0
:1057F000002CF3D0C3F1FF13013203F57F43904235
:105800000B604FF00104F1DC7546069B002B0EDDAA
:10581000012B00F0A380022B09D1049B5A1E0EAB72
:105820000EA953F82230C3F3150341F82230022D9C
:1058300074D0002200233046394601F0E5F80028F4
:1058400000F04982049A079B501E834210DC02F14B
:105850008043013B0EAA0D9C02EB8303002253F808
:105860000419A34242EA0102F9D1002A40F0A480BF
:10587000079B0EAA013B52F82330002B40F06482B4
:105880000C9A012352F8041901330029FAD0049A22
:10589000D31802F1010A9A4509933CDC0B9B0A9A42
:1058A00009990AEB0309049B984690448B1809F167
:1058B0008049A59A09F1FF3902EB890922AA02EB76
:1058C000C303049372AB02EBC80803EBCA0A59F88E
:1058D000040F00F0CBFD009B002BE8E802014FF025
:1058E00000064FF0000711DB039C454675E90223D3
:1058F000F4E8020100F020FE02460B46304639462D
:1059000000F068FC5C4506460F46EFD1049B9845C5
:10591000EAE80267DBD1099B0493CCE632463B46BA
:105920000020B34900F054FC06460F46002C80D0FE
:1059300006989FEDAB0B00F0B3FB3046394653ECB5
:10594000102B00F045FC06460F4672E711D1049B70
:105950000EAA013B52F82350ED1526E7049B5A1E70
:105960000EAB0EA953F82230C3F3160341F82230D0
:105970005DE700229F4B01F065F858B9054658E7EE
:1059800000260027E9E80267D9450AF1010A7FF4F9
:1059900061AE80E6049B002B08F10108C8BF022518
:1059A0003FF70BAF32463B460020914900F010FC18
:1059B000022506460F463CE70EA9CDF8248051F893
:1059C00020300699009018390246039506916BB96C
:1059D00000F18043013B0EA800EB830353F8040958
:1059E000013A18390028F9D00092069106989FEDE7
:1059F0007C0B00F055FB009B002B55EC104BC0F2CC
:105A0000C181DA000DF5E4780EA901EB830608EBFD
:105A1000020B069204360BF1080756F8040D00F04D
:105A200025FD22462B4600F087FD002267E9020192
:105A3000714B2046294600F07FFD474504460D4640
:105A4000EBD14AACDDF81C9004944FF0000AB9F198
:105A5000000FC0F22B81DFF8A4815D4662A3D3E979
:105A6000002300260027002403E0A24510DBF8E80D
:105A70000223F5E8020100F05FFD02460B463046C6
:105A8000394600F0A7FB0134A14506460F46ECDA83
:105A9000049B03EBCA03ABF1080BC3E9006770ABCF
:105AA0009B450AF1010AD2D1A49B049C032B00F26E
:105AB0008D80DFE813F0DD00A500A5000400009B49
:105AC000002B40F35C81009B03F1005B069B0BF114
:105AD000FF3BE2184FEACB03D2E9008903F1080249
