:100000000C94ED020C9415030C9415030C94150339
:100010000C9415030C9415030C9415030C94150300
:100020000C9415030C9415030C9415030C941503F0
:100030000C9415030C9415030C9415030C941503E0
:100040000C94930C0C9415030C94030D0C94DD0C80
:100050000C9415030C9415030C9415030C941503C0
:100060000C9415030C94150305A84CCDB2D44EB9CD
:100070003836A9020C50B9918688083CA6AAAA2A4B
:10008000BE000000803F050800FF0C4B0000000090
:10009000003E5B4F5B3E3E6B4F6B3E1C3E7C3E1C0E
:1000A000183C7E3C181C577D571C1C5E7F5E1C0054
:1000B000183C1800FFE7C3E7FF0018241800FFE70B
:1000C000DBE7FF30483A060E2629792926407F05CE
:1000D0000507407F05253F5A3CE73C5A7F3E1C1CE4
:1000E00008081C1C3E7F14227F22145F5F005F5FA4
:1000F00006097F017F006689956A60606060609490
:10010000A2FFA29408047E040810207E2010080894
:100110002A1C08081C2A08081E101010100C1E0C9F
:100120001E0C30383E3830060E3E0E060000000031
:100130000000005F00000007000700147F147F1418
:10014000242A7F2A1223130864623649562050005D
:1001500008070300001C2241000041221C002A1C49
:100160007F1C2A08083E0808008070300008080834
:100170000808000060600020100804023E51494554
:100180003E00427F400072494949462141494D3372
:100190001814127F1027454545393C4A49493141D9
:1001A000211109073649494936464949291E0000A7
:1001B00014000000403400000008142241141414FC
:1001C0001414004122140802015909063E415D59E8
:1001D0004E7C1211127C7F494949363E41414122F1
:1001E0007F4141413E7F494949417F090909013E1B
:1001F000414151737F0808087F00417F4100204042
:10020000413F017F081422417F404040407F021C53
:10021000027F7F0408107F3E4141413E7F0909096A
:10022000063E4151215E7F09192946264949493236
:1002300003017F01033F4040403F1F2040201F3FFC
:100240004038403F63140814630304780403615981
:10025000494D43007F4141410204081020004141C3
:10026000417F04020102044040404040000307086F
:100270000020545478407F2844443838444444286B
:10028000384444287F385454541800087E09021812
:10029000A4A49C787F0804047800447D400020409A
:1002A000403D007F1028440000417F40007C0478DE
:1002B00004787C080404783844444438FC18242426
:1002C0001818242418FC7C080404084854545424A6
:1002D00004043F44243C4040207C1C2040201C3C23
:1002E0004030403C44281028444C9090907C44641A
:1002F000544C4400083641000000770000004136AD
:10030000080002010204023C2623263C1EA1A16132
:10031000123A4040207A3854545559215555794164
:100320002154547841215554784020545579400C3B
:100330001E5272123955555559395454545939551C
:100340005454580000457C410002457D420001455F
:100350007C40F0292429F0F0282528F07C545545CC
:10036000002054547C547C0A097F4932494949325F
:100370003248484832324A4848303A4141217A3A74
:1003800042402078009DA0A07D39444444393D403E
:1003900040403D3C24FF2424487E4943662B2FFCEB
:1003A0002F2BFF0929F620C0887E09032054547999
:1003B000410000447D413048484A32384040227A6A
:1003C000007A0A0A727D0D19317D2629292F2826E7
:1003D0002929292630484D402038080808080808EF
:1003E0000808382F10C8ACBA2F102834FA00007B48
:1003F000000008142A142222142A1408AA00550006
:10040000AAAA55AA55AA000000FF00101010FF006C
:10041000141414FF001010FF00FF1010F010F0145F
:100420001414FC001414F700FF0000FF00FF141464
:10043000F404FC141417101F10101F101F141414B0
:100440001F00101010F0000000001F101010101FEF
:1004500010101010F010000000FF101010101010FD
:10046000101010FF10000000FF140000FF00FF003C
:10047000001F10170000FC04F414141710171414B4
:10048000F404F40000FF00F714141414141414F707
:1004900000F7141414171410101F101F141414F460
:1004A000141010F010F000001F101F0000001F14A7
:1004B000000000FC140000F010F01010FF10FF14FA
:1004C0001414FF141010101F00000000F010FFFFA4
:1004D000FFFFFFF0F0F0F0F0FFFFFF000000000072
:1004E000FFFF0F0F0F0F0F38444438447C2A2A3E79
:1004F000147E02020606027E027E026355494163B3
:100500003844443C04407E201E2006027E020299AC
:10051000A5E7A5991C2A492A1C4C7201724C304A45
:100520004D4D303048784830BC625A463D3E4949CE
:1005300049007E0101017E2A2A2A2A2A44445F4476
:100540004440514A444040444A51400000FF0103A6
:10055000E080FF000008086B6B0836123624360670
:100560000F090F060000181800000010100030409E
:10057000FF0101001F01011E00191D1712003C3C64
:100580003C3C0000000000000000080002010000E8
:100590000304070000000000000000000000002528
:1005A0000028002B0000000000240027002A00047F
:1005B000040404040404040202020202020303030A
:1005C0000303030102040810204080010204081004
:1005D0002001020408102000DD1C11241FBECFEFF3
:1005E000D8E0DEBFCDBF11E0A0E0B1E0EAECF0E47E
:1005F00002C005900D92AC39B107D9F724E0ACE9FF
:10060000B1E001C01D92A134B207E1F712E0CDEED6
:10061000D2E004C02197FE010E945820CC3ED107B1
:10062000C9F70E9425170C9463200C940000FC016C
:10063000538D448D252F30E0842F90E0821B930B47
:10064000541710F0CF96089501970895FC01918DED
:10065000828D981761F0828DDF01A80FB11D5D9624
:100660008C91928D9F5F9F73928F90E008958FEF92
:100670009FEF0895FC01918D828D981731F0828D46
:10068000E80FF11D858D90E008958FEF9FEF08959D
:10069000FC01918D228D892F90E0805C9F4F821B01
:1006A00091098F739927089580E090E0892B29F0B4
:1006B0000E94640C81110C9400000895DC01FB0180
:1006C000118210821582148214968D919C91159737
:1006D0009383828316968D919C9117979783868337
:1006E000108611861286138614861586168617863E
:1006F000108A118A128A138A148A158A168A178A0E
:10070000118E108E138E128E158E148E168E178EDD
:1007100010A211A212A213A214A215A216A217A22D
:1007200010A611A612A613A617AA16AA1896ED913E
:10073000FC91199715A614A681E090E0A0E0B0E026
:1007400086A797A7A0ABB1AB12AA13AA14AA15AAA1
:1007500008952F923F924F925F926F927F928F9265
:100760009F92AF92BF92CF92DF92EF92FF920F9340
:100770001F93CF93DF9300D000D01F92CDB7DEB789
:100780005B834A83FA011182108280E592E09383B1
:10079000828380EB91E09583848380E090E0A0EAFF
:1007A000B0E486839783A087B18780E090E0A0E0E3
:1007B000B1E482879387A487B5876D3011F06A30E2
:1007C00029F481E0EA81FB81838B03C0EA81FB810C
:1007D000138A80EE860F8F3508F074C08A819B8162
:1007E0009D838C8381E0EC81FD81828BF5E06F9F9E
:1007F000B0011124EC81FD8116861786108A118ABA
:1008000000E010E0812C912C5B01F6E0AF0EB11CF2
:10081000402EF501E00FF11FEA57FF4FE491E12C64
:10082000F12C2E2E312C512C612C712CE982C1011E
:100830000E2C02C0959587950A94E2F780FF33C08D
:10084000EC81FD8186859785A089B1890196A11DDE
:10085000B11D86879787A08BB18B6401CC0CDD1C02
:10086000CC0CDD1CC601805B9D4F9B838A83C3013A
:10087000B2010E944F1EEA81FB81608371838283F3
:100880009383C60180559E4F6C016E2D70E080E011
:1008900090E00E944F1EF6016083718382839383F0
:1008A000FFEF8F1A9F0A2FEFE21AF20A88E0E8168C
:1008B000F10409F0BBCF0F5F1F4F0530110509F0A0
:1008C000A7CF03C0EA81FB81128A0F900F900F908F
:1008D0000F900F90DF91CF911F910F91FF90EF90AC
:1008E000DF90CF90BF90AF909F908F907F906F9050
:1008F0005F904F903F902F9008952F923F924F928C
:100900005F926F927F928F929F92AF92BF92CF929F
:10091000DF92EF92FF920F931F93CF93DF93CDB7A8
:10092000DEB760970FB6F894DEBF0FBECDBF9A83D7
:1009300089834B014F87588B3E832D8318870F8304
:10094000FA86E986412C512C3201D601C501AA272D
:10095000BB278B879C87AD87BE87AD81BE81A815DD
:10096000B90508F444C02F8438888F819885821592
:100970009305C8F1A981BA81ED91FC91119700848A
:10098000F185E02DA301920169857A85CD01099554
:100990009C838B83C301B2016F5F7F4F8F4F9F4F4B
:1009A0002B853C854D855E850E9417202B013C01DF
:1009B00066247724A981BA81ED91FC911197048472
:1009C000F585E02DA12CB12C6501E12CF12C8701DE
:1009D000E3942B813C81A101B401CD010995BFEFC6
:1009E0002B1A3B0AC2CF8FEF881A980AB6CF6096AF
:1009F0000FB6F894DEBF0FBECDBFDF91CF911F9130
:100A00000F91FF90EF90DF90CF90BF90AF909F90AD
:100A10008F907F906F905F904F903F902F900895B0
:100A20002F923F924F925F926F927F928F929F92FE
:100A3000AF92BF92CF92DF92EF92FF920F931F93EC
:100A4000CF93DF93CDB7DEB72A970FB6F894DEBF0A
:100A50000FBECDBFC114D104E104F10409F4ACC050
:100A6000260137011E830D8379018A017A87698700
:100A70001C01D301C201AA27BB2789839A83AB83B8
:100A8000BC83C501B4018827992729813A814B810C
:100A90005C810E9417202B013C0166247724D10140
:100AA000ED91FC910084F185E02DA30192016D810F
:100AB0007E81C10109952F8D222309F43FC0980141
:100AC0002E193F0938872F834801AF81B8858A16D0
:100AD0009B0609F471C0D101ED91FC910484F58568
:100AE000E02DA12CB12C6501E12CF12C8701E394C0
:100AF0009C01A40169857A85C1010995C301B201F0
:100B00006F5F7F4F8F4F9F4F29813A814B815C816F
:100B10000E9417202B013C0166247724D101ED911E
:100B2000FC910084F185E02DA30192016D817E810D
:100B3000C1010995B1E08B1A9108C7CF9701200F29
:100B4000311F38872F834801AF81B8858A169B06ED
:100B500099F1D101ED91FC910484F585E02DA12C52
:100B6000B12C6501E12CF12C8701E3949C01A401D7
:100B700069857A85C1010995C301B2016F5F7F4F15
:100B80008F4F9F4F29813A814B815C810E941720B2
:100B90002B013C0166247724D101ED91FC91008466
:100BA000F185E02DA30192016D817E81C10109953E
:100BB000BFEF8B1A9B0AC8CF2A960FB6F894DEBFF8
:100BC0000FBECDBFDF91CF911F910F91FF90EF909E
:100BD000DF90CF90BF90AF909F908F907F906F905D
:100BE0005F904F903F902F9008952F923F924F9299
:100BF0005F926F927F928F929F92AF92BF92CF92AD
:100C0000DF92EF92FF920F931F93CF93DF93CDB7B5
:100C1000DEB72A970FB6F894DEBF0FBECDBFC11462
:100C2000D104E104F10409F4ACC0260137011E83AC
:100C30000D8379015A8749878B011C01D301C201B9
:100C4000AA27BB2789839A83AB83BC83C501B401E0
:100C50008827992729813A814B815C810E9417203E
:100C60002B013C0166247724D101ED91FC91008495
:100C7000F185E02DA30192016D817E81C10109956D
:100C80002F8D222309F43FC098012E193F09388780
:100C90002F834801AF81B8858A169B0609F471C07D
:100CA000D101ED91FC910484F585E02DA12CB12CAE
:100CB0006501E12CF12C8701E3949C0149855A855B
:100CC000B401C1010995C301B2016F5F7F4F8F4F1E
:100CD0009F4F29813A814B815C810E9417202B0113
:100CE0003C0166247724D101ED91FC910084F185CB
:100CF000E02DA30192016D817E81C1010995B1E0D2
:100D00008B1A9108C7CF9701200F311F38872F8387
:100D10004801AF81B8858A169B0699F1D101ED9102
:100D2000FC910484F585E02DA12CB12C6501E12C0A
:100D3000F12C8701E3949C0149855A85B401C101D6
:100D40000995C301B2016F5F7F4F8F4F9F4F29817C
:100D50003A814B815C810E9417202B013C01662463
:100D60007724D101ED91FC910084F185E02DA30160
:100D700092016D817E81C1010995BFEF8B1A9B0A9B
:100D8000C8CF2A960FB6F894DEBF0FBECDBFDF9155
:100D9000CF911F910F91FF90EF90DF90CF90BF9078
:100DA000AF909F908F907F906F905F904F903F900B
:100DB0002F900895FC01848DDF01A80FB11DA35A67
:100DC000BF4F2C91848D90E001968F739927848F6B
:100DD000A689B7892C93A089B1898C91837080648E
:100DE0008C93938D848D981306C00288F389E02D2F
:100DF00080818F7D80830895EF92FF920F931F93E0
:100E0000CF93DF93EC0181E0888F9B8D8C8D9813BD
:100E100005C0E889F989808185FD26C0F62E0B8DF5
:100E200010E00F5F1F4F0F731127E02E8C8DE8121B
:100E30000CC00FB607FCFACFE889F989808185FFDD
:100E4000F5CFCE010E94DA06F1CF8B8DFE01E80FBF
:100E5000F11DE35AFF4FF0829FB7F8940B8FEA8998
:100E6000FB89808180620AC09FB7F894EE89FF8970
:100E70006083E889F98980818370806480839FBF63
:100E800081E090E0DF91CF911F910F91FF90EF9063
:100E90000895CF93DF93EC01888D8823C9F0EA8908
:100EA000FB89808185FD05C0A889B9898C9186FD63
:100EB0000FC00FB607FCF5CF808185FFF2CFA88960
:100EC000B9898C9185FFEDCFCE010E94DA06E7CF7C
:100ED000DF91CF9108958F929F92AF92BF92CF9260
:100EE000DF92EF92FF920F931F93CF93DF936115E1
:100EF000710509F491C0EA016B017C01FC010085D8
:100F00001185F8012223E9F16481758180E090E088
:100F10000E944F1EF60120813181428153810E943F
:100F2000361D4B015C0120E030E0A9010E94A21DAA
:100F300087FF04C01982188291E007C0C501B4017F
:100F40000E94201E7983688390E0F8012681378112
:100F5000488159812417350720F43983288381E09B
:100F600001C080E0F8012481358148815981421710
:100F7000530718F43983288391E0F70126813781DC
:100F80003CC06081718180E090E00E944F1EF601BC
:100F900020813181428153810E94361D4B015C01C9
:100FA00020E030E0A9010E94A21D87FF04C0198241
:100FB000188291E007C0C501B4010E94201E798308
:100FC000688390E0F8012281338148815981241798
:100FD000350720F43983288381E001C080E0F801DF
:100FE00020813181488159814217530718F4398390
:100FF000288391E0F7012481358148815981421786
:10100000530728F0215031093983288308C0811102
:1010100006C0892F90E005C083E090E002C082E026
:1010200090E0DF91CF911F910F91FF90EF90DF90B3
:10103000CF90BF90AF909F908F9008952F923F9246
:101040004F925F926F927F928F929F92AF92BF92D8
:10105000CF92DF92EF92FF920F931F93CF93DF9384
:10106000CDB7DEB72C970FB6F894DEBF0FBECDBF5D
:101070004C01DC01ED91FC910688F789E02D4CE9EB
:1010800051E00995F40100851185D80112966D9102
:101090007C9113978D919C91681B790B80E090E077
:1010A0000E944F1E2091A2013091A3014091A40102
:1010B0005091A5010E94351DF8012085318542859A
:1010C00053850E94A21D87FF3DC0C090A601D0900D
:1010D000A701E090A801F090A901D8011C964D90BD
:1010E0005D906D907C901F9716966D917C911797EF
:1010F00014968D919C911597681B790B80E090E078
:101100000E944F1EA70196010E94351DA301920166
:101110000E94A21D87FDCCC0F80180899189A28917
:10112000B38980879187A287B387A3019201C70102
:10113000B6010E94361DD8011C966D937D938D9348
:101140009C931F978091AE01882309F4A3C0612C62
:10115000712C212C312C21018091AA019091AB019D
:10116000A091AC01B091AD01F40100851185281664
:1011700039064A065B0608F06CC0E091A001F091C8
:10118000A101E60DF71DD8011C962D913D914D91C1
:101190005C911F9760817181828193810E94361DCD
:1011A0006B017C01E0919E01F0919F01E60DF71D1E
:1011B000D80118962D913D914D915C911B976081BE
:1011C0007181828193810E94361D6D837E838F831E
:1011D0009887C982DA82EB82FC8220E0AE01455F0B
:1011E0005F4FBE016B5F7F4FC4010E946B078C0194
:1011F00021E0AE01475F5F4FBE016F5F7F4FC401CB
:101200000E946B07012BE1F4892BD1F4D4011896CD
:10121000ED91FC911997A2A8B3A8C4A8D5A8E6A4FB
:10122000F7A400A911A924A535A549855A856B8580
:101230007C85ED91FC910484F585E02DC401099530
:10124000BFEF2B1A3B0A4B0A5B0AE4E06E0E711CDF
:1012500083CF20E030E040E85FE36091A20170912D
:10126000A3018091A4019091A5010E94361D9B01CC
:10127000AC01D80118966D917D918D919C911B9731
:101280000E94361DF801608771878287938781E00D
:1012900090E002C080E090E0F401A085B18524E1F7
:1012A000ECE9F1E0589601900D922A95E1F702C021
:1012B00080E090E02C960FB6F894DEBF0FBECDBF55
:1012C000DF91CF911F910F91FF90EF90DF90CF9022
:1012D000BF90AF909F908F907F906F905F904F9056
:1012E0003F902F9008950F931F93CF93DF93FB01AF
:1012F000EA0137FD0DC0C901B801640F751F811DDA
:10130000911D9F0140E050E00E941720CB0115C0C5
:1013100088279927DC01801B910BA20BB30B0E943D
:101320000320C817D90710F09E0104C0BE016E0F3C
:101330007F1F9B01281B390BC901DF91CF911F91A2
:101340000F9108952F923F924F925F926F927F92EA
:101350008F929F92AF92BF92CF92DF92EF92FF92C5
:101360000F931F93CF93DF93CDB7DEB768970FB678
:10137000F894DEBF0FBECDBF1C017E876D875E83F4
:101380004D83388F2F8B18870F83DA86C986898221
:101390009A82AB82BC82B9A829813A814B815C8157
:1013A000211531054105510509F42FC24427552760
:1013B0002F87388B498B5A8B8DA59EA5AFA5B8A9D1
:1013C000BC01CD01882799270E9417206B8B7C8B4D
:1013D0008D8B9E8B2B013C01662477248F89988D01
:1013E0004D855E85841B950BDC011196BC87AB8710
:1013F000D101ED91FC91EE2009F4E7C00084F18564
:10140000E02DA3019201B601C10109952AA9222369
:1014100009F48AC0BB2009F444C02D813E814F816C
:1014200058854217530708F4F0C1D101ED91FC91A2
:10143000B1E0BF930684F785E02D812C912C5401F7
:10144000C12CD12C7601C3948C012B853C854F8116
:1014500058856F89788DC1010995C301B2016F5F0D
:101460007F4F8F4F9F4F2F85388949895A890E9416
:1014700017202B013C0166247724D101ED91FC91CA
:101480000084F185E02DA301920169857A85C1016F
:1014900009952F8138852150310938872F830F9086
:1014A000BCCF4F815885AD81BE814A175B0708F4D8
:1014B000ACC1D101ED91FC911F920684F785E02D1E
:1014C000812C912C5401C12CD12C7601C3948C0118
:1014D0002B853C854D815E816D857E85C101099599
:1014E000C301B2016F5F7F4F8F4F9F4F2F853889A8
:1014F00049895A890E9417202B013C0166247724D0
:10150000D101ED91FC910084F185E02DA3019201C0
:1015100069857A85C10109952D813E812F5F3F4FF5
:101520003E832D830F90BDCFBB2041F14D815E8165
:101530008F8198858417950708F467C1D101ED91D3
:10154000FC91B1E0BF930684F785E02D5301420181
:10155000C980DA80EB80FC8009851A852B853C8563
:101560004F8158856F89788DC10109952F81388504
:101570002150310938872F830F90D8CF4F8158855C
:101580008D819E814817590708F43FC1D101ED9123
:10159000FC911F920684F785E02D53014201C9801A
:1015A000DA80EB80FC8009851A852B853C854D818E
:1015B0005E816D857E85C10109952D813E812F5FFC
:1015C0003F4F3E832D830F90D9CF8F8198854D81DA
:1015D0005E81841B950BDC011197B88BAF87BB2014
:1015E00009F486C04F5F5F4F1F920088F189E02D9C
:1015F00053014201C980DA80EB80FC8009851A859D
:101600002F8538896D857E85C10109952F8538899B
:101610002901612C712C930182014B895C896981BC
:101620007A81C1010E9473099C8B8B8B4C01A12C88
:10163000B12CD101ED91FC911F920684F785E02D2C
:10164000C980DA80EB80FC8009851A852B853C8572
:101650004F8158856D857E85C10109954B855C85D7
:101660008A0120E030E04B895C8969817A81C1017F
:101670000E9473099E878D874C01A12CB12C4F814C
:10168000588541505109D101ED91FC91B1E0BF93D2
:101690000088F189E02DC980DA80EB80FC80098523
:1016A0001A852F8538896F89788DC1010995930135
:1016B00082014D855E8569817A81C1010E9473092D
:1016C0004C01A12CB12CD101ED91FC91B1E0BF9363
:1016D0000684F785E02DC980DA80EB80FC800985DF
:1016E0001A852B853C854D815E816F89788D87C0F9
:1016F0001F920684F785E02D53014201C980DA80EC
:10170000EB80FC8009851A852B853C854D815E81A7
:101710006D857E85C10109952B853C852901612C4C
:10172000712C930182014B895C8969817A81C101A5
:101730000E9473099C8B8B8B4C01A12CB12C4D8189
:101740005E814F5F5F4FD101ED91FC911F92008848
:10175000F189E02DC980DA80EB80FC8009851A854B
:101760002F8538896F89788DC10109954F855889F2
:101770008A0120E030E04B895C8969817A81C1016E
:101780000E9473099E838D834C01A12CB12CD10141
:10179000ED91FC91B1E0BF930684F785E02DC980FF
:1017A000DA80EB80FC8009851A852B853C854F818A
:1017B00058856F89788DC1010995930182014D810A
:1017C0005E8169817A81C1010E9473094C01A12C5B
:1017D000B12C4F81588541505109D101ED91FC91B7
:1017E000B1E0BF930088F189E02DC980DA80EB80F9
:1017F000FC8009851A852F8538896D857E85C10114
:1018000009950F900F900F900F9068960FB6F8946F
:10181000DEBF0FBECDBFDF91CF911F910F91FF9023
:10182000EF90DF90CF90BF90AF909F908F907F9080
:101830006F905F904F903F902F900895FC01208112
:101840002EBD9B012150310941F051810DB407FE9D
:10185000FDCF4EB55EBD4193F5CF61507109FC01DE
:10186000E60FF71F0DB407FEFDCF8EB580830895F8
:10187000CF92DF92EF92FF920F931F93CF93DF935C
:101880006C017A018B01C0E0D0E0CE15DF0581F05C
:10189000D8016D918D01D601ED91FC910190F081FF
:1018A000E02DC6010995892B11F02196EECF7E011E
:1018B000C701DF91CF911F910F91FF90EF90DF90C3
:1018C000CF9008950E945E2083E593E00E94480334
:1018D00021E0892B09F420E0822F08953FB7F89486
:1018E00080914F0390915003A0915103B091520306
:1018F00026B5A89B05C02F3F19F00196A11DB11D6B
:101900003FBFBA2FA92F982F8827820F911DA11DA5
:10191000B11DBC01CD0142E0660F771F881F991FE2
:101920004A95D1F708951F920F920FB60F92112486
:101930002F933F938F939F93AF93BF9380914B03CC
:1019400090914C03A0914D03B0914E0330914A0306
:1019500023E0230F2D3720F40196A11DB11D05C0F2
:1019600026E8230F0296A11DB11D20934A03809300
:101970004B0390934C03A0934D03B0934E0380917F
:101980004F0390915003A0915103B09152030196DF
:10199000A11DB11D80934F0390935003A093510359
:1019A000B0935203BF91AF919F918F913F912F912F
:1019B0000F900FBE0F901F9018951F920F920FB6A9
:1019C0000F9211242F933F934F935F936F937F93C5
:1019D0008F939F93AF93BF93EF93FF9383E593E030
:1019E0000E94DA06FF91EF91BF91AF919F918F9185
:1019F0007F916F915F914F913F912F910F900FBE0B
:101A00000F901F9018951F920F920FB60F921124EE
:101A10002F938F939F93EF93FF93E0916303F09144
:101A200064038081E0916903F0916A0382FD12C032
:101A3000908180916C038F5F8F7320916D0382176B
:101A400051F0E0916C03F0E0ED5AFC4F958F8093DC
:101A50006C0301C08081FF91EF919F918F912F9135
:101A60000F900FBE0F901F901895089580E090E0A2
:101A700008956F927F928F929F92AF92BF92CF9272
:101A8000DF92EF92FF920F931F93CF93DF93EC01BE
:101A900088889988AA88BB88E880F9800A811B8198
:101AA00068847984CA84DB849301A601B701C801E4
:101AB0000E94011F18162CF0B62DA72DFC2DED2D20
:101AC00004C0BE2DAF2DF02FE12FA50194016B2F87
:101AD0007A2F8F2F9E2F0E94011F87FD53C09301E5
:101AE000A601B701C8010E94A21D87FD02C07301B3
:101AF0008601A5019401B701C8010E94A21D181614
:101B00000CF440C08C889D88AE88BF88EC80FD8036
:101B10000E811F817C84CD84DE84CF85272D3C2DD2
:101B20004D2D5C2FB701C8010E94011F18162CF023
:101B3000B72DAC2DFD2DEC2F04C0BE2DAF2DF02FF9
:101B4000E12FA50194016B2F7A2F8F2F9E2F0E94DA
:101B5000011F87FD17C0272D3C2D4D2D5C2FB70190
:101B6000C8010E94A21D87FD04C0E72CFC2C0D2D8E
:101B70001C2FC1E0A5019401B701C8010E94A21D5C
:101B800018160CF4C0E08C2FDF91CF911F910F91AC
:101B9000FF90EF90DF90CF90BF90AF909F908F908D
:101BA0007F906F9008954F925F926F927F928F9285
:101BB0009F92AF92BF92CF92DF92EF92FF92CF931C
:101BC000DF93EC01CC84DD84EE84FF8488849984E7
:101BD000AA84BB842C813D814E815F81C701B601FF
:101BE0000E94351D2B013C01A5019401688979896A
:101BF0008A899B890E94351D9B01AC01C301B201FA
:101C00000E94061F2B013C01288139814A815B819A
:101C1000C501B4010E94351D4B015C01A70196016D
:101C20006C897D898E899F890E94351D9B01AC013D
:101C3000C501B4010E94061F9B01AC01C301B201A2
:101C40000E94351D6B017C0120E030E0A9010E945B
:101C5000A21D882361F020E030E0A901C701B60190
:101C60000E94011F181634F080E090E005C081E06A
:101C700090E002C082E090E0DF91CF91FF90EF9082
:101C8000DF90CF90BF90AF909F908F907F906F909C
:101C90005F904F9008958F929F92AF92BF92CF9294
:101CA000DF92EF92FF920F931F93CF93DF93CDB705
:101CB000DEB7C05DD1090FB6F894DEBF0FBECDBF51
:101CC000CF53DF4F8882C15CD040CE53DF4F988224
:101CD000C25CD040CD53DF4FA882C35CD040CC5310
:101CE000DF4FB882C45CD040CB53DF4FC882C55CA5
:101CF000D040CA53DF4FD882C65CD040C953DF4FB3
:101D0000E882C75CD040C853DF4FF882C85CD0403F
:101D1000C753DF4F0883C95CD040C653DF4F1883D9
:101D2000CA5CD040C553DF4F2883CB5CD040C4533E
:101D3000DF4F3883CC5CD040C353DF4F4883CD5C4A
:101D4000D040C253DF4F5883CE5CD040C153DF4FE9
:101D50006883CF5CD040C053DF4F7883C05DD040F4
:101D600028E0FC01DE01AF59BF4F01900D922A958A
:101D7000E1F728E0FC013896DE01A759BF4F01903A
:101D80000D922A95E1F728E0FE01EF53FF4FDE01A7
:101D9000AF58BF4F01900D922A95E1F728E0FE0160
:101DA000EF59FF4FDE01119601900D922A95E1F750
:101DB00028E0FE01E759FF4FDE01199601900D92D0
:101DC0002A95E1F728E0FE01EF58FF4FDE0151961A
:101DD00001900D922A95E1F728E0FC01DE01A75859
:101DE000BF4F01900D922A95E1F728E0FC0138964B
:101DF000DE01AF57BF4F01900D922A95E1F728E021
:101E0000E1ECF0E0EC0FFD1F3896DE01A757BF4F65
:101E100001900D922A95E1F728E0FE01E758FF4F67
:101E2000DE01599601900D922A95E1F728E0FE0116
:101E3000EF57FF4FDE01919601900D922A95E1F741
:101E400028E0FE01E757FF4FDE01999601900D92C1
:101E50002A95E1F728E0FE01EF53FF4FDE01AF5670
:101E6000BF4F01900D922A95E1F728E0E1ECF0E0F8
:101E7000EC0FFD1F3896DE01A756BF4F01900D9263
:101E80002A95E1F728E0FC01DE01AF55BF4F019034
:101E90000D922A95E1F728E0FE01EF56FF4FDE0193
:101EA000D19601900D922A95E1F728E0FE01E756C0
:101EB000FF4FDE01D99601900D922A95E1F728E0B7
:101EC000FE01EF55FF4FDE01AF5BBF4F01900D925A
:101ED0002A95E1F728E0FE01EF53FF4FDE01A755F9
:101EE000BF4F01900D922A95E1F728E0E1ECF0E078
:101EF000EC0FFD1F3896DE01AF54BF4F01900D92DD
:101F00002A95E1F728E0FC013896DE01A754BF4F7F
:101F100001900D922A95E1F788E0FE01E755FF4F09
:101F2000DE01A75BBF4F01900D928A95E1F788E033
:101F3000FE01EF54FF4FA9E4B0E0AC0FBD1F1896AF
:101F400001900D928A95E1F788E0FE01E754FF4F7A
:101F5000A9E4B0E0AC0FBD1F509601900D928A9598
:101F6000E1F7CE0101960E94D30D5C01CE014996A6
:101F70000E94D30D7C01CE01C1960E94D30D6C014D
:101F8000CE01875B9F4F0E94D30D8C01AE14BF041E
:101F900019F0C816D90651F4AA94AB2849F4CE0119
:101FA00001960E94390D81111FC002C081E01CC042
:101FB000CA94CD2831F4CE01C1960E94390D811109
:101FC00013C0EA94EF2831F4CE0149960E94390DEE
:101FD00081110AC00130110531F4CE01875B9F4F9A
:101FE0000E94390D01C080E0C053DF4F0FB6F89456
:101FF000DEBF0FBECDBFDF91CF911F910F91FF903C
:10200000EF90DF90CF90BF90AF909F908F9008950A
:102010002F923F924F925F926F927F928F929F92F8
:10202000AF92BF92CF92DF92EF92FF920F931F93E6
:10203000CF93DF93CDB7DEB7CA55D1090FB6F89469
:10204000DEBF0FBECDBF22960FAF229723961FAFE4
:10205000239724962FAF249725963FAF2597269652
:102060004FAF269727965FAF279728966FAF289791
:1020700029967FAF2997F02E012F122FE32EFC0116
:1020800024803580F1014080518062807380F4812A
:102090002A96FFAF2A97F101F5812D96FFAF2D9774
:1020A000F101F6812E96FFAF2E97F101F7812F9661
:1020B000FFAF2F97FC010280F381E02D6B96FFAFFD
:1020C000EEAF6B972C963FAE2EAE2C9761012A9601
:1020D000FFAD2A976696FFAF66972D962FAD2D9789
:1020E00067962FAF67972E963FAD2E9768963FAFB6
:1020F00068972F968FAD2F9769968FAF69976296E5
:102100004FAE629763965FAE639764966FAE6497C7
:1021100065967FAE6597E1E0F0E06196FFAFEEAFC8
:1021200061976B962EAD3FAD6B9761968EAD9FAD6F
:1021300061978217930708F07CC0F6018084918430
:10214000A284B3849201A301B401C5010E94A21D1F
:1021500087FD02C02401350162962FAD6297639618
:102160003FAD639764964FAD649765965FAD659795
:10217000B401C5010E94011F181664F062968FAE6B
:10218000629763969FAE63976496AFAE64976596C9
:10219000BFAE6597F60184849584A684B7842A9699
:1021A0002FAD2A972D963FAD2D972E964FAD2E979A
:1021B0002F965FAD2F97B401C5010E94A21D87FD28
:1021C0000CC02A968FAE2A972D969FAE2D972E96ED
:1021D000AFAE2E972F96BFAE2F9766962FAD669710
:1021E00067963FAD679768964FAD689769965FAD04
:1021F0006997B401C5010E94011F181664F0669624
:102200008FAE669767969FAE67976896AFAE6897F2
:102210006996BFAE699761962EAD3FAD61972F5F0E
:102220003F4F61963FAF2EAF619738E0C30ED11C90
:1022300078CF62962FAD629763963FAD63976496B1
:102240004FAD649765965FAD65976F2D702F812FA9
:102250009E2D0E94A21D87FD0BC19201A3016F2D2F
:10226000702F812F9E2D0E94011F18160CF400C1A3
:1022700029968CAC9DACAEACBFAC299766962FADC1
:10228000669767963FAD679768964FAD6897699672
:102290005FAD6997C501B4010E94A21D87FDE8C02A
:1022A0002A962FAD2A972D963FAD2D972E964FAD9E
:1022B0002E972F965FAD2F97C501B4010E94011F85
:1022C00018160CF4D5C09201A3016F2D702F812F29
:1022D0009E2D0E94A21D87FD04C04F2C502E612E02
:1022E0007E2C8F2D902FA12FBE2D898B9A8BAB8B9F
:1022F000BC8B8D8A9E8AAF8AB88EC201D301898F2A
:102300009A8FAB8FBC8F8D8E9E8EAF8EB8A2412CD4
:10231000512C2A961FAE2A976B966EAC7FAC6B97AA
:1023200081E0681A71084614570408F055C09FEF01
:10233000491A590A88E02C96EEADFFAD2C97DE01C4
:10234000D19601900D928A95E1F788E02C96EEAD3A
:10235000FFAD2C973896DE01D99601900D928A95A3
:10236000E1F788E0FE01F196DE01119601900D92F1
:102370008A95E1F788E0FE01F996DE011996019051
:102380000D928A95E1F789809A80AB80BC80CD80E0
:10239000DE80EF80F88409851A852B853C854D8584
:1023A0005E856F857889CE0141960E944B0E882309
:1023B00041F02A96EFAD2A97F1E0EF272A96EFAF8A
:1023C0002A972C962EAD3FAD2C97285F3F4F2C9629
:1023D0003FAF2EAF2C97A7CFF30183E0EE0FFF1F87
:1023E0008A95E1F7E20DF31D88E0DE0191960190F8
:1023F0000D928A95E1F788E0F101DE01999601904E
:102400000D928A95E1F788E0FE01B196DE01119602
:1024100001900D928A95E1F788E0FE01B996DE0100
:10242000199601900D928A95E1F789809A80AB8088
:10243000BC80CD80DE80EF80F88409851A852B85ED
:102440003C854D855E856F857889CE0141960E94D9
:102450004B0E882341F081E02A963FAD2A9738271A
:102460002A963FAF2A972A968FAD2A97817001C08E
:1024700080E0C65ADF4F0FB6F894DEBF0FBECDBF67
:10248000DF91CF911F910F91FF90EF90DF90CF9050
:10249000BF90AF909F908F907F906F905F904F9084
:1024A0003F902F900895CF93DF9300D000D000D0BD
:1024B000CDB7DEB72BE230E03E832D8379836A838C
:1024C0005B834C83DC01ED91FC910190F081E02D68
:1024D00024E030E0AE014F5F5F4FBE016B5F7F4F86
:1024E000099526960FB6F894DEBF0FBECDBFDF91DB
:1024F000CF910895CF93DF9300D000D000D0CDB717
:10250000DEB72AE230E03E832D8379836A835B83E2
:102510004C83DC01ED91FC910190F081E02D24E0F1
:1025200030E0AE014F5F5F4FBE016B5F7F4F09959B
:1025300026960FB6F894DEBF0FBECDBFDF91CF91C8
:10254000089508956115710511F00C941E0C0895FD
:102550008CBD9DBD0895CF92DF92EF92FF920F93B5
:102560001F93CF93DF93EC016B018A01790160E047
:1025700088850E944B138B859C850E94A812C114EC
:10258000D10461F060E08E810E944B13F6018081DE
:102590008EBD00000DB407FEFDCF8EB501151105EF
:1025A00059F0E114F10441F061E08E810E944B1377
:1025B000B701C8010E94A21261E088850E944B13F6
:1025C00080E090E0DF91CF911F910F91FF90EF900D
:1025D000DF90CF900895009769F0FC0101900020F2
:1025E000E9F73197AF01481B590BBC0183E593E034
:1025F0000C94380C80E090E00895CF93DF9300D0E6
:102600001F92CDB7DEB7DC0186E390E09A83898321
:10261000411102C01B8202C080E88B83662319F03F
:102620009B8190649B839B8198609B83ED91FC913F
:1026300011970190F081E02D21E030E0AE014D5F77
:102640005F4FBE016F5F7F4FCD0109950F900F90D7
:102650000F90DF91CF91089590E0FC01ED53FA4F78
:102660002491FC01E155FA4F8491882399F090E080
:10267000880F991FFC01EB55FA4FA591B491FC010D
:10268000E556FA4F859194918FB7F894EC91E22B2F
:10269000EC938FBF089590E0FC01E957FA4F249125
:1026A000FC01ED53FA4F3491FC01E155FA4FE491EE
:1026B000EE2309F43CC0222339F1233091F038F4A1
:1026C0002130A9F0223001F584B58F7D12C027306A
:1026D00091F02830A1F02430B9F4809180008F7DF2
:1026E00003C0809180008F77809380000DC084B5F7
:1026F0008F7784BD09C08091B0008F7703C080912F
:10270000B0008F7D8093B000F0E0EE0FFF1FE55624
:10271000FA4FA591B4919FB7F894611104C08C91C0
:102720003095382302C0EC913E2B3C939FBF089517
:102730002F923F924F925F926F927F928F929F92D1
:10274000AF92BF92CF92DF92EF92FF920F931F93BF
:10275000CF93DF93CDB7DEB7C259D1400FB6F8940F
:10276000DEBF0FBECDBF3C011B01C057DE4F5983FA
:102770004883C059D1402901C157DE4F0883CF5843
:10278000D140CE56DE4F1883C259D140C501B401A5
:1027900088279927A7019601442755270E941720CB
:1027A0004B015C01AA24BB24D301ED91FC91028072
:1027B000F381E02DA5019401B801C3010995F3014E
:1027C0008481958103978430910528F4FC01E15FB1
:1027D000FE4F108101C010E0C955DE4FF881C75A85
:1027E000D140FF23A9F041E060E0C3010E94FD1247
:1027F000D301ED91FC9136970190F081E02DE60D2B
:10280000F71D848195810197FC01E219F3091F01ED
:10281000A20141505109420D531DB101C3010E9453
:102820007A12C057DE4F48815981C059D140BA0150
:10283000C3010E9453128CE290E0C357DE4F99838C
:102840008883CD58D140D301ED91FC910190F08166
:10285000E02D20E030E040E050E0BE0163577E4FC5
:10286000C301099560E0F30180850E944B1361E08C
:10287000D30116968C910E944B13F30183859485A6
:102880000E94A812F1E0CF16D104E104F10499F5F9
:10289000C12ED12C9E012F5F3F4F40E050E0C90177
:1028A000C157DE4F0881CF58D14044165506C9F0B4
:1028B000B901C157DE4FE881CF58D140CE56DE4F27
:1028C000F881C259D140FE2EF01AF11628F4F19089
:1028D000DB01FD92BD01F7CF4F5F5F4F2C0D3D1D1A
:1028E000E4CF4C9CB0014D9C700D5C9C700D11248C
:1028F0000E94A2124DC01601E12FF0E0C057DE4F3A
:10290000F983E883C059D1404114510409F440C00F
:1029100064017101E818F908D301ED91FC9102807E
:10292000F381E02DA5019401C157DE4F6881CF5896
:10293000D140CE56DE4F7881C259D140C3010995AE
:102940008201E414F50408F48701C057DE4FE881E2
:10295000F981C059D140E09FB001E19F700DF09F17
:10296000700D11240E94A212401A510A20E030E09A
:10297000D301ED91FC91369780819181A601B1013F
:10298000860D971D0E9473094C01A12CB12CBCCF60
:102990000E94A11261E0F30180850E944B13C9558A
:1029A000DE4FF881C75AD140FF2329F041E061E0B2
:1029B000C3010E94FD12CE56DE4F0FB6F894DEBF63
:1029C0000FBECDBFDF91CF911F910F91FF90EF9080
:1029D000DF90CF90BF90AF909F908F907F906F903F
:1029E0005F904F903F902F9008952F923F924F927B
:1029F0005F926F927F928F929F92AF92BF92CF928F
:102A0000DF92EF92FF920F931F93CF93DF93CDB797
:102A1000DEB7CE5ED1400FB6F894DEBF0FBECDBF9D
:102A20003C01C351DE4F79836883CD5ED1401A01EA
:102A30002901C551DE4F0883CB5ED140C451DE4F22
:102A40001883CC5ED140C501B40188279927A7011E
:102A50009601442755270E9417204B015C01AA24A8
:102A6000BB24D301ED91FC910280F381E02DA501FF
:102A70009401B801C3010995F301848195810397FD
:102A80008430910550F4FC01E15FFE4F2081C75175
:102A9000DE4F2883C95ED14005C0C751DE4F188282
:102AA000C95ED140CD5FDD4F3881C350D240332362
:102AB000A9F040E061E0C3010E94FD12D301ED9155
:102AC000FC9136970190F081E02DE60DF71D86818F
:102AD00097810197FC01E219F3091F01820101505E
:102AE0001109020D131DC351DE4F48815981CD5E7E
:102AF000D140BA01C3010E947A12A801B101C301F9
:102B00000E9453128CE290E0C951DE4F9983888372
:102B1000C75ED140D301ED91FC910190F081E02D91
:102B200020E030E040E050E0BE0169517E4FC3013B
:102B3000099560E0F30180850E944B1361E0D301A9
:102B400016968C910E944B13F301838594850E9405
:102B5000A812F1E0CF16D104E104F104E9F5C75160
:102B6000DE4FF880C95ED140CF2CD12C9E012F5F63
:102B70003F4F40E050E0C901C551DE4F1881CB5EA8
:102B8000D14044165506F1F0B901C551DE4FE88138
:102B9000CB5ED140C451DE4FF881CC5ED1400E2FC8
:102BA000011BC751DE4FF880C95ED1400F1528F4D4
:102BB0000191DB010D93BD01F2CF4F5F5F4F2C0DF3
:102BC0003D1DDFCF4C9CB0014D9C700D5C9C700D89
:102BD00011240E94A21252C01601C751DE4FF88183
:102BE000C95ED140EF2FF0E0C751DE4FF983E88393
:102BF000C95ED1404114510409F440C0640171011F
:102C0000E818F908D301ED91FC910280F381E02DE1
:102C1000A5019401C551DE4F6881CB5ED140C451FE
:102C2000DE4F7881CC5ED140C30109958201E41466
:102C3000F50408F48701C751DE4FE881F981C95EC8
:102C4000D140E09FB001E19F700DF09F700D112405
:102C50000E94A212401A510A20E030E0D301ED9107
:102C6000FC91369780819181A601B101860D971D57
:102C70000E9473094C01A12CB12CBCCF0E94A1125F
:102C800061E0F30180850E944B13CD5FDD4FF8803A
:102C9000C350D240FF2029F041E061E0C3010E940F
:102CA000FD12C251DE4F0FB6F894DEBF0FBECDBF8E
:102CB000DF91CF911F910F91FF90EF90DF90CF9018
:102CC000BF90AF909F908F907F906F905F904F904C
:102CD0003F902F9008958F929F92AF92BF92CF9284
:102CE000DF92EF92FF926B017C010E946E0C4B0110
:102CF0005C01C114D104E104F104F1F00E946E0CF6
:102D0000DC01CB0188199909AA09BB09883E9340C7
:102D1000A105B10570F321E0C21AD108E108F1085C
:102D200088EE880E83E0981EA11CB11CC114D1044A
:102D3000E104F10419F7DDCFFF90EF90DF90CF9021
:102D4000BF90AF909F908F900895FB0111821082E9
:102D5000158214822FE730E0338322832FE930E09D
:102D6000378326831086118612861386148615866D
:102D700016861786108A118A128A138A148A158A6F
:102D8000168A178A118E108E138E128E158E148E3F
:102D9000168E178E10A211A212A213A214A215A2AF
:102DA00016A217A210A611A612A613A617AA16AA53
:102DB000FC01A081B18116972D913C91E20FF31F88
:102DC0000084F185E02D15A614A681E090E0A0E036
:102DD000B0E086A797A7A0ABB1AB12AA13AA14AA1A
:102DE00015AA0895DC01ED91FC9170972081318145
:102DF000820F931F0C94A5168F929F92AF92BF9251
:102E0000CF92DF92EF92FF920F931F93CF93DF93B6
:102E1000CDB7DEB7DC01ED91FC9176970190F081A2
:102E2000E02DAF85AF938E0F9F1F0E94D51B0F9093
:102E3000DF91CF911F910F91FF90EF90DF90CF9096
:102E4000BF90AF909F908F900895CF93DF93CDB7B1
:102E5000DEB7C456D1090FB6F894DEBF0FBECDBFA2
:102E6000789484B5826084BD84B5816084BD85B565
:102E7000826085BD85B5816085BD80916E00816071
:102E800080936E0010928100809181008260809317
:102E90008100809181008160809381008091800019
:102EA0008160809380008091B10084608093B10044
:102EB0008091B00081608093B00080917A0084603E
:102EC00080937A0080917A00826080937A0080916A
:102ED0007A00816080937A0080917A008068809384
:102EE0007A001092C100E0916303F091640392E0D4
:102EF0009083E0915F03F09160031082E0916103A1
:102F0000F091620380E1808310926B03E09167038C
:102F1000F091680326E02083E0916503F091660359
:102F2000808180618083E0916503F09166038081F8
:102F300088608083E0916503F091660380818068FA
:102F40008083E0916503F091660380818F7D8083AB
:102F50002093F6039093F70385E08093F80383E0D2
:102F60008093FE0384E08093FD0387E493E09093D5
:102F7000FA038093F90380E58093FB031092FC032E
:102F80001FB7F8948091F002811124C0E9EBF5E0BD
:102F90008491EDECF5E09491E82FF0E0EE0FFF1F47
:102FA000EB55FA4FA591B491EC91E92321F461E03E
:102FB0008AE00E944B138AE00E942C138CB580613A
:102FC0008CBD8CB580648CBD8DE00E942C138BE091
:102FD0000E942C138091F0028F5F8093F0021FBF3C
:102FE0008091F8030E942C138091F7030E942C1308
:102FF0008091F6030E942C138091FE030E942C13F3
:103000008091FD030E942C1361E08091F8030E94DF
:103010004B1361E08091F7030E944B1361E08091B4
:10302000F6030E944B1361E08091FE030E944B1354
:1030300061E08091FD030E944B13E091F003F09159
:10304000F10336970190F081E02DE051FC4F60854F
:10305000718580EF93E00E94A5168091FB0390910B
:10306000FC030E94A81261E070E0CE01835B9F4FD9
:103070000E941E0C0E94A11261E08091F7030E9441
:103080004B136AE070E080E090E00E946B1660E015
:103090008091F7030E944B136AE070E080E090E0BB
:1030A0000E946B1661E08091F7030E944B1368E762
:1030B00070E080E090E00E946B1681E190E09A83DE
:1030C000898320E030E040E050E0CE0101963C01F1
:1030D000BC0180EF93E00E94AB12892B09F069C11B
:1030E00064E170E080E090E00E946B1686E290E080
:1030F0009A83898384E089AF8E01075C1F4F21E0AA
:1031000030E0A801B30180EF93E00E94AB12892B5D
:1031100009F04FC181EB90E09AAF89AF4CE0F42EFB
:10312000F98284E18A8322E030E0A301B80180EFD4
:1031300093E00E94AB12892B09F03BC180EC90E038
:103140009AAF89AFF98285E08A8322E030E0A3015B
:10315000B80180EF93E00E94AB12892B09F029C1DE
:1031600081EC90E09A83898332E0F32EF9AE21E07E
:1031700030E0A801B30180EF93E00E94AB12892BED
:1031800009F017C182EC90E09A838983F9AE21E0BF
:1031900030E0A801B30180EF93E00E94AB12892BCD
:1031A00009F007C185EC90E09AAF89AF80E289838E
:1031B00085E58A8322E030E0A301B80180EF93E047
:1031C0000E94AB12892B09F0F4C087EC90E09A833F
:1031D000898380E489AF21E030E0A801B30180EF6A
:1031E00093E00E94AB12892B09F0E3C08AE390E0E0
:1031F0009A83898386E089AF86E090E09093F50317
:103200008093F40321E030E0A801B30180EF93E064
:103210000E94AB12892B09F0CCC04FE750E060E070
:1032200070E080EF93E00E947A12892B09F0C1C010
:103230004FE950E060E070E080EF93E00E945312AD
:10324000892B09F0B6C041E061E080EF93E00E9475
:10325000FD12892B09F0ADC087EB90E09A8389833A
:1032600019AE21E030E0A801B30180EF93E00E94A5
:10327000AB12892B09F09DC082EF90E09A8389837D
:1032800081E089AF21E030E0A801B30180EF93E055
:103290000E94AB12892B09F08CC0B0E1DB2ED80163
:1032A000ED2D1D92EA95E9F786E389AF89E28AAFB1
:1032B00082E18BAF92E29CAF9CE19DAF95E1F92E4C
:1032C000FEAE92E49FAF97EB21969FAF21979FE2CE
:1032D00022969FAF229723E1E22E2396EFAE23970B
:1032E00024968FAF24978AE025968FAF259781E1AA
:1032F00026968FAF26978BE027968FAF279786E08D
:1033000028968FAF289780EE90E09A83898320E1FA
:1033100030E0A801B30180EF93E00E94AB12892B4B
:1033200009F047C0D3011D92DA94E9F789E0898357
:1033300086E18A838DE28B838DE08C83ED82FE8231
:1033400080E48F8388E4888783E589878CE08A8797
:103350008DE18B8785E28C878EE28D8784E38E8773
:1033600089E38F8781EE90E02B969FAF8EAF2B97EE
:1033700020E130E0A301BE01675B7F4F80EF93E067
:103380000E94AB1264E170E080E090E00E946B1656
:1033900089E290E02B969FAF8EAF2B9720E030E034
:1033A00040E050E0BE01675B7F4F80EF93E00E94FA
:1033B000AB1209E213E0E12CF12CB70180E090E0C0
:1033C0000E944F1E20E030E040E251E40E94A71D21
:1033D0009B01AC010E94361D26E53EE049E450E425
:1033E0000E94061F0E94731F20E030E04EEF52E45F
:1033F0000E94061F20E030E04EEF52E40E94361D8E
:103400004B015C0120E030E0A9010E94011F20E097
:1034100030E040E05FE387FD05C0C501B4010E94D4
:10342000361D04C0C501B4010E94351D0E94191E3D
:10343000F801108261831282FFEFEF1AFF0A0D5F1D
:103440001F4F2AE0E216F10409F0B7CFE091F00334
:10345000F091F10336970190F081E02DE051FC4F9F
:1034600080859185A5969FAF8EAFA5977186608662
:10347000B30180EF93E00E94A51619AE1AAE1BAE01
:10348000E091F003F091F103369780819181DC01A6
:10349000A051BC4F2D0118960D911C911997F80160
:1034A0006681778184819581681B790B80E090E04B
:1034B0000E944F1E6B017C01D80112966D917C9188
:1034C00013978D919C91681B790B80E090E00E948E
:1034D0004F1E6D966CAF7DAF8EAF9FAF6D976996A7
:1034E000CCAEDDAEEEAEFFAE699765961CAE1DAEFE
:1034F0001EAE1FAE659761961CAE1DAE1EAE1FAE12
:10350000619721E0AE01435A5F4FBE016F5A7F4F72
:10351000C2010E946B077C0121E0AE01475B5F4F57
:10352000BE016B5A7F4FC2010E946B078C0120E0E5
:10353000AE014F595F4FBE01635B7F4FC2010E94D6
:103540006B071C0120E0AE01415A5F4FBE01675A74
:103550007F4FC2010E946B07B1E0EB16F10421F42A
:103560000130110541F441C0E2E0EE16F10419F416
:1035700002301105D1F1F1E02F16310419F4019751
:1035800039F433C022E02216310411F4029769F1B4
:103590002B960EAD1FAD2B97A1962EAD3FADA197EB
:1035A0006F964EAD5FAD6F97A3966EAD7FADA3974F
:1035B000D201ED91FC911F921F921F921F921F92B8
:1035C0001F920288F389E02D812C912C5401839461
:1035D000CE01C9966C01EE24E394C20109950F90C7
:1035E0000F900F900F900F900F90E091F003F091DB
:1035F000F10336970190F081E02DE051FC4FA59644
:10360000AEADBFADA597B187A08761EF72E080EF47
:1036100093E00E94A5168AE090E09093F2028093D6
:10362000F1029093F6028093F50281EF92E090937D
:1036300008048093070487E891E00E94EB1284E974
:1036400091E00E94EB12212C312C9EED492E92E448
:10365000592E8090480390904903C401019690939D
:1036600049038093480319AE1AAE1BAE1CAE80E02E
:1036700090E0A0E8B2E489839A83AB83BC832D9663
:103680002CAE3DAE4EAE5FAE2D9720E0AE014F5951
:103690005F4FB3018FEF93E00E946B077C0120E046
:1036A000AE01415A5F4FBE01675B7F4F8FEF93E0E2
:1036B0000E946B078C0121E0AE01435A5F4FBE01AF
:1036C000675C7F4F8FEF93E00E946B07892BB9F502
:1036D00091E0E916F10421F40130110541F42FC005
:1036E000A2E0EA16F10419F40230110541F1A396A3
:1036F0006EAD7FADA397A1968EAD9FADA1978617B6
:10370000970728F001969C01261B370B05C09B01EB
:103710002F5F3F4F281B390BA12CB12C6F964EAD5C
:103720005FAD6F971F9285E0C82ED12CE12CF12C54
:1037300000E011E08FEF93E00E94211C0F9087E9D9
:1037400091E00E94EB1284E991E00E94EB1264E6A2
:1037500070E080E090E00E946B160E94540379CFE5
:10376000FC01848195818530910561F08630910559
:1037700019F0039769F406C0C901880F991F280F33
:10378000391F02C0220F331FCB01820F931F0895F0
:10379000CB010895DC01ED91FC913E970190F08101
:1037A000E02D8E0F9F1F0C94B01B8F929F92AF92B3
:1037B000BF92CF92DF92EF92FF920F931F93CF931E
:1037C000DF93CDB7DEB70115110541F021153105A5
:1037D00029F0EF85EF930E94F5140F90DF91CF91C0
:1037E0001F910F91FF90EF90DF90CF90BF90AF901F
:1037F0009F908F9008958F929F92AF92BF92CF9299
:10380000DF92EF92FF920F931F93CF93DF93CDB789
:10381000DEB70115110541F02115310529F0EF85BD
:10382000EF930E9498130F90DF91CF911F910F910A
:10383000FF90EF90DF90CF90BF90AF909F908F90D0
:1038400008958F929F92AF92BF92CF92DF92EF92A4
:10385000FF920F931F93CF93DF93CDB7DEB7DC01B9
:10386000ED91FC9174970190F081E02DAF85AF93BD
:103870008E0F9F1F0E94FB1B0F90DF91CF911F9116
:103880000F91FF90EF90DF90CF90BF90AF909F90FF
:103890008F9008952F923F924F925F926F927F92F6
:1038A0008F929F92AF92BF92CF92DF92EF92FF9250
:1038B0000F931F93CF93DF9300D0CDB7DEB7FC01FA
:1038C0002115310509F448C0D601C50117012801A9
:1038D00039016A014B018F01BC01CD01882799276D
:1038E000A2019101442755270E9417209B01AC019A
:1038F00044275527D801ED91FC910280F381E02DFA
:10390000B301C80109957C01A401B401C8010E945A
:103910007A12A601B601C8010E945312F8018481EF
:10392000958103978430910528F4FC01E15FFE4FF7
:10393000208101C020E08CE290E09A83898330E00E
:10394000D801ED91FC910190F081E02DA701BE011D
:103950006F5F7F4FC80109950F900F90DF91CF9156
:103960001F910F91FF90EF90DF90CF90BF90AF909D
:103970009F908F907F906F905F904F903F902F908F
:103980000895AF92BF92CF92DF92EF92FF920F9382
:103990001F93DC01ED91FC9172970190F081E02D75
:1039A0008E0F9F1F0E944A1C1F910F91FF90EF9056
:1039B000DF90CF90BF90AF900895CF93DF93E3E572
:1039C000F3E01382128288EE93E0A0E0B0E08483FB
:1039D0009583A683B78387E191E09183808385EC0B
:1039E00090E09587848784EC90E09787868780ECC9
:1039F00090E0918B808B81EC90E0938B828B82ECBA
:103A000090E0958B848B86EC90E0978B868B118E63
:103A1000128E138E148EC0EFD3E01A8A198A89E2AF
:103A200091E0988B8F8780E890E09C8B8B8B80EA6D
:103A300090E09E8B8D8B89E094E0988F8F8BBC01FA
:103A40008FEF93E00E945E031B821A8280E58B87D2
:103A500081E08C8787E491E0998388838FE691E009
:103A6000988B8F87DF91CF9108955058BB27AA2755
:103A70000E944D1D0C94C71E0E94B91E38F00E9472
:103A8000C01E20F039F49F3F19F426F40C94B61EA2
:103A90000EF4E095E7FB0C94B01EE92F0E94D81EAF
:103AA00058F3BA17620773078407950720F079F473
:103AB000A6F50C94FA1E0EF4E0950B2EBA2FA02D4D
:103AC0000B01B90190010C01CA01A0011124FF27CB
:103AD000591B99F0593F50F4503E68F11A16F040C6
:103AE000A22F232F342F4427585FF3CF46953795C5
:103AF0002795A795F0405395C9F77EF41F16BA0B8A
:103B0000620B730B840BBAF09150A1F0FF0FBB1F37
:103B1000661F771F881FC2F70EC0BA0F621F731F80
:103B2000841F48F4879577956795B795F7959E3FDD
:103B300008F0B0CF9395880F08F09927EE0F97956E
:103B4000879508950E948C1E08F481E008950E94D4
:103B5000BB1D0C94C71E0E94C01E58F00E94B91EC7
:103B600040F029F45F3F29F00C94B01E51110C94E1
:103B7000FB1E0C94B61E0E94D81E68F39923B1F365
:103B8000552391F3951B550BBB27AA276217730783
:103B9000840738F09F5F5F4F220F331F441FAA1F17
:103BA000A9F335D00E2E3AF0E0E832D091505040D3
:103BB000E695001CCAF72BD0FE2F29D0660F771F81
:103BC000881FBB1F261737074807AB07B0E809F067
:103BD000BB0B802DBF01FF2793585F4F3AF09E3FEC
:103BE000510578F00C94B01E0C94FB1E5F3FE4F37B
:103BF000983ED4F3869577956795B795F7959F5F2F
:103C0000C9F7880F911D9695879597F90895E1E07A
:103C1000660F771F881FBB1F621773078407BA07D9
:103C200020F0621B730B840BBA0BEE1F88F7E09534
:103C300008950E94201E6894B1110C94FB1E0895F3
:103C40000E94E01E88F09F5798F0B92F9927B7512E
:103C5000B0F0E1F0660F771F881F991F1AF0BA9530
:103C6000C9F714C0B13091F00E94FA1EB1E0089576
:103C70000C94FA1E672F782F8827B85F39F0B93F68
:103C8000CCF3869577956795B395D9F73EF49095E3
:103C90008095709561957F4F8F4F9F4F0895E89461
:103CA00009C097FB3EF490958095709561957F4F84
:103CB0008F4F9F4F9923A9F0F92F96E9BB27939532
:103CC000F695879577956795B795F111F8CFFAF442
:103CD000BB0F11F460FF1BC06F5F7F4F8F4F9F4F73
:103CE00016C0882311F096E911C0772321F09EE8D1
:103CF000872F762F05C0662371F096E8862F70E037
:103D000060E02AF09A95660F771F881FDAF7880F10
:103D10009695879597F90895990F0008550FAA0B66
:103D2000E0E8FEEF16161706E807F907C0F01216CE
:103D30001306E407F50798F0621B730B840B950BD1
:103D400039F40A2661F0232B242B252B21F4089526
:103D50000A2609F4A140A6958FEF811D811D0895C3
:103D600097F99F6780E870E060E008959FEF80EC2E
:103D7000089500240A9416161706180609060895D1
:103D800000240A9412161306140605060895092E37
:103D90000394000C11F4882352F0BB0F40F4BF2BA6
:103DA00011F460FF04C06F5F7F4F8F4F9F4F0895E6
:103DB00057FD9058440F551F59F05F3F71F04795DC
:103DC000880F97FB991F61F09F3F79F087950895C1
:103DD000121613061406551FF2CF4695F1DF08C0E0
:103DE000161617061806991FF1CF869571056105FD
:103DF00008940895E894BB2766277727CB0197F9A5
:103E000008950E948C1E08F48FEF08950E94191FD8
:103E10000C94C71E0E94B91E38F00E94C01E20F0EC
:103E2000952311F00C94B01E0C94B61E11240C9422
:103E3000FB1E0E94D81E70F3959FC1F3950F50E0B2
:103E4000551F629FF001729FBB27F00DB11D639F4C
:103E5000AA27F00DB11DAA1F649F6627B00DA11DF2
:103E6000661F829F2227B00DA11D621F739FB00D98
:103E7000A11D621F839FA00D611D221F749F332708
:103E8000A00D611D231F849F600D211D822F762FA1
:103E90006A2F11249F5750409AF0F1F088234AF07E
:103EA000EE0FFF1FBB1F661F771F881F91505040EA
:103EB000A9F79E3F510580F00C94B01E0C94FB1E98
:103EC0005F3FE4F3983ED4F3869577956795B79571
:103ED000F795E7959F5FC1F7FE2B880F911D96958B
:103EE000879597F908959F930E947D1F0F9007FC77
:103EF000EE5F0C94A61F0C94B61E0E94E01ED8F331
:103F0000E894E0E0BB279F57F0F02AED3FE049EC52
:103F100006C0EE0FBB0F661F771F881F28F0B23A4E
:103F200062077307840728F0B25A620B730B840B85
:103F3000E3959A9572F7803830F49A95BB0F661F17
:103F4000771F881FD2F790480C94BC1FEF93E0FFB7
:103F500007C0A2EA2AED3FE049EC5FEB0E944D1D4D
:103F60000E94C71E0F90039401FC9058E8E6F0E011
:103F70000C94C81F9F3F31F0915020F4879577959E
:103F80006795B795880F911D9695879597F9089530
:103F90009F938F937F936F93FF93EF939B01AC015C
:103FA0000E94061FEF91FF910E94DC1F2F913F910D
:103FB0004F915F910C94061FDF93CF931F930F9344
:103FC000FF92EF92DF927B018C01689406C0DA2E9B
:103FD000EF010E94191FFE01E894A59125913591EA
:103FE00045915591A6F3EF010E944D1DFE019701E9
:103FF000A801DA9469F7DF90EF90FF900F911F917D
:10400000CF91DF910895AA1BBB1B51E107C0AA1FE6
:10401000BB1FA617B70710F0A61BB70B881F991F69
:104020005A95A9F780959095BC01CD010895052E6C
:1040300097FB1EF400940E942E2057FD07D00E948B
:10404000362007FC03D04EF40C942E20509540955A
:10405000309521953F4F4F4F5F4F08959095809534
:10406000709561957F4F8F4F9F4F0895A1E21A2E53
:10407000AA1BBB1BFD010DC0AA1FBB1FEE1FFF1F0C
:10408000A217B307E407F50720F0A21BB30BE40B5C
:10409000F50B661F771F881F991F1A9469F76095A3
:1040A0007095809590959B01AC01BD01CF0108955D
:1040B000EE0FFF1F0590F491E02D099481E090E050
:0A40C000F8940C946320F894FFCFED
:1040CA00000000003F00007F0000BF0000FF000268
:1040DA0000020300000000FC06380C1703490748D9
:1040EA000326033A03000000001E08380C360D357B
:1040FA000D620C5E03620CF5051005A2097D04A988
:10410A00030F0000000000AB12B01B4A1CFB1BD5BA
:10411A001BA516000000000000F1FFF1FFF1FFF1FE
:10412A00FFF1FF0000000000000000F1FF00001E88
:10413A0008380C360D350DCA1BF216C11C211CFCA1
:10414A0016A2097D04A903456E64206F6620736573
:0C415A00747570000D0A004C6F6F70004F
:107E0000112484B714BE81FFF0D085E080938100F7
:107E100082E08093C00088E18093C10086E0809377
:107E2000C20080E18093C4008EE0C9D0259A86E02C
:107E300020E33CEF91E0309385002093840096BBD3
:107E4000B09BFECF1D9AA8958150A9F7CC24DD24C4
:107E500088248394B5E0AB2EA1E19A2EF3E0BF2EE7
:107E6000A2D0813461F49FD0082FAFD0023811F036
:107E7000013811F484E001C083E08DD089C08234E0
:107E800011F484E103C0853419F485E0A6D080C0E4
:107E9000853579F488D0E82EFF2485D0082F10E0AE
:107EA000102F00270E291F29000F111F8ED06801E7
:107EB0006FC0863521F484E090D080E0DECF843638
:107EC00009F040C070D06FD0082F6DD080E0C81688
:107ED00080E7D80618F4F601B7BEE895C0E0D1E017
:107EE00062D089930C17E1F7F0E0CF16F0E7DF06D8
:107EF00018F0F601B7BEE89568D007B600FCFDCFD4
:107F0000A601A0E0B1E02C9130E011968C91119780
:107F100090E0982F8827822B932B1296FA010C0160
:107F200087BEE89511244E5F5F4FF1E0A038BF0790
:107F300051F7F601A7BEE89507B600FCFDCF97BE46
:107F4000E89526C08437B1F42ED02DD0F82E2BD052
:107F50003CD0F601EF2C8F010F5F1F4F84911BD097
:107F6000EA94F801C1F70894C11CD11CFA94CF0C13
:107F7000D11C0EC0853739F428D08EE10CD085E9AC
:107F80000AD08FE07ACF813511F488E018D01DD067
:107F900080E101D065CF982F8091C00085FFFCCF94
:107FA0009093C60008958091C00087FFFCCF809118
:107FB000C00084FD01C0A8958091C6000895E0E648
:107FC000F0E098E1908380830895EDDF803219F02E
:107FD00088E0F5DFFFCF84E1DECF1F93182FE3DFCA
:107FE0001150E9F7F2DF1F91089580E0E8DFEE27F6
:047FF000FF270994CA
:027FFE00040479
:0400000300007E007B
:00000001FF
